{
	"contracts/Note.sol": {
		"NoteContract": {
			"abi": [
				{
					"inputs": [],
					"stateMutability": "nonpayable",
					"type": "constructor"
				},
				{
					"anonymous": false,
					"inputs": [
						{
							"indexed": false,
							"internalType": "address",
							"name": "",
							"type": "address"
						},
						{
							"indexed": false,
							"internalType": "string",
							"name": "note",
							"type": "string"
						}
					],
					"name": "NewNote",
					"type": "event"
				},
				{
					"inputs": [
						{
							"internalType": "string",
							"name": "note",
							"type": "string"
						}
					],
					"name": "addNote",
					"outputs": [],
					"stateMutability": "nonpayable",
					"type": "function"
				},
				{
					"inputs": [
						{
							"internalType": "address",
							"name": "own",
							"type": "address"
						}
					],
					"name": "getNotesLen",
					"outputs": [
						{
							"internalType": "uint256",
							"name": "",
							"type": "uint256"
						}
					],
					"stateMutability": "view",
					"type": "function"
				},
				{
					"inputs": [
						{
							"internalType": "address",
							"name": "",
							"type": "address"
						},
						{
							"internalType": "uint256",
							"name": "",
							"type": "uint256"
						}
					],
					"name": "notes",
					"outputs": [
						{
							"internalType": "string",
							"name": "",
							"type": "string"
						}
					],
					"stateMutability": "view",
					"type": "function"
				}
			],
			"devdoc": {
				"kind": "dev",
				"methods": {},
				"version": 1
			},
			"evm": {
				"assembly": "    /* \"contracts/Note.sol\":57:460  contract NoteContract {... */\n  mstore(0x40, 0x80)\n    /* \"contracts/Note.sol\":135:156  constructor() {... */\n  callvalue\n  dup1\n  iszero\n  tag_1\n  jumpi\n  0x00\n  dup1\n  revert\ntag_1:\n  pop\n    /* \"contracts/Note.sol\":57:460  contract NoteContract {... */\n  dataSize(sub_0)\n  dup1\n  dataOffset(sub_0)\n  0x00\n  codecopy\n  0x00\n  return\nstop\n\nsub_0: assembly {\n        /* \"contracts/Note.sol\":57:460  contract NoteContract {... */\n      mstore(0x40, 0x80)\n      callvalue\n      dup1\n      iszero\n      tag_1\n      jumpi\n      0x00\n      dup1\n      revert\n    tag_1:\n      pop\n      jumpi(tag_2, lt(calldatasize, 0x04))\n      shr(0xe0, calldataload(0x00))\n      dup1\n      0x787b582d\n      eq\n      tag_3\n      jumpi\n      dup1\n      0xa4edff47\n      eq\n      tag_4\n      jumpi\n      dup1\n      0xe0b117ff\n      eq\n      tag_5\n      jumpi\n    tag_2:\n      0x00\n      dup1\n      revert\n        /* \"contracts/Note.sol\":356:458  function getNotesLen(address own) public view returns (uint) {... */\n    tag_3:\n      tag_6\n      0x04\n      dup1\n      calldatasize\n      sub\n      dup2\n      add\n      swap1\n      tag_7\n      swap2\n      swap1\n      tag_8\n      jump\t// in\n    tag_7:\n      tag_9\n      jump\t// in\n    tag_6:\n      mload(0x40)\n      tag_10\n      swap2\n      swap1\n      tag_11\n      jump\t// in\n    tag_10:\n      mload(0x40)\n      dup1\n      swap2\n      sub\n      swap1\n      return\n        /* \"contracts/Note.sol\":220:350  function addNote( string memory note) public {... */\n    tag_4:\n      tag_12\n      0x04\n      dup1\n      calldatasize\n      sub\n      dup2\n      add\n      swap1\n      tag_13\n      swap2\n      swap1\n      tag_14\n      jump\t// in\n    tag_13:\n      tag_15\n      jump\t// in\n    tag_12:\n      stop\n        /* \"contracts/Note.sol\":85:128  mapping(address => string [] ) public notes */\n    tag_5:\n      tag_16\n      0x04\n      dup1\n      calldatasize\n      sub\n      dup2\n      add\n      swap1\n      tag_17\n      swap2\n      swap1\n      tag_18\n      jump\t// in\n    tag_17:\n      tag_19\n      jump\t// in\n    tag_16:\n      mload(0x40)\n      tag_20\n      swap2\n      swap1\n      tag_21\n      jump\t// in\n    tag_20:\n      mload(0x40)\n      dup1\n      swap2\n      sub\n      swap1\n      return\n        /* \"contracts/Note.sol\":356:458  function getNotesLen(address own) public view returns (uint) {... */\n    tag_9:\n        /* \"contracts/Note.sol\":411:415  uint */\n      0x00\n        /* \"contracts/Note.sol\":434:439  notes */\n      dup1\n        /* \"contracts/Note.sol\":434:444  notes[own] */\n      0x00\n        /* \"contracts/Note.sol\":440:443  own */\n      dup4\n        /* \"contracts/Note.sol\":434:444  notes[own] */\n      0xffffffffffffffffffffffffffffffffffffffff\n      and\n      0xffffffffffffffffffffffffffffffffffffffff\n      and\n      dup2\n      mstore\n      0x20\n      add\n      swap1\n      dup2\n      mstore\n      0x20\n      add\n      0x00\n      keccak256\n        /* \"contracts/Note.sol\":434:451  notes[own].length */\n      dup1\n      sload\n      swap1\n      pop\n        /* \"contracts/Note.sol\":427:451  return notes[own].length */\n      swap1\n      pop\n        /* \"contracts/Note.sol\":356:458  function getNotesLen(address own) public view returns (uint) {... */\n      swap2\n      swap1\n      pop\n      jump\t// out\n        /* \"contracts/Note.sol\":220:350  function addNote( string memory note) public {... */\n    tag_15:\n        /* \"contracts/Note.sol\":275:280  notes */\n      0x00\n        /* \"contracts/Note.sol\":275:292  notes[msg.sender] */\n      dup1\n        /* \"contracts/Note.sol\":281:291  msg.sender */\n      caller\n        /* \"contracts/Note.sol\":275:292  notes[msg.sender] */\n      0xffffffffffffffffffffffffffffffffffffffff\n      and\n      0xffffffffffffffffffffffffffffffffffffffff\n      and\n      dup2\n      mstore\n      0x20\n      add\n      swap1\n      dup2\n      mstore\n      0x20\n      add\n      0x00\n      keccak256\n        /* \"contracts/Note.sol\":298:302  note */\n      dup2\n        /* \"contracts/Note.sol\":275:303  notes[msg.sender].push(note) */\n      swap1\n      dup1\n      0x01\n      dup2\n      sload\n      add\n      dup1\n      dup3\n      sstore\n      dup1\n      swap2\n      pop\n      pop\n      0x01\n      swap1\n      sub\n      swap1\n      0x00\n      mstore\n      keccak256(0x00, 0x20)\n      add\n      0x00\n      swap1\n      swap2\n      swap1\n      swap2\n      swap1\n      swap2\n      pop\n      swap1\n      dup2\n      tag_25\n      swap2\n      swap1\n      tag_26\n      jump\t// in\n    tag_25:\n      pop\n        /* \"contracts/Note.sol\":318:343  NewNote(msg.sender, note) */\n      0xf2555d00e065d582c4653357dbcf43cf8e0d291c35cc0faad6cf8467e8398c92\n        /* \"contracts/Note.sol\":326:336  msg.sender */\n      caller\n        /* \"contracts/Note.sol\":338:342  note */\n      dup3\n        /* \"contracts/Note.sol\":318:343  NewNote(msg.sender, note) */\n      mload(0x40)\n      tag_27\n      swap3\n      swap2\n      swap1\n      tag_28\n      jump\t// in\n    tag_27:\n      mload(0x40)\n      dup1\n      swap2\n      sub\n      swap1\n      log1\n        /* \"contracts/Note.sol\":220:350  function addNote( string memory note) public {... */\n      pop\n      jump\t// out\n        /* \"contracts/Note.sol\":85:128  mapping(address => string [] ) public notes */\n    tag_19:\n      mstore(0x20, 0x00)\n      dup2\n      0x00\n      mstore\n      keccak256(0x00, 0x40)\n      dup2\n      dup2\n      sload\n      dup2\n      lt\n      tag_29\n      jumpi\n      0x00\n      dup1\n      revert\n    tag_29:\n      swap1\n      0x00\n      mstore\n      keccak256(0x00, 0x20)\n      add\n      0x00\n      swap2\n      pop\n      swap2\n      pop\n      pop\n      dup1\n      sload\n      tag_31\n      swap1\n      tag_32\n      jump\t// in\n    tag_31:\n      dup1\n      0x1f\n      add\n      0x20\n      dup1\n      swap2\n      div\n      mul\n      0x20\n      add\n      mload(0x40)\n      swap1\n      dup2\n      add\n      0x40\n      mstore\n      dup1\n      swap3\n      swap2\n      swap1\n      dup2\n      dup2\n      mstore\n      0x20\n      add\n      dup3\n      dup1\n      sload\n      tag_33\n      swap1\n      tag_32\n      jump\t// in\n    tag_33:\n      dup1\n      iszero\n      tag_34\n      jumpi\n      dup1\n      0x1f\n      lt\n      tag_35\n      jumpi\n      0x0100\n      dup1\n      dup4\n      sload\n      div\n      mul\n      dup4\n      mstore\n      swap2\n      0x20\n      add\n      swap2\n      jump(tag_34)\n    tag_35:\n      dup3\n      add\n      swap2\n      swap1\n      0x00\n      mstore\n      keccak256(0x00, 0x20)\n      swap1\n    tag_36:\n      dup2\n      sload\n      dup2\n      mstore\n      swap1\n      0x01\n      add\n      swap1\n      0x20\n      add\n      dup1\n      dup4\n      gt\n      tag_36\n      jumpi\n      dup3\n      swap1\n      sub\n      0x1f\n      and\n      dup3\n      add\n      swap2\n    tag_34:\n      pop\n      pop\n      pop\n      pop\n      pop\n      dup2\n      jump\t// out\n        /* \"#utility.yul\":7:82   */\n    tag_37:\n        /* \"#utility.yul\":40:46   */\n      0x00\n        /* \"#utility.yul\":73:75   */\n      0x40\n        /* \"#utility.yul\":67:76   */\n      mload\n        /* \"#utility.yul\":57:76   */\n      swap1\n      pop\n        /* \"#utility.yul\":7:82   */\n      swap1\n      jump\t// out\n        /* \"#utility.yul\":88:205   */\n    tag_38:\n        /* \"#utility.yul\":197:198   */\n      0x00\n        /* \"#utility.yul\":194:195   */\n      dup1\n        /* \"#utility.yul\":187:199   */\n      revert\n        /* \"#utility.yul\":211:328   */\n    tag_39:\n        /* \"#utility.yul\":320:321   */\n      0x00\n        /* \"#utility.yul\":317:318   */\n      dup1\n        /* \"#utility.yul\":310:322   */\n      revert\n        /* \"#utility.yul\":334:460   */\n    tag_40:\n        /* \"#utility.yul\":371:378   */\n      0x00\n        /* \"#utility.yul\":411:453   */\n      0xffffffffffffffffffffffffffffffffffffffff\n        /* \"#utility.yul\":404:409   */\n      dup3\n        /* \"#utility.yul\":400:454   */\n      and\n        /* \"#utility.yul\":389:454   */\n      swap1\n      pop\n        /* \"#utility.yul\":334:460   */\n      swap2\n      swap1\n      pop\n      jump\t// out\n        /* \"#utility.yul\":466:562   */\n    tag_41:\n        /* \"#utility.yul\":503:510   */\n      0x00\n        /* \"#utility.yul\":532:556   */\n      tag_85\n        /* \"#utility.yul\":550:555   */\n      dup3\n        /* \"#utility.yul\":532:556   */\n      tag_40\n      jump\t// in\n    tag_85:\n        /* \"#utility.yul\":521:556   */\n      swap1\n      pop\n        /* \"#utility.yul\":466:562   */\n      swap2\n      swap1\n      pop\n      jump\t// out\n        /* \"#utility.yul\":568:690   */\n    tag_42:\n        /* \"#utility.yul\":641:665   */\n      tag_87\n        /* \"#utility.yul\":659:664   */\n      dup2\n        /* \"#utility.yul\":641:665   */\n      tag_41\n      jump\t// in\n    tag_87:\n        /* \"#utility.yul\":634:639   */\n      dup2\n        /* \"#utility.yul\":631:666   */\n      eq\n        /* \"#utility.yul\":621:684   */\n      tag_88\n      jumpi\n        /* \"#utility.yul\":680:681   */\n      0x00\n        /* \"#utility.yul\":677:678   */\n      dup1\n        /* \"#utility.yul\":670:682   */\n      revert\n        /* \"#utility.yul\":621:684   */\n    tag_88:\n        /* \"#utility.yul\":568:690   */\n      pop\n      jump\t// out\n        /* \"#utility.yul\":696:835   */\n    tag_43:\n        /* \"#utility.yul\":742:747   */\n      0x00\n        /* \"#utility.yul\":780:786   */\n      dup2\n        /* \"#utility.yul\":767:787   */\n      calldataload\n        /* \"#utility.yul\":758:787   */\n      swap1\n      pop\n        /* \"#utility.yul\":796:829   */\n      tag_90\n        /* \"#utility.yul\":823:828   */\n      dup2\n        /* \"#utility.yul\":796:829   */\n      tag_42\n      jump\t// in\n    tag_90:\n        /* \"#utility.yul\":696:835   */\n      swap3\n      swap2\n      pop\n      pop\n      jump\t// out\n        /* \"#utility.yul\":841:1170   */\n    tag_8:\n        /* \"#utility.yul\":900:906   */\n      0x00\n        /* \"#utility.yul\":949:951   */\n      0x20\n        /* \"#utility.yul\":937:946   */\n      dup3\n        /* \"#utility.yul\":928:935   */\n      dup5\n        /* \"#utility.yul\":924:947   */\n      sub\n        /* \"#utility.yul\":920:952   */\n      slt\n        /* \"#utility.yul\":917:1036   */\n      iszero\n      tag_92\n      jumpi\n        /* \"#utility.yul\":955:1034   */\n      tag_93\n      tag_38\n      jump\t// in\n    tag_93:\n        /* \"#utility.yul\":917:1036   */\n    tag_92:\n        /* \"#utility.yul\":1075:1076   */\n      0x00\n        /* \"#utility.yul\":1100:1153   */\n      tag_94\n        /* \"#utility.yul\":1145:1152   */\n      dup5\n        /* \"#utility.yul\":1136:1142   */\n      dup3\n        /* \"#utility.yul\":1125:1134   */\n      dup6\n        /* \"#utility.yul\":1121:1143   */\n      add\n        /* \"#utility.yul\":1100:1153   */\n      tag_43\n      jump\t// in\n    tag_94:\n        /* \"#utility.yul\":1090:1153   */\n      swap2\n      pop\n        /* \"#utility.yul\":1046:1163   */\n      pop\n        /* \"#utility.yul\":841:1170   */\n      swap3\n      swap2\n      pop\n      pop\n      jump\t// out\n        /* \"#utility.yul\":1176:1253   */\n    tag_44:\n        /* \"#utility.yul\":1213:1220   */\n      0x00\n        /* \"#utility.yul\":1242:1247   */\n      dup2\n        /* \"#utility.yul\":1231:1247   */\n      swap1\n      pop\n        /* \"#utility.yul\":1176:1253   */\n      swap2\n      swap1\n      pop\n      jump\t// out\n        /* \"#utility.yul\":1259:1377   */\n    tag_45:\n        /* \"#utility.yul\":1346:1370   */\n      tag_97\n        /* \"#utility.yul\":1364:1369   */\n      dup2\n        /* \"#utility.yul\":1346:1370   */\n      tag_44\n      jump\t// in\n    tag_97:\n        /* \"#utility.yul\":1341:1344   */\n      dup3\n        /* \"#utility.yul\":1334:1371   */\n      mstore\n        /* \"#utility.yul\":1259:1377   */\n      pop\n      pop\n      jump\t// out\n        /* \"#utility.yul\":1383:1605   */\n    tag_11:\n        /* \"#utility.yul\":1476:1480   */\n      0x00\n        /* \"#utility.yul\":1514:1516   */\n      0x20\n        /* \"#utility.yul\":1503:1512   */\n      dup3\n        /* \"#utility.yul\":1499:1517   */\n      add\n        /* \"#utility.yul\":1491:1517   */\n      swap1\n      pop\n        /* \"#utility.yul\":1527:1598   */\n      tag_99\n        /* \"#utility.yul\":1595:1596   */\n      0x00\n        /* \"#utility.yul\":1584:1593   */\n      dup4\n        /* \"#utility.yul\":1580:1597   */\n      add\n        /* \"#utility.yul\":1571:1577   */\n      dup5\n        /* \"#utility.yul\":1527:1598   */\n      tag_45\n      jump\t// in\n    tag_99:\n        /* \"#utility.yul\":1383:1605   */\n      swap3\n      swap2\n      pop\n      pop\n      jump\t// out\n        /* \"#utility.yul\":1611:1728   */\n    tag_46:\n        /* \"#utility.yul\":1720:1721   */\n      0x00\n        /* \"#utility.yul\":1717:1718   */\n      dup1\n        /* \"#utility.yul\":1710:1722   */\n      revert\n        /* \"#utility.yul\":1734:1851   */\n    tag_47:\n        /* \"#utility.yul\":1843:1844   */\n      0x00\n        /* \"#utility.yul\":1840:1841   */\n      dup1\n        /* \"#utility.yul\":1833:1845   */\n      revert\n        /* \"#utility.yul\":1857:1959   */\n    tag_48:\n        /* \"#utility.yul\":1898:1904   */\n      0x00\n        /* \"#utility.yul\":1949:1951   */\n      0x1f\n        /* \"#utility.yul\":1945:1952   */\n      not\n        /* \"#utility.yul\":1940:1942   */\n      0x1f\n        /* \"#utility.yul\":1933:1938   */\n      dup4\n        /* \"#utility.yul\":1929:1943   */\n      add\n        /* \"#utility.yul\":1925:1953   */\n      and\n        /* \"#utility.yul\":1915:1953   */\n      swap1\n      pop\n        /* \"#utility.yul\":1857:1959   */\n      swap2\n      swap1\n      pop\n      jump\t// out\n        /* \"#utility.yul\":1965:2145   */\n    tag_49:\n        /* \"#utility.yul\":2013:2090   */\n      0x4e487b7100000000000000000000000000000000000000000000000000000000\n        /* \"#utility.yul\":2010:2011   */\n      0x00\n        /* \"#utility.yul\":2003:2091   */\n      mstore\n        /* \"#utility.yul\":2110:2114   */\n      0x41\n        /* \"#utility.yul\":2107:2108   */\n      0x04\n        /* \"#utility.yul\":2100:2115   */\n      mstore\n        /* \"#utility.yul\":2134:2138   */\n      0x24\n        /* \"#utility.yul\":2131:2132   */\n      0x00\n        /* \"#utility.yul\":2124:2139   */\n      revert\n        /* \"#utility.yul\":2151:2432   */\n    tag_50:\n        /* \"#utility.yul\":2234:2261   */\n      tag_105\n        /* \"#utility.yul\":2256:2260   */\n      dup3\n        /* \"#utility.yul\":2234:2261   */\n      tag_48\n      jump\t// in\n    tag_105:\n        /* \"#utility.yul\":2226:2232   */\n      dup2\n        /* \"#utility.yul\":2222:2262   */\n      add\n        /* \"#utility.yul\":2364:2370   */\n      dup2\n        /* \"#utility.yul\":2352:2362   */\n      dup2\n        /* \"#utility.yul\":2349:2371   */\n      lt\n        /* \"#utility.yul\":2328:2346   */\n      0xffffffffffffffff\n        /* \"#utility.yul\":2316:2326   */\n      dup3\n        /* \"#utility.yul\":2313:2347   */\n      gt\n        /* \"#utility.yul\":2310:2372   */\n      or\n        /* \"#utility.yul\":2307:2395   */\n      iszero\n      tag_106\n      jumpi\n        /* \"#utility.yul\":2375:2393   */\n      tag_107\n      tag_49\n      jump\t// in\n    tag_107:\n        /* \"#utility.yul\":2307:2395   */\n    tag_106:\n        /* \"#utility.yul\":2415:2425   */\n      dup1\n        /* \"#utility.yul\":2411:2413   */\n      0x40\n        /* \"#utility.yul\":2404:2426   */\n      mstore\n        /* \"#utility.yul\":2194:2432   */\n      pop\n        /* \"#utility.yul\":2151:2432   */\n      pop\n      pop\n      jump\t// out\n        /* \"#utility.yul\":2438:2567   */\n    tag_51:\n        /* \"#utility.yul\":2472:2478   */\n      0x00\n        /* \"#utility.yul\":2499:2519   */\n      tag_109\n      tag_37\n      jump\t// in\n    tag_109:\n        /* \"#utility.yul\":2489:2519   */\n      swap1\n      pop\n        /* \"#utility.yul\":2528:2561   */\n      tag_110\n        /* \"#utility.yul\":2556:2560   */\n      dup3\n        /* \"#utility.yul\":2548:2554   */\n      dup3\n        /* \"#utility.yul\":2528:2561   */\n      tag_50\n      jump\t// in\n    tag_110:\n        /* \"#utility.yul\":2438:2567   */\n      swap2\n      swap1\n      pop\n      jump\t// out\n        /* \"#utility.yul\":2573:2881   */\n    tag_52:\n        /* \"#utility.yul\":2635:2639   */\n      0x00\n        /* \"#utility.yul\":2725:2743   */\n      0xffffffffffffffff\n        /* \"#utility.yul\":2717:2723   */\n      dup3\n        /* \"#utility.yul\":2714:2744   */\n      gt\n        /* \"#utility.yul\":2711:2767   */\n      iszero\n      tag_112\n      jumpi\n        /* \"#utility.yul\":2747:2765   */\n      tag_113\n      tag_49\n      jump\t// in\n    tag_113:\n        /* \"#utility.yul\":2711:2767   */\n    tag_112:\n        /* \"#utility.yul\":2785:2814   */\n      tag_114\n        /* \"#utility.yul\":2807:2813   */\n      dup3\n        /* \"#utility.yul\":2785:2814   */\n      tag_48\n      jump\t// in\n    tag_114:\n        /* \"#utility.yul\":2777:2814   */\n      swap1\n      pop\n        /* \"#utility.yul\":2869:2873   */\n      0x20\n        /* \"#utility.yul\":2863:2867   */\n      dup2\n        /* \"#utility.yul\":2859:2874   */\n      add\n        /* \"#utility.yul\":2851:2874   */\n      swap1\n      pop\n        /* \"#utility.yul\":2573:2881   */\n      swap2\n      swap1\n      pop\n      jump\t// out\n        /* \"#utility.yul\":2887:3033   */\n    tag_53:\n        /* \"#utility.yul\":2984:2990   */\n      dup3\n        /* \"#utility.yul\":2979:2982   */\n      dup2\n        /* \"#utility.yul\":2974:2977   */\n      dup4\n        /* \"#utility.yul\":2961:2991   */\n      calldatacopy\n        /* \"#utility.yul\":3025:3026   */\n      0x00\n        /* \"#utility.yul\":3016:3022   */\n      dup4\n        /* \"#utility.yul\":3011:3014   */\n      dup4\n        /* \"#utility.yul\":3007:3023   */\n      add\n        /* \"#utility.yul\":3000:3027   */\n      mstore\n        /* \"#utility.yul\":2887:3033   */\n      pop\n      pop\n      pop\n      jump\t// out\n        /* \"#utility.yul\":3039:3464   */\n    tag_54:\n        /* \"#utility.yul\":3117:3122   */\n      0x00\n        /* \"#utility.yul\":3142:3208   */\n      tag_117\n        /* \"#utility.yul\":3158:3207   */\n      tag_118\n        /* \"#utility.yul\":3200:3206   */\n      dup5\n        /* \"#utility.yul\":3158:3207   */\n      tag_52\n      jump\t// in\n    tag_118:\n        /* \"#utility.yul\":3142:3208   */\n      tag_51\n      jump\t// in\n    tag_117:\n        /* \"#utility.yul\":3133:3208   */\n      swap1\n      pop\n        /* \"#utility.yul\":3231:3237   */\n      dup3\n        /* \"#utility.yul\":3224:3229   */\n      dup2\n        /* \"#utility.yul\":3217:3238   */\n      mstore\n        /* \"#utility.yul\":3269:3273   */\n      0x20\n        /* \"#utility.yul\":3262:3267   */\n      dup2\n        /* \"#utility.yul\":3258:3274   */\n      add\n        /* \"#utility.yul\":3307:3310   */\n      dup5\n        /* \"#utility.yul\":3298:3304   */\n      dup5\n        /* \"#utility.yul\":3293:3296   */\n      dup5\n        /* \"#utility.yul\":3289:3305   */\n      add\n        /* \"#utility.yul\":3286:3311   */\n      gt\n        /* \"#utility.yul\":3283:3395   */\n      iszero\n      tag_119\n      jumpi\n        /* \"#utility.yul\":3314:3393   */\n      tag_120\n      tag_47\n      jump\t// in\n    tag_120:\n        /* \"#utility.yul\":3283:3395   */\n    tag_119:\n        /* \"#utility.yul\":3404:3458   */\n      tag_121\n        /* \"#utility.yul\":3451:3457   */\n      dup5\n        /* \"#utility.yul\":3446:3449   */\n      dup3\n        /* \"#utility.yul\":3441:3444   */\n      dup6\n        /* \"#utility.yul\":3404:3458   */\n      tag_53\n      jump\t// in\n    tag_121:\n        /* \"#utility.yul\":3123:3464   */\n      pop\n        /* \"#utility.yul\":3039:3464   */\n      swap4\n      swap3\n      pop\n      pop\n      pop\n      jump\t// out\n        /* \"#utility.yul\":3484:3824   */\n    tag_55:\n        /* \"#utility.yul\":3540:3545   */\n      0x00\n        /* \"#utility.yul\":3589:3592   */\n      dup3\n        /* \"#utility.yul\":3582:3586   */\n      0x1f\n        /* \"#utility.yul\":3574:3580   */\n      dup4\n        /* \"#utility.yul\":3570:3587   */\n      add\n        /* \"#utility.yul\":3566:3593   */\n      slt\n        /* \"#utility.yul\":3556:3678   */\n      tag_123\n      jumpi\n        /* \"#utility.yul\":3597:3676   */\n      tag_124\n      tag_46\n      jump\t// in\n    tag_124:\n        /* \"#utility.yul\":3556:3678   */\n    tag_123:\n        /* \"#utility.yul\":3714:3720   */\n      dup2\n        /* \"#utility.yul\":3701:3721   */\n      calldataload\n        /* \"#utility.yul\":3739:3818   */\n      tag_125\n        /* \"#utility.yul\":3814:3817   */\n      dup5\n        /* \"#utility.yul\":3806:3812   */\n      dup3\n        /* \"#utility.yul\":3799:3803   */\n      0x20\n        /* \"#utility.yul\":3791:3797   */\n      dup7\n        /* \"#utility.yul\":3787:3804   */\n      add\n        /* \"#utility.yul\":3739:3818   */\n      tag_54\n      jump\t// in\n    tag_125:\n        /* \"#utility.yul\":3730:3818   */\n      swap2\n      pop\n        /* \"#utility.yul\":3546:3824   */\n      pop\n        /* \"#utility.yul\":3484:3824   */\n      swap3\n      swap2\n      pop\n      pop\n      jump\t// out\n        /* \"#utility.yul\":3830:4339   */\n    tag_14:\n        /* \"#utility.yul\":3899:3905   */\n      0x00\n        /* \"#utility.yul\":3948:3950   */\n      0x20\n        /* \"#utility.yul\":3936:3945   */\n      dup3\n        /* \"#utility.yul\":3927:3934   */\n      dup5\n        /* \"#utility.yul\":3923:3946   */\n      sub\n        /* \"#utility.yul\":3919:3951   */\n      slt\n        /* \"#utility.yul\":3916:4035   */\n      iszero\n      tag_127\n      jumpi\n        /* \"#utility.yul\":3954:4033   */\n      tag_128\n      tag_38\n      jump\t// in\n    tag_128:\n        /* \"#utility.yul\":3916:4035   */\n    tag_127:\n        /* \"#utility.yul\":4102:4103   */\n      0x00\n        /* \"#utility.yul\":4091:4100   */\n      dup3\n        /* \"#utility.yul\":4087:4104   */\n      add\n        /* \"#utility.yul\":4074:4105   */\n      calldataload\n        /* \"#utility.yul\":4132:4150   */\n      0xffffffffffffffff\n        /* \"#utility.yul\":4124:4130   */\n      dup2\n        /* \"#utility.yul\":4121:4151   */\n      gt\n        /* \"#utility.yul\":4118:4235   */\n      iszero\n      tag_129\n      jumpi\n        /* \"#utility.yul\":4154:4233   */\n      tag_130\n      tag_39\n      jump\t// in\n    tag_130:\n        /* \"#utility.yul\":4118:4235   */\n    tag_129:\n        /* \"#utility.yul\":4259:4322   */\n      tag_131\n        /* \"#utility.yul\":4314:4321   */\n      dup5\n        /* \"#utility.yul\":4305:4311   */\n      dup3\n        /* \"#utility.yul\":4294:4303   */\n      dup6\n        /* \"#utility.yul\":4290:4312   */\n      add\n        /* \"#utility.yul\":4259:4322   */\n      tag_55\n      jump\t// in\n    tag_131:\n        /* \"#utility.yul\":4249:4322   */\n      swap2\n      pop\n        /* \"#utility.yul\":4045:4332   */\n      pop\n        /* \"#utility.yul\":3830:4339   */\n      swap3\n      swap2\n      pop\n      pop\n      jump\t// out\n        /* \"#utility.yul\":4345:4467   */\n    tag_56:\n        /* \"#utility.yul\":4418:4442   */\n      tag_133\n        /* \"#utility.yul\":4436:4441   */\n      dup2\n        /* \"#utility.yul\":4418:4442   */\n      tag_44\n      jump\t// in\n    tag_133:\n        /* \"#utility.yul\":4411:4416   */\n      dup2\n        /* \"#utility.yul\":4408:4443   */\n      eq\n        /* \"#utility.yul\":4398:4461   */\n      tag_134\n      jumpi\n        /* \"#utility.yul\":4457:4458   */\n      0x00\n        /* \"#utility.yul\":4454:4455   */\n      dup1\n        /* \"#utility.yul\":4447:4459   */\n      revert\n        /* \"#utility.yul\":4398:4461   */\n    tag_134:\n        /* \"#utility.yul\":4345:4467   */\n      pop\n      jump\t// out\n        /* \"#utility.yul\":4473:4612   */\n    tag_57:\n        /* \"#utility.yul\":4519:4524   */\n      0x00\n        /* \"#utility.yul\":4557:4563   */\n      dup2\n        /* \"#utility.yul\":4544:4564   */\n      calldataload\n        /* \"#utility.yul\":4535:4564   */\n      swap1\n      pop\n        /* \"#utility.yul\":4573:4606   */\n      tag_136\n        /* \"#utility.yul\":4600:4605   */\n      dup2\n        /* \"#utility.yul\":4573:4606   */\n      tag_56\n      jump\t// in\n    tag_136:\n        /* \"#utility.yul\":4473:4612   */\n      swap3\n      swap2\n      pop\n      pop\n      jump\t// out\n        /* \"#utility.yul\":4618:5092   */\n    tag_18:\n        /* \"#utility.yul\":4686:4692   */\n      0x00\n        /* \"#utility.yul\":4694:4700   */\n      dup1\n        /* \"#utility.yul\":4743:4745   */\n      0x40\n        /* \"#utility.yul\":4731:4740   */\n      dup4\n        /* \"#utility.yul\":4722:4729   */\n      dup6\n        /* \"#utility.yul\":4718:4741   */\n      sub\n        /* \"#utility.yul\":4714:4746   */\n      slt\n        /* \"#utility.yul\":4711:4830   */\n      iszero\n      tag_138\n      jumpi\n        /* \"#utility.yul\":4749:4828   */\n      tag_139\n      tag_38\n      jump\t// in\n    tag_139:\n        /* \"#utility.yul\":4711:4830   */\n    tag_138:\n        /* \"#utility.yul\":4869:4870   */\n      0x00\n        /* \"#utility.yul\":4894:4947   */\n      tag_140\n        /* \"#utility.yul\":4939:4946   */\n      dup6\n        /* \"#utility.yul\":4930:4936   */\n      dup3\n        /* \"#utility.yul\":4919:4928   */\n      dup7\n        /* \"#utility.yul\":4915:4937   */\n      add\n        /* \"#utility.yul\":4894:4947   */\n      tag_43\n      jump\t// in\n    tag_140:\n        /* \"#utility.yul\":4884:4947   */\n      swap3\n      pop\n        /* \"#utility.yul\":4840:4957   */\n      pop\n        /* \"#utility.yul\":4996:4998   */\n      0x20\n        /* \"#utility.yul\":5022:5075   */\n      tag_141\n        /* \"#utility.yul\":5067:5074   */\n      dup6\n        /* \"#utility.yul\":5058:5064   */\n      dup3\n        /* \"#utility.yul\":5047:5056   */\n      dup7\n        /* \"#utility.yul\":5043:5065   */\n      add\n        /* \"#utility.yul\":5022:5075   */\n      tag_57\n      jump\t// in\n    tag_141:\n        /* \"#utility.yul\":5012:5075   */\n      swap2\n      pop\n        /* \"#utility.yul\":4967:5085   */\n      pop\n        /* \"#utility.yul\":4618:5092   */\n      swap3\n      pop\n      swap3\n      swap1\n      pop\n      jump\t// out\n        /* \"#utility.yul\":5098:5197   */\n    tag_58:\n        /* \"#utility.yul\":5150:5156   */\n      0x00\n        /* \"#utility.yul\":5184:5189   */\n      dup2\n        /* \"#utility.yul\":5178:5190   */\n      mload\n        /* \"#utility.yul\":5168:5190   */\n      swap1\n      pop\n        /* \"#utility.yul\":5098:5197   */\n      swap2\n      swap1\n      pop\n      jump\t// out\n        /* \"#utility.yul\":5203:5372   */\n    tag_59:\n        /* \"#utility.yul\":5287:5298   */\n      0x00\n        /* \"#utility.yul\":5321:5327   */\n      dup3\n        /* \"#utility.yul\":5316:5319   */\n      dup3\n        /* \"#utility.yul\":5309:5328   */\n      mstore\n        /* \"#utility.yul\":5361:5365   */\n      0x20\n        /* \"#utility.yul\":5356:5359   */\n      dup3\n        /* \"#utility.yul\":5352:5366   */\n      add\n        /* \"#utility.yul\":5337:5366   */\n      swap1\n      pop\n        /* \"#utility.yul\":5203:5372   */\n      swap3\n      swap2\n      pop\n      pop\n      jump\t// out\n        /* \"#utility.yul\":5378:5624   */\n    tag_60:\n        /* \"#utility.yul\":5459:5460   */\n      0x00\n        /* \"#utility.yul\":5469:5582   */\n    tag_145:\n        /* \"#utility.yul\":5483:5489   */\n      dup4\n        /* \"#utility.yul\":5480:5481   */\n      dup2\n        /* \"#utility.yul\":5477:5490   */\n      lt\n        /* \"#utility.yul\":5469:5582   */\n      iszero\n      tag_147\n      jumpi\n        /* \"#utility.yul\":5568:5569   */\n      dup1\n        /* \"#utility.yul\":5563:5566   */\n      dup3\n        /* \"#utility.yul\":5559:5570   */\n      add\n        /* \"#utility.yul\":5553:5571   */\n      mload\n        /* \"#utility.yul\":5549:5550   */\n      dup2\n        /* \"#utility.yul\":5544:5547   */\n      dup5\n        /* \"#utility.yul\":5540:5551   */\n      add\n        /* \"#utility.yul\":5533:5572   */\n      mstore\n        /* \"#utility.yul\":5505:5507   */\n      0x20\n        /* \"#utility.yul\":5502:5503   */\n      dup2\n        /* \"#utility.yul\":5498:5508   */\n      add\n        /* \"#utility.yul\":5493:5508   */\n      swap1\n      pop\n        /* \"#utility.yul\":5469:5582   */\n      jump(tag_145)\n    tag_147:\n        /* \"#utility.yul\":5616:5617   */\n      0x00\n        /* \"#utility.yul\":5607:5613   */\n      dup5\n        /* \"#utility.yul\":5602:5605   */\n      dup5\n        /* \"#utility.yul\":5598:5614   */\n      add\n        /* \"#utility.yul\":5591:5618   */\n      mstore\n        /* \"#utility.yul\":5440:5624   */\n      pop\n        /* \"#utility.yul\":5378:5624   */\n      pop\n      pop\n      pop\n      jump\t// out\n        /* \"#utility.yul\":5630:6007   */\n    tag_61:\n        /* \"#utility.yul\":5718:5721   */\n      0x00\n        /* \"#utility.yul\":5746:5785   */\n      tag_149\n        /* \"#utility.yul\":5779:5784   */\n      dup3\n        /* \"#utility.yul\":5746:5785   */\n      tag_58\n      jump\t// in\n    tag_149:\n        /* \"#utility.yul\":5801:5872   */\n      tag_150\n        /* \"#utility.yul\":5865:5871   */\n      dup2\n        /* \"#utility.yul\":5860:5863   */\n      dup6\n        /* \"#utility.yul\":5801:5872   */\n      tag_59\n      jump\t// in\n    tag_150:\n        /* \"#utility.yul\":5794:5872   */\n      swap4\n      pop\n        /* \"#utility.yul\":5881:5946   */\n      tag_151\n        /* \"#utility.yul\":5939:5945   */\n      dup2\n        /* \"#utility.yul\":5934:5937   */\n      dup6\n        /* \"#utility.yul\":5927:5931   */\n      0x20\n        /* \"#utility.yul\":5920:5925   */\n      dup7\n        /* \"#utility.yul\":5916:5932   */\n      add\n        /* \"#utility.yul\":5881:5946   */\n      tag_60\n      jump\t// in\n    tag_151:\n        /* \"#utility.yul\":5971:6000   */\n      tag_152\n        /* \"#utility.yul\":5993:5999   */\n      dup2\n        /* \"#utility.yul\":5971:6000   */\n      tag_48\n      jump\t// in\n    tag_152:\n        /* \"#utility.yul\":5966:5969   */\n      dup5\n        /* \"#utility.yul\":5962:6001   */\n      add\n        /* \"#utility.yul\":5955:6001   */\n      swap2\n      pop\n        /* \"#utility.yul\":5722:6007   */\n      pop\n        /* \"#utility.yul\":5630:6007   */\n      swap3\n      swap2\n      pop\n      pop\n      jump\t// out\n        /* \"#utility.yul\":6013:6326   */\n    tag_21:\n        /* \"#utility.yul\":6126:6130   */\n      0x00\n        /* \"#utility.yul\":6164:6166   */\n      0x20\n        /* \"#utility.yul\":6153:6162   */\n      dup3\n        /* \"#utility.yul\":6149:6167   */\n      add\n        /* \"#utility.yul\":6141:6167   */\n      swap1\n      pop\n        /* \"#utility.yul\":6213:6222   */\n      dup2\n        /* \"#utility.yul\":6207:6211   */\n      dup2\n        /* \"#utility.yul\":6203:6223   */\n      sub\n        /* \"#utility.yul\":6199:6200   */\n      0x00\n        /* \"#utility.yul\":6188:6197   */\n      dup4\n        /* \"#utility.yul\":6184:6201   */\n      add\n        /* \"#utility.yul\":6177:6224   */\n      mstore\n        /* \"#utility.yul\":6241:6319   */\n      tag_154\n        /* \"#utility.yul\":6314:6318   */\n      dup2\n        /* \"#utility.yul\":6305:6311   */\n      dup5\n        /* \"#utility.yul\":6241:6319   */\n      tag_61\n      jump\t// in\n    tag_154:\n        /* \"#utility.yul\":6233:6319   */\n      swap1\n      pop\n        /* \"#utility.yul\":6013:6326   */\n      swap3\n      swap2\n      pop\n      pop\n      jump\t// out\n        /* \"#utility.yul\":6332:6512   */\n    tag_62:\n        /* \"#utility.yul\":6380:6457   */\n      0x4e487b7100000000000000000000000000000000000000000000000000000000\n        /* \"#utility.yul\":6377:6378   */\n      0x00\n        /* \"#utility.yul\":6370:6458   */\n      mstore\n        /* \"#utility.yul\":6477:6481   */\n      0x22\n        /* \"#utility.yul\":6474:6475   */\n      0x04\n        /* \"#utility.yul\":6467:6482   */\n      mstore\n        /* \"#utility.yul\":6501:6505   */\n      0x24\n        /* \"#utility.yul\":6498:6499   */\n      0x00\n        /* \"#utility.yul\":6491:6506   */\n      revert\n        /* \"#utility.yul\":6518:6838   */\n    tag_32:\n        /* \"#utility.yul\":6562:6568   */\n      0x00\n        /* \"#utility.yul\":6599:6600   */\n      0x02\n        /* \"#utility.yul\":6593:6597   */\n      dup3\n        /* \"#utility.yul\":6589:6601   */\n      div\n        /* \"#utility.yul\":6579:6601   */\n      swap1\n      pop\n        /* \"#utility.yul\":6646:6647   */\n      0x01\n        /* \"#utility.yul\":6640:6644   */\n      dup3\n        /* \"#utility.yul\":6636:6648   */\n      and\n        /* \"#utility.yul\":6667:6685   */\n      dup1\n        /* \"#utility.yul\":6657:6738   */\n      tag_157\n      jumpi\n        /* \"#utility.yul\":6723:6727   */\n      0x7f\n        /* \"#utility.yul\":6715:6721   */\n      dup3\n        /* \"#utility.yul\":6711:6728   */\n      and\n        /* \"#utility.yul\":6701:6728   */\n      swap2\n      pop\n        /* \"#utility.yul\":6657:6738   */\n    tag_157:\n        /* \"#utility.yul\":6785:6787   */\n      0x20\n        /* \"#utility.yul\":6777:6783   */\n      dup3\n        /* \"#utility.yul\":6774:6788   */\n      lt\n        /* \"#utility.yul\":6754:6772   */\n      dup2\n        /* \"#utility.yul\":6751:6789   */\n      sub\n        /* \"#utility.yul\":6748:6832   */\n      tag_158\n      jumpi\n        /* \"#utility.yul\":6804:6822   */\n      tag_159\n      tag_62\n      jump\t// in\n    tag_159:\n        /* \"#utility.yul\":6748:6832   */\n    tag_158:\n        /* \"#utility.yul\":6569:6838   */\n      pop\n        /* \"#utility.yul\":6518:6838   */\n      swap2\n      swap1\n      pop\n      jump\t// out\n        /* \"#utility.yul\":6844:6985   */\n    tag_63:\n        /* \"#utility.yul\":6893:6897   */\n      0x00\n        /* \"#utility.yul\":6916:6919   */\n      dup2\n        /* \"#utility.yul\":6908:6919   */\n      swap1\n      pop\n        /* \"#utility.yul\":6939:6942   */\n      dup2\n        /* \"#utility.yul\":6936:6937   */\n      0x00\n        /* \"#utility.yul\":6929:6943   */\n      mstore\n        /* \"#utility.yul\":6973:6977   */\n      0x20\n        /* \"#utility.yul\":6970:6971   */\n      0x00\n        /* \"#utility.yul\":6960:6978   */\n      keccak256\n        /* \"#utility.yul\":6952:6978   */\n      swap1\n      pop\n        /* \"#utility.yul\":6844:6985   */\n      swap2\n      swap1\n      pop\n      jump\t// out\n        /* \"#utility.yul\":6991:7084   */\n    tag_64:\n        /* \"#utility.yul\":7028:7034   */\n      0x00\n        /* \"#utility.yul\":7075:7077   */\n      0x20\n        /* \"#utility.yul\":7070:7072   */\n      0x1f\n        /* \"#utility.yul\":7063:7068   */\n      dup4\n        /* \"#utility.yul\":7059:7073   */\n      add\n        /* \"#utility.yul\":7055:7078   */\n      div\n        /* \"#utility.yul\":7045:7078   */\n      swap1\n      pop\n        /* \"#utility.yul\":6991:7084   */\n      swap2\n      swap1\n      pop\n      jump\t// out\n        /* \"#utility.yul\":7090:7197   */\n    tag_65:\n        /* \"#utility.yul\":7134:7142   */\n      0x00\n        /* \"#utility.yul\":7184:7189   */\n      dup3\n        /* \"#utility.yul\":7178:7182   */\n      dup3\n        /* \"#utility.yul\":7174:7190   */\n      shl\n        /* \"#utility.yul\":7153:7190   */\n      swap1\n      pop\n        /* \"#utility.yul\":7090:7197   */\n      swap3\n      swap2\n      pop\n      pop\n      jump\t// out\n        /* \"#utility.yul\":7203:7596   */\n    tag_66:\n        /* \"#utility.yul\":7272:7278   */\n      0x00\n        /* \"#utility.yul\":7322:7323   */\n      0x08\n        /* \"#utility.yul\":7310:7320   */\n      dup4\n        /* \"#utility.yul\":7306:7324   */\n      mul\n        /* \"#utility.yul\":7345:7442   */\n      tag_164\n        /* \"#utility.yul\":7375:7441   */\n      0xffffffffffffffffffffffffffffffffffffffffffffffffffffffffffffffff\n        /* \"#utility.yul\":7364:7373   */\n      dup3\n        /* \"#utility.yul\":7345:7442   */\n      tag_65\n      jump\t// in\n    tag_164:\n        /* \"#utility.yul\":7463:7502   */\n      tag_165\n        /* \"#utility.yul\":7493:7501   */\n      dup7\n        /* \"#utility.yul\":7482:7491   */\n      dup4\n        /* \"#utility.yul\":7463:7502   */\n      tag_65\n      jump\t// in\n    tag_165:\n        /* \"#utility.yul\":7451:7502   */\n      swap6\n      pop\n        /* \"#utility.yul\":7535:7539   */\n      dup1\n        /* \"#utility.yul\":7531:7540   */\n      not\n        /* \"#utility.yul\":7524:7529   */\n      dup5\n        /* \"#utility.yul\":7520:7541   */\n      and\n        /* \"#utility.yul\":7511:7541   */\n      swap4\n      pop\n        /* \"#utility.yul\":7584:7588   */\n      dup1\n        /* \"#utility.yul\":7574:7582   */\n      dup7\n        /* \"#utility.yul\":7570:7589   */\n      and\n        /* \"#utility.yul\":7563:7568   */\n      dup5\n        /* \"#utility.yul\":7560:7590   */\n      or\n        /* \"#utility.yul\":7550:7590   */\n      swap3\n      pop\n        /* \"#utility.yul\":7279:7596   */\n      pop\n      pop\n        /* \"#utility.yul\":7203:7596   */\n      swap4\n      swap3\n      pop\n      pop\n      pop\n      jump\t// out\n        /* \"#utility.yul\":7602:7662   */\n    tag_67:\n        /* \"#utility.yul\":7630:7633   */\n      0x00\n        /* \"#utility.yul\":7651:7656   */\n      dup2\n        /* \"#utility.yul\":7644:7656   */\n      swap1\n      pop\n        /* \"#utility.yul\":7602:7662   */\n      swap2\n      swap1\n      pop\n      jump\t// out\n        /* \"#utility.yul\":7668:7810   */\n    tag_68:\n        /* \"#utility.yul\":7718:7727   */\n      0x00\n        /* \"#utility.yul\":7751:7804   */\n      tag_168\n        /* \"#utility.yul\":7769:7803   */\n      tag_169\n        /* \"#utility.yul\":7778:7802   */\n      tag_170\n        /* \"#utility.yul\":7796:7801   */\n      dup5\n        /* \"#utility.yul\":7778:7802   */\n      tag_44\n      jump\t// in\n    tag_170:\n        /* \"#utility.yul\":7769:7803   */\n      tag_67\n      jump\t// in\n    tag_169:\n        /* \"#utility.yul\":7751:7804   */\n      tag_44\n      jump\t// in\n    tag_168:\n        /* \"#utility.yul\":7738:7804   */\n      swap1\n      pop\n        /* \"#utility.yul\":7668:7810   */\n      swap2\n      swap1\n      pop\n      jump\t// out\n        /* \"#utility.yul\":7816:7891   */\n    tag_69:\n        /* \"#utility.yul\":7859:7862   */\n      0x00\n        /* \"#utility.yul\":7880:7885   */\n      dup2\n        /* \"#utility.yul\":7873:7885   */\n      swap1\n      pop\n        /* \"#utility.yul\":7816:7891   */\n      swap2\n      swap1\n      pop\n      jump\t// out\n        /* \"#utility.yul\":7897:8166   */\n    tag_70:\n        /* \"#utility.yul\":8007:8046   */\n      tag_173\n        /* \"#utility.yul\":8038:8045   */\n      dup4\n        /* \"#utility.yul\":8007:8046   */\n      tag_68\n      jump\t// in\n    tag_173:\n        /* \"#utility.yul\":8068:8159   */\n      tag_174\n        /* \"#utility.yul\":8117:8158   */\n      tag_175\n        /* \"#utility.yul\":8141:8157   */\n      dup3\n        /* \"#utility.yul\":8117:8158   */\n      tag_69\n      jump\t// in\n    tag_175:\n        /* \"#utility.yul\":8109:8115   */\n      dup5\n        /* \"#utility.yul\":8102:8106   */\n      dup5\n        /* \"#utility.yul\":8096:8107   */\n      sload\n        /* \"#utility.yul\":8068:8159   */\n      tag_66\n      jump\t// in\n    tag_174:\n        /* \"#utility.yul\":8062:8066   */\n      dup3\n        /* \"#utility.yul\":8055:8160   */\n      sstore\n        /* \"#utility.yul\":7973:8166   */\n      pop\n        /* \"#utility.yul\":7897:8166   */\n      pop\n      pop\n      pop\n      jump\t// out\n        /* \"#utility.yul\":8172:8245   */\n    tag_71:\n        /* \"#utility.yul\":8217:8220   */\n      0x00\n        /* \"#utility.yul\":8172:8245   */\n      swap1\n      jump\t// out\n        /* \"#utility.yul\":8251:8440   */\n    tag_72:\n        /* \"#utility.yul\":8328:8360   */\n      tag_178\n      tag_71\n      jump\t// in\n    tag_178:\n        /* \"#utility.yul\":8369:8434   */\n      tag_179\n        /* \"#utility.yul\":8427:8433   */\n      dup2\n        /* \"#utility.yul\":8419:8425   */\n      dup5\n        /* \"#utility.yul\":8413:8417   */\n      dup5\n        /* \"#utility.yul\":8369:8434   */\n      tag_70\n      jump\t// in\n    tag_179:\n        /* \"#utility.yul\":8304:8440   */\n      pop\n        /* \"#utility.yul\":8251:8440   */\n      pop\n      pop\n      jump\t// out\n        /* \"#utility.yul\":8446:8632   */\n    tag_73:\n        /* \"#utility.yul\":8506:8626   */\n    tag_181:\n        /* \"#utility.yul\":8523:8526   */\n      dup2\n        /* \"#utility.yul\":8516:8521   */\n      dup2\n        /* \"#utility.yul\":8513:8527   */\n      lt\n        /* \"#utility.yul\":8506:8626   */\n      iszero\n      tag_183\n      jumpi\n        /* \"#utility.yul\":8577:8616   */\n      tag_184\n        /* \"#utility.yul\":8614:8615   */\n      0x00\n        /* \"#utility.yul\":8607:8612   */\n      dup3\n        /* \"#utility.yul\":8577:8616   */\n      tag_72\n      jump\t// in\n    tag_184:\n        /* \"#utility.yul\":8550:8551   */\n      0x01\n        /* \"#utility.yul\":8543:8548   */\n      dup2\n        /* \"#utility.yul\":8539:8552   */\n      add\n        /* \"#utility.yul\":8530:8552   */\n      swap1\n      pop\n        /* \"#utility.yul\":8506:8626   */\n      jump(tag_181)\n    tag_183:\n        /* \"#utility.yul\":8446:8632   */\n      pop\n      pop\n      jump\t// out\n        /* \"#utility.yul\":8638:9181   */\n    tag_74:\n        /* \"#utility.yul\":8739:8741   */\n      0x1f\n        /* \"#utility.yul\":8734:8737   */\n      dup3\n        /* \"#utility.yul\":8731:8742   */\n      gt\n        /* \"#utility.yul\":8728:9174   */\n      iszero\n      tag_186\n      jumpi\n        /* \"#utility.yul\":8773:8811   */\n      tag_187\n        /* \"#utility.yul\":8805:8810   */\n      dup2\n        /* \"#utility.yul\":8773:8811   */\n      tag_63\n      jump\t// in\n    tag_187:\n        /* \"#utility.yul\":8857:8886   */\n      tag_188\n        /* \"#utility.yul\":8875:8885   */\n      dup5\n        /* \"#utility.yul\":8857:8886   */\n      tag_64\n      jump\t// in\n    tag_188:\n        /* \"#utility.yul\":8847:8855   */\n      dup2\n        /* \"#utility.yul\":8843:8887   */\n      add\n        /* \"#utility.yul\":9040:9042   */\n      0x20\n        /* \"#utility.yul\":9028:9038   */\n      dup6\n        /* \"#utility.yul\":9025:9043   */\n      lt\n        /* \"#utility.yul\":9022:9071   */\n      iszero\n      tag_189\n      jumpi\n        /* \"#utility.yul\":9061:9069   */\n      dup2\n        /* \"#utility.yul\":9046:9069   */\n      swap1\n      pop\n        /* \"#utility.yul\":9022:9071   */\n    tag_189:\n        /* \"#utility.yul\":9084:9164   */\n      tag_190\n        /* \"#utility.yul\":9140:9162   */\n      tag_191\n        /* \"#utility.yul\":9158:9161   */\n      dup6\n        /* \"#utility.yul\":9140:9162   */\n      tag_64\n      jump\t// in\n    tag_191:\n        /* \"#utility.yul\":9130:9138   */\n      dup4\n        /* \"#utility.yul\":9126:9163   */\n      add\n        /* \"#utility.yul\":9113:9124   */\n      dup3\n        /* \"#utility.yul\":9084:9164   */\n      tag_73\n      jump\t// in\n    tag_190:\n        /* \"#utility.yul\":8743:9174   */\n      pop\n      pop\n        /* \"#utility.yul\":8728:9174   */\n    tag_186:\n        /* \"#utility.yul\":8638:9181   */\n      pop\n      pop\n      pop\n      jump\t// out\n        /* \"#utility.yul\":9187:9304   */\n    tag_75:\n        /* \"#utility.yul\":9241:9249   */\n      0x00\n        /* \"#utility.yul\":9291:9296   */\n      dup3\n        /* \"#utility.yul\":9285:9289   */\n      dup3\n        /* \"#utility.yul\":9281:9297   */\n      shr\n        /* \"#utility.yul\":9260:9297   */\n      swap1\n      pop\n        /* \"#utility.yul\":9187:9304   */\n      swap3\n      swap2\n      pop\n      pop\n      jump\t// out\n        /* \"#utility.yul\":9310:9479   */\n    tag_76:\n        /* \"#utility.yul\":9354:9360   */\n      0x00\n        /* \"#utility.yul\":9387:9438   */\n      tag_194\n        /* \"#utility.yul\":9435:9436   */\n      0x00\n        /* \"#utility.yul\":9431:9437   */\n      not\n        /* \"#utility.yul\":9423:9428   */\n      dup5\n        /* \"#utility.yul\":9420:9421   */\n      0x08\n        /* \"#utility.yul\":9416:9429   */\n      mul\n        /* \"#utility.yul\":9387:9438   */\n      tag_75\n      jump\t// in\n    tag_194:\n        /* \"#utility.yul\":9383:9439   */\n      not\n        /* \"#utility.yul\":9468:9472   */\n      dup1\n        /* \"#utility.yul\":9462:9466   */\n      dup4\n        /* \"#utility.yul\":9458:9473   */\n      and\n        /* \"#utility.yul\":9448:9473   */\n      swap2\n      pop\n        /* \"#utility.yul\":9361:9479   */\n      pop\n        /* \"#utility.yul\":9310:9479   */\n      swap3\n      swap2\n      pop\n      pop\n      jump\t// out\n        /* \"#utility.yul\":9484:9779   */\n    tag_77:\n        /* \"#utility.yul\":9560:9564   */\n      0x00\n        /* \"#utility.yul\":9706:9735   */\n      tag_196\n        /* \"#utility.yul\":9731:9734   */\n      dup4\n        /* \"#utility.yul\":9725:9729   */\n      dup4\n        /* \"#utility.yul\":9706:9735   */\n      tag_76\n      jump\t// in\n    tag_196:\n        /* \"#utility.yul\":9698:9735   */\n      swap2\n      pop\n        /* \"#utility.yul\":9768:9771   */\n      dup3\n        /* \"#utility.yul\":9765:9766   */\n      0x02\n        /* \"#utility.yul\":9761:9772   */\n      mul\n        /* \"#utility.yul\":9755:9759   */\n      dup3\n        /* \"#utility.yul\":9752:9773   */\n      or\n        /* \"#utility.yul\":9744:9773   */\n      swap1\n      pop\n        /* \"#utility.yul\":9484:9779   */\n      swap3\n      swap2\n      pop\n      pop\n      jump\t// out\n        /* \"#utility.yul\":9784:11179   */\n    tag_26:\n        /* \"#utility.yul\":9901:9938   */\n      tag_198\n        /* \"#utility.yul\":9934:9937   */\n      dup3\n        /* \"#utility.yul\":9901:9938   */\n      tag_58\n      jump\t// in\n    tag_198:\n        /* \"#utility.yul\":10003:10021   */\n      0xffffffffffffffff\n        /* \"#utility.yul\":9995:10001   */\n      dup2\n        /* \"#utility.yul\":9992:10022   */\n      gt\n        /* \"#utility.yul\":9989:10045   */\n      iszero\n      tag_199\n      jumpi\n        /* \"#utility.yul\":10025:10043   */\n      tag_200\n      tag_49\n      jump\t// in\n    tag_200:\n        /* \"#utility.yul\":9989:10045   */\n    tag_199:\n        /* \"#utility.yul\":10069:10107   */\n      tag_201\n        /* \"#utility.yul\":10101:10105   */\n      dup3\n        /* \"#utility.yul\":10095:10106   */\n      sload\n        /* \"#utility.yul\":10069:10107   */\n      tag_32\n      jump\t// in\n    tag_201:\n        /* \"#utility.yul\":10154:10221   */\n      tag_202\n        /* \"#utility.yul\":10214:10220   */\n      dup3\n        /* \"#utility.yul\":10206:10212   */\n      dup3\n        /* \"#utility.yul\":10200:10204   */\n      dup6\n        /* \"#utility.yul\":10154:10221   */\n      tag_74\n      jump\t// in\n    tag_202:\n        /* \"#utility.yul\":10248:10249   */\n      0x00\n        /* \"#utility.yul\":10272:10276   */\n      0x20\n        /* \"#utility.yul\":10259:10276   */\n      swap1\n      pop\n        /* \"#utility.yul\":10304:10306   */\n      0x1f\n        /* \"#utility.yul\":10296:10302   */\n      dup4\n        /* \"#utility.yul\":10293:10307   */\n      gt\n        /* \"#utility.yul\":10321:10322   */\n      0x01\n        /* \"#utility.yul\":10316:10934   */\n      dup2\n      eq\n      tag_204\n      jumpi\n        /* \"#utility.yul\":10978:10979   */\n      0x00\n        /* \"#utility.yul\":10995:11001   */\n      dup5\n        /* \"#utility.yul\":10992:11069   */\n      iszero\n      tag_205\n      jumpi\n        /* \"#utility.yul\":11044:11053   */\n      dup3\n        /* \"#utility.yul\":11039:11042   */\n      dup8\n        /* \"#utility.yul\":11035:11054   */\n      add\n        /* \"#utility.yul\":11029:11055   */\n      mload\n        /* \"#utility.yul\":11020:11055   */\n      swap1\n      pop\n        /* \"#utility.yul\":10992:11069   */\n    tag_205:\n        /* \"#utility.yul\":11095:11162   */\n      tag_206\n        /* \"#utility.yul\":11155:11161   */\n      dup6\n        /* \"#utility.yul\":11148:11153   */\n      dup3\n        /* \"#utility.yul\":11095:11162   */\n      tag_77\n      jump\t// in\n    tag_206:\n        /* \"#utility.yul\":11089:11093   */\n      dup7\n        /* \"#utility.yul\":11082:11163   */\n      sstore\n        /* \"#utility.yul\":10951:11173   */\n      pop\n        /* \"#utility.yul\":10286:11173   */\n      jump(tag_203)\n        /* \"#utility.yul\":10316:10934   */\n    tag_204:\n        /* \"#utility.yul\":10368:10372   */\n      0x1f\n        /* \"#utility.yul\":10364:10373   */\n      not\n        /* \"#utility.yul\":10356:10362   */\n      dup5\n        /* \"#utility.yul\":10352:10374   */\n      and\n        /* \"#utility.yul\":10402:10439   */\n      tag_207\n        /* \"#utility.yul\":10434:10438   */\n      dup7\n        /* \"#utility.yul\":10402:10439   */\n      tag_63\n      jump\t// in\n    tag_207:\n        /* \"#utility.yul\":10461:10462   */\n      0x00\n        /* \"#utility.yul\":10475:10683   */\n    tag_208:\n        /* \"#utility.yul\":10489:10496   */\n      dup3\n        /* \"#utility.yul\":10486:10487   */\n      dup2\n        /* \"#utility.yul\":10483:10497   */\n      lt\n        /* \"#utility.yul\":10475:10683   */\n      iszero\n      tag_210\n      jumpi\n        /* \"#utility.yul\":10568:10577   */\n      dup5\n        /* \"#utility.yul\":10563:10566   */\n      dup10\n        /* \"#utility.yul\":10559:10578   */\n      add\n        /* \"#utility.yul\":10553:10579   */\n      mload\n        /* \"#utility.yul\":10545:10551   */\n      dup3\n        /* \"#utility.yul\":10538:10580   */\n      sstore\n        /* \"#utility.yul\":10619:10620   */\n      0x01\n        /* \"#utility.yul\":10611:10617   */\n      dup3\n        /* \"#utility.yul\":10607:10621   */\n      add\n        /* \"#utility.yul\":10597:10621   */\n      swap2\n      pop\n        /* \"#utility.yul\":10666:10668   */\n      0x20\n        /* \"#utility.yul\":10655:10664   */\n      dup6\n        /* \"#utility.yul\":10651:10669   */\n      add\n        /* \"#utility.yul\":10638:10669   */\n      swap5\n      pop\n        /* \"#utility.yul\":10512:10516   */\n      0x20\n        /* \"#utility.yul\":10509:10510   */\n      dup2\n        /* \"#utility.yul\":10505:10517   */\n      add\n        /* \"#utility.yul\":10500:10517   */\n      swap1\n      pop\n        /* \"#utility.yul\":10475:10683   */\n      jump(tag_208)\n    tag_210:\n        /* \"#utility.yul\":10711:10717   */\n      dup7\n        /* \"#utility.yul\":10702:10709   */\n      dup4\n        /* \"#utility.yul\":10699:10718   */\n      lt\n        /* \"#utility.yul\":10696:10875   */\n      iszero\n      tag_211\n      jumpi\n        /* \"#utility.yul\":10769:10778   */\n      dup5\n        /* \"#utility.yul\":10764:10767   */\n      dup10\n        /* \"#utility.yul\":10760:10779   */\n      add\n        /* \"#utility.yul\":10754:10780   */\n      mload\n        /* \"#utility.yul\":10812:10860   */\n      tag_212\n        /* \"#utility.yul\":10854:10858   */\n      0x1f\n        /* \"#utility.yul\":10846:10852   */\n      dup10\n        /* \"#utility.yul\":10842:10859   */\n      and\n        /* \"#utility.yul\":10831:10840   */\n      dup3\n        /* \"#utility.yul\":10812:10860   */\n      tag_76\n      jump\t// in\n    tag_212:\n        /* \"#utility.yul\":10804:10810   */\n      dup4\n        /* \"#utility.yul\":10797:10861   */\n      sstore\n        /* \"#utility.yul\":10719:10875   */\n      pop\n        /* \"#utility.yul\":10696:10875   */\n    tag_211:\n        /* \"#utility.yul\":10921:10922   */\n      0x01\n        /* \"#utility.yul\":10917:10918   */\n      0x02\n        /* \"#utility.yul\":10909:10915   */\n      dup9\n        /* \"#utility.yul\":10905:10919   */\n      mul\n        /* \"#utility.yul\":10901:10923   */\n      add\n        /* \"#utility.yul\":10895:10899   */\n      dup9\n        /* \"#utility.yul\":10888:10924   */\n      sstore\n        /* \"#utility.yul\":10323:10934   */\n      pop\n      pop\n      pop\n        /* \"#utility.yul\":10286:11173   */\n    tag_203:\n      pop\n        /* \"#utility.yul\":9876:11179   */\n      pop\n      pop\n      pop\n        /* \"#utility.yul\":9784:11179   */\n      pop\n      pop\n      jump\t// out\n        /* \"#utility.yul\":11185:11303   */\n    tag_78:\n        /* \"#utility.yul\":11272:11296   */\n      tag_214\n        /* \"#utility.yul\":11290:11295   */\n      dup2\n        /* \"#utility.yul\":11272:11296   */\n      tag_41\n      jump\t// in\n    tag_214:\n        /* \"#utility.yul\":11267:11270   */\n      dup3\n        /* \"#utility.yul\":11260:11297   */\n      mstore\n        /* \"#utility.yul\":11185:11303   */\n      pop\n      pop\n      jump\t// out\n        /* \"#utility.yul\":11309:11732   */\n    tag_28:\n        /* \"#utility.yul\":11450:11454   */\n      0x00\n        /* \"#utility.yul\":11488:11490   */\n      0x40\n        /* \"#utility.yul\":11477:11486   */\n      dup3\n        /* \"#utility.yul\":11473:11491   */\n      add\n        /* \"#utility.yul\":11465:11491   */\n      swap1\n      pop\n        /* \"#utility.yul\":11501:11572   */\n      tag_216\n        /* \"#utility.yul\":11569:11570   */\n      0x00\n        /* \"#utility.yul\":11558:11567   */\n      dup4\n        /* \"#utility.yul\":11554:11571   */\n      add\n        /* \"#utility.yul\":11545:11551   */\n      dup6\n        /* \"#utility.yul\":11501:11572   */\n      tag_78\n      jump\t// in\n    tag_216:\n        /* \"#utility.yul\":11619:11628   */\n      dup2\n        /* \"#utility.yul\":11613:11617   */\n      dup2\n        /* \"#utility.yul\":11609:11629   */\n      sub\n        /* \"#utility.yul\":11604:11606   */\n      0x20\n        /* \"#utility.yul\":11593:11602   */\n      dup4\n        /* \"#utility.yul\":11589:11607   */\n      add\n        /* \"#utility.yul\":11582:11630   */\n      mstore\n        /* \"#utility.yul\":11647:11725   */\n      tag_217\n        /* \"#utility.yul\":11720:11724   */\n      dup2\n        /* \"#utility.yul\":11711:11717   */\n      dup5\n        /* \"#utility.yul\":11647:11725   */\n      tag_61\n      jump\t// in\n    tag_217:\n        /* \"#utility.yul\":11639:11725   */\n      swap1\n      pop\n        /* \"#utility.yul\":11309:11732   */\n      swap4\n      swap3\n      pop\n      pop\n      pop\n      jump\t// out\n\n    auxdata: 0xa2646970667358221220404f1d013c1d26a908db8502046560c895a7c09b0c5fefcfbc99c094be40c2e864736f6c63430008110033\n}\n",
				"bytecode": {
					"linkReferences": {},
					"object": "608060405234801561001057600080fd5b50610935806100206000396000f3fe608060405234801561001057600080fd5b50600436106100415760003560e01c8063787b582d14610046578063a4edff4714610076578063e0b117ff14610092575b600080fd5b610060600480360381019061005b91906102e5565b6100c2565b60405161006d919061032b565b60405180910390f35b610090600480360381019061008b919061048c565b61010d565b005b6100ac60048036038101906100a79190610501565b6101ba565b6040516100b991906105c0565b60405180910390f35b60008060008373ffffffffffffffffffffffffffffffffffffffff1673ffffffffffffffffffffffffffffffffffffffff168152602001908152602001600020805490509050919050565b6000803373ffffffffffffffffffffffffffffffffffffffff1673ffffffffffffffffffffffffffffffffffffffff1681526020019081526020016000208190806001815401808255809150506001900390600052602060002001600090919091909150908161017d91906107ee565b507ff2555d00e065d582c4653357dbcf43cf8e0d291c35cc0faad6cf8467e8398c9233826040516101af9291906108cf565b60405180910390a150565b600060205281600052604060002081815481106101d657600080fd5b906000526020600020016000915091505080546101f290610611565b80601f016020809104026020016040519081016040528092919081815260200182805461021e90610611565b801561026b5780601f106102405761010080835404028352916020019161026b565b820191906000526020600020905b81548152906001019060200180831161024e57829003601f168201915b505050505081565b6000604051905090565b600080fd5b600080fd5b600073ffffffffffffffffffffffffffffffffffffffff82169050919050565b60006102b282610287565b9050919050565b6102c2816102a7565b81146102cd57600080fd5b50565b6000813590506102df816102b9565b92915050565b6000602082840312156102fb576102fa61027d565b5b6000610309848285016102d0565b91505092915050565b6000819050919050565b61032581610312565b82525050565b6000602082019050610340600083018461031c565b92915050565b600080fd5b600080fd5b6000601f19601f8301169050919050565b7f4e487b7100000000000000000000000000000000000000000000000000000000600052604160045260246000fd5b61039982610350565b810181811067ffffffffffffffff821117156103b8576103b7610361565b5b80604052505050565b60006103cb610273565b90506103d78282610390565b919050565b600067ffffffffffffffff8211156103f7576103f6610361565b5b61040082610350565b9050602081019050919050565b82818337600083830152505050565b600061042f61042a846103dc565b6103c1565b90508281526020810184848401111561044b5761044a61034b565b5b61045684828561040d565b509392505050565b600082601f83011261047357610472610346565b5b813561048384826020860161041c565b91505092915050565b6000602082840312156104a2576104a161027d565b5b600082013567ffffffffffffffff8111156104c0576104bf610282565b5b6104cc8482850161045e565b91505092915050565b6104de81610312565b81146104e957600080fd5b50565b6000813590506104fb816104d5565b92915050565b600080604083850312156105185761051761027d565b5b6000610526858286016102d0565b9250506020610537858286016104ec565b9150509250929050565b600081519050919050565b600082825260208201905092915050565b60005b8381101561057b578082015181840152602081019050610560565b60008484015250505050565b600061059282610541565b61059c818561054c565b93506105ac81856020860161055d565b6105b581610350565b840191505092915050565b600060208201905081810360008301526105da8184610587565b905092915050565b7f4e487b7100000000000000000000000000000000000000000000000000000000600052602260045260246000fd5b6000600282049050600182168061062957607f821691505b60208210810361063c5761063b6105e2565b5b50919050565b60008190508160005260206000209050919050565b60006020601f8301049050919050565b600082821b905092915050565b6000600883026106a47fffffffffffffffffffffffffffffffffffffffffffffffffffffffffffffffff82610667565b6106ae8683610667565b95508019841693508086168417925050509392505050565b6000819050919050565b60006106eb6106e66106e184610312565b6106c6565b610312565b9050919050565b6000819050919050565b610705836106d0565b610719610711826106f2565b848454610674565b825550505050565b600090565b61072e610721565b6107398184846106fc565b505050565b5b8181101561075d57610752600082610726565b60018101905061073f565b5050565b601f8211156107a25761077381610642565b61077c84610657565b8101602085101561078b578190505b61079f61079785610657565b83018261073e565b50505b505050565b600082821c905092915050565b60006107c5600019846008026107a7565b1980831691505092915050565b60006107de83836107b4565b9150826002028217905092915050565b6107f782610541565b67ffffffffffffffff8111156108105761080f610361565b5b61081a8254610611565b610825828285610761565b600060209050601f8311600181146108585760008415610846578287015190505b61085085826107d2565b8655506108b8565b601f19841661086686610642565b60005b8281101561088e57848901518255600182019150602085019450602081019050610869565b868310156108ab57848901516108a7601f8916826107b4565b8355505b6001600288020188555050505b505050505050565b6108c9816102a7565b82525050565b60006040820190506108e460008301856108c0565b81810360208301526108f68184610587565b9050939250505056fea2646970667358221220404f1d013c1d26a908db8502046560c895a7c09b0c5fefcfbc99c094be40c2e864736f6c63430008110033",
					"opcodes": "PUSH1 0x80 PUSH1 0x40 MSTORE CALLVALUE DUP1 ISZERO PUSH2 0x10 JUMPI PUSH1 0x0 DUP1 REVERT JUMPDEST POP PUSH2 0x935 DUP1 PUSH2 0x20 PUSH1 0x0 CODECOPY PUSH1 0x0 RETURN INVALID PUSH1 0x80 PUSH1 0x40 MSTORE CALLVALUE DUP1 ISZERO PUSH2 0x10 JUMPI PUSH1 0x0 DUP1 REVERT JUMPDEST POP PUSH1 0x4 CALLDATASIZE LT PUSH2 0x41 JUMPI PUSH1 0x0 CALLDATALOAD PUSH1 0xE0 SHR DUP1 PUSH4 0x787B582D EQ PUSH2 0x46 JUMPI DUP1 PUSH4 0xA4EDFF47 EQ PUSH2 0x76 JUMPI DUP1 PUSH4 0xE0B117FF EQ PUSH2 0x92 JUMPI JUMPDEST PUSH1 0x0 DUP1 REVERT JUMPDEST PUSH2 0x60 PUSH1 0x4 DUP1 CALLDATASIZE SUB DUP2 ADD SWAP1 PUSH2 0x5B SWAP2 SWAP1 PUSH2 0x2E5 JUMP JUMPDEST PUSH2 0xC2 JUMP JUMPDEST PUSH1 0x40 MLOAD PUSH2 0x6D SWAP2 SWAP1 PUSH2 0x32B JUMP JUMPDEST PUSH1 0x40 MLOAD DUP1 SWAP2 SUB SWAP1 RETURN JUMPDEST PUSH2 0x90 PUSH1 0x4 DUP1 CALLDATASIZE SUB DUP2 ADD SWAP1 PUSH2 0x8B SWAP2 SWAP1 PUSH2 0x48C JUMP JUMPDEST PUSH2 0x10D JUMP JUMPDEST STOP JUMPDEST PUSH2 0xAC PUSH1 0x4 DUP1 CALLDATASIZE SUB DUP2 ADD SWAP1 PUSH2 0xA7 SWAP2 SWAP1 PUSH2 0x501 JUMP JUMPDEST PUSH2 0x1BA JUMP JUMPDEST PUSH1 0x40 MLOAD PUSH2 0xB9 SWAP2 SWAP1 PUSH2 0x5C0 JUMP JUMPDEST PUSH1 0x40 MLOAD DUP1 SWAP2 SUB SWAP1 RETURN JUMPDEST PUSH1 0x0 DUP1 PUSH1 0x0 DUP4 PUSH20 0xFFFFFFFFFFFFFFFFFFFFFFFFFFFFFFFFFFFFFFFF AND PUSH20 0xFFFFFFFFFFFFFFFFFFFFFFFFFFFFFFFFFFFFFFFF AND DUP2 MSTORE PUSH1 0x20 ADD SWAP1 DUP2 MSTORE PUSH1 0x20 ADD PUSH1 0x0 KECCAK256 DUP1 SLOAD SWAP1 POP SWAP1 POP SWAP2 SWAP1 POP JUMP JUMPDEST PUSH1 0x0 DUP1 CALLER PUSH20 0xFFFFFFFFFFFFFFFFFFFFFFFFFFFFFFFFFFFFFFFF AND PUSH20 0xFFFFFFFFFFFFFFFFFFFFFFFFFFFFFFFFFFFFFFFF AND DUP2 MSTORE PUSH1 0x20 ADD SWAP1 DUP2 MSTORE PUSH1 0x20 ADD PUSH1 0x0 KECCAK256 DUP2 SWAP1 DUP1 PUSH1 0x1 DUP2 SLOAD ADD DUP1 DUP3 SSTORE DUP1 SWAP2 POP POP PUSH1 0x1 SWAP1 SUB SWAP1 PUSH1 0x0 MSTORE PUSH1 0x20 PUSH1 0x0 KECCAK256 ADD PUSH1 0x0 SWAP1 SWAP2 SWAP1 SWAP2 SWAP1 SWAP2 POP SWAP1 DUP2 PUSH2 0x17D SWAP2 SWAP1 PUSH2 0x7EE JUMP JUMPDEST POP PUSH32 0xF2555D00E065D582C4653357DBCF43CF8E0D291C35CC0FAAD6CF8467E8398C92 CALLER DUP3 PUSH1 0x40 MLOAD PUSH2 0x1AF SWAP3 SWAP2 SWAP1 PUSH2 0x8CF JUMP JUMPDEST PUSH1 0x40 MLOAD DUP1 SWAP2 SUB SWAP1 LOG1 POP JUMP JUMPDEST PUSH1 0x0 PUSH1 0x20 MSTORE DUP2 PUSH1 0x0 MSTORE PUSH1 0x40 PUSH1 0x0 KECCAK256 DUP2 DUP2 SLOAD DUP2 LT PUSH2 0x1D6 JUMPI PUSH1 0x0 DUP1 REVERT JUMPDEST SWAP1 PUSH1 0x0 MSTORE PUSH1 0x20 PUSH1 0x0 KECCAK256 ADD PUSH1 0x0 SWAP2 POP SWAP2 POP POP DUP1 SLOAD PUSH2 0x1F2 SWAP1 PUSH2 0x611 JUMP JUMPDEST DUP1 PUSH1 0x1F ADD PUSH1 0x20 DUP1 SWAP2 DIV MUL PUSH1 0x20 ADD PUSH1 0x40 MLOAD SWAP1 DUP2 ADD PUSH1 0x40 MSTORE DUP1 SWAP3 SWAP2 SWAP1 DUP2 DUP2 MSTORE PUSH1 0x20 ADD DUP3 DUP1 SLOAD PUSH2 0x21E SWAP1 PUSH2 0x611 JUMP JUMPDEST DUP1 ISZERO PUSH2 0x26B JUMPI DUP1 PUSH1 0x1F LT PUSH2 0x240 JUMPI PUSH2 0x100 DUP1 DUP4 SLOAD DIV MUL DUP4 MSTORE SWAP2 PUSH1 0x20 ADD SWAP2 PUSH2 0x26B JUMP JUMPDEST DUP3 ADD SWAP2 SWAP1 PUSH1 0x0 MSTORE PUSH1 0x20 PUSH1 0x0 KECCAK256 SWAP1 JUMPDEST DUP2 SLOAD DUP2 MSTORE SWAP1 PUSH1 0x1 ADD SWAP1 PUSH1 0x20 ADD DUP1 DUP4 GT PUSH2 0x24E JUMPI DUP3 SWAP1 SUB PUSH1 0x1F AND DUP3 ADD SWAP2 JUMPDEST POP POP POP POP POP DUP2 JUMP JUMPDEST PUSH1 0x0 PUSH1 0x40 MLOAD SWAP1 POP SWAP1 JUMP JUMPDEST PUSH1 0x0 DUP1 REVERT JUMPDEST PUSH1 0x0 DUP1 REVERT JUMPDEST PUSH1 0x0 PUSH20 0xFFFFFFFFFFFFFFFFFFFFFFFFFFFFFFFFFFFFFFFF DUP3 AND SWAP1 POP SWAP2 SWAP1 POP JUMP JUMPDEST PUSH1 0x0 PUSH2 0x2B2 DUP3 PUSH2 0x287 JUMP JUMPDEST SWAP1 POP SWAP2 SWAP1 POP JUMP JUMPDEST PUSH2 0x2C2 DUP2 PUSH2 0x2A7 JUMP JUMPDEST DUP2 EQ PUSH2 0x2CD JUMPI PUSH1 0x0 DUP1 REVERT JUMPDEST POP JUMP JUMPDEST PUSH1 0x0 DUP2 CALLDATALOAD SWAP1 POP PUSH2 0x2DF DUP2 PUSH2 0x2B9 JUMP JUMPDEST SWAP3 SWAP2 POP POP JUMP JUMPDEST PUSH1 0x0 PUSH1 0x20 DUP3 DUP5 SUB SLT ISZERO PUSH2 0x2FB JUMPI PUSH2 0x2FA PUSH2 0x27D JUMP JUMPDEST JUMPDEST PUSH1 0x0 PUSH2 0x309 DUP5 DUP3 DUP6 ADD PUSH2 0x2D0 JUMP JUMPDEST SWAP2 POP POP SWAP3 SWAP2 POP POP JUMP JUMPDEST PUSH1 0x0 DUP2 SWAP1 POP SWAP2 SWAP1 POP JUMP JUMPDEST PUSH2 0x325 DUP2 PUSH2 0x312 JUMP JUMPDEST DUP3 MSTORE POP POP JUMP JUMPDEST PUSH1 0x0 PUSH1 0x20 DUP3 ADD SWAP1 POP PUSH2 0x340 PUSH1 0x0 DUP4 ADD DUP5 PUSH2 0x31C JUMP JUMPDEST SWAP3 SWAP2 POP POP JUMP JUMPDEST PUSH1 0x0 DUP1 REVERT JUMPDEST PUSH1 0x0 DUP1 REVERT JUMPDEST PUSH1 0x0 PUSH1 0x1F NOT PUSH1 0x1F DUP4 ADD AND SWAP1 POP SWAP2 SWAP1 POP JUMP JUMPDEST PUSH32 0x4E487B7100000000000000000000000000000000000000000000000000000000 PUSH1 0x0 MSTORE PUSH1 0x41 PUSH1 0x4 MSTORE PUSH1 0x24 PUSH1 0x0 REVERT JUMPDEST PUSH2 0x399 DUP3 PUSH2 0x350 JUMP JUMPDEST DUP2 ADD DUP2 DUP2 LT PUSH8 0xFFFFFFFFFFFFFFFF DUP3 GT OR ISZERO PUSH2 0x3B8 JUMPI PUSH2 0x3B7 PUSH2 0x361 JUMP JUMPDEST JUMPDEST DUP1 PUSH1 0x40 MSTORE POP POP POP JUMP JUMPDEST PUSH1 0x0 PUSH2 0x3CB PUSH2 0x273 JUMP JUMPDEST SWAP1 POP PUSH2 0x3D7 DUP3 DUP3 PUSH2 0x390 JUMP JUMPDEST SWAP2 SWAP1 POP JUMP JUMPDEST PUSH1 0x0 PUSH8 0xFFFFFFFFFFFFFFFF DUP3 GT ISZERO PUSH2 0x3F7 JUMPI PUSH2 0x3F6 PUSH2 0x361 JUMP JUMPDEST JUMPDEST PUSH2 0x400 DUP3 PUSH2 0x350 JUMP JUMPDEST SWAP1 POP PUSH1 0x20 DUP2 ADD SWAP1 POP SWAP2 SWAP1 POP JUMP JUMPDEST DUP3 DUP2 DUP4 CALLDATACOPY PUSH1 0x0 DUP4 DUP4 ADD MSTORE POP POP POP JUMP JUMPDEST PUSH1 0x0 PUSH2 0x42F PUSH2 0x42A DUP5 PUSH2 0x3DC JUMP JUMPDEST PUSH2 0x3C1 JUMP JUMPDEST SWAP1 POP DUP3 DUP2 MSTORE PUSH1 0x20 DUP2 ADD DUP5 DUP5 DUP5 ADD GT ISZERO PUSH2 0x44B JUMPI PUSH2 0x44A PUSH2 0x34B JUMP JUMPDEST JUMPDEST PUSH2 0x456 DUP5 DUP3 DUP6 PUSH2 0x40D JUMP JUMPDEST POP SWAP4 SWAP3 POP POP POP JUMP JUMPDEST PUSH1 0x0 DUP3 PUSH1 0x1F DUP4 ADD SLT PUSH2 0x473 JUMPI PUSH2 0x472 PUSH2 0x346 JUMP JUMPDEST JUMPDEST DUP2 CALLDATALOAD PUSH2 0x483 DUP5 DUP3 PUSH1 0x20 DUP7 ADD PUSH2 0x41C JUMP JUMPDEST SWAP2 POP POP SWAP3 SWAP2 POP POP JUMP JUMPDEST PUSH1 0x0 PUSH1 0x20 DUP3 DUP5 SUB SLT ISZERO PUSH2 0x4A2 JUMPI PUSH2 0x4A1 PUSH2 0x27D JUMP JUMPDEST JUMPDEST PUSH1 0x0 DUP3 ADD CALLDATALOAD PUSH8 0xFFFFFFFFFFFFFFFF DUP2 GT ISZERO PUSH2 0x4C0 JUMPI PUSH2 0x4BF PUSH2 0x282 JUMP JUMPDEST JUMPDEST PUSH2 0x4CC DUP5 DUP3 DUP6 ADD PUSH2 0x45E JUMP JUMPDEST SWAP2 POP POP SWAP3 SWAP2 POP POP JUMP JUMPDEST PUSH2 0x4DE DUP2 PUSH2 0x312 JUMP JUMPDEST DUP2 EQ PUSH2 0x4E9 JUMPI PUSH1 0x0 DUP1 REVERT JUMPDEST POP JUMP JUMPDEST PUSH1 0x0 DUP2 CALLDATALOAD SWAP1 POP PUSH2 0x4FB DUP2 PUSH2 0x4D5 JUMP JUMPDEST SWAP3 SWAP2 POP POP JUMP JUMPDEST PUSH1 0x0 DUP1 PUSH1 0x40 DUP4 DUP6 SUB SLT ISZERO PUSH2 0x518 JUMPI PUSH2 0x517 PUSH2 0x27D JUMP JUMPDEST JUMPDEST PUSH1 0x0 PUSH2 0x526 DUP6 DUP3 DUP7 ADD PUSH2 0x2D0 JUMP JUMPDEST SWAP3 POP POP PUSH1 0x20 PUSH2 0x537 DUP6 DUP3 DUP7 ADD PUSH2 0x4EC JUMP JUMPDEST SWAP2 POP POP SWAP3 POP SWAP3 SWAP1 POP JUMP JUMPDEST PUSH1 0x0 DUP2 MLOAD SWAP1 POP SWAP2 SWAP1 POP JUMP JUMPDEST PUSH1 0x0 DUP3 DUP3 MSTORE PUSH1 0x20 DUP3 ADD SWAP1 POP SWAP3 SWAP2 POP POP JUMP JUMPDEST PUSH1 0x0 JUMPDEST DUP4 DUP2 LT ISZERO PUSH2 0x57B JUMPI DUP1 DUP3 ADD MLOAD DUP2 DUP5 ADD MSTORE PUSH1 0x20 DUP2 ADD SWAP1 POP PUSH2 0x560 JUMP JUMPDEST PUSH1 0x0 DUP5 DUP5 ADD MSTORE POP POP POP POP JUMP JUMPDEST PUSH1 0x0 PUSH2 0x592 DUP3 PUSH2 0x541 JUMP JUMPDEST PUSH2 0x59C DUP2 DUP6 PUSH2 0x54C JUMP JUMPDEST SWAP4 POP PUSH2 0x5AC DUP2 DUP6 PUSH1 0x20 DUP7 ADD PUSH2 0x55D JUMP JUMPDEST PUSH2 0x5B5 DUP2 PUSH2 0x350 JUMP JUMPDEST DUP5 ADD SWAP2 POP POP SWAP3 SWAP2 POP POP JUMP JUMPDEST PUSH1 0x0 PUSH1 0x20 DUP3 ADD SWAP1 POP DUP2 DUP2 SUB PUSH1 0x0 DUP4 ADD MSTORE PUSH2 0x5DA DUP2 DUP5 PUSH2 0x587 JUMP JUMPDEST SWAP1 POP SWAP3 SWAP2 POP POP JUMP JUMPDEST PUSH32 0x4E487B7100000000000000000000000000000000000000000000000000000000 PUSH1 0x0 MSTORE PUSH1 0x22 PUSH1 0x4 MSTORE PUSH1 0x24 PUSH1 0x0 REVERT JUMPDEST PUSH1 0x0 PUSH1 0x2 DUP3 DIV SWAP1 POP PUSH1 0x1 DUP3 AND DUP1 PUSH2 0x629 JUMPI PUSH1 0x7F DUP3 AND SWAP2 POP JUMPDEST PUSH1 0x20 DUP3 LT DUP2 SUB PUSH2 0x63C JUMPI PUSH2 0x63B PUSH2 0x5E2 JUMP JUMPDEST JUMPDEST POP SWAP2 SWAP1 POP JUMP JUMPDEST PUSH1 0x0 DUP2 SWAP1 POP DUP2 PUSH1 0x0 MSTORE PUSH1 0x20 PUSH1 0x0 KECCAK256 SWAP1 POP SWAP2 SWAP1 POP JUMP JUMPDEST PUSH1 0x0 PUSH1 0x20 PUSH1 0x1F DUP4 ADD DIV SWAP1 POP SWAP2 SWAP1 POP JUMP JUMPDEST PUSH1 0x0 DUP3 DUP3 SHL SWAP1 POP SWAP3 SWAP2 POP POP JUMP JUMPDEST PUSH1 0x0 PUSH1 0x8 DUP4 MUL PUSH2 0x6A4 PUSH32 0xFFFFFFFFFFFFFFFFFFFFFFFFFFFFFFFFFFFFFFFFFFFFFFFFFFFFFFFFFFFFFFFF DUP3 PUSH2 0x667 JUMP JUMPDEST PUSH2 0x6AE DUP7 DUP4 PUSH2 0x667 JUMP JUMPDEST SWAP6 POP DUP1 NOT DUP5 AND SWAP4 POP DUP1 DUP7 AND DUP5 OR SWAP3 POP POP POP SWAP4 SWAP3 POP POP POP JUMP JUMPDEST PUSH1 0x0 DUP2 SWAP1 POP SWAP2 SWAP1 POP JUMP JUMPDEST PUSH1 0x0 PUSH2 0x6EB PUSH2 0x6E6 PUSH2 0x6E1 DUP5 PUSH2 0x312 JUMP JUMPDEST PUSH2 0x6C6 JUMP JUMPDEST PUSH2 0x312 JUMP JUMPDEST SWAP1 POP SWAP2 SWAP1 POP JUMP JUMPDEST PUSH1 0x0 DUP2 SWAP1 POP SWAP2 SWAP1 POP JUMP JUMPDEST PUSH2 0x705 DUP4 PUSH2 0x6D0 JUMP JUMPDEST PUSH2 0x719 PUSH2 0x711 DUP3 PUSH2 0x6F2 JUMP JUMPDEST DUP5 DUP5 SLOAD PUSH2 0x674 JUMP JUMPDEST DUP3 SSTORE POP POP POP POP JUMP JUMPDEST PUSH1 0x0 SWAP1 JUMP JUMPDEST PUSH2 0x72E PUSH2 0x721 JUMP JUMPDEST PUSH2 0x739 DUP2 DUP5 DUP5 PUSH2 0x6FC JUMP JUMPDEST POP POP POP JUMP JUMPDEST JUMPDEST DUP2 DUP2 LT ISZERO PUSH2 0x75D JUMPI PUSH2 0x752 PUSH1 0x0 DUP3 PUSH2 0x726 JUMP JUMPDEST PUSH1 0x1 DUP2 ADD SWAP1 POP PUSH2 0x73F JUMP JUMPDEST POP POP JUMP JUMPDEST PUSH1 0x1F DUP3 GT ISZERO PUSH2 0x7A2 JUMPI PUSH2 0x773 DUP2 PUSH2 0x642 JUMP JUMPDEST PUSH2 0x77C DUP5 PUSH2 0x657 JUMP JUMPDEST DUP2 ADD PUSH1 0x20 DUP6 LT ISZERO PUSH2 0x78B JUMPI DUP2 SWAP1 POP JUMPDEST PUSH2 0x79F PUSH2 0x797 DUP6 PUSH2 0x657 JUMP JUMPDEST DUP4 ADD DUP3 PUSH2 0x73E JUMP JUMPDEST POP POP JUMPDEST POP POP POP JUMP JUMPDEST PUSH1 0x0 DUP3 DUP3 SHR SWAP1 POP SWAP3 SWAP2 POP POP JUMP JUMPDEST PUSH1 0x0 PUSH2 0x7C5 PUSH1 0x0 NOT DUP5 PUSH1 0x8 MUL PUSH2 0x7A7 JUMP JUMPDEST NOT DUP1 DUP4 AND SWAP2 POP POP SWAP3 SWAP2 POP POP JUMP JUMPDEST PUSH1 0x0 PUSH2 0x7DE DUP4 DUP4 PUSH2 0x7B4 JUMP JUMPDEST SWAP2 POP DUP3 PUSH1 0x2 MUL DUP3 OR SWAP1 POP SWAP3 SWAP2 POP POP JUMP JUMPDEST PUSH2 0x7F7 DUP3 PUSH2 0x541 JUMP JUMPDEST PUSH8 0xFFFFFFFFFFFFFFFF DUP2 GT ISZERO PUSH2 0x810 JUMPI PUSH2 0x80F PUSH2 0x361 JUMP JUMPDEST JUMPDEST PUSH2 0x81A DUP3 SLOAD PUSH2 0x611 JUMP JUMPDEST PUSH2 0x825 DUP3 DUP3 DUP6 PUSH2 0x761 JUMP JUMPDEST PUSH1 0x0 PUSH1 0x20 SWAP1 POP PUSH1 0x1F DUP4 GT PUSH1 0x1 DUP2 EQ PUSH2 0x858 JUMPI PUSH1 0x0 DUP5 ISZERO PUSH2 0x846 JUMPI DUP3 DUP8 ADD MLOAD SWAP1 POP JUMPDEST PUSH2 0x850 DUP6 DUP3 PUSH2 0x7D2 JUMP JUMPDEST DUP7 SSTORE POP PUSH2 0x8B8 JUMP JUMPDEST PUSH1 0x1F NOT DUP5 AND PUSH2 0x866 DUP7 PUSH2 0x642 JUMP JUMPDEST PUSH1 0x0 JUMPDEST DUP3 DUP2 LT ISZERO PUSH2 0x88E JUMPI DUP5 DUP10 ADD MLOAD DUP3 SSTORE PUSH1 0x1 DUP3 ADD SWAP2 POP PUSH1 0x20 DUP6 ADD SWAP5 POP PUSH1 0x20 DUP2 ADD SWAP1 POP PUSH2 0x869 JUMP JUMPDEST DUP7 DUP4 LT ISZERO PUSH2 0x8AB JUMPI DUP5 DUP10 ADD MLOAD PUSH2 0x8A7 PUSH1 0x1F DUP10 AND DUP3 PUSH2 0x7B4 JUMP JUMPDEST DUP4 SSTORE POP JUMPDEST PUSH1 0x1 PUSH1 0x2 DUP9 MUL ADD DUP9 SSTORE POP POP POP JUMPDEST POP POP POP POP POP POP JUMP JUMPDEST PUSH2 0x8C9 DUP2 PUSH2 0x2A7 JUMP JUMPDEST DUP3 MSTORE POP POP JUMP JUMPDEST PUSH1 0x0 PUSH1 0x40 DUP3 ADD SWAP1 POP PUSH2 0x8E4 PUSH1 0x0 DUP4 ADD DUP6 PUSH2 0x8C0 JUMP JUMPDEST DUP2 DUP2 SUB PUSH1 0x20 DUP4 ADD MSTORE PUSH2 0x8F6 DUP2 DUP5 PUSH2 0x587 JUMP JUMPDEST SWAP1 POP SWAP4 SWAP3 POP POP POP JUMP INVALID LOG2 PUSH5 0x6970667358 0x22 SLT KECCAK256 BLOCKHASH 0x4F SAR ADD EXTCODECOPY SAR 0x26 0xA9 ADDMOD 0xDB DUP6 MUL DIV PUSH6 0x60C895A7C09B 0xC 0x5F 0xEF 0xCF 0xBC SWAP10 0xC0 SWAP5 0xBE BLOCKHASH 0xC2 0xE8 PUSH5 0x736F6C6343 STOP ADDMOD GT STOP CALLER "
				},
				"gasEstimates": {
					"creation": {
						"codeDepositCost": "471400",
						"executionCost": "505",
						"totalCost": "471905"
					},
					"external": {
						"addNote(string)": "infinite",
						"getNotesLen(address)": "2827",
						"notes(address,uint256)": "infinite"
					}
				},
				"methodIdentifiers": {
					"addNote(string)": "a4edff47",
					"getNotesLen(address)": "787b582d",
					"notes(address,uint256)": "e0b117ff"
				}
			},
			"storageLayout": {
				"storage": [
					{
						"astId": 6,
						"contract": "contracts/Note.sol:NoteContract",
						"label": "notes",
						"offset": 0,
						"slot": "0",
						"type": "t_mapping(t_address,t_array(t_string_storage)dyn_storage)"
					}
				],
				"types": {
					"t_address": {
						"encoding": "inplace",
						"label": "address",
						"numberOfBytes": "20"
					},
					"t_array(t_string_storage)dyn_storage": {
						"base": "t_string_storage",
						"encoding": "dynamic_array",
						"label": "string[]",
						"numberOfBytes": "32"
					},
					"t_mapping(t_address,t_array(t_string_storage)dyn_storage)": {
						"encoding": "mapping",
						"key": "t_address",
						"label": "mapping(address => string[])",
						"numberOfBytes": "32",
						"value": "t_array(t_string_storage)dyn_storage"
					},
					"t_string_storage": {
						"encoding": "bytes",
						"label": "string",
						"numberOfBytes": "32"
					}
				}
			},
			"userdoc": {
				"kind": "user",
				"methods": {},
				"version": 1
			}
		}
	}
}