{
	"data": {
		"bytecode": {
			"linkReferences": {
				"contracts/String_lib.sol": {
					"StringLib": [
						{
							"length": 20,
							"start": 6973
						},
						{
							"length": 20,
							"start": 7277
						},
						{
							"length": 20,
							"start": 14756
						},
						{
							"length": 20,
							"start": 15055
						}
					]
				}
			},
			"object": "60806040523480156200001157600080fd5b50604051620054c8380380620054c8833981810160405281019062000037919062000448565b83838383336000806101000a81548173ffffffffffffffffffffffffffffffffffffffff021916908373ffffffffffffffffffffffffffffffffffffffff1602179055506040518060c001604052808581526020018473ffffffffffffffffffffffffffffffffffffffff1681526020018360ff168152602001826002811115620000c757620000c6620004d9565b5b815260200160405180602001604052806000815250815260200160405180602001604052806000815250815250600160008201518160000190816200010d919062000753565b5060208201518160010160006101000a81548173ffffffffffffffffffffffffffffffffffffffff021916908373ffffffffffffffffffffffffffffffffffffffff16021790555060408201518160010160146101000a81548160ff021916908360ff16021790555060608201518160010160156101000a81548160ff02191690836002811115620001a457620001a3620004d9565b5b02179055506080820151816002019081620001c0919062000753565b5060a0820151816003019081620001d8919062000753565b5090505050505050505050506200083a565b6000604051905090565b600080fd5b600080fd5b600080fd5b600080fd5b6000601f19601f8301169050919050565b7f4e487b7100000000000000000000000000000000000000000000000000000000600052604160045260246000fd5b620002538262000208565b810181811067ffffffffffffffff8211171562000275576200027462000219565b5b80604052505050565b60006200028a620001ea565b905062000298828262000248565b919050565b600067ffffffffffffffff821115620002bb57620002ba62000219565b5b620002c68262000208565b9050602081019050919050565b60005b83811015620002f3578082015181840152602081019050620002d6565b60008484015250505050565b60006200031662000310846200029d565b6200027e565b90508281526020810184848401111562000335576200033462000203565b5b62000342848285620002d3565b509392505050565b600082601f830112620003625762000361620001fe565b5b815162000374848260208601620002ff565b91505092915050565b600073ffffffffffffffffffffffffffffffffffffffff82169050919050565b6000620003aa826200037d565b9050919050565b620003bc816200039d565b8114620003c857600080fd5b50565b600081519050620003dc81620003b1565b92915050565b600060ff82169050919050565b620003fa81620003e2565b81146200040657600080fd5b50565b6000815190506200041a81620003ef565b92915050565b600381106200042e57600080fd5b50565b600081519050620004428162000420565b92915050565b60008060008060808587031215620004655762000464620001f4565b5b600085015167ffffffffffffffff811115620004865762000485620001f9565b5b62000494878288016200034a565b9450506020620004a787828801620003cb565b9350506040620004ba8782880162000409565b9250506060620004cd8782880162000431565b91505092959194509250565b7f4e487b7100000000000000000000000000000000000000000000000000000000600052602160045260246000fd5b600081519050919050565b7f4e487b7100000000000000000000000000000000000000000000000000000000600052602260045260246000fd5b600060028204905060018216806200055b57607f821691505b60208210810362000571576200057062000513565b5b50919050565b60008190508160005260206000209050919050565b60006020601f8301049050919050565b600082821b905092915050565b600060088302620005db7fffffffffffffffffffffffffffffffffffffffffffffffffffffffffffffffff826200059c565b620005e786836200059c565b95508019841693508086168417925050509392505050565b6000819050919050565b6000819050919050565b6000620006346200062e6200062884620005ff565b62000609565b620005ff565b9050919050565b6000819050919050565b620006508362000613565b620006686200065f826200063b565b848454620005a9565b825550505050565b600090565b6200067f62000670565b6200068c81848462000645565b505050565b5b81811015620006b457620006a860008262000675565b60018101905062000692565b5050565b601f8211156200070357620006cd8162000577565b620006d8846200058c565b81016020851015620006e8578190505b62000700620006f7856200058c565b83018262000691565b50505b505050565b600082821c905092915050565b6000620007286000198460080262000708565b1980831691505092915050565b600062000743838362000715565b9150826002028217905092915050565b6200075e8262000508565b67ffffffffffffffff8111156200077a576200077962000219565b5b62000786825462000542565b62000793828285620006b8565b600060209050601f831160018114620007cb5760008415620007b6578287015190505b620007c2858262000735565b86555062000832565b601f198416620007db8662000577565b60005b828110156200080557848901518255600182019150602085019450602081019050620007de565b8683101562000825578489015162000821601f89168262000715565b8355505b6001600288020188555050505b505050505050565b614c7e806200084a6000396000f3fe608060405234801561001057600080fd5b50600436106101425760003560e01c806390536622116100b8578063bec2359f1161007c578063bec2359f1461037b578063d8f7e1d614610397578063dfddd00b146103c7578063eabb412f146103e3578063f3ab88ee14610416578063f5fa8fb81461043457610142565b806390536622146102d15780639df284e7146102ed578063a404a8ef14610309578063ab60636c14610325578063baae8c741461034857610142565b8063505d1c7d1161010a578063505d1c7d1461020057806350ee580f1461021c5780635af645cc146102385780635efdc2ae14610268578063620ddcb3146102845780637473d74e146102a057610142565b80631dd6f402146101475780632f753e9e14610163578063318137ef1461019457806338d0d92c146101c657806339856ba7146101e2575b600080fd5b610161600480360381019061015c919061356b565b610452565b005b61017d600480360381019061017891906135ea565b610532565b60405161018b929190613696565b60405180910390f35b6101ae60048036038101906101a991906135ea565b6106eb565b6040516101bd93929190613744565b60405180910390f35b6101e060048036038101906101db91906137c2565b610d64565b005b6101ea610fd7565b6040516101f7919061388c565b60405180910390f35b61021a600480360381019061021591906135ea565b610fe4565b005b610236600480360381019061023191906138a7565b6111a0565b005b610252600480360381019061024d91906135ea565b61164c565b60405161025f919061388c565b60405180910390f35b610282600480360381019061027d919061397d565b6116cb565b005b61029e600480360381019061029991906138a7565b6117f5565b005b6102ba60048036038101906102b591906139aa565b611a20565b6040516102c8929190613696565b60405180910390f35b6102eb60048036038101906102e691906139ea565b611c4c565b005b61030760048036038101906103029190613a6b565b612059565b005b610323600480360381019061031e91906138a7565b6124e7565b005b61032d612623565b60405161033f96959493929190613b2d565b60405180910390f35b610362600480360381019061035d91906135ea565b61281f565b6040516103729493929190613ba3565b60405180910390f35b6103956004803603810190610390919061356b565b612ac3565b005b6103b160048036038101906103ac91906135ea565b612ba3565b6040516103be919061388c565b60405180910390f35b6103e160048036038101906103dc9190613c53565b612c22565b005b6103fd60048036038101906103f891906139aa565b612e28565b60405161040d9493929190613cd6565b60405180910390f35b61041e613117565b60405161042b919061388c565b60405180910390f35b61043c613124565b604051610449919061388c565b60405180910390f35b6001800160009054906101000a900473ffffffffffffffffffffffffffffffffffffffff1673ffffffffffffffffffffffffffffffffffffffff163373ffffffffffffffffffffffffffffffffffffffff16146104e4576040517f08c379a00000000000000000000000000000000000000000000000000000000081526004016104db90613da2565b60405180910390fd5b80600160030190816104f69190613fce565b507f26aaa12d2ac51334f2a0f54ee45add899f031d9163d6c3254931cb616a6ddfd660066040516105279190614134565b60405180910390a150565b6060808261053e610fd7565b808210610580576040517f08c379a0000000000000000000000000000000000000000000000000000000008152600401610577906141ae565b60405180910390fd5b600060088681548110610596576105956141ce565b5b90600052602060002090600202016040518060400160405290816000820180546105bf90613df1565b80601f01602080910402602001604051908101604052809291908181526020018280546105eb90613df1565b80156106385780601f1061060d57610100808354040283529160200191610638565b820191906000526020600020905b81548152906001019060200180831161061b57829003601f168201915b5050505050815260200160018201805461065190613df1565b80601f016020809104026020016040519081016040528092919081815260200182805461067d90613df1565b80156106ca5780601f1061069f576101008083540402835291602001916106ca565b820191906000526020600020905b8154815290600101906020018083116106ad57829003601f168201915b50505050508152505090508060000151816020015194509450505050915091565b606060006060836106fa613124565b80821061073c576040517f08c379a0000000000000000000000000000000000000000000000000000000008152600401610733906141ae565b60405180910390fd5b600060068781548110610752576107516141ce565b5b90600052602060002090600602016040518060a00160405290816000820160405180608001604052908160008201805461078b90613df1565b80601f01602080910402602001604051908101604052809291908181526020018280546107b790613df1565b80156108045780601f106107d957610100808354040283529160200191610804565b820191906000526020600020905b8154815290600101906020018083116107e757829003601f168201915b505050505081526020016001820160009054906101000a900460ff166002811115610832576108316136cd565b5b6002811115610844576108436136cd565b5b81526020016001820160019054906101000a900473ffffffffffffffffffffffffffffffffffffffff1673ffffffffffffffffffffffffffffffffffffffff1673ffffffffffffffffffffffffffffffffffffffff1681526020016001820160159054906101000a900460ff16151515158152505081526020016002820160009054906101000a900460ff1660028111156108e2576108e16136cd565b5b60028111156108f4576108f36136cd565b5b815260200160038201805461090890613df1565b80601f016020809104026020016040519081016040528092919081815260200182805461093490613df1565b80156109815780601f1061095657610100808354040283529160200191610981565b820191906000526020600020905b81548152906001019060200180831161096457829003601f168201915b5050505050815260200160048201805480602002602001604051908101604052809291908181526020016000905b82821015610bb457838290600052602060002090600402016040518060800160405290816000820180546109e290613df1565b80601f0160208091040260200160405190810160405280929190818152602001828054610a0e90613df1565b8015610a5b5780601f10610a3057610100808354040283529160200191610a5b565b820191906000526020600020905b815481529060010190602001808311610a3e57829003601f168201915b50505050508152602001600182018054610a7490613df1565b80601f0160208091040260200160405190810160405280929190818152602001828054610aa090613df1565b8015610aed5780601f10610ac257610100808354040283529160200191610aed565b820191906000526020600020905b815481529060010190602001808311610ad057829003601f168201915b50505050508152602001600282018054610b0690613df1565b80601f0160208091040260200160405190810160405280929190818152602001828054610b3290613df1565b8015610b7f5780601f10610b5457610100808354040283529160200191610b7f565b820191906000526020600020905b815481529060010190602001808311610b6257829003601f168201915b505050505081526020016003820160009054906101000a900460ff1660ff1660ff1681525050815260200190600101906109af565b50505050815260200160058201805480602002602001604051908101604052809291908181526020016000905b82821015610d375783829060005260206000209060020201604051806040016040529081600082018054610c1490613df1565b80601f0160208091040260200160405190810160405280929190818152602001828054610c4090613df1565b8015610c8d5780601f10610c6257610100808354040283529160200191610c8d565b820191906000526020600020905b815481529060010190602001808311610c7057829003601f168201915b50505050508152602001600182018054610ca690613df1565b80601f0160208091040260200160405190810160405280929190818152602001828054610cd290613df1565b8015610d1f5780601f10610cf457610100808354040283529160200191610d1f565b820191906000526020600020905b815481529060010190602001808311610d0257829003601f168201915b50505050508152505081526020019060010190610be1565b50505050815250509050806000015160000151816020015182604001519550955095505050509193909250565b600060016002811115610d7a57610d796136cd565b5b600560003373ffffffffffffffffffffffffffffffffffffffff1673ffffffffffffffffffffffffffffffffffffffff16815260200190815260200160002060010160009054906101000a900460ff166002811115610ddc57610ddb6136cd565b5b149050808015610e385750600560003373ffffffffffffffffffffffffffffffffffffffff1673ffffffffffffffffffffffffffffffffffffffff16815260200190815260200160002060010160159054906101000a900460ff165b610e77576040517f08c379a0000000000000000000000000000000000000000000000000000000008152600401610e6e9061426f565b60405180910390fd5b6000610eb8336040518060400160405280600981526020017f656475636174696f6e0000000000000000000000000000000000000000000000815250613131565b9050600060068281548110610ed057610ecf6141ce565b5b906000526020600020906006020190508060040160405180608001604052808981526020018881526020018781526020018660ff1681525090806001815401808255809150506001900390600052602060002090600402016000909190919091506000820151816000019081610f469190613fce565b506020820151816001019081610f5c9190613fce565b506040820151816002019081610f729190613fce565b5060608201518160030160006101000a81548160ff021916908360ff16021790555050507f26aaa12d2ac51334f2a0f54ee45add899f031d9163d6c3254931cb616a6ddfd66003604051610fc691906142db565b60405180910390a150505050505050565b6000600880549050905090565b6000600280811115610ff957610ff86136cd565b5b600560003373ffffffffffffffffffffffffffffffffffffffff1673ffffffffffffffffffffffffffffffffffffffff16815260200190815260200160002060010160009054906101000a900460ff16600281111561105b5761105a6136cd565b5b1490508080156110b75750600560003373ffffffffffffffffffffffffffffffffffffffff1673ffffffffffffffffffffffffffffffffffffffff16815260200190815260200160002060010160159054906101000a900460ff165b6110f6576040517f08c379a00000000000000000000000000000000000000000000000000000000081526004016110ed9061437b565b60405180910390fd5b6000611137336040518060400160405280600a81526020017f657870657269656e636500000000000000000000000000000000000000000000815250613131565b9050826007828154811061114e5761114d6141ce565b5b9060005260206000209060050201600401819055507f26aaa12d2ac51334f2a0f54ee45add899f031d9163d6c3254931cb616a6ddfd6600560405161119391906143e7565b60405180910390a1505050565b6001800160009054906101000a900473ffffffffffffffffffffffffffffffffffffffff1673ffffffffffffffffffffffffffffffffffffffff163373ffffffffffffffffffffffffffffffffffffffff1614611232576040517f08c379a000000000000000000000000000000000000000000000000000000000815260040161122990613da2565b60405180910390fd5b6000805b6008805490508110156114bd5760088181548110611257576112566141ce565b5b9060005260206000209060020201600101805461127390613df1565b80601f016020809104026020016040519081016040528092919081815260200182805461129f90613df1565b80156112ec5780601f106112c1576101008083540402835291602001916112ec565b820191906000526020600020905b8154815290600101906020018083116112cf57829003601f168201915b505050505073__$5aa27b036abafb24d212f9d7e474a9fcf1$__633a96fdd79091856040518363ffffffff1660e01b815260040161132b92919061445f565b602060405180830381865af4158015611348573d6000803e3d6000fd5b505050506040513d601f19601f8201168201806040525081019061136c91906144ab565b801561149d575060088181548110611387576113866141ce565b5b906000526020600020906002020160000180546113a390613df1565b80601f01602080910402602001604051908101604052809291908181526020018280546113cf90613df1565b801561141c5780601f106113f15761010080835404028352916020019161141c565b820191906000526020600020905b8154815290600101906020018083116113ff57829003601f168201915b505050505073__$5aa27b036abafb24d212f9d7e474a9fcf1$__633a96fdd79091866040518363ffffffff1660e01b815260040161145b92919061445f565b602060405180830381865af4158015611478573d6000803e3d6000fd5b505050506040513d601f19601f8201168201806040525081019061149c91906144ab565b5b156114aa578091506114bd565b80806114b590614507565b915050611236565b5060008190505b60016008805490506114d6919061454f565b81101561156d5760086001826114ec9190614583565b815481106114fd576114fc6141ce565b5b90600052602060002090600202016008828154811061151f5761151e6141ce565b5b90600052602060002090600202016000820181600001908161154191906145cd565b506001820181600101908161155691906145cd565b50905050808061156590614507565b9150506114c4565b5060086001600880549050611582919061454f565b81548110611593576115926141ce565b5b9060005260206000209060020201600080820160006115b291906133b4565b6001820160006115c291906133b4565b505060088054806115d6576115d56146b5565b5b6001900381819060005260206000209060020201600080820160006115fb91906133b4565b60018201600061160b91906133b4565b505090557f26aaa12d2ac51334f2a0f54ee45add899f031d9163d6c3254931cb616a6ddfd6600a60405161163f9190614730565b60405180910390a1505050565b600081611657613124565b808210611699576040517f08c379a0000000000000000000000000000000000000000000000000000000008152600401611690906141ae565b60405180910390fd5b600684815481106116ad576116ac6141ce565b5b90600052602060002090600602016004018054905092505050919050565b60008054906101000a900473ffffffffffffffffffffffffffffffffffffffff1673ffffffffffffffffffffffffffffffffffffffff163373ffffffffffffffffffffffffffffffffffffffff1614611759576040517f08c379a0000000000000000000000000000000000000000000000000000000008152600401611750906147d0565b60405180910390fd5b6000600560008373ffffffffffffffffffffffffffffffffffffffff1673ffffffffffffffffffffffffffffffffffffffff168152602001908152602001600020905060008160010160156101000a81548160ff0219169083151502179055507f26aaa12d2ac51334f2a0f54ee45add899f031d9163d6c3254931cb616a6ddfd660096040516117e9919061483c565b60405180910390a15050565b60006001600281111561180b5761180a6136cd565b5b600560003373ffffffffffffffffffffffffffffffffffffffff1673ffffffffffffffffffffffffffffffffffffffff16815260200190815260200160002060010160009054906101000a900460ff16600281111561186d5761186c6136cd565b5b1490508080156118c95750600560003373ffffffffffffffffffffffffffffffffffffffff1673ffffffffffffffffffffffffffffffffffffffff16815260200190815260200160002060010160159054906101000a900460ff165b611908576040517f08c379a00000000000000000000000000000000000000000000000000000000081526004016118ff9061426f565b60405180910390fd5b6000611949336040518060400160405280600981526020017f656475636174696f6e0000000000000000000000000000000000000000000000815250613131565b9050600060068281548110611961576119606141ce565b5b9060005260206000209060060201905080600501604051806040016040528087815260200186815250908060018154018082558091505060019003906000526020600020906002020160009091909190915060008201518160000190816119c89190613fce565b5060208201518160010190816119de9190613fce565b5050507f26aaa12d2ac51334f2a0f54ee45add899f031d9163d6c3254931cb616a6ddfd66002604051611a1191906148b6565b60405180910390a15050505050565b60608083611a2c613124565b808210611a6e576040517f08c379a0000000000000000000000000000000000000000000000000000000008152600401611a65906141ae565b60405180910390fd5b84611a7887612ba3565b808210611aba576040517f08c379a0000000000000000000000000000000000000000000000000000000008152600401611ab1906141ae565b60405180910390fd5b600060068981548110611ad057611acf6141ce565b5b90600052602060002090600602016005018881548110611af357611af26141ce565b5b9060005260206000209060020201604051806040016040529081600082018054611b1c90613df1565b80601f0160208091040260200160405190810160405280929190818152602001828054611b4890613df1565b8015611b955780601f10611b6a57610100808354040283529160200191611b95565b820191906000526020600020905b815481529060010190602001808311611b7857829003601f168201915b50505050508152602001600182018054611bae90613df1565b80601f0160208091040260200160405190810160405280929190818152602001828054611bda90613df1565b8015611c275780601f10611bfc57610100808354040283529160200191611c27565b820191906000526020600020905b815481529060010190602001808311611c0a57829003601f168201915b5050505050815250509050806000015181602001519650965050505050509250929050565b6000600280811115611c6157611c606136cd565b5b600560003373ffffffffffffffffffffffffffffffffffffffff1673ffffffffffffffffffffffffffffffffffffffff16815260200190815260200160002060010160009054906101000a900460ff166002811115611cc357611cc26136cd565b5b149050808015611d1f5750600560003373ffffffffffffffffffffffffffffffffffffffff1673ffffffffffffffffffffffffffffffffffffffff16815260200190815260200160002060010160159054906101000a900460ff165b611d5e576040517f08c379a0000000000000000000000000000000000000000000000000000000008152600401611d559061437b565b60405180910390fd5b60006040518060800160405280600560003373ffffffffffffffffffffffffffffffffffffffff1673ffffffffffffffffffffffffffffffffffffffff168152602001908152602001600020604051806080016040529081600082018054611dc590613df1565b80601f0160208091040260200160405190810160405280929190818152602001828054611df190613df1565b8015611e3e5780601f10611e1357610100808354040283529160200191611e3e565b820191906000526020600020905b815481529060010190602001808311611e2157829003601f168201915b505050505081526020016001820160009054906101000a900460ff166002811115611e6c57611e6b6136cd565b5b6002811115611e7e57611e7d6136cd565b5b81526020016001820160019054906101000a900473ffffffffffffffffffffffffffffffffffffffff1673ffffffffffffffffffffffffffffffffffffffff1673ffffffffffffffffffffffffffffffffffffffff1681526020016001820160159054906101000a900460ff16151515158152505081526020018581526020018481526020016000815250905060078190806001815401808255809150506001900390600052602060002090600502016000909190919091506000820151816000016000820151816000019081611f559190613fce565b5060208201518160010160006101000a81548160ff02191690836002811115611f8157611f806136cd565b5b021790555060408201518160010160016101000a81548173ffffffffffffffffffffffffffffffffffffffff021916908373ffffffffffffffffffffffffffffffffffffffff16021790555060608201518160010160156101000a81548160ff021916908315150217905550505060208201518160020190816120049190613fce565b50604082015181600301556060820151816004015550507f26aaa12d2ac51334f2a0f54ee45add899f031d9163d6c3254931cb616a6ddfd6600460405161204b9190614930565b60405180910390a150505050565b60006001600281111561206f5761206e6136cd565b5b600560003373ffffffffffffffffffffffffffffffffffffffff1673ffffffffffffffffffffffffffffffffffffffff16815260200190815260200160002060010160009054906101000a900460ff1660028111156120d1576120d06136cd565b5b14905080801561212d5750600560003373ffffffffffffffffffffffffffffffffffffffff1673ffffffffffffffffffffffffffffffffffffffff16815260200190815260200160002060010160159054906101000a900460ff165b61216c576040517f08c379a00000000000000000000000000000000000000000000000000000000081526004016121639061426f565b60405180910390fd5b6006600181600181540180825580915050039060005260206000209050506000600660016006805490506121a0919061454f565b815481106121b1576121b06141ce565b5b9060005260206000209060060201905060006040518060800160405280604051806020016040528060008152508152602001604051806020016040528060008152508152602001604051806020016040528060008152508152602001600060ff16815250905060006040518060400160405280604051806020016040528060008152508152602001604051806020016040528060008152508152509050600560003373ffffffffffffffffffffffffffffffffffffffff1673ffffffffffffffffffffffffffffffffffffffff16815260200190815260200160002083600001600082018160000190816122a591906145cd565b506001820160009054906101000a900460ff168160010160006101000a81548160ff021916908360028111156122de576122dd6136cd565b5b02179055506001820160019054906101000a900473ffffffffffffffffffffffffffffffffffffffff168160010160016101000a81548173ffffffffffffffffffffffffffffffffffffffff021916908373ffffffffffffffffffffffffffffffffffffffff1602179055506001820160159054906101000a900460ff168160010160156101000a81548160ff021916908315150217905550905050858360020160006101000a81548160ff021916908360028111156123a1576123a06136cd565b5b0217905550848360030190816123b79190613fce565b508260040182908060018154018082558091505060019003906000526020600020906004020160009091909190915060008201518160000190816123fb9190613fce565b5060208201518160010190816124119190613fce565b5060408201518160020190816124279190613fce565b5060608201518160030160006101000a81548160ff021916908360ff160217905550505082600501819080600181540180825580915050600190039060005260206000209060020201600090919091909150600082015181600001908161248e9190613fce565b5060208201518160010190816124a49190613fce565b5050507f26aaa12d2ac51334f2a0f54ee45add899f031d9163d6c3254931cb616a6ddfd660016040516124d791906149aa565b60405180910390a1505050505050565b6001800160009054906101000a900473ffffffffffffffffffffffffffffffffffffffff1673ffffffffffffffffffffffffffffffffffffffff163373ffffffffffffffffffffffffffffffffffffffff1614612579576040517f08c379a000000000000000000000000000000000000000000000000000000000815260040161257090613da2565b60405180910390fd5b6008604051806040016040528084815260200183815250908060018154018082558091505060019003906000526020600020906002020160009091909190915060008201518160000190816125ce9190613fce565b5060208201518160010190816125e49190613fce565b5050507f26aaa12d2ac51334f2a0f54ee45add899f031d9163d6c3254931cb616a6ddfd660076040516126179190614a24565b60405180910390a15050565b600180600001805461263490613df1565b80601f016020809104026020016040519081016040528092919081815260200182805461266090613df1565b80156126ad5780601f10612682576101008083540402835291602001916126ad565b820191906000526020600020905b81548152906001019060200180831161269057829003601f168201915b5050505050908060010160009054906101000a900473ffffffffffffffffffffffffffffffffffffffff16908060010160149054906101000a900460ff16908060010160159054906101000a900460ff169080600201805461270e90613df1565b80601f016020809104026020016040519081016040528092919081815260200182805461273a90613df1565b80156127875780601f1061275c57610100808354040283529160200191612787565b820191906000526020600020905b81548152906001019060200180831161276a57829003601f168201915b50505050509080600301805461279c90613df1565b80601f01602080910402602001604051908101604052809291908181526020018280546127c890613df1565b80156128155780601f106127ea57610100808354040283529160200191612815565b820191906000526020600020905b8154815290600101906020018083116127f857829003601f168201915b5050505050905086565b6060806000808461282e613117565b808210612870576040517f08c379a0000000000000000000000000000000000000000000000000000000008152600401612867906141ae565b60405180910390fd5b600060078881548110612886576128856141ce565b5b9060005260206000209060050201604051806080016040529081600082016040518060800160405290816000820180546128bf90613df1565b80601f01602080910402602001604051908101604052809291908181526020018280546128eb90613df1565b80156129385780601f1061290d57610100808354040283529160200191612938565b820191906000526020600020905b81548152906001019060200180831161291b57829003601f168201915b505050505081526020016001820160009054906101000a900460ff166002811115612966576129656136cd565b5b6002811115612978576129776136cd565b5b81526020016001820160019054906101000a900473ffffffffffffffffffffffffffffffffffffffff1673ffffffffffffffffffffffffffffffffffffffff1673ffffffffffffffffffffffffffffffffffffffff1681526020016001820160159054906101000a900460ff1615151515815250508152602001600282018054612a0190613df1565b80601f0160208091040260200160405190810160405280929190818152602001828054612a2d90613df1565b8015612a7a5780601f10612a4f57610100808354040283529160200191612a7a565b820191906000526020600020905b815481529060010190602001808311612a5d57829003601f168201915b5050505050815260200160038201548152602001600482015481525050905080600001516000015181602001518260400151836060015196509650965096505050509193509193565b6001800160009054906101000a900473ffffffffffffffffffffffffffffffffffffffff1673ffffffffffffffffffffffffffffffffffffffff163373ffffffffffffffffffffffffffffffffffffffff1614612b55576040517f08c379a0000000000000000000000000000000000000000000000000000000008152600401612b4c90613da2565b60405180910390fd5b8060016002019081612b679190613fce565b507f26aaa12d2ac51334f2a0f54ee45add899f031d9163d6c3254931cb616a6ddfd66008604051612b989190614a9e565b60405180910390a150565b600081612bae613124565b808210612bf0576040517f08c379a0000000000000000000000000000000000000000000000000000000008152600401612be7906141ae565b60405180910390fd5b60068481548110612c0457612c036141ce565b5b90600052602060002090600602016005018054905092505050919050565b60008054906101000a900473ffffffffffffffffffffffffffffffffffffffff1673ffffffffffffffffffffffffffffffffffffffff163373ffffffffffffffffffffffffffffffffffffffff1614612cb0576040517f08c379a0000000000000000000000000000000000000000000000000000000008152600401612ca7906147d0565b60405180910390fd5b6040518060800160405280848152602001836002811115612cd457612cd36136cd565b5b81526020018573ffffffffffffffffffffffffffffffffffffffff168152602001821515815250600560008673ffffffffffffffffffffffffffffffffffffffff1673ffffffffffffffffffffffffffffffffffffffff1681526020019081526020016000206000820151816000019081612d4f9190613fce565b5060208201518160010160006101000a81548160ff02191690836002811115612d7b57612d7a6136cd565b5b021790555060408201518160010160016101000a81548173ffffffffffffffffffffffffffffffffffffffff021916908373ffffffffffffffffffffffffffffffffffffffff16021790555060608201518160010160156101000a81548160ff0219169083151502179055509050507f26aaa12d2ac51334f2a0f54ee45add899f031d9163d6c3254931cb616a6ddfd66000604051612e1a9190614b18565b60405180910390a150505050565b6060806060600085612e38613124565b808210612e7a576040517f08c379a0000000000000000000000000000000000000000000000000000000008152600401612e71906141ae565b60405180910390fd5b86612e848961164c565b808210612ec6576040517f08c379a0000000000000000000000000000000000000000000000000000000008152600401612ebd906141ae565b60405180910390fd5b600060068b81548110612edc57612edb6141ce565b5b90600052602060002090600602016004018a81548110612eff57612efe6141ce565b5b9060005260206000209060040201604051806080016040529081600082018054612f2890613df1565b80601f0160208091040260200160405190810160405280929190818152602001828054612f5490613df1565b8015612fa15780601f10612f7657610100808354040283529160200191612fa1565b820191906000526020600020905b815481529060010190602001808311612f8457829003601f168201915b50505050508152602001600182018054612fba90613df1565b80601f0160208091040260200160405190810160405280929190818152602001828054612fe690613df1565b80156130335780601f1061300857610100808354040283529160200191613033565b820191906000526020600020905b81548152906001019060200180831161301657829003601f168201915b5050505050815260200160028201805461304c90613df1565b80601f016020809104026020016040519081016040528092919081815260200182805461307890613df1565b80156130c55780601f1061309a576101008083540402835291602001916130c5565b820191906000526020600020905b8154815290600101906020018083116130a857829003601f168201915b505050505081526020016003820160009054906101000a900460ff1660ff1660ff1681525050905080600001518160200151826040015183606001519850985098509850505050505092959194509250565b6000600780549050905090565b6000600680549050905090565b6000807fffffffffffffffffffffffffffffffffffffffffffffffffffffffffffffffff90508273__$5aa27b036abafb24d212f9d7e474a9fcf1$__633a96fdd790916040518263ffffffff1660e01b81526004016131909190614b92565b602060405180830381865af41580156131ad573d6000803e3d6000fd5b505050506040513d601f19601f820116820180604052508101906131d191906144ab565b156132825760005b60068054905081101561327c578473ffffffffffffffffffffffffffffffffffffffff1660068281548110613211576132106141ce565b5b906000526020600020906006020160000160010160019054906101000a900473ffffffffffffffffffffffffffffffffffffffff1673ffffffffffffffffffffffffffffffffffffffff16036132695780915061327c565b808061327490614507565b9150506131d9565b506133aa565b8273__$5aa27b036abafb24d212f9d7e474a9fcf1$__633a96fdd790916040518263ffffffff1660e01b81526004016132bb9190614c13565b602060405180830381865af41580156132d8573d6000803e3d6000fd5b505050506040513d601f19601f820116820180604052508101906132fc91906144ab565b156133a95760005b6007805490508110156133a7578473ffffffffffffffffffffffffffffffffffffffff166007828154811061333c5761333b6141ce565b5b906000526020600020906005020160000160010160019054906101000a900473ffffffffffffffffffffffffffffffffffffffff1673ffffffffffffffffffffffffffffffffffffffff1603613394578091506133a7565b808061339f90614507565b915050613304565b505b5b8091505092915050565b5080546133c090613df1565b6000825580601f106133d257506133f1565b601f0160209004906000526020600020908101906133f091906133f4565b5b50565b5b8082111561340d5760008160009055506001016133f5565b5090565b6000604051905090565b600080fd5b600080fd5b600080fd5b600080fd5b6000601f19601f8301169050919050565b7f4e487b7100000000000000000000000000000000000000000000000000000000600052604160045260246000fd5b6134788261342f565b810181811067ffffffffffffffff8211171561349757613496613440565b5b80604052505050565b60006134aa613411565b90506134b6828261346f565b919050565b600067ffffffffffffffff8211156134d6576134d5613440565b5b6134df8261342f565b9050602081019050919050565b82818337600083830152505050565b600061350e613509846134bb565b6134a0565b90508281526020810184848401111561352a5761352961342a565b5b6135358482856134ec565b509392505050565b600082601f83011261355257613551613425565b5b81356135628482602086016134fb565b91505092915050565b6000602082840312156135815761358061341b565b5b600082013567ffffffffffffffff81111561359f5761359e613420565b5b6135ab8482850161353d565b91505092915050565b6000819050919050565b6135c7816135b4565b81146135d257600080fd5b50565b6000813590506135e4816135be565b92915050565b600060208284031215613600576135ff61341b565b5b600061360e848285016135d5565b91505092915050565b600081519050919050565b600082825260208201905092915050565b60005b83811015613651578082015181840152602081019050613636565b60008484015250505050565b600061366882613617565b6136728185613622565b9350613682818560208601613633565b61368b8161342f565b840191505092915050565b600060408201905081810360008301526136b0818561365d565b905081810360208301526136c4818461365d565b90509392505050565b7f4e487b7100000000000000000000000000000000000000000000000000000000600052602160045260246000fd5b6003811061370d5761370c6136cd565b5b50565b600081905061371e826136fc565b919050565b600061372e82613710565b9050919050565b61373e81613723565b82525050565b6000606082019050818103600083015261375e818661365d565b905061376d6020830185613735565b818103604083015261377f818461365d565b9050949350505050565b600060ff82169050919050565b61379f81613789565b81146137aa57600080fd5b50565b6000813590506137bc81613796565b92915050565b600080600080608085870312156137dc576137db61341b565b5b600085013567ffffffffffffffff8111156137fa576137f9613420565b5b6138068782880161353d565b945050602085013567ffffffffffffffff81111561382757613826613420565b5b6138338782880161353d565b935050604085013567ffffffffffffffff81111561385457613853613420565b5b6138608782880161353d565b9250506060613871878288016137ad565b91505092959194509250565b613886816135b4565b82525050565b60006020820190506138a1600083018461387d565b92915050565b600080604083850312156138be576138bd61341b565b5b600083013567ffffffffffffffff8111156138dc576138db613420565b5b6138e88582860161353d565b925050602083013567ffffffffffffffff81111561390957613908613420565b5b6139158582860161353d565b9150509250929050565b600073ffffffffffffffffffffffffffffffffffffffff82169050919050565b600061394a8261391f565b9050919050565b61395a8161393f565b811461396557600080fd5b50565b60008135905061397781613951565b92915050565b6000602082840312156139935761399261341b565b5b60006139a184828501613968565b91505092915050565b600080604083850312156139c1576139c061341b565b5b60006139cf858286016135d5565b92505060206139e0858286016135d5565b9150509250929050565b60008060408385031215613a0157613a0061341b565b5b600083013567ffffffffffffffff811115613a1f57613a1e613420565b5b613a2b8582860161353d565b9250506020613a3c858286016135d5565b9150509250929050565b60038110613a5357600080fd5b50565b600081359050613a6581613a46565b92915050565b60008060408385031215613a8257613a8161341b565b5b6000613a9085828601613a56565b925050602083013567ffffffffffffffff811115613ab157613ab0613420565b5b613abd8582860161353d565b9150509250929050565b613ad08161393f565b82525050565b613adf81613789565b82525050565b60038110613af657613af56136cd565b5b50565b6000819050613b0782613ae5565b919050565b6000613b1782613af9565b9050919050565b613b2781613b0c565b82525050565b600060c0820190508181036000830152613b47818961365d565b9050613b566020830188613ac7565b613b636040830187613ad6565b613b706060830186613b1e565b8181036080830152613b82818561365d565b905081810360a0830152613b96818461365d565b9050979650505050505050565b60006080820190508181036000830152613bbd818761365d565b90508181036020830152613bd1818661365d565b9050613be0604083018561387d565b613bed606083018461387d565b95945050505050565b60038110613c0357600080fd5b50565b600081359050613c1581613bf6565b92915050565b60008115159050919050565b613c3081613c1b565b8114613c3b57600080fd5b50565b600081359050613c4d81613c27565b92915050565b60008060008060808587031215613c6d57613c6c61341b565b5b6000613c7b87828801613968565b945050602085013567ffffffffffffffff811115613c9c57613c9b613420565b5b613ca88782880161353d565b9350506040613cb987828801613c06565b9250506060613cca87828801613c3e565b91505092959194509250565b60006080820190508181036000830152613cf0818761365d565b90508181036020830152613d04818661365d565b90508181036040830152613d18818561365d565b9050613d276060830184613ad6565b95945050505050565b7f5065726d697373696f6e2064656e6965642c20706c656173652075736520686f60008201527f7374206163636f756e7400000000000000000000000000000000000000000000602082015250565b6000613d8c602a83613622565b9150613d9782613d30565b604082019050919050565b60006020820190508181036000830152613dbb81613d7f565b9050919050565b7f4e487b7100000000000000000000000000000000000000000000000000000000600052602260045260246000fd5b60006002820490506001821680613e0957607f821691505b602082108103613e1c57613e1b613dc2565b5b50919050565b60008190508160005260206000209050919050565b60006020601f8301049050919050565b600082821b905092915050565b600060088302613e847fffffffffffffffffffffffffffffffffffffffffffffffffffffffffffffffff82613e47565b613e8e8683613e47565b95508019841693508086168417925050509392505050565b6000819050919050565b6000613ecb613ec6613ec1846135b4565b613ea6565b6135b4565b9050919050565b6000819050919050565b613ee583613eb0565b613ef9613ef182613ed2565b848454613e54565b825550505050565b600090565b613f0e613f01565b613f19818484613edc565b505050565b5b81811015613f3d57613f32600082613f06565b600181019050613f1f565b5050565b601f821115613f8257613f5381613e22565b613f5c84613e37565b81016020851015613f6b578190505b613f7f613f7785613e37565b830182613f1e565b50505b505050565b600082821c905092915050565b6000613fa560001984600802613f87565b1980831691505092915050565b6000613fbe8383613f94565b9150826002028217905092915050565b613fd782613617565b67ffffffffffffffff811115613ff057613fef613440565b5b613ffa8254613df1565b614005828285613f41565b600060209050601f8311600181146140385760008415614026578287015190505b6140308582613fb2565b865550614098565b601f19841661404686613e22565b60005b8281101561406e57848901518255600182019150602085019450602081019050614049565b8683101561408b5784890151614087601f891682613f94565b8355505b6001600288020188555050505b505050505050565b600b81106140b1576140b06136cd565b5b50565b60008190506140c2826140a0565b919050565b60006140d2826140b4565b9050919050565b6140e2816140c7565b82525050565b7f536574204175746f62696f677261706879000000000000000000000000000000600082015250565b600061411e601183613622565b9150614129826140e8565b602082019050919050565b600060408201905061414960008301846140d9565b818103602083015261415a81614111565b905092915050565b7f4f7574206f662072616e67650000000000000000000000000000000000000000600082015250565b6000614198600c83613622565b91506141a382614162565b602082019050919050565b600060208201905081810360008301526141c78161418b565b9050919050565b7f4e487b7100000000000000000000000000000000000000000000000000000000600052603260045260246000fd5b7f5065726d697373696f6e2064656e6965642c20706c656173652075736520736360008201527f686f6f6c206163636f756e740000000000000000000000000000000000000000602082015250565b6000614259602c83613622565b9150614264826141fd565b604082019050919050565b600060208201905081810360008301526142888161424c565b9050919050565b7f53657420436f7572736500000000000000000000000000000000000000000000600082015250565b60006142c5600a83613622565b91506142d08261428f565b602082019050919050565b60006040820190506142f060008301846140d9565b8181036020830152614301816142b8565b905092915050565b7f5065726d697373696f6e2064656e6965642c20706c656173652075736520636f60008201527f6d70616e79206163636f756e7400000000000000000000000000000000000000602082015250565b6000614365602d83613622565b915061437082614309565b604082019050919050565b6000602082019050818103600083015261439481614358565b9050919050565b7f536574204a6f62456e6444617465000000000000000000000000000000000000600082015250565b60006143d1600e83613622565b91506143dc8261439b565b602082019050919050565b60006040820190506143fc60008301846140d9565b818103602083015261440d816143c4565b905092915050565b600082825260208201905092915050565b600061443182613617565b61443b8185614415565b935061444b818560208601613633565b6144548161342f565b840191505092915050565b600060408201905081810360008301526144798185614426565b9050818103602083015261448d8184614426565b90509392505050565b6000815190506144a581613c27565b92915050565b6000602082840312156144c1576144c061341b565b5b60006144cf84828501614496565b91505092915050565b7f4e487b7100000000000000000000000000000000000000000000000000000000600052601160045260246000fd5b6000614512826135b4565b91507fffffffffffffffffffffffffffffffffffffffffffffffffffffffffffffffff8203614544576145436144d8565b5b600182019050919050565b600061455a826135b4565b9150614565836135b4565b925082820390508181111561457d5761457c6144d8565b5b92915050565b600061458e826135b4565b9150614599836135b4565b92508282019050808211156145b1576145b06144d8565b5b92915050565b6000815490506145c681613df1565b9050919050565b8181036145db5750506146b3565b6145e4826145b7565b67ffffffffffffffff8111156145fd576145fc613440565b5b6146078254613df1565b614612828285613f41565b6000601f831160018114614641576000841561462f578287015490505b6146398582613fb2565b8655506146ac565b601f19841661464f87613e22565b965061465a86613e22565b60005b828110156146825784890154825560018201915060018501945060208101905061465d565b8683101561469f578489015461469b601f891682613f94565b8355505b6001600288020188555050505b5050505050505b565b7f4e487b7100000000000000000000000000000000000000000000000000000000600052603160045260246000fd5b7f52656d6f766520536b696c6c0000000000000000000000000000000000000000600082015250565b600061471a600c83613622565b9150614725826146e4565b602082019050919050565b600060408201905061474560008301846140d9565b81810360208301526147568161470d565b905092915050565b7f5065726d697373696f6e2064656e6965642c20706c656173652075736520676f60008201527f7665726e6d656e74206163636f756e7400000000000000000000000000000000602082015250565b60006147ba603083613622565b91506147c58261475e565b604082019050919050565b600060208201905081810360008301526147e9816147ad565b9050919050565b7f52656d6f7665205065726d697373696f6e000000000000000000000000000000600082015250565b6000614826601183613622565b9150614831826147f0565b602082019050919050565b600060408201905061485160008301846140d9565b818103602083015261486281614819565b905092915050565b7f536574204c6963656e7365000000000000000000000000000000000000000000600082015250565b60006148a0600b83613622565b91506148ab8261486a565b602082019050919050565b60006040820190506148cb60008301846140d9565b81810360208301526148dc81614893565b905092915050565b7f536574204a6f6220457870657269656e63650000000000000000000000000000600082015250565b600061491a601283613622565b9150614925826148e4565b602082019050919050565b600060408201905061494560008301846140d9565b81810360208301526149568161490d565b905092915050565b7f53657420456475636174696f6e00000000000000000000000000000000000000600082015250565b6000614994600d83613622565b915061499f8261495e565b602082019050919050565b60006040820190506149bf60008301846140d9565b81810360208301526149d081614987565b905092915050565b7f53657420536b696c6c0000000000000000000000000000000000000000000000600082015250565b6000614a0e600983613622565b9150614a19826149d8565b602082019050919050565b6000604082019050614a3960008301846140d9565b8181036020830152614a4a81614a01565b905092915050565b7f53657420436f6e74616374000000000000000000000000000000000000000000600082015250565b6000614a88600b83613622565b9150614a9382614a52565b602082019050919050565b6000604082019050614ab360008301846140d9565b8181036020830152614ac481614a7b565b905092915050565b7f536574205065726d697373696f6e000000000000000000000000000000000000600082015250565b6000614b02600e83613622565b9150614b0d82614acc565b602082019050919050565b6000604082019050614b2d60008301846140d9565b8181036020830152614b3e81614af5565b905092915050565b7f656475636174696f6e0000000000000000000000000000000000000000000000600082015250565b6000614b7c600983614415565b9150614b8782614b46565b602082019050919050565b60006040820190508181036000830152614bac8184614426565b90508181036020830152614bbf81614b6f565b905092915050565b7f657870657269656e636500000000000000000000000000000000000000000000600082015250565b6000614bfd600a83614415565b9150614c0882614bc7565b602082019050919050565b60006040820190508181036000830152614c2d8184614426565b90508181036020830152614c4081614bf0565b90509291505056fea26469706673582212204041bd85b26a0589f633072fe2ff909d81bfba41265cb49fe76dc07b0e4d676764736f6c63430008110033",
			"opcodes": "PUSH1 0x80 PUSH1 0x40 MSTORE CALLVALUE DUP1 ISZERO PUSH3 0x11 JUMPI PUSH1 0x0 DUP1 REVERT JUMPDEST POP PUSH1 0x40 MLOAD PUSH3 0x54C8 CODESIZE SUB DUP1 PUSH3 0x54C8 DUP4 CODECOPY DUP2 DUP2 ADD PUSH1 0x40 MSTORE DUP2 ADD SWAP1 PUSH3 0x37 SWAP2 SWAP1 PUSH3 0x448 JUMP JUMPDEST DUP4 DUP4 DUP4 DUP4 CALLER PUSH1 0x0 DUP1 PUSH2 0x100 EXP DUP2 SLOAD DUP2 PUSH20 0xFFFFFFFFFFFFFFFFFFFFFFFFFFFFFFFFFFFFFFFF MUL NOT AND SWAP1 DUP4 PUSH20 0xFFFFFFFFFFFFFFFFFFFFFFFFFFFFFFFFFFFFFFFF AND MUL OR SWAP1 SSTORE POP PUSH1 0x40 MLOAD DUP1 PUSH1 0xC0 ADD PUSH1 0x40 MSTORE DUP1 DUP6 DUP2 MSTORE PUSH1 0x20 ADD DUP5 PUSH20 0xFFFFFFFFFFFFFFFFFFFFFFFFFFFFFFFFFFFFFFFF AND DUP2 MSTORE PUSH1 0x20 ADD DUP4 PUSH1 0xFF AND DUP2 MSTORE PUSH1 0x20 ADD DUP3 PUSH1 0x2 DUP2 GT ISZERO PUSH3 0xC7 JUMPI PUSH3 0xC6 PUSH3 0x4D9 JUMP JUMPDEST JUMPDEST DUP2 MSTORE PUSH1 0x20 ADD PUSH1 0x40 MLOAD DUP1 PUSH1 0x20 ADD PUSH1 0x40 MSTORE DUP1 PUSH1 0x0 DUP2 MSTORE POP DUP2 MSTORE PUSH1 0x20 ADD PUSH1 0x40 MLOAD DUP1 PUSH1 0x20 ADD PUSH1 0x40 MSTORE DUP1 PUSH1 0x0 DUP2 MSTORE POP DUP2 MSTORE POP PUSH1 0x1 PUSH1 0x0 DUP3 ADD MLOAD DUP2 PUSH1 0x0 ADD SWAP1 DUP2 PUSH3 0x10D SWAP2 SWAP1 PUSH3 0x753 JUMP JUMPDEST POP PUSH1 0x20 DUP3 ADD MLOAD DUP2 PUSH1 0x1 ADD PUSH1 0x0 PUSH2 0x100 EXP DUP2 SLOAD DUP2 PUSH20 0xFFFFFFFFFFFFFFFFFFFFFFFFFFFFFFFFFFFFFFFF MUL NOT AND SWAP1 DUP4 PUSH20 0xFFFFFFFFFFFFFFFFFFFFFFFFFFFFFFFFFFFFFFFF AND MUL OR SWAP1 SSTORE POP PUSH1 0x40 DUP3 ADD MLOAD DUP2 PUSH1 0x1 ADD PUSH1 0x14 PUSH2 0x100 EXP DUP2 SLOAD DUP2 PUSH1 0xFF MUL NOT AND SWAP1 DUP4 PUSH1 0xFF AND MUL OR SWAP1 SSTORE POP PUSH1 0x60 DUP3 ADD MLOAD DUP2 PUSH1 0x1 ADD PUSH1 0x15 PUSH2 0x100 EXP DUP2 SLOAD DUP2 PUSH1 0xFF MUL NOT AND SWAP1 DUP4 PUSH1 0x2 DUP2 GT ISZERO PUSH3 0x1A4 JUMPI PUSH3 0x1A3 PUSH3 0x4D9 JUMP JUMPDEST JUMPDEST MUL OR SWAP1 SSTORE POP PUSH1 0x80 DUP3 ADD MLOAD DUP2 PUSH1 0x2 ADD SWAP1 DUP2 PUSH3 0x1C0 SWAP2 SWAP1 PUSH3 0x753 JUMP JUMPDEST POP PUSH1 0xA0 DUP3 ADD MLOAD DUP2 PUSH1 0x3 ADD SWAP1 DUP2 PUSH3 0x1D8 SWAP2 SWAP1 PUSH3 0x753 JUMP JUMPDEST POP SWAP1 POP POP POP POP POP POP POP POP POP POP PUSH3 0x83A JUMP JUMPDEST PUSH1 0x0 PUSH1 0x40 MLOAD SWAP1 POP SWAP1 JUMP JUMPDEST PUSH1 0x0 DUP1 REVERT JUMPDEST PUSH1 0x0 DUP1 REVERT JUMPDEST PUSH1 0x0 DUP1 REVERT JUMPDEST PUSH1 0x0 DUP1 REVERT JUMPDEST PUSH1 0x0 PUSH1 0x1F NOT PUSH1 0x1F DUP4 ADD AND SWAP1 POP SWAP2 SWAP1 POP JUMP JUMPDEST PUSH32 0x4E487B7100000000000000000000000000000000000000000000000000000000 PUSH1 0x0 MSTORE PUSH1 0x41 PUSH1 0x4 MSTORE PUSH1 0x24 PUSH1 0x0 REVERT JUMPDEST PUSH3 0x253 DUP3 PUSH3 0x208 JUMP JUMPDEST DUP2 ADD DUP2 DUP2 LT PUSH8 0xFFFFFFFFFFFFFFFF DUP3 GT OR ISZERO PUSH3 0x275 JUMPI PUSH3 0x274 PUSH3 0x219 JUMP JUMPDEST JUMPDEST DUP1 PUSH1 0x40 MSTORE POP POP POP JUMP JUMPDEST PUSH1 0x0 PUSH3 0x28A PUSH3 0x1EA JUMP JUMPDEST SWAP1 POP PUSH3 0x298 DUP3 DUP3 PUSH3 0x248 JUMP JUMPDEST SWAP2 SWAP1 POP JUMP JUMPDEST PUSH1 0x0 PUSH8 0xFFFFFFFFFFFFFFFF DUP3 GT ISZERO PUSH3 0x2BB JUMPI PUSH3 0x2BA PUSH3 0x219 JUMP JUMPDEST JUMPDEST PUSH3 0x2C6 DUP3 PUSH3 0x208 JUMP JUMPDEST SWAP1 POP PUSH1 0x20 DUP2 ADD SWAP1 POP SWAP2 SWAP1 POP JUMP JUMPDEST PUSH1 0x0 JUMPDEST DUP4 DUP2 LT ISZERO PUSH3 0x2F3 JUMPI DUP1 DUP3 ADD MLOAD DUP2 DUP5 ADD MSTORE PUSH1 0x20 DUP2 ADD SWAP1 POP PUSH3 0x2D6 JUMP JUMPDEST PUSH1 0x0 DUP5 DUP5 ADD MSTORE POP POP POP POP JUMP JUMPDEST PUSH1 0x0 PUSH3 0x316 PUSH3 0x310 DUP5 PUSH3 0x29D JUMP JUMPDEST PUSH3 0x27E JUMP JUMPDEST SWAP1 POP DUP3 DUP2 MSTORE PUSH1 0x20 DUP2 ADD DUP5 DUP5 DUP5 ADD GT ISZERO PUSH3 0x335 JUMPI PUSH3 0x334 PUSH3 0x203 JUMP JUMPDEST JUMPDEST PUSH3 0x342 DUP5 DUP3 DUP6 PUSH3 0x2D3 JUMP JUMPDEST POP SWAP4 SWAP3 POP POP POP JUMP JUMPDEST PUSH1 0x0 DUP3 PUSH1 0x1F DUP4 ADD SLT PUSH3 0x362 JUMPI PUSH3 0x361 PUSH3 0x1FE JUMP JUMPDEST JUMPDEST DUP2 MLOAD PUSH3 0x374 DUP5 DUP3 PUSH1 0x20 DUP7 ADD PUSH3 0x2FF JUMP JUMPDEST SWAP2 POP POP SWAP3 SWAP2 POP POP JUMP JUMPDEST PUSH1 0x0 PUSH20 0xFFFFFFFFFFFFFFFFFFFFFFFFFFFFFFFFFFFFFFFF DUP3 AND SWAP1 POP SWAP2 SWAP1 POP JUMP JUMPDEST PUSH1 0x0 PUSH3 0x3AA DUP3 PUSH3 0x37D JUMP JUMPDEST SWAP1 POP SWAP2 SWAP1 POP JUMP JUMPDEST PUSH3 0x3BC DUP2 PUSH3 0x39D JUMP JUMPDEST DUP2 EQ PUSH3 0x3C8 JUMPI PUSH1 0x0 DUP1 REVERT JUMPDEST POP JUMP JUMPDEST PUSH1 0x0 DUP2 MLOAD SWAP1 POP PUSH3 0x3DC DUP2 PUSH3 0x3B1 JUMP JUMPDEST SWAP3 SWAP2 POP POP JUMP JUMPDEST PUSH1 0x0 PUSH1 0xFF DUP3 AND SWAP1 POP SWAP2 SWAP1 POP JUMP JUMPDEST PUSH3 0x3FA DUP2 PUSH3 0x3E2 JUMP JUMPDEST DUP2 EQ PUSH3 0x406 JUMPI PUSH1 0x0 DUP1 REVERT JUMPDEST POP JUMP JUMPDEST PUSH1 0x0 DUP2 MLOAD SWAP1 POP PUSH3 0x41A DUP2 PUSH3 0x3EF JUMP JUMPDEST SWAP3 SWAP2 POP POP JUMP JUMPDEST PUSH1 0x3 DUP2 LT PUSH3 0x42E JUMPI PUSH1 0x0 DUP1 REVERT JUMPDEST POP JUMP JUMPDEST PUSH1 0x0 DUP2 MLOAD SWAP1 POP PUSH3 0x442 DUP2 PUSH3 0x420 JUMP JUMPDEST SWAP3 SWAP2 POP POP JUMP JUMPDEST PUSH1 0x0 DUP1 PUSH1 0x0 DUP1 PUSH1 0x80 DUP6 DUP8 SUB SLT ISZERO PUSH3 0x465 JUMPI PUSH3 0x464 PUSH3 0x1F4 JUMP JUMPDEST JUMPDEST PUSH1 0x0 DUP6 ADD MLOAD PUSH8 0xFFFFFFFFFFFFFFFF DUP2 GT ISZERO PUSH3 0x486 JUMPI PUSH3 0x485 PUSH3 0x1F9 JUMP JUMPDEST JUMPDEST PUSH3 0x494 DUP8 DUP3 DUP9 ADD PUSH3 0x34A JUMP JUMPDEST SWAP5 POP POP PUSH1 0x20 PUSH3 0x4A7 DUP8 DUP3 DUP9 ADD PUSH3 0x3CB JUMP JUMPDEST SWAP4 POP POP PUSH1 0x40 PUSH3 0x4BA DUP8 DUP3 DUP9 ADD PUSH3 0x409 JUMP JUMPDEST SWAP3 POP POP PUSH1 0x60 PUSH3 0x4CD DUP8 DUP3 DUP9 ADD PUSH3 0x431 JUMP JUMPDEST SWAP2 POP POP SWAP3 SWAP6 SWAP2 SWAP5 POP SWAP3 POP JUMP JUMPDEST PUSH32 0x4E487B7100000000000000000000000000000000000000000000000000000000 PUSH1 0x0 MSTORE PUSH1 0x21 PUSH1 0x4 MSTORE PUSH1 0x24 PUSH1 0x0 REVERT JUMPDEST PUSH1 0x0 DUP2 MLOAD SWAP1 POP SWAP2 SWAP1 POP JUMP JUMPDEST PUSH32 0x4E487B7100000000000000000000000000000000000000000000000000000000 PUSH1 0x0 MSTORE PUSH1 0x22 PUSH1 0x4 MSTORE PUSH1 0x24 PUSH1 0x0 REVERT JUMPDEST PUSH1 0x0 PUSH1 0x2 DUP3 DIV SWAP1 POP PUSH1 0x1 DUP3 AND DUP1 PUSH3 0x55B JUMPI PUSH1 0x7F DUP3 AND SWAP2 POP JUMPDEST PUSH1 0x20 DUP3 LT DUP2 SUB PUSH3 0x571 JUMPI PUSH3 0x570 PUSH3 0x513 JUMP JUMPDEST JUMPDEST POP SWAP2 SWAP1 POP JUMP JUMPDEST PUSH1 0x0 DUP2 SWAP1 POP DUP2 PUSH1 0x0 MSTORE PUSH1 0x20 PUSH1 0x0 KECCAK256 SWAP1 POP SWAP2 SWAP1 POP JUMP JUMPDEST PUSH1 0x0 PUSH1 0x20 PUSH1 0x1F DUP4 ADD DIV SWAP1 POP SWAP2 SWAP1 POP JUMP JUMPDEST PUSH1 0x0 DUP3 DUP3 SHL SWAP1 POP SWAP3 SWAP2 POP POP JUMP JUMPDEST PUSH1 0x0 PUSH1 0x8 DUP4 MUL PUSH3 0x5DB PUSH32 0xFFFFFFFFFFFFFFFFFFFFFFFFFFFFFFFFFFFFFFFFFFFFFFFFFFFFFFFFFFFFFFFF DUP3 PUSH3 0x59C JUMP JUMPDEST PUSH3 0x5E7 DUP7 DUP4 PUSH3 0x59C JUMP JUMPDEST SWAP6 POP DUP1 NOT DUP5 AND SWAP4 POP DUP1 DUP7 AND DUP5 OR SWAP3 POP POP POP SWAP4 SWAP3 POP POP POP JUMP JUMPDEST PUSH1 0x0 DUP2 SWAP1 POP SWAP2 SWAP1 POP JUMP JUMPDEST PUSH1 0x0 DUP2 SWAP1 POP SWAP2 SWAP1 POP JUMP JUMPDEST PUSH1 0x0 PUSH3 0x634 PUSH3 0x62E PUSH3 0x628 DUP5 PUSH3 0x5FF JUMP JUMPDEST PUSH3 0x609 JUMP JUMPDEST PUSH3 0x5FF JUMP JUMPDEST SWAP1 POP SWAP2 SWAP1 POP JUMP JUMPDEST PUSH1 0x0 DUP2 SWAP1 POP SWAP2 SWAP1 POP JUMP JUMPDEST PUSH3 0x650 DUP4 PUSH3 0x613 JUMP JUMPDEST PUSH3 0x668 PUSH3 0x65F DUP3 PUSH3 0x63B JUMP JUMPDEST DUP5 DUP5 SLOAD PUSH3 0x5A9 JUMP JUMPDEST DUP3 SSTORE POP POP POP POP JUMP JUMPDEST PUSH1 0x0 SWAP1 JUMP JUMPDEST PUSH3 0x67F PUSH3 0x670 JUMP JUMPDEST PUSH3 0x68C DUP2 DUP5 DUP5 PUSH3 0x645 JUMP JUMPDEST POP POP POP JUMP JUMPDEST JUMPDEST DUP2 DUP2 LT ISZERO PUSH3 0x6B4 JUMPI PUSH3 0x6A8 PUSH1 0x0 DUP3 PUSH3 0x675 JUMP JUMPDEST PUSH1 0x1 DUP2 ADD SWAP1 POP PUSH3 0x692 JUMP JUMPDEST POP POP JUMP JUMPDEST PUSH1 0x1F DUP3 GT ISZERO PUSH3 0x703 JUMPI PUSH3 0x6CD DUP2 PUSH3 0x577 JUMP JUMPDEST PUSH3 0x6D8 DUP5 PUSH3 0x58C JUMP JUMPDEST DUP2 ADD PUSH1 0x20 DUP6 LT ISZERO PUSH3 0x6E8 JUMPI DUP2 SWAP1 POP JUMPDEST PUSH3 0x700 PUSH3 0x6F7 DUP6 PUSH3 0x58C JUMP JUMPDEST DUP4 ADD DUP3 PUSH3 0x691 JUMP JUMPDEST POP POP JUMPDEST POP POP POP JUMP JUMPDEST PUSH1 0x0 DUP3 DUP3 SHR SWAP1 POP SWAP3 SWAP2 POP POP JUMP JUMPDEST PUSH1 0x0 PUSH3 0x728 PUSH1 0x0 NOT DUP5 PUSH1 0x8 MUL PUSH3 0x708 JUMP JUMPDEST NOT DUP1 DUP4 AND SWAP2 POP POP SWAP3 SWAP2 POP POP JUMP JUMPDEST PUSH1 0x0 PUSH3 0x743 DUP4 DUP4 PUSH3 0x715 JUMP JUMPDEST SWAP2 POP DUP3 PUSH1 0x2 MUL DUP3 OR SWAP1 POP SWAP3 SWAP2 POP POP JUMP JUMPDEST PUSH3 0x75E DUP3 PUSH3 0x508 JUMP JUMPDEST PUSH8 0xFFFFFFFFFFFFFFFF DUP2 GT ISZERO PUSH3 0x77A JUMPI PUSH3 0x779 PUSH3 0x219 JUMP JUMPDEST JUMPDEST PUSH3 0x786 DUP3 SLOAD PUSH3 0x542 JUMP JUMPDEST PUSH3 0x793 DUP3 DUP3 DUP6 PUSH3 0x6B8 JUMP JUMPDEST PUSH1 0x0 PUSH1 0x20 SWAP1 POP PUSH1 0x1F DUP4 GT PUSH1 0x1 DUP2 EQ PUSH3 0x7CB JUMPI PUSH1 0x0 DUP5 ISZERO PUSH3 0x7B6 JUMPI DUP3 DUP8 ADD MLOAD SWAP1 POP JUMPDEST PUSH3 0x7C2 DUP6 DUP3 PUSH3 0x735 JUMP JUMPDEST DUP7 SSTORE POP PUSH3 0x832 JUMP JUMPDEST PUSH1 0x1F NOT DUP5 AND PUSH3 0x7DB DUP7 PUSH3 0x577 JUMP JUMPDEST PUSH1 0x0 JUMPDEST DUP3 DUP2 LT ISZERO PUSH3 0x805 JUMPI DUP5 DUP10 ADD MLOAD DUP3 SSTORE PUSH1 0x1 DUP3 ADD SWAP2 POP PUSH1 0x20 DUP6 ADD SWAP5 POP PUSH1 0x20 DUP2 ADD SWAP1 POP PUSH3 0x7DE JUMP JUMPDEST DUP7 DUP4 LT ISZERO PUSH3 0x825 JUMPI DUP5 DUP10 ADD MLOAD PUSH3 0x821 PUSH1 0x1F DUP10 AND DUP3 PUSH3 0x715 JUMP JUMPDEST DUP4 SSTORE POP JUMPDEST PUSH1 0x1 PUSH1 0x2 DUP9 MUL ADD DUP9 SSTORE POP POP POP JUMPDEST POP POP POP POP POP POP JUMP JUMPDEST PUSH2 0x4C7E DUP1 PUSH3 0x84A PUSH1 0x0 CODECOPY PUSH1 0x0 RETURN INVALID PUSH1 0x80 PUSH1 0x40 MSTORE CALLVALUE DUP1 ISZERO PUSH2 0x10 JUMPI PUSH1 0x0 DUP1 REVERT JUMPDEST POP PUSH1 0x4 CALLDATASIZE LT PUSH2 0x142 JUMPI PUSH1 0x0 CALLDATALOAD PUSH1 0xE0 SHR DUP1 PUSH4 0x90536622 GT PUSH2 0xB8 JUMPI DUP1 PUSH4 0xBEC2359F GT PUSH2 0x7C JUMPI DUP1 PUSH4 0xBEC2359F EQ PUSH2 0x37B JUMPI DUP1 PUSH4 0xD8F7E1D6 EQ PUSH2 0x397 JUMPI DUP1 PUSH4 0xDFDDD00B EQ PUSH2 0x3C7 JUMPI DUP1 PUSH4 0xEABB412F EQ PUSH2 0x3E3 JUMPI DUP1 PUSH4 0xF3AB88EE EQ PUSH2 0x416 JUMPI DUP1 PUSH4 0xF5FA8FB8 EQ PUSH2 0x434 JUMPI PUSH2 0x142 JUMP JUMPDEST DUP1 PUSH4 0x90536622 EQ PUSH2 0x2D1 JUMPI DUP1 PUSH4 0x9DF284E7 EQ PUSH2 0x2ED JUMPI DUP1 PUSH4 0xA404A8EF EQ PUSH2 0x309 JUMPI DUP1 PUSH4 0xAB60636C EQ PUSH2 0x325 JUMPI DUP1 PUSH4 0xBAAE8C74 EQ PUSH2 0x348 JUMPI PUSH2 0x142 JUMP JUMPDEST DUP1 PUSH4 0x505D1C7D GT PUSH2 0x10A JUMPI DUP1 PUSH4 0x505D1C7D EQ PUSH2 0x200 JUMPI DUP1 PUSH4 0x50EE580F EQ PUSH2 0x21C JUMPI DUP1 PUSH4 0x5AF645CC EQ PUSH2 0x238 JUMPI DUP1 PUSH4 0x5EFDC2AE EQ PUSH2 0x268 JUMPI DUP1 PUSH4 0x620DDCB3 EQ PUSH2 0x284 JUMPI DUP1 PUSH4 0x7473D74E EQ PUSH2 0x2A0 JUMPI PUSH2 0x142 JUMP JUMPDEST DUP1 PUSH4 0x1DD6F402 EQ PUSH2 0x147 JUMPI DUP1 PUSH4 0x2F753E9E EQ PUSH2 0x163 JUMPI DUP1 PUSH4 0x318137EF EQ PUSH2 0x194 JUMPI DUP1 PUSH4 0x38D0D92C EQ PUSH2 0x1C6 JUMPI DUP1 PUSH4 0x39856BA7 EQ PUSH2 0x1E2 JUMPI JUMPDEST PUSH1 0x0 DUP1 REVERT JUMPDEST PUSH2 0x161 PUSH1 0x4 DUP1 CALLDATASIZE SUB DUP2 ADD SWAP1 PUSH2 0x15C SWAP2 SWAP1 PUSH2 0x356B JUMP JUMPDEST PUSH2 0x452 JUMP JUMPDEST STOP JUMPDEST PUSH2 0x17D PUSH1 0x4 DUP1 CALLDATASIZE SUB DUP2 ADD SWAP1 PUSH2 0x178 SWAP2 SWAP1 PUSH2 0x35EA JUMP JUMPDEST PUSH2 0x532 JUMP JUMPDEST PUSH1 0x40 MLOAD PUSH2 0x18B SWAP3 SWAP2 SWAP1 PUSH2 0x3696 JUMP JUMPDEST PUSH1 0x40 MLOAD DUP1 SWAP2 SUB SWAP1 RETURN JUMPDEST PUSH2 0x1AE PUSH1 0x4 DUP1 CALLDATASIZE SUB DUP2 ADD SWAP1 PUSH2 0x1A9 SWAP2 SWAP1 PUSH2 0x35EA JUMP JUMPDEST PUSH2 0x6EB JUMP JUMPDEST PUSH1 0x40 MLOAD PUSH2 0x1BD SWAP4 SWAP3 SWAP2 SWAP1 PUSH2 0x3744 JUMP JUMPDEST PUSH1 0x40 MLOAD DUP1 SWAP2 SUB SWAP1 RETURN JUMPDEST PUSH2 0x1E0 PUSH1 0x4 DUP1 CALLDATASIZE SUB DUP2 ADD SWAP1 PUSH2 0x1DB SWAP2 SWAP1 PUSH2 0x37C2 JUMP JUMPDEST PUSH2 0xD64 JUMP JUMPDEST STOP JUMPDEST PUSH2 0x1EA PUSH2 0xFD7 JUMP JUMPDEST PUSH1 0x40 MLOAD PUSH2 0x1F7 SWAP2 SWAP1 PUSH2 0x388C JUMP JUMPDEST PUSH1 0x40 MLOAD DUP1 SWAP2 SUB SWAP1 RETURN JUMPDEST PUSH2 0x21A PUSH1 0x4 DUP1 CALLDATASIZE SUB DUP2 ADD SWAP1 PUSH2 0x215 SWAP2 SWAP1 PUSH2 0x35EA JUMP JUMPDEST PUSH2 0xFE4 JUMP JUMPDEST STOP JUMPDEST PUSH2 0x236 PUSH1 0x4 DUP1 CALLDATASIZE SUB DUP2 ADD SWAP1 PUSH2 0x231 SWAP2 SWAP1 PUSH2 0x38A7 JUMP JUMPDEST PUSH2 0x11A0 JUMP JUMPDEST STOP JUMPDEST PUSH2 0x252 PUSH1 0x4 DUP1 CALLDATASIZE SUB DUP2 ADD SWAP1 PUSH2 0x24D SWAP2 SWAP1 PUSH2 0x35EA JUMP JUMPDEST PUSH2 0x164C JUMP JUMPDEST PUSH1 0x40 MLOAD PUSH2 0x25F SWAP2 SWAP1 PUSH2 0x388C JUMP JUMPDEST PUSH1 0x40 MLOAD DUP1 SWAP2 SUB SWAP1 RETURN JUMPDEST PUSH2 0x282 PUSH1 0x4 DUP1 CALLDATASIZE SUB DUP2 ADD SWAP1 PUSH2 0x27D SWAP2 SWAP1 PUSH2 0x397D JUMP JUMPDEST PUSH2 0x16CB JUMP JUMPDEST STOP JUMPDEST PUSH2 0x29E PUSH1 0x4 DUP1 CALLDATASIZE SUB DUP2 ADD SWAP1 PUSH2 0x299 SWAP2 SWAP1 PUSH2 0x38A7 JUMP JUMPDEST PUSH2 0x17F5 JUMP JUMPDEST STOP JUMPDEST PUSH2 0x2BA PUSH1 0x4 DUP1 CALLDATASIZE SUB DUP2 ADD SWAP1 PUSH2 0x2B5 SWAP2 SWAP1 PUSH2 0x39AA JUMP JUMPDEST PUSH2 0x1A20 JUMP JUMPDEST PUSH1 0x40 MLOAD PUSH2 0x2C8 SWAP3 SWAP2 SWAP1 PUSH2 0x3696 JUMP JUMPDEST PUSH1 0x40 MLOAD DUP1 SWAP2 SUB SWAP1 RETURN JUMPDEST PUSH2 0x2EB PUSH1 0x4 DUP1 CALLDATASIZE SUB DUP2 ADD SWAP1 PUSH2 0x2E6 SWAP2 SWAP1 PUSH2 0x39EA JUMP JUMPDEST PUSH2 0x1C4C JUMP JUMPDEST STOP JUMPDEST PUSH2 0x307 PUSH1 0x4 DUP1 CALLDATASIZE SUB DUP2 ADD SWAP1 PUSH2 0x302 SWAP2 SWAP1 PUSH2 0x3A6B JUMP JUMPDEST PUSH2 0x2059 JUMP JUMPDEST STOP JUMPDEST PUSH2 0x323 PUSH1 0x4 DUP1 CALLDATASIZE SUB DUP2 ADD SWAP1 PUSH2 0x31E SWAP2 SWAP1 PUSH2 0x38A7 JUMP JUMPDEST PUSH2 0x24E7 JUMP JUMPDEST STOP JUMPDEST PUSH2 0x32D PUSH2 0x2623 JUMP JUMPDEST PUSH1 0x40 MLOAD PUSH2 0x33F SWAP7 SWAP6 SWAP5 SWAP4 SWAP3 SWAP2 SWAP1 PUSH2 0x3B2D JUMP JUMPDEST PUSH1 0x40 MLOAD DUP1 SWAP2 SUB SWAP1 RETURN JUMPDEST PUSH2 0x362 PUSH1 0x4 DUP1 CALLDATASIZE SUB DUP2 ADD SWAP1 PUSH2 0x35D SWAP2 SWAP1 PUSH2 0x35EA JUMP JUMPDEST PUSH2 0x281F JUMP JUMPDEST PUSH1 0x40 MLOAD PUSH2 0x372 SWAP5 SWAP4 SWAP3 SWAP2 SWAP1 PUSH2 0x3BA3 JUMP JUMPDEST PUSH1 0x40 MLOAD DUP1 SWAP2 SUB SWAP1 RETURN JUMPDEST PUSH2 0x395 PUSH1 0x4 DUP1 CALLDATASIZE SUB DUP2 ADD SWAP1 PUSH2 0x390 SWAP2 SWAP1 PUSH2 0x356B JUMP JUMPDEST PUSH2 0x2AC3 JUMP JUMPDEST STOP JUMPDEST PUSH2 0x3B1 PUSH1 0x4 DUP1 CALLDATASIZE SUB DUP2 ADD SWAP1 PUSH2 0x3AC SWAP2 SWAP1 PUSH2 0x35EA JUMP JUMPDEST PUSH2 0x2BA3 JUMP JUMPDEST PUSH1 0x40 MLOAD PUSH2 0x3BE SWAP2 SWAP1 PUSH2 0x388C JUMP JUMPDEST PUSH1 0x40 MLOAD DUP1 SWAP2 SUB SWAP1 RETURN JUMPDEST PUSH2 0x3E1 PUSH1 0x4 DUP1 CALLDATASIZE SUB DUP2 ADD SWAP1 PUSH2 0x3DC SWAP2 SWAP1 PUSH2 0x3C53 JUMP JUMPDEST PUSH2 0x2C22 JUMP JUMPDEST STOP JUMPDEST PUSH2 0x3FD PUSH1 0x4 DUP1 CALLDATASIZE SUB DUP2 ADD SWAP1 PUSH2 0x3F8 SWAP2 SWAP1 PUSH2 0x39AA JUMP JUMPDEST PUSH2 0x2E28 JUMP JUMPDEST PUSH1 0x40 MLOAD PUSH2 0x40D SWAP5 SWAP4 SWAP3 SWAP2 SWAP1 PUSH2 0x3CD6 JUMP JUMPDEST PUSH1 0x40 MLOAD DUP1 SWAP2 SUB SWAP1 RETURN JUMPDEST PUSH2 0x41E PUSH2 0x3117 JUMP JUMPDEST PUSH1 0x40 MLOAD PUSH2 0x42B SWAP2 SWAP1 PUSH2 0x388C JUMP JUMPDEST PUSH1 0x40 MLOAD DUP1 SWAP2 SUB SWAP1 RETURN JUMPDEST PUSH2 0x43C PUSH2 0x3124 JUMP JUMPDEST PUSH1 0x40 MLOAD PUSH2 0x449 SWAP2 SWAP1 PUSH2 0x388C JUMP JUMPDEST PUSH1 0x40 MLOAD DUP1 SWAP2 SUB SWAP1 RETURN JUMPDEST PUSH1 0x1 DUP1 ADD PUSH1 0x0 SWAP1 SLOAD SWAP1 PUSH2 0x100 EXP SWAP1 DIV PUSH20 0xFFFFFFFFFFFFFFFFFFFFFFFFFFFFFFFFFFFFFFFF AND PUSH20 0xFFFFFFFFFFFFFFFFFFFFFFFFFFFFFFFFFFFFFFFF AND CALLER PUSH20 0xFFFFFFFFFFFFFFFFFFFFFFFFFFFFFFFFFFFFFFFF AND EQ PUSH2 0x4E4 JUMPI PUSH1 0x40 MLOAD PUSH32 0x8C379A000000000000000000000000000000000000000000000000000000000 DUP2 MSTORE PUSH1 0x4 ADD PUSH2 0x4DB SWAP1 PUSH2 0x3DA2 JUMP JUMPDEST PUSH1 0x40 MLOAD DUP1 SWAP2 SUB SWAP1 REVERT JUMPDEST DUP1 PUSH1 0x1 PUSH1 0x3 ADD SWAP1 DUP2 PUSH2 0x4F6 SWAP2 SWAP1 PUSH2 0x3FCE JUMP JUMPDEST POP PUSH32 0x26AAA12D2AC51334F2A0F54EE45ADD899F031D9163D6C3254931CB616A6DDFD6 PUSH1 0x6 PUSH1 0x40 MLOAD PUSH2 0x527 SWAP2 SWAP1 PUSH2 0x4134 JUMP JUMPDEST PUSH1 0x40 MLOAD DUP1 SWAP2 SUB SWAP1 LOG1 POP JUMP JUMPDEST PUSH1 0x60 DUP1 DUP3 PUSH2 0x53E PUSH2 0xFD7 JUMP JUMPDEST DUP1 DUP3 LT PUSH2 0x580 JUMPI PUSH1 0x40 MLOAD PUSH32 0x8C379A000000000000000000000000000000000000000000000000000000000 DUP2 MSTORE PUSH1 0x4 ADD PUSH2 0x577 SWAP1 PUSH2 0x41AE JUMP JUMPDEST PUSH1 0x40 MLOAD DUP1 SWAP2 SUB SWAP1 REVERT JUMPDEST PUSH1 0x0 PUSH1 0x8 DUP7 DUP2 SLOAD DUP2 LT PUSH2 0x596 JUMPI PUSH2 0x595 PUSH2 0x41CE JUMP JUMPDEST JUMPDEST SWAP1 PUSH1 0x0 MSTORE PUSH1 0x20 PUSH1 0x0 KECCAK256 SWAP1 PUSH1 0x2 MUL ADD PUSH1 0x40 MLOAD DUP1 PUSH1 0x40 ADD PUSH1 0x40 MSTORE SWAP1 DUP2 PUSH1 0x0 DUP3 ADD DUP1 SLOAD PUSH2 0x5BF SWAP1 PUSH2 0x3DF1 JUMP JUMPDEST DUP1 PUSH1 0x1F ADD PUSH1 0x20 DUP1 SWAP2 DIV MUL PUSH1 0x20 ADD PUSH1 0x40 MLOAD SWAP1 DUP2 ADD PUSH1 0x40 MSTORE DUP1 SWAP3 SWAP2 SWAP1 DUP2 DUP2 MSTORE PUSH1 0x20 ADD DUP3 DUP1 SLOAD PUSH2 0x5EB SWAP1 PUSH2 0x3DF1 JUMP JUMPDEST DUP1 ISZERO PUSH2 0x638 JUMPI DUP1 PUSH1 0x1F LT PUSH2 0x60D JUMPI PUSH2 0x100 DUP1 DUP4 SLOAD DIV MUL DUP4 MSTORE SWAP2 PUSH1 0x20 ADD SWAP2 PUSH2 0x638 JUMP JUMPDEST DUP3 ADD SWAP2 SWAP1 PUSH1 0x0 MSTORE PUSH1 0x20 PUSH1 0x0 KECCAK256 SWAP1 JUMPDEST DUP2 SLOAD DUP2 MSTORE SWAP1 PUSH1 0x1 ADD SWAP1 PUSH1 0x20 ADD DUP1 DUP4 GT PUSH2 0x61B JUMPI DUP3 SWAP1 SUB PUSH1 0x1F AND DUP3 ADD SWAP2 JUMPDEST POP POP POP POP POP DUP2 MSTORE PUSH1 0x20 ADD PUSH1 0x1 DUP3 ADD DUP1 SLOAD PUSH2 0x651 SWAP1 PUSH2 0x3DF1 JUMP JUMPDEST DUP1 PUSH1 0x1F ADD PUSH1 0x20 DUP1 SWAP2 DIV MUL PUSH1 0x20 ADD PUSH1 0x40 MLOAD SWAP1 DUP2 ADD PUSH1 0x40 MSTORE DUP1 SWAP3 SWAP2 SWAP1 DUP2 DUP2 MSTORE PUSH1 0x20 ADD DUP3 DUP1 SLOAD PUSH2 0x67D SWAP1 PUSH2 0x3DF1 JUMP JUMPDEST DUP1 ISZERO PUSH2 0x6CA JUMPI DUP1 PUSH1 0x1F LT PUSH2 0x69F JUMPI PUSH2 0x100 DUP1 DUP4 SLOAD DIV MUL DUP4 MSTORE SWAP2 PUSH1 0x20 ADD SWAP2 PUSH2 0x6CA JUMP JUMPDEST DUP3 ADD SWAP2 SWAP1 PUSH1 0x0 MSTORE PUSH1 0x20 PUSH1 0x0 KECCAK256 SWAP1 JUMPDEST DUP2 SLOAD DUP2 MSTORE SWAP1 PUSH1 0x1 ADD SWAP1 PUSH1 0x20 ADD DUP1 DUP4 GT PUSH2 0x6AD JUMPI DUP3 SWAP1 SUB PUSH1 0x1F AND DUP3 ADD SWAP2 JUMPDEST POP POP POP POP POP DUP2 MSTORE POP POP SWAP1 POP DUP1 PUSH1 0x0 ADD MLOAD DUP2 PUSH1 0x20 ADD MLOAD SWAP5 POP SWAP5 POP POP POP POP SWAP2 POP SWAP2 JUMP JUMPDEST PUSH1 0x60 PUSH1 0x0 PUSH1 0x60 DUP4 PUSH2 0x6FA PUSH2 0x3124 JUMP JUMPDEST DUP1 DUP3 LT PUSH2 0x73C JUMPI PUSH1 0x40 MLOAD PUSH32 0x8C379A000000000000000000000000000000000000000000000000000000000 DUP2 MSTORE PUSH1 0x4 ADD PUSH2 0x733 SWAP1 PUSH2 0x41AE JUMP JUMPDEST PUSH1 0x40 MLOAD DUP1 SWAP2 SUB SWAP1 REVERT JUMPDEST PUSH1 0x0 PUSH1 0x6 DUP8 DUP2 SLOAD DUP2 LT PUSH2 0x752 JUMPI PUSH2 0x751 PUSH2 0x41CE JUMP JUMPDEST JUMPDEST SWAP1 PUSH1 0x0 MSTORE PUSH1 0x20 PUSH1 0x0 KECCAK256 SWAP1 PUSH1 0x6 MUL ADD PUSH1 0x40 MLOAD DUP1 PUSH1 0xA0 ADD PUSH1 0x40 MSTORE SWAP1 DUP2 PUSH1 0x0 DUP3 ADD PUSH1 0x40 MLOAD DUP1 PUSH1 0x80 ADD PUSH1 0x40 MSTORE SWAP1 DUP2 PUSH1 0x0 DUP3 ADD DUP1 SLOAD PUSH2 0x78B SWAP1 PUSH2 0x3DF1 JUMP JUMPDEST DUP1 PUSH1 0x1F ADD PUSH1 0x20 DUP1 SWAP2 DIV MUL PUSH1 0x20 ADD PUSH1 0x40 MLOAD SWAP1 DUP2 ADD PUSH1 0x40 MSTORE DUP1 SWAP3 SWAP2 SWAP1 DUP2 DUP2 MSTORE PUSH1 0x20 ADD DUP3 DUP1 SLOAD PUSH2 0x7B7 SWAP1 PUSH2 0x3DF1 JUMP JUMPDEST DUP1 ISZERO PUSH2 0x804 JUMPI DUP1 PUSH1 0x1F LT PUSH2 0x7D9 JUMPI PUSH2 0x100 DUP1 DUP4 SLOAD DIV MUL DUP4 MSTORE SWAP2 PUSH1 0x20 ADD SWAP2 PUSH2 0x804 JUMP JUMPDEST DUP3 ADD SWAP2 SWAP1 PUSH1 0x0 MSTORE PUSH1 0x20 PUSH1 0x0 KECCAK256 SWAP1 JUMPDEST DUP2 SLOAD DUP2 MSTORE SWAP1 PUSH1 0x1 ADD SWAP1 PUSH1 0x20 ADD DUP1 DUP4 GT PUSH2 0x7E7 JUMPI DUP3 SWAP1 SUB PUSH1 0x1F AND DUP3 ADD SWAP2 JUMPDEST POP POP POP POP POP DUP2 MSTORE PUSH1 0x20 ADD PUSH1 0x1 DUP3 ADD PUSH1 0x0 SWAP1 SLOAD SWAP1 PUSH2 0x100 EXP SWAP1 DIV PUSH1 0xFF AND PUSH1 0x2 DUP2 GT ISZERO PUSH2 0x832 JUMPI PUSH2 0x831 PUSH2 0x36CD JUMP JUMPDEST JUMPDEST PUSH1 0x2 DUP2 GT ISZERO PUSH2 0x844 JUMPI PUSH2 0x843 PUSH2 0x36CD JUMP JUMPDEST JUMPDEST DUP2 MSTORE PUSH1 0x20 ADD PUSH1 0x1 DUP3 ADD PUSH1 0x1 SWAP1 SLOAD SWAP1 PUSH2 0x100 EXP SWAP1 DIV PUSH20 0xFFFFFFFFFFFFFFFFFFFFFFFFFFFFFFFFFFFFFFFF AND PUSH20 0xFFFFFFFFFFFFFFFFFFFFFFFFFFFFFFFFFFFFFFFF AND PUSH20 0xFFFFFFFFFFFFFFFFFFFFFFFFFFFFFFFFFFFFFFFF AND DUP2 MSTORE PUSH1 0x20 ADD PUSH1 0x1 DUP3 ADD PUSH1 0x15 SWAP1 SLOAD SWAP1 PUSH2 0x100 EXP SWAP1 DIV PUSH1 0xFF AND ISZERO ISZERO ISZERO ISZERO DUP2 MSTORE POP POP DUP2 MSTORE PUSH1 0x20 ADD PUSH1 0x2 DUP3 ADD PUSH1 0x0 SWAP1 SLOAD SWAP1 PUSH2 0x100 EXP SWAP1 DIV PUSH1 0xFF AND PUSH1 0x2 DUP2 GT ISZERO PUSH2 0x8E2 JUMPI PUSH2 0x8E1 PUSH2 0x36CD JUMP JUMPDEST JUMPDEST PUSH1 0x2 DUP2 GT ISZERO PUSH2 0x8F4 JUMPI PUSH2 0x8F3 PUSH2 0x36CD JUMP JUMPDEST JUMPDEST DUP2 MSTORE PUSH1 0x20 ADD PUSH1 0x3 DUP3 ADD DUP1 SLOAD PUSH2 0x908 SWAP1 PUSH2 0x3DF1 JUMP JUMPDEST DUP1 PUSH1 0x1F ADD PUSH1 0x20 DUP1 SWAP2 DIV MUL PUSH1 0x20 ADD PUSH1 0x40 MLOAD SWAP1 DUP2 ADD PUSH1 0x40 MSTORE DUP1 SWAP3 SWAP2 SWAP1 DUP2 DUP2 MSTORE PUSH1 0x20 ADD DUP3 DUP1 SLOAD PUSH2 0x934 SWAP1 PUSH2 0x3DF1 JUMP JUMPDEST DUP1 ISZERO PUSH2 0x981 JUMPI DUP1 PUSH1 0x1F LT PUSH2 0x956 JUMPI PUSH2 0x100 DUP1 DUP4 SLOAD DIV MUL DUP4 MSTORE SWAP2 PUSH1 0x20 ADD SWAP2 PUSH2 0x981 JUMP JUMPDEST DUP3 ADD SWAP2 SWAP1 PUSH1 0x0 MSTORE PUSH1 0x20 PUSH1 0x0 KECCAK256 SWAP1 JUMPDEST DUP2 SLOAD DUP2 MSTORE SWAP1 PUSH1 0x1 ADD SWAP1 PUSH1 0x20 ADD DUP1 DUP4 GT PUSH2 0x964 JUMPI DUP3 SWAP1 SUB PUSH1 0x1F AND DUP3 ADD SWAP2 JUMPDEST POP POP POP POP POP DUP2 MSTORE PUSH1 0x20 ADD PUSH1 0x4 DUP3 ADD DUP1 SLOAD DUP1 PUSH1 0x20 MUL PUSH1 0x20 ADD PUSH1 0x40 MLOAD SWAP1 DUP2 ADD PUSH1 0x40 MSTORE DUP1 SWAP3 SWAP2 SWAP1 DUP2 DUP2 MSTORE PUSH1 0x20 ADD PUSH1 0x0 SWAP1 JUMPDEST DUP3 DUP3 LT ISZERO PUSH2 0xBB4 JUMPI DUP4 DUP3 SWAP1 PUSH1 0x0 MSTORE PUSH1 0x20 PUSH1 0x0 KECCAK256 SWAP1 PUSH1 0x4 MUL ADD PUSH1 0x40 MLOAD DUP1 PUSH1 0x80 ADD PUSH1 0x40 MSTORE SWAP1 DUP2 PUSH1 0x0 DUP3 ADD DUP1 SLOAD PUSH2 0x9E2 SWAP1 PUSH2 0x3DF1 JUMP JUMPDEST DUP1 PUSH1 0x1F ADD PUSH1 0x20 DUP1 SWAP2 DIV MUL PUSH1 0x20 ADD PUSH1 0x40 MLOAD SWAP1 DUP2 ADD PUSH1 0x40 MSTORE DUP1 SWAP3 SWAP2 SWAP1 DUP2 DUP2 MSTORE PUSH1 0x20 ADD DUP3 DUP1 SLOAD PUSH2 0xA0E SWAP1 PUSH2 0x3DF1 JUMP JUMPDEST DUP1 ISZERO PUSH2 0xA5B JUMPI DUP1 PUSH1 0x1F LT PUSH2 0xA30 JUMPI PUSH2 0x100 DUP1 DUP4 SLOAD DIV MUL DUP4 MSTORE SWAP2 PUSH1 0x20 ADD SWAP2 PUSH2 0xA5B JUMP JUMPDEST DUP3 ADD SWAP2 SWAP1 PUSH1 0x0 MSTORE PUSH1 0x20 PUSH1 0x0 KECCAK256 SWAP1 JUMPDEST DUP2 SLOAD DUP2 MSTORE SWAP1 PUSH1 0x1 ADD SWAP1 PUSH1 0x20 ADD DUP1 DUP4 GT PUSH2 0xA3E JUMPI DUP3 SWAP1 SUB PUSH1 0x1F AND DUP3 ADD SWAP2 JUMPDEST POP POP POP POP POP DUP2 MSTORE PUSH1 0x20 ADD PUSH1 0x1 DUP3 ADD DUP1 SLOAD PUSH2 0xA74 SWAP1 PUSH2 0x3DF1 JUMP JUMPDEST DUP1 PUSH1 0x1F ADD PUSH1 0x20 DUP1 SWAP2 DIV MUL PUSH1 0x20 ADD PUSH1 0x40 MLOAD SWAP1 DUP2 ADD PUSH1 0x40 MSTORE DUP1 SWAP3 SWAP2 SWAP1 DUP2 DUP2 MSTORE PUSH1 0x20 ADD DUP3 DUP1 SLOAD PUSH2 0xAA0 SWAP1 PUSH2 0x3DF1 JUMP JUMPDEST DUP1 ISZERO PUSH2 0xAED JUMPI DUP1 PUSH1 0x1F LT PUSH2 0xAC2 JUMPI PUSH2 0x100 DUP1 DUP4 SLOAD DIV MUL DUP4 MSTORE SWAP2 PUSH1 0x20 ADD SWAP2 PUSH2 0xAED JUMP JUMPDEST DUP3 ADD SWAP2 SWAP1 PUSH1 0x0 MSTORE PUSH1 0x20 PUSH1 0x0 KECCAK256 SWAP1 JUMPDEST DUP2 SLOAD DUP2 MSTORE SWAP1 PUSH1 0x1 ADD SWAP1 PUSH1 0x20 ADD DUP1 DUP4 GT PUSH2 0xAD0 JUMPI DUP3 SWAP1 SUB PUSH1 0x1F AND DUP3 ADD SWAP2 JUMPDEST POP POP POP POP POP DUP2 MSTORE PUSH1 0x20 ADD PUSH1 0x2 DUP3 ADD DUP1 SLOAD PUSH2 0xB06 SWAP1 PUSH2 0x3DF1 JUMP JUMPDEST DUP1 PUSH1 0x1F ADD PUSH1 0x20 DUP1 SWAP2 DIV MUL PUSH1 0x20 ADD PUSH1 0x40 MLOAD SWAP1 DUP2 ADD PUSH1 0x40 MSTORE DUP1 SWAP3 SWAP2 SWAP1 DUP2 DUP2 MSTORE PUSH1 0x20 ADD DUP3 DUP1 SLOAD PUSH2 0xB32 SWAP1 PUSH2 0x3DF1 JUMP JUMPDEST DUP1 ISZERO PUSH2 0xB7F JUMPI DUP1 PUSH1 0x1F LT PUSH2 0xB54 JUMPI PUSH2 0x100 DUP1 DUP4 SLOAD DIV MUL DUP4 MSTORE SWAP2 PUSH1 0x20 ADD SWAP2 PUSH2 0xB7F JUMP JUMPDEST DUP3 ADD SWAP2 SWAP1 PUSH1 0x0 MSTORE PUSH1 0x20 PUSH1 0x0 KECCAK256 SWAP1 JUMPDEST DUP2 SLOAD DUP2 MSTORE SWAP1 PUSH1 0x1 ADD SWAP1 PUSH1 0x20 ADD DUP1 DUP4 GT PUSH2 0xB62 JUMPI DUP3 SWAP1 SUB PUSH1 0x1F AND DUP3 ADD SWAP2 JUMPDEST POP POP POP POP POP DUP2 MSTORE PUSH1 0x20 ADD PUSH1 0x3 DUP3 ADD PUSH1 0x0 SWAP1 SLOAD SWAP1 PUSH2 0x100 EXP SWAP1 DIV PUSH1 0xFF AND PUSH1 0xFF AND PUSH1 0xFF AND DUP2 MSTORE POP POP DUP2 MSTORE PUSH1 0x20 ADD SWAP1 PUSH1 0x1 ADD SWAP1 PUSH2 0x9AF JUMP JUMPDEST POP POP POP POP DUP2 MSTORE PUSH1 0x20 ADD PUSH1 0x5 DUP3 ADD DUP1 SLOAD DUP1 PUSH1 0x20 MUL PUSH1 0x20 ADD PUSH1 0x40 MLOAD SWAP1 DUP2 ADD PUSH1 0x40 MSTORE DUP1 SWAP3 SWAP2 SWAP1 DUP2 DUP2 MSTORE PUSH1 0x20 ADD PUSH1 0x0 SWAP1 JUMPDEST DUP3 DUP3 LT ISZERO PUSH2 0xD37 JUMPI DUP4 DUP3 SWAP1 PUSH1 0x0 MSTORE PUSH1 0x20 PUSH1 0x0 KECCAK256 SWAP1 PUSH1 0x2 MUL ADD PUSH1 0x40 MLOAD DUP1 PUSH1 0x40 ADD PUSH1 0x40 MSTORE SWAP1 DUP2 PUSH1 0x0 DUP3 ADD DUP1 SLOAD PUSH2 0xC14 SWAP1 PUSH2 0x3DF1 JUMP JUMPDEST DUP1 PUSH1 0x1F ADD PUSH1 0x20 DUP1 SWAP2 DIV MUL PUSH1 0x20 ADD PUSH1 0x40 MLOAD SWAP1 DUP2 ADD PUSH1 0x40 MSTORE DUP1 SWAP3 SWAP2 SWAP1 DUP2 DUP2 MSTORE PUSH1 0x20 ADD DUP3 DUP1 SLOAD PUSH2 0xC40 SWAP1 PUSH2 0x3DF1 JUMP JUMPDEST DUP1 ISZERO PUSH2 0xC8D JUMPI DUP1 PUSH1 0x1F LT PUSH2 0xC62 JUMPI PUSH2 0x100 DUP1 DUP4 SLOAD DIV MUL DUP4 MSTORE SWAP2 PUSH1 0x20 ADD SWAP2 PUSH2 0xC8D JUMP JUMPDEST DUP3 ADD SWAP2 SWAP1 PUSH1 0x0 MSTORE PUSH1 0x20 PUSH1 0x0 KECCAK256 SWAP1 JUMPDEST DUP2 SLOAD DUP2 MSTORE SWAP1 PUSH1 0x1 ADD SWAP1 PUSH1 0x20 ADD DUP1 DUP4 GT PUSH2 0xC70 JUMPI DUP3 SWAP1 SUB PUSH1 0x1F AND DUP3 ADD SWAP2 JUMPDEST POP POP POP POP POP DUP2 MSTORE PUSH1 0x20 ADD PUSH1 0x1 DUP3 ADD DUP1 SLOAD PUSH2 0xCA6 SWAP1 PUSH2 0x3DF1 JUMP JUMPDEST DUP1 PUSH1 0x1F ADD PUSH1 0x20 DUP1 SWAP2 DIV MUL PUSH1 0x20 ADD PUSH1 0x40 MLOAD SWAP1 DUP2 ADD PUSH1 0x40 MSTORE DUP1 SWAP3 SWAP2 SWAP1 DUP2 DUP2 MSTORE PUSH1 0x20 ADD DUP3 DUP1 SLOAD PUSH2 0xCD2 SWAP1 PUSH2 0x3DF1 JUMP JUMPDEST DUP1 ISZERO PUSH2 0xD1F JUMPI DUP1 PUSH1 0x1F LT PUSH2 0xCF4 JUMPI PUSH2 0x100 DUP1 DUP4 SLOAD DIV MUL DUP4 MSTORE SWAP2 PUSH1 0x20 ADD SWAP2 PUSH2 0xD1F JUMP JUMPDEST DUP3 ADD SWAP2 SWAP1 PUSH1 0x0 MSTORE PUSH1 0x20 PUSH1 0x0 KECCAK256 SWAP1 JUMPDEST DUP2 SLOAD DUP2 MSTORE SWAP1 PUSH1 0x1 ADD SWAP1 PUSH1 0x20 ADD DUP1 DUP4 GT PUSH2 0xD02 JUMPI DUP3 SWAP1 SUB PUSH1 0x1F AND DUP3 ADD SWAP2 JUMPDEST POP POP POP POP POP DUP2 MSTORE POP POP DUP2 MSTORE PUSH1 0x20 ADD SWAP1 PUSH1 0x1 ADD SWAP1 PUSH2 0xBE1 JUMP JUMPDEST POP POP POP POP DUP2 MSTORE POP POP SWAP1 POP DUP1 PUSH1 0x0 ADD MLOAD PUSH1 0x0 ADD MLOAD DUP2 PUSH1 0x20 ADD MLOAD DUP3 PUSH1 0x40 ADD MLOAD SWAP6 POP SWAP6 POP SWAP6 POP POP POP POP SWAP2 SWAP4 SWAP1 SWAP3 POP JUMP JUMPDEST PUSH1 0x0 PUSH1 0x1 PUSH1 0x2 DUP2 GT ISZERO PUSH2 0xD7A JUMPI PUSH2 0xD79 PUSH2 0x36CD JUMP JUMPDEST JUMPDEST PUSH1 0x5 PUSH1 0x0 CALLER PUSH20 0xFFFFFFFFFFFFFFFFFFFFFFFFFFFFFFFFFFFFFFFF AND PUSH20 0xFFFFFFFFFFFFFFFFFFFFFFFFFFFFFFFFFFFFFFFF AND DUP2 MSTORE PUSH1 0x20 ADD SWAP1 DUP2 MSTORE PUSH1 0x20 ADD PUSH1 0x0 KECCAK256 PUSH1 0x1 ADD PUSH1 0x0 SWAP1 SLOAD SWAP1 PUSH2 0x100 EXP SWAP1 DIV PUSH1 0xFF AND PUSH1 0x2 DUP2 GT ISZERO PUSH2 0xDDC JUMPI PUSH2 0xDDB PUSH2 0x36CD JUMP JUMPDEST JUMPDEST EQ SWAP1 POP DUP1 DUP1 ISZERO PUSH2 0xE38 JUMPI POP PUSH1 0x5 PUSH1 0x0 CALLER PUSH20 0xFFFFFFFFFFFFFFFFFFFFFFFFFFFFFFFFFFFFFFFF AND PUSH20 0xFFFFFFFFFFFFFFFFFFFFFFFFFFFFFFFFFFFFFFFF AND DUP2 MSTORE PUSH1 0x20 ADD SWAP1 DUP2 MSTORE PUSH1 0x20 ADD PUSH1 0x0 KECCAK256 PUSH1 0x1 ADD PUSH1 0x15 SWAP1 SLOAD SWAP1 PUSH2 0x100 EXP SWAP1 DIV PUSH1 0xFF AND JUMPDEST PUSH2 0xE77 JUMPI PUSH1 0x40 MLOAD PUSH32 0x8C379A000000000000000000000000000000000000000000000000000000000 DUP2 MSTORE PUSH1 0x4 ADD PUSH2 0xE6E SWAP1 PUSH2 0x426F JUMP JUMPDEST PUSH1 0x40 MLOAD DUP1 SWAP2 SUB SWAP1 REVERT JUMPDEST PUSH1 0x0 PUSH2 0xEB8 CALLER PUSH1 0x40 MLOAD DUP1 PUSH1 0x40 ADD PUSH1 0x40 MSTORE DUP1 PUSH1 0x9 DUP2 MSTORE PUSH1 0x20 ADD PUSH32 0x656475636174696F6E0000000000000000000000000000000000000000000000 DUP2 MSTORE POP PUSH2 0x3131 JUMP JUMPDEST SWAP1 POP PUSH1 0x0 PUSH1 0x6 DUP3 DUP2 SLOAD DUP2 LT PUSH2 0xED0 JUMPI PUSH2 0xECF PUSH2 0x41CE JUMP JUMPDEST JUMPDEST SWAP1 PUSH1 0x0 MSTORE PUSH1 0x20 PUSH1 0x0 KECCAK256 SWAP1 PUSH1 0x6 MUL ADD SWAP1 POP DUP1 PUSH1 0x4 ADD PUSH1 0x40 MLOAD DUP1 PUSH1 0x80 ADD PUSH1 0x40 MSTORE DUP1 DUP10 DUP2 MSTORE PUSH1 0x20 ADD DUP9 DUP2 MSTORE PUSH1 0x20 ADD DUP8 DUP2 MSTORE PUSH1 0x20 ADD DUP7 PUSH1 0xFF AND DUP2 MSTORE POP SWAP1 DUP1 PUSH1 0x1 DUP2 SLOAD ADD DUP1 DUP3 SSTORE DUP1 SWAP2 POP POP PUSH1 0x1 SWAP1 SUB SWAP1 PUSH1 0x0 MSTORE PUSH1 0x20 PUSH1 0x0 KECCAK256 SWAP1 PUSH1 0x4 MUL ADD PUSH1 0x0 SWAP1 SWAP2 SWAP1 SWAP2 SWAP1 SWAP2 POP PUSH1 0x0 DUP3 ADD MLOAD DUP2 PUSH1 0x0 ADD SWAP1 DUP2 PUSH2 0xF46 SWAP2 SWAP1 PUSH2 0x3FCE JUMP JUMPDEST POP PUSH1 0x20 DUP3 ADD MLOAD DUP2 PUSH1 0x1 ADD SWAP1 DUP2 PUSH2 0xF5C SWAP2 SWAP1 PUSH2 0x3FCE JUMP JUMPDEST POP PUSH1 0x40 DUP3 ADD MLOAD DUP2 PUSH1 0x2 ADD SWAP1 DUP2 PUSH2 0xF72 SWAP2 SWAP1 PUSH2 0x3FCE JUMP JUMPDEST POP PUSH1 0x60 DUP3 ADD MLOAD DUP2 PUSH1 0x3 ADD PUSH1 0x0 PUSH2 0x100 EXP DUP2 SLOAD DUP2 PUSH1 0xFF MUL NOT AND SWAP1 DUP4 PUSH1 0xFF AND MUL OR SWAP1 SSTORE POP POP POP PUSH32 0x26AAA12D2AC51334F2A0F54EE45ADD899F031D9163D6C3254931CB616A6DDFD6 PUSH1 0x3 PUSH1 0x40 MLOAD PUSH2 0xFC6 SWAP2 SWAP1 PUSH2 0x42DB JUMP JUMPDEST PUSH1 0x40 MLOAD DUP1 SWAP2 SUB SWAP1 LOG1 POP POP POP POP POP POP POP JUMP JUMPDEST PUSH1 0x0 PUSH1 0x8 DUP1 SLOAD SWAP1 POP SWAP1 POP SWAP1 JUMP JUMPDEST PUSH1 0x0 PUSH1 0x2 DUP1 DUP2 GT ISZERO PUSH2 0xFF9 JUMPI PUSH2 0xFF8 PUSH2 0x36CD JUMP JUMPDEST JUMPDEST PUSH1 0x5 PUSH1 0x0 CALLER PUSH20 0xFFFFFFFFFFFFFFFFFFFFFFFFFFFFFFFFFFFFFFFF AND PUSH20 0xFFFFFFFFFFFFFFFFFFFFFFFFFFFFFFFFFFFFFFFF AND DUP2 MSTORE PUSH1 0x20 ADD SWAP1 DUP2 MSTORE PUSH1 0x20 ADD PUSH1 0x0 KECCAK256 PUSH1 0x1 ADD PUSH1 0x0 SWAP1 SLOAD SWAP1 PUSH2 0x100 EXP SWAP1 DIV PUSH1 0xFF AND PUSH1 0x2 DUP2 GT ISZERO PUSH2 0x105B JUMPI PUSH2 0x105A PUSH2 0x36CD JUMP JUMPDEST JUMPDEST EQ SWAP1 POP DUP1 DUP1 ISZERO PUSH2 0x10B7 JUMPI POP PUSH1 0x5 PUSH1 0x0 CALLER PUSH20 0xFFFFFFFFFFFFFFFFFFFFFFFFFFFFFFFFFFFFFFFF AND PUSH20 0xFFFFFFFFFFFFFFFFFFFFFFFFFFFFFFFFFFFFFFFF AND DUP2 MSTORE PUSH1 0x20 ADD SWAP1 DUP2 MSTORE PUSH1 0x20 ADD PUSH1 0x0 KECCAK256 PUSH1 0x1 ADD PUSH1 0x15 SWAP1 SLOAD SWAP1 PUSH2 0x100 EXP SWAP1 DIV PUSH1 0xFF AND JUMPDEST PUSH2 0x10F6 JUMPI PUSH1 0x40 MLOAD PUSH32 0x8C379A000000000000000000000000000000000000000000000000000000000 DUP2 MSTORE PUSH1 0x4 ADD PUSH2 0x10ED SWAP1 PUSH2 0x437B JUMP JUMPDEST PUSH1 0x40 MLOAD DUP1 SWAP2 SUB SWAP1 REVERT JUMPDEST PUSH1 0x0 PUSH2 0x1137 CALLER PUSH1 0x40 MLOAD DUP1 PUSH1 0x40 ADD PUSH1 0x40 MSTORE DUP1 PUSH1 0xA DUP2 MSTORE PUSH1 0x20 ADD PUSH32 0x657870657269656E636500000000000000000000000000000000000000000000 DUP2 MSTORE POP PUSH2 0x3131 JUMP JUMPDEST SWAP1 POP DUP3 PUSH1 0x7 DUP3 DUP2 SLOAD DUP2 LT PUSH2 0x114E JUMPI PUSH2 0x114D PUSH2 0x41CE JUMP JUMPDEST JUMPDEST SWAP1 PUSH1 0x0 MSTORE PUSH1 0x20 PUSH1 0x0 KECCAK256 SWAP1 PUSH1 0x5 MUL ADD PUSH1 0x4 ADD DUP2 SWAP1 SSTORE POP PUSH32 0x26AAA12D2AC51334F2A0F54EE45ADD899F031D9163D6C3254931CB616A6DDFD6 PUSH1 0x5 PUSH1 0x40 MLOAD PUSH2 0x1193 SWAP2 SWAP1 PUSH2 0x43E7 JUMP JUMPDEST PUSH1 0x40 MLOAD DUP1 SWAP2 SUB SWAP1 LOG1 POP POP POP JUMP JUMPDEST PUSH1 0x1 DUP1 ADD PUSH1 0x0 SWAP1 SLOAD SWAP1 PUSH2 0x100 EXP SWAP1 DIV PUSH20 0xFFFFFFFFFFFFFFFFFFFFFFFFFFFFFFFFFFFFFFFF AND PUSH20 0xFFFFFFFFFFFFFFFFFFFFFFFFFFFFFFFFFFFFFFFF AND CALLER PUSH20 0xFFFFFFFFFFFFFFFFFFFFFFFFFFFFFFFFFFFFFFFF AND EQ PUSH2 0x1232 JUMPI PUSH1 0x40 MLOAD PUSH32 0x8C379A000000000000000000000000000000000000000000000000000000000 DUP2 MSTORE PUSH1 0x4 ADD PUSH2 0x1229 SWAP1 PUSH2 0x3DA2 JUMP JUMPDEST PUSH1 0x40 MLOAD DUP1 SWAP2 SUB SWAP1 REVERT JUMPDEST PUSH1 0x0 DUP1 JUMPDEST PUSH1 0x8 DUP1 SLOAD SWAP1 POP DUP2 LT ISZERO PUSH2 0x14BD JUMPI PUSH1 0x8 DUP2 DUP2 SLOAD DUP2 LT PUSH2 0x1257 JUMPI PUSH2 0x1256 PUSH2 0x41CE JUMP JUMPDEST JUMPDEST SWAP1 PUSH1 0x0 MSTORE PUSH1 0x20 PUSH1 0x0 KECCAK256 SWAP1 PUSH1 0x2 MUL ADD PUSH1 0x1 ADD DUP1 SLOAD PUSH2 0x1273 SWAP1 PUSH2 0x3DF1 JUMP JUMPDEST DUP1 PUSH1 0x1F ADD PUSH1 0x20 DUP1 SWAP2 DIV MUL PUSH1 0x20 ADD PUSH1 0x40 MLOAD SWAP1 DUP2 ADD PUSH1 0x40 MSTORE DUP1 SWAP3 SWAP2 SWAP1 DUP2 DUP2 MSTORE PUSH1 0x20 ADD DUP3 DUP1 SLOAD PUSH2 0x129F SWAP1 PUSH2 0x3DF1 JUMP JUMPDEST DUP1 ISZERO PUSH2 0x12EC JUMPI DUP1 PUSH1 0x1F LT PUSH2 0x12C1 JUMPI PUSH2 0x100 DUP1 DUP4 SLOAD DIV MUL DUP4 MSTORE SWAP2 PUSH1 0x20 ADD SWAP2 PUSH2 0x12EC JUMP JUMPDEST DUP3 ADD SWAP2 SWAP1 PUSH1 0x0 MSTORE PUSH1 0x20 PUSH1 0x0 KECCAK256 SWAP1 JUMPDEST DUP2 SLOAD DUP2 MSTORE SWAP1 PUSH1 0x1 ADD SWAP1 PUSH1 0x20 ADD DUP1 DUP4 GT PUSH2 0x12CF JUMPI DUP3 SWAP1 SUB PUSH1 0x1F AND DUP3 ADD SWAP2 JUMPDEST POP POP POP POP POP PUSH20 0x0 PUSH4 0x3A96FDD7 SWAP1 SWAP2 DUP6 PUSH1 0x40 MLOAD DUP4 PUSH4 0xFFFFFFFF AND PUSH1 0xE0 SHL DUP2 MSTORE PUSH1 0x4 ADD PUSH2 0x132B SWAP3 SWAP2 SWAP1 PUSH2 0x445F JUMP JUMPDEST PUSH1 0x20 PUSH1 0x40 MLOAD DUP1 DUP4 SUB DUP2 DUP7 GAS DELEGATECALL ISZERO DUP1 ISZERO PUSH2 0x1348 JUMPI RETURNDATASIZE PUSH1 0x0 DUP1 RETURNDATACOPY RETURNDATASIZE PUSH1 0x0 REVERT JUMPDEST POP POP POP POP PUSH1 0x40 MLOAD RETURNDATASIZE PUSH1 0x1F NOT PUSH1 0x1F DUP3 ADD AND DUP3 ADD DUP1 PUSH1 0x40 MSTORE POP DUP2 ADD SWAP1 PUSH2 0x136C SWAP2 SWAP1 PUSH2 0x44AB JUMP JUMPDEST DUP1 ISZERO PUSH2 0x149D JUMPI POP PUSH1 0x8 DUP2 DUP2 SLOAD DUP2 LT PUSH2 0x1387 JUMPI PUSH2 0x1386 PUSH2 0x41CE JUMP JUMPDEST JUMPDEST SWAP1 PUSH1 0x0 MSTORE PUSH1 0x20 PUSH1 0x0 KECCAK256 SWAP1 PUSH1 0x2 MUL ADD PUSH1 0x0 ADD DUP1 SLOAD PUSH2 0x13A3 SWAP1 PUSH2 0x3DF1 JUMP JUMPDEST DUP1 PUSH1 0x1F ADD PUSH1 0x20 DUP1 SWAP2 DIV MUL PUSH1 0x20 ADD PUSH1 0x40 MLOAD SWAP1 DUP2 ADD PUSH1 0x40 MSTORE DUP1 SWAP3 SWAP2 SWAP1 DUP2 DUP2 MSTORE PUSH1 0x20 ADD DUP3 DUP1 SLOAD PUSH2 0x13CF SWAP1 PUSH2 0x3DF1 JUMP JUMPDEST DUP1 ISZERO PUSH2 0x141C JUMPI DUP1 PUSH1 0x1F LT PUSH2 0x13F1 JUMPI PUSH2 0x100 DUP1 DUP4 SLOAD DIV MUL DUP4 MSTORE SWAP2 PUSH1 0x20 ADD SWAP2 PUSH2 0x141C JUMP JUMPDEST DUP3 ADD SWAP2 SWAP1 PUSH1 0x0 MSTORE PUSH1 0x20 PUSH1 0x0 KECCAK256 SWAP1 JUMPDEST DUP2 SLOAD DUP2 MSTORE SWAP1 PUSH1 0x1 ADD SWAP1 PUSH1 0x20 ADD DUP1 DUP4 GT PUSH2 0x13FF JUMPI DUP3 SWAP1 SUB PUSH1 0x1F AND DUP3 ADD SWAP2 JUMPDEST POP POP POP POP POP PUSH20 0x0 PUSH4 0x3A96FDD7 SWAP1 SWAP2 DUP7 PUSH1 0x40 MLOAD DUP4 PUSH4 0xFFFFFFFF AND PUSH1 0xE0 SHL DUP2 MSTORE PUSH1 0x4 ADD PUSH2 0x145B SWAP3 SWAP2 SWAP1 PUSH2 0x445F JUMP JUMPDEST PUSH1 0x20 PUSH1 0x40 MLOAD DUP1 DUP4 SUB DUP2 DUP7 GAS DELEGATECALL ISZERO DUP1 ISZERO PUSH2 0x1478 JUMPI RETURNDATASIZE PUSH1 0x0 DUP1 RETURNDATACOPY RETURNDATASIZE PUSH1 0x0 REVERT JUMPDEST POP POP POP POP PUSH1 0x40 MLOAD RETURNDATASIZE PUSH1 0x1F NOT PUSH1 0x1F DUP3 ADD AND DUP3 ADD DUP1 PUSH1 0x40 MSTORE POP DUP2 ADD SWAP1 PUSH2 0x149C SWAP2 SWAP1 PUSH2 0x44AB JUMP JUMPDEST JUMPDEST ISZERO PUSH2 0x14AA JUMPI DUP1 SWAP2 POP PUSH2 0x14BD JUMP JUMPDEST DUP1 DUP1 PUSH2 0x14B5 SWAP1 PUSH2 0x4507 JUMP JUMPDEST SWAP2 POP POP PUSH2 0x1236 JUMP JUMPDEST POP PUSH1 0x0 DUP2 SWAP1 POP JUMPDEST PUSH1 0x1 PUSH1 0x8 DUP1 SLOAD SWAP1 POP PUSH2 0x14D6 SWAP2 SWAP1 PUSH2 0x454F JUMP JUMPDEST DUP2 LT ISZERO PUSH2 0x156D JUMPI PUSH1 0x8 PUSH1 0x1 DUP3 PUSH2 0x14EC SWAP2 SWAP1 PUSH2 0x4583 JUMP JUMPDEST DUP2 SLOAD DUP2 LT PUSH2 0x14FD JUMPI PUSH2 0x14FC PUSH2 0x41CE JUMP JUMPDEST JUMPDEST SWAP1 PUSH1 0x0 MSTORE PUSH1 0x20 PUSH1 0x0 KECCAK256 SWAP1 PUSH1 0x2 MUL ADD PUSH1 0x8 DUP3 DUP2 SLOAD DUP2 LT PUSH2 0x151F JUMPI PUSH2 0x151E PUSH2 0x41CE JUMP JUMPDEST JUMPDEST SWAP1 PUSH1 0x0 MSTORE PUSH1 0x20 PUSH1 0x0 KECCAK256 SWAP1 PUSH1 0x2 MUL ADD PUSH1 0x0 DUP3 ADD DUP2 PUSH1 0x0 ADD SWAP1 DUP2 PUSH2 0x1541 SWAP2 SWAP1 PUSH2 0x45CD JUMP JUMPDEST POP PUSH1 0x1 DUP3 ADD DUP2 PUSH1 0x1 ADD SWAP1 DUP2 PUSH2 0x1556 SWAP2 SWAP1 PUSH2 0x45CD JUMP JUMPDEST POP SWAP1 POP POP DUP1 DUP1 PUSH2 0x1565 SWAP1 PUSH2 0x4507 JUMP JUMPDEST SWAP2 POP POP PUSH2 0x14C4 JUMP JUMPDEST POP PUSH1 0x8 PUSH1 0x1 PUSH1 0x8 DUP1 SLOAD SWAP1 POP PUSH2 0x1582 SWAP2 SWAP1 PUSH2 0x454F JUMP JUMPDEST DUP2 SLOAD DUP2 LT PUSH2 0x1593 JUMPI PUSH2 0x1592 PUSH2 0x41CE JUMP JUMPDEST JUMPDEST SWAP1 PUSH1 0x0 MSTORE PUSH1 0x20 PUSH1 0x0 KECCAK256 SWAP1 PUSH1 0x2 MUL ADD PUSH1 0x0 DUP1 DUP3 ADD PUSH1 0x0 PUSH2 0x15B2 SWAP2 SWAP1 PUSH2 0x33B4 JUMP JUMPDEST PUSH1 0x1 DUP3 ADD PUSH1 0x0 PUSH2 0x15C2 SWAP2 SWAP1 PUSH2 0x33B4 JUMP JUMPDEST POP POP PUSH1 0x8 DUP1 SLOAD DUP1 PUSH2 0x15D6 JUMPI PUSH2 0x15D5 PUSH2 0x46B5 JUMP JUMPDEST JUMPDEST PUSH1 0x1 SWAP1 SUB DUP2 DUP2 SWAP1 PUSH1 0x0 MSTORE PUSH1 0x20 PUSH1 0x0 KECCAK256 SWAP1 PUSH1 0x2 MUL ADD PUSH1 0x0 DUP1 DUP3 ADD PUSH1 0x0 PUSH2 0x15FB SWAP2 SWAP1 PUSH2 0x33B4 JUMP JUMPDEST PUSH1 0x1 DUP3 ADD PUSH1 0x0 PUSH2 0x160B SWAP2 SWAP1 PUSH2 0x33B4 JUMP JUMPDEST POP POP SWAP1 SSTORE PUSH32 0x26AAA12D2AC51334F2A0F54EE45ADD899F031D9163D6C3254931CB616A6DDFD6 PUSH1 0xA PUSH1 0x40 MLOAD PUSH2 0x163F SWAP2 SWAP1 PUSH2 0x4730 JUMP JUMPDEST PUSH1 0x40 MLOAD DUP1 SWAP2 SUB SWAP1 LOG1 POP POP POP JUMP JUMPDEST PUSH1 0x0 DUP2 PUSH2 0x1657 PUSH2 0x3124 JUMP JUMPDEST DUP1 DUP3 LT PUSH2 0x1699 JUMPI PUSH1 0x40 MLOAD PUSH32 0x8C379A000000000000000000000000000000000000000000000000000000000 DUP2 MSTORE PUSH1 0x4 ADD PUSH2 0x1690 SWAP1 PUSH2 0x41AE JUMP JUMPDEST PUSH1 0x40 MLOAD DUP1 SWAP2 SUB SWAP1 REVERT JUMPDEST PUSH1 0x6 DUP5 DUP2 SLOAD DUP2 LT PUSH2 0x16AD JUMPI PUSH2 0x16AC PUSH2 0x41CE JUMP JUMPDEST JUMPDEST SWAP1 PUSH1 0x0 MSTORE PUSH1 0x20 PUSH1 0x0 KECCAK256 SWAP1 PUSH1 0x6 MUL ADD PUSH1 0x4 ADD DUP1 SLOAD SWAP1 POP SWAP3 POP POP POP SWAP2 SWAP1 POP JUMP JUMPDEST PUSH1 0x0 DUP1 SLOAD SWAP1 PUSH2 0x100 EXP SWAP1 DIV PUSH20 0xFFFFFFFFFFFFFFFFFFFFFFFFFFFFFFFFFFFFFFFF AND PUSH20 0xFFFFFFFFFFFFFFFFFFFFFFFFFFFFFFFFFFFFFFFF AND CALLER PUSH20 0xFFFFFFFFFFFFFFFFFFFFFFFFFFFFFFFFFFFFFFFF AND EQ PUSH2 0x1759 JUMPI PUSH1 0x40 MLOAD PUSH32 0x8C379A000000000000000000000000000000000000000000000000000000000 DUP2 MSTORE PUSH1 0x4 ADD PUSH2 0x1750 SWAP1 PUSH2 0x47D0 JUMP JUMPDEST PUSH1 0x40 MLOAD DUP1 SWAP2 SUB SWAP1 REVERT JUMPDEST PUSH1 0x0 PUSH1 0x5 PUSH1 0x0 DUP4 PUSH20 0xFFFFFFFFFFFFFFFFFFFFFFFFFFFFFFFFFFFFFFFF AND PUSH20 0xFFFFFFFFFFFFFFFFFFFFFFFFFFFFFFFFFFFFFFFF AND DUP2 MSTORE PUSH1 0x20 ADD SWAP1 DUP2 MSTORE PUSH1 0x20 ADD PUSH1 0x0 KECCAK256 SWAP1 POP PUSH1 0x0 DUP2 PUSH1 0x1 ADD PUSH1 0x15 PUSH2 0x100 EXP DUP2 SLOAD DUP2 PUSH1 0xFF MUL NOT AND SWAP1 DUP4 ISZERO ISZERO MUL OR SWAP1 SSTORE POP PUSH32 0x26AAA12D2AC51334F2A0F54EE45ADD899F031D9163D6C3254931CB616A6DDFD6 PUSH1 0x9 PUSH1 0x40 MLOAD PUSH2 0x17E9 SWAP2 SWAP1 PUSH2 0x483C JUMP JUMPDEST PUSH1 0x40 MLOAD DUP1 SWAP2 SUB SWAP1 LOG1 POP POP JUMP JUMPDEST PUSH1 0x0 PUSH1 0x1 PUSH1 0x2 DUP2 GT ISZERO PUSH2 0x180B JUMPI PUSH2 0x180A PUSH2 0x36CD JUMP JUMPDEST JUMPDEST PUSH1 0x5 PUSH1 0x0 CALLER PUSH20 0xFFFFFFFFFFFFFFFFFFFFFFFFFFFFFFFFFFFFFFFF AND PUSH20 0xFFFFFFFFFFFFFFFFFFFFFFFFFFFFFFFFFFFFFFFF AND DUP2 MSTORE PUSH1 0x20 ADD SWAP1 DUP2 MSTORE PUSH1 0x20 ADD PUSH1 0x0 KECCAK256 PUSH1 0x1 ADD PUSH1 0x0 SWAP1 SLOAD SWAP1 PUSH2 0x100 EXP SWAP1 DIV PUSH1 0xFF AND PUSH1 0x2 DUP2 GT ISZERO PUSH2 0x186D JUMPI PUSH2 0x186C PUSH2 0x36CD JUMP JUMPDEST JUMPDEST EQ SWAP1 POP DUP1 DUP1 ISZERO PUSH2 0x18C9 JUMPI POP PUSH1 0x5 PUSH1 0x0 CALLER PUSH20 0xFFFFFFFFFFFFFFFFFFFFFFFFFFFFFFFFFFFFFFFF AND PUSH20 0xFFFFFFFFFFFFFFFFFFFFFFFFFFFFFFFFFFFFFFFF AND DUP2 MSTORE PUSH1 0x20 ADD SWAP1 DUP2 MSTORE PUSH1 0x20 ADD PUSH1 0x0 KECCAK256 PUSH1 0x1 ADD PUSH1 0x15 SWAP1 SLOAD SWAP1 PUSH2 0x100 EXP SWAP1 DIV PUSH1 0xFF AND JUMPDEST PUSH2 0x1908 JUMPI PUSH1 0x40 MLOAD PUSH32 0x8C379A000000000000000000000000000000000000000000000000000000000 DUP2 MSTORE PUSH1 0x4 ADD PUSH2 0x18FF SWAP1 PUSH2 0x426F JUMP JUMPDEST PUSH1 0x40 MLOAD DUP1 SWAP2 SUB SWAP1 REVERT JUMPDEST PUSH1 0x0 PUSH2 0x1949 CALLER PUSH1 0x40 MLOAD DUP1 PUSH1 0x40 ADD PUSH1 0x40 MSTORE DUP1 PUSH1 0x9 DUP2 MSTORE PUSH1 0x20 ADD PUSH32 0x656475636174696F6E0000000000000000000000000000000000000000000000 DUP2 MSTORE POP PUSH2 0x3131 JUMP JUMPDEST SWAP1 POP PUSH1 0x0 PUSH1 0x6 DUP3 DUP2 SLOAD DUP2 LT PUSH2 0x1961 JUMPI PUSH2 0x1960 PUSH2 0x41CE JUMP JUMPDEST JUMPDEST SWAP1 PUSH1 0x0 MSTORE PUSH1 0x20 PUSH1 0x0 KECCAK256 SWAP1 PUSH1 0x6 MUL ADD SWAP1 POP DUP1 PUSH1 0x5 ADD PUSH1 0x40 MLOAD DUP1 PUSH1 0x40 ADD PUSH1 0x40 MSTORE DUP1 DUP8 DUP2 MSTORE PUSH1 0x20 ADD DUP7 DUP2 MSTORE POP SWAP1 DUP1 PUSH1 0x1 DUP2 SLOAD ADD DUP1 DUP3 SSTORE DUP1 SWAP2 POP POP PUSH1 0x1 SWAP1 SUB SWAP1 PUSH1 0x0 MSTORE PUSH1 0x20 PUSH1 0x0 KECCAK256 SWAP1 PUSH1 0x2 MUL ADD PUSH1 0x0 SWAP1 SWAP2 SWAP1 SWAP2 SWAP1 SWAP2 POP PUSH1 0x0 DUP3 ADD MLOAD DUP2 PUSH1 0x0 ADD SWAP1 DUP2 PUSH2 0x19C8 SWAP2 SWAP1 PUSH2 0x3FCE JUMP JUMPDEST POP PUSH1 0x20 DUP3 ADD MLOAD DUP2 PUSH1 0x1 ADD SWAP1 DUP2 PUSH2 0x19DE SWAP2 SWAP1 PUSH2 0x3FCE JUMP JUMPDEST POP POP POP PUSH32 0x26AAA12D2AC51334F2A0F54EE45ADD899F031D9163D6C3254931CB616A6DDFD6 PUSH1 0x2 PUSH1 0x40 MLOAD PUSH2 0x1A11 SWAP2 SWAP1 PUSH2 0x48B6 JUMP JUMPDEST PUSH1 0x40 MLOAD DUP1 SWAP2 SUB SWAP1 LOG1 POP POP POP POP POP JUMP JUMPDEST PUSH1 0x60 DUP1 DUP4 PUSH2 0x1A2C PUSH2 0x3124 JUMP JUMPDEST DUP1 DUP3 LT PUSH2 0x1A6E JUMPI PUSH1 0x40 MLOAD PUSH32 0x8C379A000000000000000000000000000000000000000000000000000000000 DUP2 MSTORE PUSH1 0x4 ADD PUSH2 0x1A65 SWAP1 PUSH2 0x41AE JUMP JUMPDEST PUSH1 0x40 MLOAD DUP1 SWAP2 SUB SWAP1 REVERT JUMPDEST DUP5 PUSH2 0x1A78 DUP8 PUSH2 0x2BA3 JUMP JUMPDEST DUP1 DUP3 LT PUSH2 0x1ABA JUMPI PUSH1 0x40 MLOAD PUSH32 0x8C379A000000000000000000000000000000000000000000000000000000000 DUP2 MSTORE PUSH1 0x4 ADD PUSH2 0x1AB1 SWAP1 PUSH2 0x41AE JUMP JUMPDEST PUSH1 0x40 MLOAD DUP1 SWAP2 SUB SWAP1 REVERT JUMPDEST PUSH1 0x0 PUSH1 0x6 DUP10 DUP2 SLOAD DUP2 LT PUSH2 0x1AD0 JUMPI PUSH2 0x1ACF PUSH2 0x41CE JUMP JUMPDEST JUMPDEST SWAP1 PUSH1 0x0 MSTORE PUSH1 0x20 PUSH1 0x0 KECCAK256 SWAP1 PUSH1 0x6 MUL ADD PUSH1 0x5 ADD DUP9 DUP2 SLOAD DUP2 LT PUSH2 0x1AF3 JUMPI PUSH2 0x1AF2 PUSH2 0x41CE JUMP JUMPDEST JUMPDEST SWAP1 PUSH1 0x0 MSTORE PUSH1 0x20 PUSH1 0x0 KECCAK256 SWAP1 PUSH1 0x2 MUL ADD PUSH1 0x40 MLOAD DUP1 PUSH1 0x40 ADD PUSH1 0x40 MSTORE SWAP1 DUP2 PUSH1 0x0 DUP3 ADD DUP1 SLOAD PUSH2 0x1B1C SWAP1 PUSH2 0x3DF1 JUMP JUMPDEST DUP1 PUSH1 0x1F ADD PUSH1 0x20 DUP1 SWAP2 DIV MUL PUSH1 0x20 ADD PUSH1 0x40 MLOAD SWAP1 DUP2 ADD PUSH1 0x40 MSTORE DUP1 SWAP3 SWAP2 SWAP1 DUP2 DUP2 MSTORE PUSH1 0x20 ADD DUP3 DUP1 SLOAD PUSH2 0x1B48 SWAP1 PUSH2 0x3DF1 JUMP JUMPDEST DUP1 ISZERO PUSH2 0x1B95 JUMPI DUP1 PUSH1 0x1F LT PUSH2 0x1B6A JUMPI PUSH2 0x100 DUP1 DUP4 SLOAD DIV MUL DUP4 MSTORE SWAP2 PUSH1 0x20 ADD SWAP2 PUSH2 0x1B95 JUMP JUMPDEST DUP3 ADD SWAP2 SWAP1 PUSH1 0x0 MSTORE PUSH1 0x20 PUSH1 0x0 KECCAK256 SWAP1 JUMPDEST DUP2 SLOAD DUP2 MSTORE SWAP1 PUSH1 0x1 ADD SWAP1 PUSH1 0x20 ADD DUP1 DUP4 GT PUSH2 0x1B78 JUMPI DUP3 SWAP1 SUB PUSH1 0x1F AND DUP3 ADD SWAP2 JUMPDEST POP POP POP POP POP DUP2 MSTORE PUSH1 0x20 ADD PUSH1 0x1 DUP3 ADD DUP1 SLOAD PUSH2 0x1BAE SWAP1 PUSH2 0x3DF1 JUMP JUMPDEST DUP1 PUSH1 0x1F ADD PUSH1 0x20 DUP1 SWAP2 DIV MUL PUSH1 0x20 ADD PUSH1 0x40 MLOAD SWAP1 DUP2 ADD PUSH1 0x40 MSTORE DUP1 SWAP3 SWAP2 SWAP1 DUP2 DUP2 MSTORE PUSH1 0x20 ADD DUP3 DUP1 SLOAD PUSH2 0x1BDA SWAP1 PUSH2 0x3DF1 JUMP JUMPDEST DUP1 ISZERO PUSH2 0x1C27 JUMPI DUP1 PUSH1 0x1F LT PUSH2 0x1BFC JUMPI PUSH2 0x100 DUP1 DUP4 SLOAD DIV MUL DUP4 MSTORE SWAP2 PUSH1 0x20 ADD SWAP2 PUSH2 0x1C27 JUMP JUMPDEST DUP3 ADD SWAP2 SWAP1 PUSH1 0x0 MSTORE PUSH1 0x20 PUSH1 0x0 KECCAK256 SWAP1 JUMPDEST DUP2 SLOAD DUP2 MSTORE SWAP1 PUSH1 0x1 ADD SWAP1 PUSH1 0x20 ADD DUP1 DUP4 GT PUSH2 0x1C0A JUMPI DUP3 SWAP1 SUB PUSH1 0x1F AND DUP3 ADD SWAP2 JUMPDEST POP POP POP POP POP DUP2 MSTORE POP POP SWAP1 POP DUP1 PUSH1 0x0 ADD MLOAD DUP2 PUSH1 0x20 ADD MLOAD SWAP7 POP SWAP7 POP POP POP POP POP POP SWAP3 POP SWAP3 SWAP1 POP JUMP JUMPDEST PUSH1 0x0 PUSH1 0x2 DUP1 DUP2 GT ISZERO PUSH2 0x1C61 JUMPI PUSH2 0x1C60 PUSH2 0x36CD JUMP JUMPDEST JUMPDEST PUSH1 0x5 PUSH1 0x0 CALLER PUSH20 0xFFFFFFFFFFFFFFFFFFFFFFFFFFFFFFFFFFFFFFFF AND PUSH20 0xFFFFFFFFFFFFFFFFFFFFFFFFFFFFFFFFFFFFFFFF AND DUP2 MSTORE PUSH1 0x20 ADD SWAP1 DUP2 MSTORE PUSH1 0x20 ADD PUSH1 0x0 KECCAK256 PUSH1 0x1 ADD PUSH1 0x0 SWAP1 SLOAD SWAP1 PUSH2 0x100 EXP SWAP1 DIV PUSH1 0xFF AND PUSH1 0x2 DUP2 GT ISZERO PUSH2 0x1CC3 JUMPI PUSH2 0x1CC2 PUSH2 0x36CD JUMP JUMPDEST JUMPDEST EQ SWAP1 POP DUP1 DUP1 ISZERO PUSH2 0x1D1F JUMPI POP PUSH1 0x5 PUSH1 0x0 CALLER PUSH20 0xFFFFFFFFFFFFFFFFFFFFFFFFFFFFFFFFFFFFFFFF AND PUSH20 0xFFFFFFFFFFFFFFFFFFFFFFFFFFFFFFFFFFFFFFFF AND DUP2 MSTORE PUSH1 0x20 ADD SWAP1 DUP2 MSTORE PUSH1 0x20 ADD PUSH1 0x0 KECCAK256 PUSH1 0x1 ADD PUSH1 0x15 SWAP1 SLOAD SWAP1 PUSH2 0x100 EXP SWAP1 DIV PUSH1 0xFF AND JUMPDEST PUSH2 0x1D5E JUMPI PUSH1 0x40 MLOAD PUSH32 0x8C379A000000000000000000000000000000000000000000000000000000000 DUP2 MSTORE PUSH1 0x4 ADD PUSH2 0x1D55 SWAP1 PUSH2 0x437B JUMP JUMPDEST PUSH1 0x40 MLOAD DUP1 SWAP2 SUB SWAP1 REVERT JUMPDEST PUSH1 0x0 PUSH1 0x40 MLOAD DUP1 PUSH1 0x80 ADD PUSH1 0x40 MSTORE DUP1 PUSH1 0x5 PUSH1 0x0 CALLER PUSH20 0xFFFFFFFFFFFFFFFFFFFFFFFFFFFFFFFFFFFFFFFF AND PUSH20 0xFFFFFFFFFFFFFFFFFFFFFFFFFFFFFFFFFFFFFFFF AND DUP2 MSTORE PUSH1 0x20 ADD SWAP1 DUP2 MSTORE PUSH1 0x20 ADD PUSH1 0x0 KECCAK256 PUSH1 0x40 MLOAD DUP1 PUSH1 0x80 ADD PUSH1 0x40 MSTORE SWAP1 DUP2 PUSH1 0x0 DUP3 ADD DUP1 SLOAD PUSH2 0x1DC5 SWAP1 PUSH2 0x3DF1 JUMP JUMPDEST DUP1 PUSH1 0x1F ADD PUSH1 0x20 DUP1 SWAP2 DIV MUL PUSH1 0x20 ADD PUSH1 0x40 MLOAD SWAP1 DUP2 ADD PUSH1 0x40 MSTORE DUP1 SWAP3 SWAP2 SWAP1 DUP2 DUP2 MSTORE PUSH1 0x20 ADD DUP3 DUP1 SLOAD PUSH2 0x1DF1 SWAP1 PUSH2 0x3DF1 JUMP JUMPDEST DUP1 ISZERO PUSH2 0x1E3E JUMPI DUP1 PUSH1 0x1F LT PUSH2 0x1E13 JUMPI PUSH2 0x100 DUP1 DUP4 SLOAD DIV MUL DUP4 MSTORE SWAP2 PUSH1 0x20 ADD SWAP2 PUSH2 0x1E3E JUMP JUMPDEST DUP3 ADD SWAP2 SWAP1 PUSH1 0x0 MSTORE PUSH1 0x20 PUSH1 0x0 KECCAK256 SWAP1 JUMPDEST DUP2 SLOAD DUP2 MSTORE SWAP1 PUSH1 0x1 ADD SWAP1 PUSH1 0x20 ADD DUP1 DUP4 GT PUSH2 0x1E21 JUMPI DUP3 SWAP1 SUB PUSH1 0x1F AND DUP3 ADD SWAP2 JUMPDEST POP POP POP POP POP DUP2 MSTORE PUSH1 0x20 ADD PUSH1 0x1 DUP3 ADD PUSH1 0x0 SWAP1 SLOAD SWAP1 PUSH2 0x100 EXP SWAP1 DIV PUSH1 0xFF AND PUSH1 0x2 DUP2 GT ISZERO PUSH2 0x1E6C JUMPI PUSH2 0x1E6B PUSH2 0x36CD JUMP JUMPDEST JUMPDEST PUSH1 0x2 DUP2 GT ISZERO PUSH2 0x1E7E JUMPI PUSH2 0x1E7D PUSH2 0x36CD JUMP JUMPDEST JUMPDEST DUP2 MSTORE PUSH1 0x20 ADD PUSH1 0x1 DUP3 ADD PUSH1 0x1 SWAP1 SLOAD SWAP1 PUSH2 0x100 EXP SWAP1 DIV PUSH20 0xFFFFFFFFFFFFFFFFFFFFFFFFFFFFFFFFFFFFFFFF AND PUSH20 0xFFFFFFFFFFFFFFFFFFFFFFFFFFFFFFFFFFFFFFFF AND PUSH20 0xFFFFFFFFFFFFFFFFFFFFFFFFFFFFFFFFFFFFFFFF AND DUP2 MSTORE PUSH1 0x20 ADD PUSH1 0x1 DUP3 ADD PUSH1 0x15 SWAP1 SLOAD SWAP1 PUSH2 0x100 EXP SWAP1 DIV PUSH1 0xFF AND ISZERO ISZERO ISZERO ISZERO DUP2 MSTORE POP POP DUP2 MSTORE PUSH1 0x20 ADD DUP6 DUP2 MSTORE PUSH1 0x20 ADD DUP5 DUP2 MSTORE PUSH1 0x20 ADD PUSH1 0x0 DUP2 MSTORE POP SWAP1 POP PUSH1 0x7 DUP2 SWAP1 DUP1 PUSH1 0x1 DUP2 SLOAD ADD DUP1 DUP3 SSTORE DUP1 SWAP2 POP POP PUSH1 0x1 SWAP1 SUB SWAP1 PUSH1 0x0 MSTORE PUSH1 0x20 PUSH1 0x0 KECCAK256 SWAP1 PUSH1 0x5 MUL ADD PUSH1 0x0 SWAP1 SWAP2 SWAP1 SWAP2 SWAP1 SWAP2 POP PUSH1 0x0 DUP3 ADD MLOAD DUP2 PUSH1 0x0 ADD PUSH1 0x0 DUP3 ADD MLOAD DUP2 PUSH1 0x0 ADD SWAP1 DUP2 PUSH2 0x1F55 SWAP2 SWAP1 PUSH2 0x3FCE JUMP JUMPDEST POP PUSH1 0x20 DUP3 ADD MLOAD DUP2 PUSH1 0x1 ADD PUSH1 0x0 PUSH2 0x100 EXP DUP2 SLOAD DUP2 PUSH1 0xFF MUL NOT AND SWAP1 DUP4 PUSH1 0x2 DUP2 GT ISZERO PUSH2 0x1F81 JUMPI PUSH2 0x1F80 PUSH2 0x36CD JUMP JUMPDEST JUMPDEST MUL OR SWAP1 SSTORE POP PUSH1 0x40 DUP3 ADD MLOAD DUP2 PUSH1 0x1 ADD PUSH1 0x1 PUSH2 0x100 EXP DUP2 SLOAD DUP2 PUSH20 0xFFFFFFFFFFFFFFFFFFFFFFFFFFFFFFFFFFFFFFFF MUL NOT AND SWAP1 DUP4 PUSH20 0xFFFFFFFFFFFFFFFFFFFFFFFFFFFFFFFFFFFFFFFF AND MUL OR SWAP1 SSTORE POP PUSH1 0x60 DUP3 ADD MLOAD DUP2 PUSH1 0x1 ADD PUSH1 0x15 PUSH2 0x100 EXP DUP2 SLOAD DUP2 PUSH1 0xFF MUL NOT AND SWAP1 DUP4 ISZERO ISZERO MUL OR SWAP1 SSTORE POP POP POP PUSH1 0x20 DUP3 ADD MLOAD DUP2 PUSH1 0x2 ADD SWAP1 DUP2 PUSH2 0x2004 SWAP2 SWAP1 PUSH2 0x3FCE JUMP JUMPDEST POP PUSH1 0x40 DUP3 ADD MLOAD DUP2 PUSH1 0x3 ADD SSTORE PUSH1 0x60 DUP3 ADD MLOAD DUP2 PUSH1 0x4 ADD SSTORE POP POP PUSH32 0x26AAA12D2AC51334F2A0F54EE45ADD899F031D9163D6C3254931CB616A6DDFD6 PUSH1 0x4 PUSH1 0x40 MLOAD PUSH2 0x204B SWAP2 SWAP1 PUSH2 0x4930 JUMP JUMPDEST PUSH1 0x40 MLOAD DUP1 SWAP2 SUB SWAP1 LOG1 POP POP POP POP JUMP JUMPDEST PUSH1 0x0 PUSH1 0x1 PUSH1 0x2 DUP2 GT ISZERO PUSH2 0x206F JUMPI PUSH2 0x206E PUSH2 0x36CD JUMP JUMPDEST JUMPDEST PUSH1 0x5 PUSH1 0x0 CALLER PUSH20 0xFFFFFFFFFFFFFFFFFFFFFFFFFFFFFFFFFFFFFFFF AND PUSH20 0xFFFFFFFFFFFFFFFFFFFFFFFFFFFFFFFFFFFFFFFF AND DUP2 MSTORE PUSH1 0x20 ADD SWAP1 DUP2 MSTORE PUSH1 0x20 ADD PUSH1 0x0 KECCAK256 PUSH1 0x1 ADD PUSH1 0x0 SWAP1 SLOAD SWAP1 PUSH2 0x100 EXP SWAP1 DIV PUSH1 0xFF AND PUSH1 0x2 DUP2 GT ISZERO PUSH2 0x20D1 JUMPI PUSH2 0x20D0 PUSH2 0x36CD JUMP JUMPDEST JUMPDEST EQ SWAP1 POP DUP1 DUP1 ISZERO PUSH2 0x212D JUMPI POP PUSH1 0x5 PUSH1 0x0 CALLER PUSH20 0xFFFFFFFFFFFFFFFFFFFFFFFFFFFFFFFFFFFFFFFF AND PUSH20 0xFFFFFFFFFFFFFFFFFFFFFFFFFFFFFFFFFFFFFFFF AND DUP2 MSTORE PUSH1 0x20 ADD SWAP1 DUP2 MSTORE PUSH1 0x20 ADD PUSH1 0x0 KECCAK256 PUSH1 0x1 ADD PUSH1 0x15 SWAP1 SLOAD SWAP1 PUSH2 0x100 EXP SWAP1 DIV PUSH1 0xFF AND JUMPDEST PUSH2 0x216C JUMPI PUSH1 0x40 MLOAD PUSH32 0x8C379A000000000000000000000000000000000000000000000000000000000 DUP2 MSTORE PUSH1 0x4 ADD PUSH2 0x2163 SWAP1 PUSH2 0x426F JUMP JUMPDEST PUSH1 0x40 MLOAD DUP1 SWAP2 SUB SWAP1 REVERT JUMPDEST PUSH1 0x6 PUSH1 0x1 DUP2 PUSH1 0x1 DUP2 SLOAD ADD DUP1 DUP3 SSTORE DUP1 SWAP2 POP POP SUB SWAP1 PUSH1 0x0 MSTORE PUSH1 0x20 PUSH1 0x0 KECCAK256 SWAP1 POP POP PUSH1 0x0 PUSH1 0x6 PUSH1 0x1 PUSH1 0x6 DUP1 SLOAD SWAP1 POP PUSH2 0x21A0 SWAP2 SWAP1 PUSH2 0x454F JUMP JUMPDEST DUP2 SLOAD DUP2 LT PUSH2 0x21B1 JUMPI PUSH2 0x21B0 PUSH2 0x41CE JUMP JUMPDEST JUMPDEST SWAP1 PUSH1 0x0 MSTORE PUSH1 0x20 PUSH1 0x0 KECCAK256 SWAP1 PUSH1 0x6 MUL ADD SWAP1 POP PUSH1 0x0 PUSH1 0x40 MLOAD DUP1 PUSH1 0x80 ADD PUSH1 0x40 MSTORE DUP1 PUSH1 0x40 MLOAD DUP1 PUSH1 0x20 ADD PUSH1 0x40 MSTORE DUP1 PUSH1 0x0 DUP2 MSTORE POP DUP2 MSTORE PUSH1 0x20 ADD PUSH1 0x40 MLOAD DUP1 PUSH1 0x20 ADD PUSH1 0x40 MSTORE DUP1 PUSH1 0x0 DUP2 MSTORE POP DUP2 MSTORE PUSH1 0x20 ADD PUSH1 0x40 MLOAD DUP1 PUSH1 0x20 ADD PUSH1 0x40 MSTORE DUP1 PUSH1 0x0 DUP2 MSTORE POP DUP2 MSTORE PUSH1 0x20 ADD PUSH1 0x0 PUSH1 0xFF AND DUP2 MSTORE POP SWAP1 POP PUSH1 0x0 PUSH1 0x40 MLOAD DUP1 PUSH1 0x40 ADD PUSH1 0x40 MSTORE DUP1 PUSH1 0x40 MLOAD DUP1 PUSH1 0x20 ADD PUSH1 0x40 MSTORE DUP1 PUSH1 0x0 DUP2 MSTORE POP DUP2 MSTORE PUSH1 0x20 ADD PUSH1 0x40 MLOAD DUP1 PUSH1 0x20 ADD PUSH1 0x40 MSTORE DUP1 PUSH1 0x0 DUP2 MSTORE POP DUP2 MSTORE POP SWAP1 POP PUSH1 0x5 PUSH1 0x0 CALLER PUSH20 0xFFFFFFFFFFFFFFFFFFFFFFFFFFFFFFFFFFFFFFFF AND PUSH20 0xFFFFFFFFFFFFFFFFFFFFFFFFFFFFFFFFFFFFFFFF AND DUP2 MSTORE PUSH1 0x20 ADD SWAP1 DUP2 MSTORE PUSH1 0x20 ADD PUSH1 0x0 KECCAK256 DUP4 PUSH1 0x0 ADD PUSH1 0x0 DUP3 ADD DUP2 PUSH1 0x0 ADD SWAP1 DUP2 PUSH2 0x22A5 SWAP2 SWAP1 PUSH2 0x45CD JUMP JUMPDEST POP PUSH1 0x1 DUP3 ADD PUSH1 0x0 SWAP1 SLOAD SWAP1 PUSH2 0x100 EXP SWAP1 DIV PUSH1 0xFF AND DUP2 PUSH1 0x1 ADD PUSH1 0x0 PUSH2 0x100 EXP DUP2 SLOAD DUP2 PUSH1 0xFF MUL NOT AND SWAP1 DUP4 PUSH1 0x2 DUP2 GT ISZERO PUSH2 0x22DE JUMPI PUSH2 0x22DD PUSH2 0x36CD JUMP JUMPDEST JUMPDEST MUL OR SWAP1 SSTORE POP PUSH1 0x1 DUP3 ADD PUSH1 0x1 SWAP1 SLOAD SWAP1 PUSH2 0x100 EXP SWAP1 DIV PUSH20 0xFFFFFFFFFFFFFFFFFFFFFFFFFFFFFFFFFFFFFFFF AND DUP2 PUSH1 0x1 ADD PUSH1 0x1 PUSH2 0x100 EXP DUP2 SLOAD DUP2 PUSH20 0xFFFFFFFFFFFFFFFFFFFFFFFFFFFFFFFFFFFFFFFF MUL NOT AND SWAP1 DUP4 PUSH20 0xFFFFFFFFFFFFFFFFFFFFFFFFFFFFFFFFFFFFFFFF AND MUL OR SWAP1 SSTORE POP PUSH1 0x1 DUP3 ADD PUSH1 0x15 SWAP1 SLOAD SWAP1 PUSH2 0x100 EXP SWAP1 DIV PUSH1 0xFF AND DUP2 PUSH1 0x1 ADD PUSH1 0x15 PUSH2 0x100 EXP DUP2 SLOAD DUP2 PUSH1 0xFF MUL NOT AND SWAP1 DUP4 ISZERO ISZERO MUL OR SWAP1 SSTORE POP SWAP1 POP POP DUP6 DUP4 PUSH1 0x2 ADD PUSH1 0x0 PUSH2 0x100 EXP DUP2 SLOAD DUP2 PUSH1 0xFF MUL NOT AND SWAP1 DUP4 PUSH1 0x2 DUP2 GT ISZERO PUSH2 0x23A1 JUMPI PUSH2 0x23A0 PUSH2 0x36CD JUMP JUMPDEST JUMPDEST MUL OR SWAP1 SSTORE POP DUP5 DUP4 PUSH1 0x3 ADD SWAP1 DUP2 PUSH2 0x23B7 SWAP2 SWAP1 PUSH2 0x3FCE JUMP JUMPDEST POP DUP3 PUSH1 0x4 ADD DUP3 SWAP1 DUP1 PUSH1 0x1 DUP2 SLOAD ADD DUP1 DUP3 SSTORE DUP1 SWAP2 POP POP PUSH1 0x1 SWAP1 SUB SWAP1 PUSH1 0x0 MSTORE PUSH1 0x20 PUSH1 0x0 KECCAK256 SWAP1 PUSH1 0x4 MUL ADD PUSH1 0x0 SWAP1 SWAP2 SWAP1 SWAP2 SWAP1 SWAP2 POP PUSH1 0x0 DUP3 ADD MLOAD DUP2 PUSH1 0x0 ADD SWAP1 DUP2 PUSH2 0x23FB SWAP2 SWAP1 PUSH2 0x3FCE JUMP JUMPDEST POP PUSH1 0x20 DUP3 ADD MLOAD DUP2 PUSH1 0x1 ADD SWAP1 DUP2 PUSH2 0x2411 SWAP2 SWAP1 PUSH2 0x3FCE JUMP JUMPDEST POP PUSH1 0x40 DUP3 ADD MLOAD DUP2 PUSH1 0x2 ADD SWAP1 DUP2 PUSH2 0x2427 SWAP2 SWAP1 PUSH2 0x3FCE JUMP JUMPDEST POP PUSH1 0x60 DUP3 ADD MLOAD DUP2 PUSH1 0x3 ADD PUSH1 0x0 PUSH2 0x100 EXP DUP2 SLOAD DUP2 PUSH1 0xFF MUL NOT AND SWAP1 DUP4 PUSH1 0xFF AND MUL OR SWAP1 SSTORE POP POP POP DUP3 PUSH1 0x5 ADD DUP2 SWAP1 DUP1 PUSH1 0x1 DUP2 SLOAD ADD DUP1 DUP3 SSTORE DUP1 SWAP2 POP POP PUSH1 0x1 SWAP1 SUB SWAP1 PUSH1 0x0 MSTORE PUSH1 0x20 PUSH1 0x0 KECCAK256 SWAP1 PUSH1 0x2 MUL ADD PUSH1 0x0 SWAP1 SWAP2 SWAP1 SWAP2 SWAP1 SWAP2 POP PUSH1 0x0 DUP3 ADD MLOAD DUP2 PUSH1 0x0 ADD SWAP1 DUP2 PUSH2 0x248E SWAP2 SWAP1 PUSH2 0x3FCE JUMP JUMPDEST POP PUSH1 0x20 DUP3 ADD MLOAD DUP2 PUSH1 0x1 ADD SWAP1 DUP2 PUSH2 0x24A4 SWAP2 SWAP1 PUSH2 0x3FCE JUMP JUMPDEST POP POP POP PUSH32 0x26AAA12D2AC51334F2A0F54EE45ADD899F031D9163D6C3254931CB616A6DDFD6 PUSH1 0x1 PUSH1 0x40 MLOAD PUSH2 0x24D7 SWAP2 SWAP1 PUSH2 0x49AA JUMP JUMPDEST PUSH1 0x40 MLOAD DUP1 SWAP2 SUB SWAP1 LOG1 POP POP POP POP POP POP JUMP JUMPDEST PUSH1 0x1 DUP1 ADD PUSH1 0x0 SWAP1 SLOAD SWAP1 PUSH2 0x100 EXP SWAP1 DIV PUSH20 0xFFFFFFFFFFFFFFFFFFFFFFFFFFFFFFFFFFFFFFFF AND PUSH20 0xFFFFFFFFFFFFFFFFFFFFFFFFFFFFFFFFFFFFFFFF AND CALLER PUSH20 0xFFFFFFFFFFFFFFFFFFFFFFFFFFFFFFFFFFFFFFFF AND EQ PUSH2 0x2579 JUMPI PUSH1 0x40 MLOAD PUSH32 0x8C379A000000000000000000000000000000000000000000000000000000000 DUP2 MSTORE PUSH1 0x4 ADD PUSH2 0x2570 SWAP1 PUSH2 0x3DA2 JUMP JUMPDEST PUSH1 0x40 MLOAD DUP1 SWAP2 SUB SWAP1 REVERT JUMPDEST PUSH1 0x8 PUSH1 0x40 MLOAD DUP1 PUSH1 0x40 ADD PUSH1 0x40 MSTORE DUP1 DUP5 DUP2 MSTORE PUSH1 0x20 ADD DUP4 DUP2 MSTORE POP SWAP1 DUP1 PUSH1 0x1 DUP2 SLOAD ADD DUP1 DUP3 SSTORE DUP1 SWAP2 POP POP PUSH1 0x1 SWAP1 SUB SWAP1 PUSH1 0x0 MSTORE PUSH1 0x20 PUSH1 0x0 KECCAK256 SWAP1 PUSH1 0x2 MUL ADD PUSH1 0x0 SWAP1 SWAP2 SWAP1 SWAP2 SWAP1 SWAP2 POP PUSH1 0x0 DUP3 ADD MLOAD DUP2 PUSH1 0x0 ADD SWAP1 DUP2 PUSH2 0x25CE SWAP2 SWAP1 PUSH2 0x3FCE JUMP JUMPDEST POP PUSH1 0x20 DUP3 ADD MLOAD DUP2 PUSH1 0x1 ADD SWAP1 DUP2 PUSH2 0x25E4 SWAP2 SWAP1 PUSH2 0x3FCE JUMP JUMPDEST POP POP POP PUSH32 0x26AAA12D2AC51334F2A0F54EE45ADD899F031D9163D6C3254931CB616A6DDFD6 PUSH1 0x7 PUSH1 0x40 MLOAD PUSH2 0x2617 SWAP2 SWAP1 PUSH2 0x4A24 JUMP JUMPDEST PUSH1 0x40 MLOAD DUP1 SWAP2 SUB SWAP1 LOG1 POP POP JUMP JUMPDEST PUSH1 0x1 DUP1 PUSH1 0x0 ADD DUP1 SLOAD PUSH2 0x2634 SWAP1 PUSH2 0x3DF1 JUMP JUMPDEST DUP1 PUSH1 0x1F ADD PUSH1 0x20 DUP1 SWAP2 DIV MUL PUSH1 0x20 ADD PUSH1 0x40 MLOAD SWAP1 DUP2 ADD PUSH1 0x40 MSTORE DUP1 SWAP3 SWAP2 SWAP1 DUP2 DUP2 MSTORE PUSH1 0x20 ADD DUP3 DUP1 SLOAD PUSH2 0x2660 SWAP1 PUSH2 0x3DF1 JUMP JUMPDEST DUP1 ISZERO PUSH2 0x26AD JUMPI DUP1 PUSH1 0x1F LT PUSH2 0x2682 JUMPI PUSH2 0x100 DUP1 DUP4 SLOAD DIV MUL DUP4 MSTORE SWAP2 PUSH1 0x20 ADD SWAP2 PUSH2 0x26AD JUMP JUMPDEST DUP3 ADD SWAP2 SWAP1 PUSH1 0x0 MSTORE PUSH1 0x20 PUSH1 0x0 KECCAK256 SWAP1 JUMPDEST DUP2 SLOAD DUP2 MSTORE SWAP1 PUSH1 0x1 ADD SWAP1 PUSH1 0x20 ADD DUP1 DUP4 GT PUSH2 0x2690 JUMPI DUP3 SWAP1 SUB PUSH1 0x1F AND DUP3 ADD SWAP2 JUMPDEST POP POP POP POP POP SWAP1 DUP1 PUSH1 0x1 ADD PUSH1 0x0 SWAP1 SLOAD SWAP1 PUSH2 0x100 EXP SWAP1 DIV PUSH20 0xFFFFFFFFFFFFFFFFFFFFFFFFFFFFFFFFFFFFFFFF AND SWAP1 DUP1 PUSH1 0x1 ADD PUSH1 0x14 SWAP1 SLOAD SWAP1 PUSH2 0x100 EXP SWAP1 DIV PUSH1 0xFF AND SWAP1 DUP1 PUSH1 0x1 ADD PUSH1 0x15 SWAP1 SLOAD SWAP1 PUSH2 0x100 EXP SWAP1 DIV PUSH1 0xFF AND SWAP1 DUP1 PUSH1 0x2 ADD DUP1 SLOAD PUSH2 0x270E SWAP1 PUSH2 0x3DF1 JUMP JUMPDEST DUP1 PUSH1 0x1F ADD PUSH1 0x20 DUP1 SWAP2 DIV MUL PUSH1 0x20 ADD PUSH1 0x40 MLOAD SWAP1 DUP2 ADD PUSH1 0x40 MSTORE DUP1 SWAP3 SWAP2 SWAP1 DUP2 DUP2 MSTORE PUSH1 0x20 ADD DUP3 DUP1 SLOAD PUSH2 0x273A SWAP1 PUSH2 0x3DF1 JUMP JUMPDEST DUP1 ISZERO PUSH2 0x2787 JUMPI DUP1 PUSH1 0x1F LT PUSH2 0x275C JUMPI PUSH2 0x100 DUP1 DUP4 SLOAD DIV MUL DUP4 MSTORE SWAP2 PUSH1 0x20 ADD SWAP2 PUSH2 0x2787 JUMP JUMPDEST DUP3 ADD SWAP2 SWAP1 PUSH1 0x0 MSTORE PUSH1 0x20 PUSH1 0x0 KECCAK256 SWAP1 JUMPDEST DUP2 SLOAD DUP2 MSTORE SWAP1 PUSH1 0x1 ADD SWAP1 PUSH1 0x20 ADD DUP1 DUP4 GT PUSH2 0x276A JUMPI DUP3 SWAP1 SUB PUSH1 0x1F AND DUP3 ADD SWAP2 JUMPDEST POP POP POP POP POP SWAP1 DUP1 PUSH1 0x3 ADD DUP1 SLOAD PUSH2 0x279C SWAP1 PUSH2 0x3DF1 JUMP JUMPDEST DUP1 PUSH1 0x1F ADD PUSH1 0x20 DUP1 SWAP2 DIV MUL PUSH1 0x20 ADD PUSH1 0x40 MLOAD SWAP1 DUP2 ADD PUSH1 0x40 MSTORE DUP1 SWAP3 SWAP2 SWAP1 DUP2 DUP2 MSTORE PUSH1 0x20 ADD DUP3 DUP1 SLOAD PUSH2 0x27C8 SWAP1 PUSH2 0x3DF1 JUMP JUMPDEST DUP1 ISZERO PUSH2 0x2815 JUMPI DUP1 PUSH1 0x1F LT PUSH2 0x27EA JUMPI PUSH2 0x100 DUP1 DUP4 SLOAD DIV MUL DUP4 MSTORE SWAP2 PUSH1 0x20 ADD SWAP2 PUSH2 0x2815 JUMP JUMPDEST DUP3 ADD SWAP2 SWAP1 PUSH1 0x0 MSTORE PUSH1 0x20 PUSH1 0x0 KECCAK256 SWAP1 JUMPDEST DUP2 SLOAD DUP2 MSTORE SWAP1 PUSH1 0x1 ADD SWAP1 PUSH1 0x20 ADD DUP1 DUP4 GT PUSH2 0x27F8 JUMPI DUP3 SWAP1 SUB PUSH1 0x1F AND DUP3 ADD SWAP2 JUMPDEST POP POP POP POP POP SWAP1 POP DUP7 JUMP JUMPDEST PUSH1 0x60 DUP1 PUSH1 0x0 DUP1 DUP5 PUSH2 0x282E PUSH2 0x3117 JUMP JUMPDEST DUP1 DUP3 LT PUSH2 0x2870 JUMPI PUSH1 0x40 MLOAD PUSH32 0x8C379A000000000000000000000000000000000000000000000000000000000 DUP2 MSTORE PUSH1 0x4 ADD PUSH2 0x2867 SWAP1 PUSH2 0x41AE JUMP JUMPDEST PUSH1 0x40 MLOAD DUP1 SWAP2 SUB SWAP1 REVERT JUMPDEST PUSH1 0x0 PUSH1 0x7 DUP9 DUP2 SLOAD DUP2 LT PUSH2 0x2886 JUMPI PUSH2 0x2885 PUSH2 0x41CE JUMP JUMPDEST JUMPDEST SWAP1 PUSH1 0x0 MSTORE PUSH1 0x20 PUSH1 0x0 KECCAK256 SWAP1 PUSH1 0x5 MUL ADD PUSH1 0x40 MLOAD DUP1 PUSH1 0x80 ADD PUSH1 0x40 MSTORE SWAP1 DUP2 PUSH1 0x0 DUP3 ADD PUSH1 0x40 MLOAD DUP1 PUSH1 0x80 ADD PUSH1 0x40 MSTORE SWAP1 DUP2 PUSH1 0x0 DUP3 ADD DUP1 SLOAD PUSH2 0x28BF SWAP1 PUSH2 0x3DF1 JUMP JUMPDEST DUP1 PUSH1 0x1F ADD PUSH1 0x20 DUP1 SWAP2 DIV MUL PUSH1 0x20 ADD PUSH1 0x40 MLOAD SWAP1 DUP2 ADD PUSH1 0x40 MSTORE DUP1 SWAP3 SWAP2 SWAP1 DUP2 DUP2 MSTORE PUSH1 0x20 ADD DUP3 DUP1 SLOAD PUSH2 0x28EB SWAP1 PUSH2 0x3DF1 JUMP JUMPDEST DUP1 ISZERO PUSH2 0x2938 JUMPI DUP1 PUSH1 0x1F LT PUSH2 0x290D JUMPI PUSH2 0x100 DUP1 DUP4 SLOAD DIV MUL DUP4 MSTORE SWAP2 PUSH1 0x20 ADD SWAP2 PUSH2 0x2938 JUMP JUMPDEST DUP3 ADD SWAP2 SWAP1 PUSH1 0x0 MSTORE PUSH1 0x20 PUSH1 0x0 KECCAK256 SWAP1 JUMPDEST DUP2 SLOAD DUP2 MSTORE SWAP1 PUSH1 0x1 ADD SWAP1 PUSH1 0x20 ADD DUP1 DUP4 GT PUSH2 0x291B JUMPI DUP3 SWAP1 SUB PUSH1 0x1F AND DUP3 ADD SWAP2 JUMPDEST POP POP POP POP POP DUP2 MSTORE PUSH1 0x20 ADD PUSH1 0x1 DUP3 ADD PUSH1 0x0 SWAP1 SLOAD SWAP1 PUSH2 0x100 EXP SWAP1 DIV PUSH1 0xFF AND PUSH1 0x2 DUP2 GT ISZERO PUSH2 0x2966 JUMPI PUSH2 0x2965 PUSH2 0x36CD JUMP JUMPDEST JUMPDEST PUSH1 0x2 DUP2 GT ISZERO PUSH2 0x2978 JUMPI PUSH2 0x2977 PUSH2 0x36CD JUMP JUMPDEST JUMPDEST DUP2 MSTORE PUSH1 0x20 ADD PUSH1 0x1 DUP3 ADD PUSH1 0x1 SWAP1 SLOAD SWAP1 PUSH2 0x100 EXP SWAP1 DIV PUSH20 0xFFFFFFFFFFFFFFFFFFFFFFFFFFFFFFFFFFFFFFFF AND PUSH20 0xFFFFFFFFFFFFFFFFFFFFFFFFFFFFFFFFFFFFFFFF AND PUSH20 0xFFFFFFFFFFFFFFFFFFFFFFFFFFFFFFFFFFFFFFFF AND DUP2 MSTORE PUSH1 0x20 ADD PUSH1 0x1 DUP3 ADD PUSH1 0x15 SWAP1 SLOAD SWAP1 PUSH2 0x100 EXP SWAP1 DIV PUSH1 0xFF AND ISZERO ISZERO ISZERO ISZERO DUP2 MSTORE POP POP DUP2 MSTORE PUSH1 0x20 ADD PUSH1 0x2 DUP3 ADD DUP1 SLOAD PUSH2 0x2A01 SWAP1 PUSH2 0x3DF1 JUMP JUMPDEST DUP1 PUSH1 0x1F ADD PUSH1 0x20 DUP1 SWAP2 DIV MUL PUSH1 0x20 ADD PUSH1 0x40 MLOAD SWAP1 DUP2 ADD PUSH1 0x40 MSTORE DUP1 SWAP3 SWAP2 SWAP1 DUP2 DUP2 MSTORE PUSH1 0x20 ADD DUP3 DUP1 SLOAD PUSH2 0x2A2D SWAP1 PUSH2 0x3DF1 JUMP JUMPDEST DUP1 ISZERO PUSH2 0x2A7A JUMPI DUP1 PUSH1 0x1F LT PUSH2 0x2A4F JUMPI PUSH2 0x100 DUP1 DUP4 SLOAD DIV MUL DUP4 MSTORE SWAP2 PUSH1 0x20 ADD SWAP2 PUSH2 0x2A7A JUMP JUMPDEST DUP3 ADD SWAP2 SWAP1 PUSH1 0x0 MSTORE PUSH1 0x20 PUSH1 0x0 KECCAK256 SWAP1 JUMPDEST DUP2 SLOAD DUP2 MSTORE SWAP1 PUSH1 0x1 ADD SWAP1 PUSH1 0x20 ADD DUP1 DUP4 GT PUSH2 0x2A5D JUMPI DUP3 SWAP1 SUB PUSH1 0x1F AND DUP3 ADD SWAP2 JUMPDEST POP POP POP POP POP DUP2 MSTORE PUSH1 0x20 ADD PUSH1 0x3 DUP3 ADD SLOAD DUP2 MSTORE PUSH1 0x20 ADD PUSH1 0x4 DUP3 ADD SLOAD DUP2 MSTORE POP POP SWAP1 POP DUP1 PUSH1 0x0 ADD MLOAD PUSH1 0x0 ADD MLOAD DUP2 PUSH1 0x20 ADD MLOAD DUP3 PUSH1 0x40 ADD MLOAD DUP4 PUSH1 0x60 ADD MLOAD SWAP7 POP SWAP7 POP SWAP7 POP SWAP7 POP POP POP POP SWAP2 SWAP4 POP SWAP2 SWAP4 JUMP JUMPDEST PUSH1 0x1 DUP1 ADD PUSH1 0x0 SWAP1 SLOAD SWAP1 PUSH2 0x100 EXP SWAP1 DIV PUSH20 0xFFFFFFFFFFFFFFFFFFFFFFFFFFFFFFFFFFFFFFFF AND PUSH20 0xFFFFFFFFFFFFFFFFFFFFFFFFFFFFFFFFFFFFFFFF AND CALLER PUSH20 0xFFFFFFFFFFFFFFFFFFFFFFFFFFFFFFFFFFFFFFFF AND EQ PUSH2 0x2B55 JUMPI PUSH1 0x40 MLOAD PUSH32 0x8C379A000000000000000000000000000000000000000000000000000000000 DUP2 MSTORE PUSH1 0x4 ADD PUSH2 0x2B4C SWAP1 PUSH2 0x3DA2 JUMP JUMPDEST PUSH1 0x40 MLOAD DUP1 SWAP2 SUB SWAP1 REVERT JUMPDEST DUP1 PUSH1 0x1 PUSH1 0x2 ADD SWAP1 DUP2 PUSH2 0x2B67 SWAP2 SWAP1 PUSH2 0x3FCE JUMP JUMPDEST POP PUSH32 0x26AAA12D2AC51334F2A0F54EE45ADD899F031D9163D6C3254931CB616A6DDFD6 PUSH1 0x8 PUSH1 0x40 MLOAD PUSH2 0x2B98 SWAP2 SWAP1 PUSH2 0x4A9E JUMP JUMPDEST PUSH1 0x40 MLOAD DUP1 SWAP2 SUB SWAP1 LOG1 POP JUMP JUMPDEST PUSH1 0x0 DUP2 PUSH2 0x2BAE PUSH2 0x3124 JUMP JUMPDEST DUP1 DUP3 LT PUSH2 0x2BF0 JUMPI PUSH1 0x40 MLOAD PUSH32 0x8C379A000000000000000000000000000000000000000000000000000000000 DUP2 MSTORE PUSH1 0x4 ADD PUSH2 0x2BE7 SWAP1 PUSH2 0x41AE JUMP JUMPDEST PUSH1 0x40 MLOAD DUP1 SWAP2 SUB SWAP1 REVERT JUMPDEST PUSH1 0x6 DUP5 DUP2 SLOAD DUP2 LT PUSH2 0x2C04 JUMPI PUSH2 0x2C03 PUSH2 0x41CE JUMP JUMPDEST JUMPDEST SWAP1 PUSH1 0x0 MSTORE PUSH1 0x20 PUSH1 0x0 KECCAK256 SWAP1 PUSH1 0x6 MUL ADD PUSH1 0x5 ADD DUP1 SLOAD SWAP1 POP SWAP3 POP POP POP SWAP2 SWAP1 POP JUMP JUMPDEST PUSH1 0x0 DUP1 SLOAD SWAP1 PUSH2 0x100 EXP SWAP1 DIV PUSH20 0xFFFFFFFFFFFFFFFFFFFFFFFFFFFFFFFFFFFFFFFF AND PUSH20 0xFFFFFFFFFFFFFFFFFFFFFFFFFFFFFFFFFFFFFFFF AND CALLER PUSH20 0xFFFFFFFFFFFFFFFFFFFFFFFFFFFFFFFFFFFFFFFF AND EQ PUSH2 0x2CB0 JUMPI PUSH1 0x40 MLOAD PUSH32 0x8C379A000000000000000000000000000000000000000000000000000000000 DUP2 MSTORE PUSH1 0x4 ADD PUSH2 0x2CA7 SWAP1 PUSH2 0x47D0 JUMP JUMPDEST PUSH1 0x40 MLOAD DUP1 SWAP2 SUB SWAP1 REVERT JUMPDEST PUSH1 0x40 MLOAD DUP1 PUSH1 0x80 ADD PUSH1 0x40 MSTORE DUP1 DUP5 DUP2 MSTORE PUSH1 0x20 ADD DUP4 PUSH1 0x2 DUP2 GT ISZERO PUSH2 0x2CD4 JUMPI PUSH2 0x2CD3 PUSH2 0x36CD JUMP JUMPDEST JUMPDEST DUP2 MSTORE PUSH1 0x20 ADD DUP6 PUSH20 0xFFFFFFFFFFFFFFFFFFFFFFFFFFFFFFFFFFFFFFFF AND DUP2 MSTORE PUSH1 0x20 ADD DUP3 ISZERO ISZERO DUP2 MSTORE POP PUSH1 0x5 PUSH1 0x0 DUP7 PUSH20 0xFFFFFFFFFFFFFFFFFFFFFFFFFFFFFFFFFFFFFFFF AND PUSH20 0xFFFFFFFFFFFFFFFFFFFFFFFFFFFFFFFFFFFFFFFF AND DUP2 MSTORE PUSH1 0x20 ADD SWAP1 DUP2 MSTORE PUSH1 0x20 ADD PUSH1 0x0 KECCAK256 PUSH1 0x0 DUP3 ADD MLOAD DUP2 PUSH1 0x0 ADD SWAP1 DUP2 PUSH2 0x2D4F SWAP2 SWAP1 PUSH2 0x3FCE JUMP JUMPDEST POP PUSH1 0x20 DUP3 ADD MLOAD DUP2 PUSH1 0x1 ADD PUSH1 0x0 PUSH2 0x100 EXP DUP2 SLOAD DUP2 PUSH1 0xFF MUL NOT AND SWAP1 DUP4 PUSH1 0x2 DUP2 GT ISZERO PUSH2 0x2D7B JUMPI PUSH2 0x2D7A PUSH2 0x36CD JUMP JUMPDEST JUMPDEST MUL OR SWAP1 SSTORE POP PUSH1 0x40 DUP3 ADD MLOAD DUP2 PUSH1 0x1 ADD PUSH1 0x1 PUSH2 0x100 EXP DUP2 SLOAD DUP2 PUSH20 0xFFFFFFFFFFFFFFFFFFFFFFFFFFFFFFFFFFFFFFFF MUL NOT AND SWAP1 DUP4 PUSH20 0xFFFFFFFFFFFFFFFFFFFFFFFFFFFFFFFFFFFFFFFF AND MUL OR SWAP1 SSTORE POP PUSH1 0x60 DUP3 ADD MLOAD DUP2 PUSH1 0x1 ADD PUSH1 0x15 PUSH2 0x100 EXP DUP2 SLOAD DUP2 PUSH1 0xFF MUL NOT AND SWAP1 DUP4 ISZERO ISZERO MUL OR SWAP1 SSTORE POP SWAP1 POP POP PUSH32 0x26AAA12D2AC51334F2A0F54EE45ADD899F031D9163D6C3254931CB616A6DDFD6 PUSH1 0x0 PUSH1 0x40 MLOAD PUSH2 0x2E1A SWAP2 SWAP1 PUSH2 0x4B18 JUMP JUMPDEST PUSH1 0x40 MLOAD DUP1 SWAP2 SUB SWAP1 LOG1 POP POP POP POP JUMP JUMPDEST PUSH1 0x60 DUP1 PUSH1 0x60 PUSH1 0x0 DUP6 PUSH2 0x2E38 PUSH2 0x3124 JUMP JUMPDEST DUP1 DUP3 LT PUSH2 0x2E7A JUMPI PUSH1 0x40 MLOAD PUSH32 0x8C379A000000000000000000000000000000000000000000000000000000000 DUP2 MSTORE PUSH1 0x4 ADD PUSH2 0x2E71 SWAP1 PUSH2 0x41AE JUMP JUMPDEST PUSH1 0x40 MLOAD DUP1 SWAP2 SUB SWAP1 REVERT JUMPDEST DUP7 PUSH2 0x2E84 DUP10 PUSH2 0x164C JUMP JUMPDEST DUP1 DUP3 LT PUSH2 0x2EC6 JUMPI PUSH1 0x40 MLOAD PUSH32 0x8C379A000000000000000000000000000000000000000000000000000000000 DUP2 MSTORE PUSH1 0x4 ADD PUSH2 0x2EBD SWAP1 PUSH2 0x41AE JUMP JUMPDEST PUSH1 0x40 MLOAD DUP1 SWAP2 SUB SWAP1 REVERT JUMPDEST PUSH1 0x0 PUSH1 0x6 DUP12 DUP2 SLOAD DUP2 LT PUSH2 0x2EDC JUMPI PUSH2 0x2EDB PUSH2 0x41CE JUMP JUMPDEST JUMPDEST SWAP1 PUSH1 0x0 MSTORE PUSH1 0x20 PUSH1 0x0 KECCAK256 SWAP1 PUSH1 0x6 MUL ADD PUSH1 0x4 ADD DUP11 DUP2 SLOAD DUP2 LT PUSH2 0x2EFF JUMPI PUSH2 0x2EFE PUSH2 0x41CE JUMP JUMPDEST JUMPDEST SWAP1 PUSH1 0x0 MSTORE PUSH1 0x20 PUSH1 0x0 KECCAK256 SWAP1 PUSH1 0x4 MUL ADD PUSH1 0x40 MLOAD DUP1 PUSH1 0x80 ADD PUSH1 0x40 MSTORE SWAP1 DUP2 PUSH1 0x0 DUP3 ADD DUP1 SLOAD PUSH2 0x2F28 SWAP1 PUSH2 0x3DF1 JUMP JUMPDEST DUP1 PUSH1 0x1F ADD PUSH1 0x20 DUP1 SWAP2 DIV MUL PUSH1 0x20 ADD PUSH1 0x40 MLOAD SWAP1 DUP2 ADD PUSH1 0x40 MSTORE DUP1 SWAP3 SWAP2 SWAP1 DUP2 DUP2 MSTORE PUSH1 0x20 ADD DUP3 DUP1 SLOAD PUSH2 0x2F54 SWAP1 PUSH2 0x3DF1 JUMP JUMPDEST DUP1 ISZERO PUSH2 0x2FA1 JUMPI DUP1 PUSH1 0x1F LT PUSH2 0x2F76 JUMPI PUSH2 0x100 DUP1 DUP4 SLOAD DIV MUL DUP4 MSTORE SWAP2 PUSH1 0x20 ADD SWAP2 PUSH2 0x2FA1 JUMP JUMPDEST DUP3 ADD SWAP2 SWAP1 PUSH1 0x0 MSTORE PUSH1 0x20 PUSH1 0x0 KECCAK256 SWAP1 JUMPDEST DUP2 SLOAD DUP2 MSTORE SWAP1 PUSH1 0x1 ADD SWAP1 PUSH1 0x20 ADD DUP1 DUP4 GT PUSH2 0x2F84 JUMPI DUP3 SWAP1 SUB PUSH1 0x1F AND DUP3 ADD SWAP2 JUMPDEST POP POP POP POP POP DUP2 MSTORE PUSH1 0x20 ADD PUSH1 0x1 DUP3 ADD DUP1 SLOAD PUSH2 0x2FBA SWAP1 PUSH2 0x3DF1 JUMP JUMPDEST DUP1 PUSH1 0x1F ADD PUSH1 0x20 DUP1 SWAP2 DIV MUL PUSH1 0x20 ADD PUSH1 0x40 MLOAD SWAP1 DUP2 ADD PUSH1 0x40 MSTORE DUP1 SWAP3 SWAP2 SWAP1 DUP2 DUP2 MSTORE PUSH1 0x20 ADD DUP3 DUP1 SLOAD PUSH2 0x2FE6 SWAP1 PUSH2 0x3DF1 JUMP JUMPDEST DUP1 ISZERO PUSH2 0x3033 JUMPI DUP1 PUSH1 0x1F LT PUSH2 0x3008 JUMPI PUSH2 0x100 DUP1 DUP4 SLOAD DIV MUL DUP4 MSTORE SWAP2 PUSH1 0x20 ADD SWAP2 PUSH2 0x3033 JUMP JUMPDEST DUP3 ADD SWAP2 SWAP1 PUSH1 0x0 MSTORE PUSH1 0x20 PUSH1 0x0 KECCAK256 SWAP1 JUMPDEST DUP2 SLOAD DUP2 MSTORE SWAP1 PUSH1 0x1 ADD SWAP1 PUSH1 0x20 ADD DUP1 DUP4 GT PUSH2 0x3016 JUMPI DUP3 SWAP1 SUB PUSH1 0x1F AND DUP3 ADD SWAP2 JUMPDEST POP POP POP POP POP DUP2 MSTORE PUSH1 0x20 ADD PUSH1 0x2 DUP3 ADD DUP1 SLOAD PUSH2 0x304C SWAP1 PUSH2 0x3DF1 JUMP JUMPDEST DUP1 PUSH1 0x1F ADD PUSH1 0x20 DUP1 SWAP2 DIV MUL PUSH1 0x20 ADD PUSH1 0x40 MLOAD SWAP1 DUP2 ADD PUSH1 0x40 MSTORE DUP1 SWAP3 SWAP2 SWAP1 DUP2 DUP2 MSTORE PUSH1 0x20 ADD DUP3 DUP1 SLOAD PUSH2 0x3078 SWAP1 PUSH2 0x3DF1 JUMP JUMPDEST DUP1 ISZERO PUSH2 0x30C5 JUMPI DUP1 PUSH1 0x1F LT PUSH2 0x309A JUMPI PUSH2 0x100 DUP1 DUP4 SLOAD DIV MUL DUP4 MSTORE SWAP2 PUSH1 0x20 ADD SWAP2 PUSH2 0x30C5 JUMP JUMPDEST DUP3 ADD SWAP2 SWAP1 PUSH1 0x0 MSTORE PUSH1 0x20 PUSH1 0x0 KECCAK256 SWAP1 JUMPDEST DUP2 SLOAD DUP2 MSTORE SWAP1 PUSH1 0x1 ADD SWAP1 PUSH1 0x20 ADD DUP1 DUP4 GT PUSH2 0x30A8 JUMPI DUP3 SWAP1 SUB PUSH1 0x1F AND DUP3 ADD SWAP2 JUMPDEST POP POP POP POP POP DUP2 MSTORE PUSH1 0x20 ADD PUSH1 0x3 DUP3 ADD PUSH1 0x0 SWAP1 SLOAD SWAP1 PUSH2 0x100 EXP SWAP1 DIV PUSH1 0xFF AND PUSH1 0xFF AND PUSH1 0xFF AND DUP2 MSTORE POP POP SWAP1 POP DUP1 PUSH1 0x0 ADD MLOAD DUP2 PUSH1 0x20 ADD MLOAD DUP3 PUSH1 0x40 ADD MLOAD DUP4 PUSH1 0x60 ADD MLOAD SWAP9 POP SWAP9 POP SWAP9 POP SWAP9 POP POP POP POP POP POP SWAP3 SWAP6 SWAP2 SWAP5 POP SWAP3 POP JUMP JUMPDEST PUSH1 0x0 PUSH1 0x7 DUP1 SLOAD SWAP1 POP SWAP1 POP SWAP1 JUMP JUMPDEST PUSH1 0x0 PUSH1 0x6 DUP1 SLOAD SWAP1 POP SWAP1 POP SWAP1 JUMP JUMPDEST PUSH1 0x0 DUP1 PUSH32 0xFFFFFFFFFFFFFFFFFFFFFFFFFFFFFFFFFFFFFFFFFFFFFFFFFFFFFFFFFFFFFFFF SWAP1 POP DUP3 PUSH20 0x0 PUSH4 0x3A96FDD7 SWAP1 SWAP2 PUSH1 0x40 MLOAD DUP3 PUSH4 0xFFFFFFFF AND PUSH1 0xE0 SHL DUP2 MSTORE PUSH1 0x4 ADD PUSH2 0x3190 SWAP2 SWAP1 PUSH2 0x4B92 JUMP JUMPDEST PUSH1 0x20 PUSH1 0x40 MLOAD DUP1 DUP4 SUB DUP2 DUP7 GAS DELEGATECALL ISZERO DUP1 ISZERO PUSH2 0x31AD JUMPI RETURNDATASIZE PUSH1 0x0 DUP1 RETURNDATACOPY RETURNDATASIZE PUSH1 0x0 REVERT JUMPDEST POP POP POP POP PUSH1 0x40 MLOAD RETURNDATASIZE PUSH1 0x1F NOT PUSH1 0x1F DUP3 ADD AND DUP3 ADD DUP1 PUSH1 0x40 MSTORE POP DUP2 ADD SWAP1 PUSH2 0x31D1 SWAP2 SWAP1 PUSH2 0x44AB JUMP JUMPDEST ISZERO PUSH2 0x3282 JUMPI PUSH1 0x0 JUMPDEST PUSH1 0x6 DUP1 SLOAD SWAP1 POP DUP2 LT ISZERO PUSH2 0x327C JUMPI DUP5 PUSH20 0xFFFFFFFFFFFFFFFFFFFFFFFFFFFFFFFFFFFFFFFF AND PUSH1 0x6 DUP3 DUP2 SLOAD DUP2 LT PUSH2 0x3211 JUMPI PUSH2 0x3210 PUSH2 0x41CE JUMP JUMPDEST JUMPDEST SWAP1 PUSH1 0x0 MSTORE PUSH1 0x20 PUSH1 0x0 KECCAK256 SWAP1 PUSH1 0x6 MUL ADD PUSH1 0x0 ADD PUSH1 0x1 ADD PUSH1 0x1 SWAP1 SLOAD SWAP1 PUSH2 0x100 EXP SWAP1 DIV PUSH20 0xFFFFFFFFFFFFFFFFFFFFFFFFFFFFFFFFFFFFFFFF AND PUSH20 0xFFFFFFFFFFFFFFFFFFFFFFFFFFFFFFFFFFFFFFFF AND SUB PUSH2 0x3269 JUMPI DUP1 SWAP2 POP PUSH2 0x327C JUMP JUMPDEST DUP1 DUP1 PUSH2 0x3274 SWAP1 PUSH2 0x4507 JUMP JUMPDEST SWAP2 POP POP PUSH2 0x31D9 JUMP JUMPDEST POP PUSH2 0x33AA JUMP JUMPDEST DUP3 PUSH20 0x0 PUSH4 0x3A96FDD7 SWAP1 SWAP2 PUSH1 0x40 MLOAD DUP3 PUSH4 0xFFFFFFFF AND PUSH1 0xE0 SHL DUP2 MSTORE PUSH1 0x4 ADD PUSH2 0x32BB SWAP2 SWAP1 PUSH2 0x4C13 JUMP JUMPDEST PUSH1 0x20 PUSH1 0x40 MLOAD DUP1 DUP4 SUB DUP2 DUP7 GAS DELEGATECALL ISZERO DUP1 ISZERO PUSH2 0x32D8 JUMPI RETURNDATASIZE PUSH1 0x0 DUP1 RETURNDATACOPY RETURNDATASIZE PUSH1 0x0 REVERT JUMPDEST POP POP POP POP PUSH1 0x40 MLOAD RETURNDATASIZE PUSH1 0x1F NOT PUSH1 0x1F DUP3 ADD AND DUP3 ADD DUP1 PUSH1 0x40 MSTORE POP DUP2 ADD SWAP1 PUSH2 0x32FC SWAP2 SWAP1 PUSH2 0x44AB JUMP JUMPDEST ISZERO PUSH2 0x33A9 JUMPI PUSH1 0x0 JUMPDEST PUSH1 0x7 DUP1 SLOAD SWAP1 POP DUP2 LT ISZERO PUSH2 0x33A7 JUMPI DUP5 PUSH20 0xFFFFFFFFFFFFFFFFFFFFFFFFFFFFFFFFFFFFFFFF AND PUSH1 0x7 DUP3 DUP2 SLOAD DUP2 LT PUSH2 0x333C JUMPI PUSH2 0x333B PUSH2 0x41CE JUMP JUMPDEST JUMPDEST SWAP1 PUSH1 0x0 MSTORE PUSH1 0x20 PUSH1 0x0 KECCAK256 SWAP1 PUSH1 0x5 MUL ADD PUSH1 0x0 ADD PUSH1 0x1 ADD PUSH1 0x1 SWAP1 SLOAD SWAP1 PUSH2 0x100 EXP SWAP1 DIV PUSH20 0xFFFFFFFFFFFFFFFFFFFFFFFFFFFFFFFFFFFFFFFF AND PUSH20 0xFFFFFFFFFFFFFFFFFFFFFFFFFFFFFFFFFFFFFFFF AND SUB PUSH2 0x3394 JUMPI DUP1 SWAP2 POP PUSH2 0x33A7 JUMP JUMPDEST DUP1 DUP1 PUSH2 0x339F SWAP1 PUSH2 0x4507 JUMP JUMPDEST SWAP2 POP POP PUSH2 0x3304 JUMP JUMPDEST POP JUMPDEST JUMPDEST DUP1 SWAP2 POP POP SWAP3 SWAP2 POP POP JUMP JUMPDEST POP DUP1 SLOAD PUSH2 0x33C0 SWAP1 PUSH2 0x3DF1 JUMP JUMPDEST PUSH1 0x0 DUP3 SSTORE DUP1 PUSH1 0x1F LT PUSH2 0x33D2 JUMPI POP PUSH2 0x33F1 JUMP JUMPDEST PUSH1 0x1F ADD PUSH1 0x20 SWAP1 DIV SWAP1 PUSH1 0x0 MSTORE PUSH1 0x20 PUSH1 0x0 KECCAK256 SWAP1 DUP2 ADD SWAP1 PUSH2 0x33F0 SWAP2 SWAP1 PUSH2 0x33F4 JUMP JUMPDEST JUMPDEST POP JUMP JUMPDEST JUMPDEST DUP1 DUP3 GT ISZERO PUSH2 0x340D JUMPI PUSH1 0x0 DUP2 PUSH1 0x0 SWAP1 SSTORE POP PUSH1 0x1 ADD PUSH2 0x33F5 JUMP JUMPDEST POP SWAP1 JUMP JUMPDEST PUSH1 0x0 PUSH1 0x40 MLOAD SWAP1 POP SWAP1 JUMP JUMPDEST PUSH1 0x0 DUP1 REVERT JUMPDEST PUSH1 0x0 DUP1 REVERT JUMPDEST PUSH1 0x0 DUP1 REVERT JUMPDEST PUSH1 0x0 DUP1 REVERT JUMPDEST PUSH1 0x0 PUSH1 0x1F NOT PUSH1 0x1F DUP4 ADD AND SWAP1 POP SWAP2 SWAP1 POP JUMP JUMPDEST PUSH32 0x4E487B7100000000000000000000000000000000000000000000000000000000 PUSH1 0x0 MSTORE PUSH1 0x41 PUSH1 0x4 MSTORE PUSH1 0x24 PUSH1 0x0 REVERT JUMPDEST PUSH2 0x3478 DUP3 PUSH2 0x342F JUMP JUMPDEST DUP2 ADD DUP2 DUP2 LT PUSH8 0xFFFFFFFFFFFFFFFF DUP3 GT OR ISZERO PUSH2 0x3497 JUMPI PUSH2 0x3496 PUSH2 0x3440 JUMP JUMPDEST JUMPDEST DUP1 PUSH1 0x40 MSTORE POP POP POP JUMP JUMPDEST PUSH1 0x0 PUSH2 0x34AA PUSH2 0x3411 JUMP JUMPDEST SWAP1 POP PUSH2 0x34B6 DUP3 DUP3 PUSH2 0x346F JUMP JUMPDEST SWAP2 SWAP1 POP JUMP JUMPDEST PUSH1 0x0 PUSH8 0xFFFFFFFFFFFFFFFF DUP3 GT ISZERO PUSH2 0x34D6 JUMPI PUSH2 0x34D5 PUSH2 0x3440 JUMP JUMPDEST JUMPDEST PUSH2 0x34DF DUP3 PUSH2 0x342F JUMP JUMPDEST SWAP1 POP PUSH1 0x20 DUP2 ADD SWAP1 POP SWAP2 SWAP1 POP JUMP JUMPDEST DUP3 DUP2 DUP4 CALLDATACOPY PUSH1 0x0 DUP4 DUP4 ADD MSTORE POP POP POP JUMP JUMPDEST PUSH1 0x0 PUSH2 0x350E PUSH2 0x3509 DUP5 PUSH2 0x34BB JUMP JUMPDEST PUSH2 0x34A0 JUMP JUMPDEST SWAP1 POP DUP3 DUP2 MSTORE PUSH1 0x20 DUP2 ADD DUP5 DUP5 DUP5 ADD GT ISZERO PUSH2 0x352A JUMPI PUSH2 0x3529 PUSH2 0x342A JUMP JUMPDEST JUMPDEST PUSH2 0x3535 DUP5 DUP3 DUP6 PUSH2 0x34EC JUMP JUMPDEST POP SWAP4 SWAP3 POP POP POP JUMP JUMPDEST PUSH1 0x0 DUP3 PUSH1 0x1F DUP4 ADD SLT PUSH2 0x3552 JUMPI PUSH2 0x3551 PUSH2 0x3425 JUMP JUMPDEST JUMPDEST DUP2 CALLDATALOAD PUSH2 0x3562 DUP5 DUP3 PUSH1 0x20 DUP7 ADD PUSH2 0x34FB JUMP JUMPDEST SWAP2 POP POP SWAP3 SWAP2 POP POP JUMP JUMPDEST PUSH1 0x0 PUSH1 0x20 DUP3 DUP5 SUB SLT ISZERO PUSH2 0x3581 JUMPI PUSH2 0x3580 PUSH2 0x341B JUMP JUMPDEST JUMPDEST PUSH1 0x0 DUP3 ADD CALLDATALOAD PUSH8 0xFFFFFFFFFFFFFFFF DUP2 GT ISZERO PUSH2 0x359F JUMPI PUSH2 0x359E PUSH2 0x3420 JUMP JUMPDEST JUMPDEST PUSH2 0x35AB DUP5 DUP3 DUP6 ADD PUSH2 0x353D JUMP JUMPDEST SWAP2 POP POP SWAP3 SWAP2 POP POP JUMP JUMPDEST PUSH1 0x0 DUP2 SWAP1 POP SWAP2 SWAP1 POP JUMP JUMPDEST PUSH2 0x35C7 DUP2 PUSH2 0x35B4 JUMP JUMPDEST DUP2 EQ PUSH2 0x35D2 JUMPI PUSH1 0x0 DUP1 REVERT JUMPDEST POP JUMP JUMPDEST PUSH1 0x0 DUP2 CALLDATALOAD SWAP1 POP PUSH2 0x35E4 DUP2 PUSH2 0x35BE JUMP JUMPDEST SWAP3 SWAP2 POP POP JUMP JUMPDEST PUSH1 0x0 PUSH1 0x20 DUP3 DUP5 SUB SLT ISZERO PUSH2 0x3600 JUMPI PUSH2 0x35FF PUSH2 0x341B JUMP JUMPDEST JUMPDEST PUSH1 0x0 PUSH2 0x360E DUP5 DUP3 DUP6 ADD PUSH2 0x35D5 JUMP JUMPDEST SWAP2 POP POP SWAP3 SWAP2 POP POP JUMP JUMPDEST PUSH1 0x0 DUP2 MLOAD SWAP1 POP SWAP2 SWAP1 POP JUMP JUMPDEST PUSH1 0x0 DUP3 DUP3 MSTORE PUSH1 0x20 DUP3 ADD SWAP1 POP SWAP3 SWAP2 POP POP JUMP JUMPDEST PUSH1 0x0 JUMPDEST DUP4 DUP2 LT ISZERO PUSH2 0x3651 JUMPI DUP1 DUP3 ADD MLOAD DUP2 DUP5 ADD MSTORE PUSH1 0x20 DUP2 ADD SWAP1 POP PUSH2 0x3636 JUMP JUMPDEST PUSH1 0x0 DUP5 DUP5 ADD MSTORE POP POP POP POP JUMP JUMPDEST PUSH1 0x0 PUSH2 0x3668 DUP3 PUSH2 0x3617 JUMP JUMPDEST PUSH2 0x3672 DUP2 DUP6 PUSH2 0x3622 JUMP JUMPDEST SWAP4 POP PUSH2 0x3682 DUP2 DUP6 PUSH1 0x20 DUP7 ADD PUSH2 0x3633 JUMP JUMPDEST PUSH2 0x368B DUP2 PUSH2 0x342F JUMP JUMPDEST DUP5 ADD SWAP2 POP POP SWAP3 SWAP2 POP POP JUMP JUMPDEST PUSH1 0x0 PUSH1 0x40 DUP3 ADD SWAP1 POP DUP2 DUP2 SUB PUSH1 0x0 DUP4 ADD MSTORE PUSH2 0x36B0 DUP2 DUP6 PUSH2 0x365D JUMP JUMPDEST SWAP1 POP DUP2 DUP2 SUB PUSH1 0x20 DUP4 ADD MSTORE PUSH2 0x36C4 DUP2 DUP5 PUSH2 0x365D JUMP JUMPDEST SWAP1 POP SWAP4 SWAP3 POP POP POP JUMP JUMPDEST PUSH32 0x4E487B7100000000000000000000000000000000000000000000000000000000 PUSH1 0x0 MSTORE PUSH1 0x21 PUSH1 0x4 MSTORE PUSH1 0x24 PUSH1 0x0 REVERT JUMPDEST PUSH1 0x3 DUP2 LT PUSH2 0x370D JUMPI PUSH2 0x370C PUSH2 0x36CD JUMP JUMPDEST JUMPDEST POP JUMP JUMPDEST PUSH1 0x0 DUP2 SWAP1 POP PUSH2 0x371E DUP3 PUSH2 0x36FC JUMP JUMPDEST SWAP2 SWAP1 POP JUMP JUMPDEST PUSH1 0x0 PUSH2 0x372E DUP3 PUSH2 0x3710 JUMP JUMPDEST SWAP1 POP SWAP2 SWAP1 POP JUMP JUMPDEST PUSH2 0x373E DUP2 PUSH2 0x3723 JUMP JUMPDEST DUP3 MSTORE POP POP JUMP JUMPDEST PUSH1 0x0 PUSH1 0x60 DUP3 ADD SWAP1 POP DUP2 DUP2 SUB PUSH1 0x0 DUP4 ADD MSTORE PUSH2 0x375E DUP2 DUP7 PUSH2 0x365D JUMP JUMPDEST SWAP1 POP PUSH2 0x376D PUSH1 0x20 DUP4 ADD DUP6 PUSH2 0x3735 JUMP JUMPDEST DUP2 DUP2 SUB PUSH1 0x40 DUP4 ADD MSTORE PUSH2 0x377F DUP2 DUP5 PUSH2 0x365D JUMP JUMPDEST SWAP1 POP SWAP5 SWAP4 POP POP POP POP JUMP JUMPDEST PUSH1 0x0 PUSH1 0xFF DUP3 AND SWAP1 POP SWAP2 SWAP1 POP JUMP JUMPDEST PUSH2 0x379F DUP2 PUSH2 0x3789 JUMP JUMPDEST DUP2 EQ PUSH2 0x37AA JUMPI PUSH1 0x0 DUP1 REVERT JUMPDEST POP JUMP JUMPDEST PUSH1 0x0 DUP2 CALLDATALOAD SWAP1 POP PUSH2 0x37BC DUP2 PUSH2 0x3796 JUMP JUMPDEST SWAP3 SWAP2 POP POP JUMP JUMPDEST PUSH1 0x0 DUP1 PUSH1 0x0 DUP1 PUSH1 0x80 DUP6 DUP8 SUB SLT ISZERO PUSH2 0x37DC JUMPI PUSH2 0x37DB PUSH2 0x341B JUMP JUMPDEST JUMPDEST PUSH1 0x0 DUP6 ADD CALLDATALOAD PUSH8 0xFFFFFFFFFFFFFFFF DUP2 GT ISZERO PUSH2 0x37FA JUMPI PUSH2 0x37F9 PUSH2 0x3420 JUMP JUMPDEST JUMPDEST PUSH2 0x3806 DUP8 DUP3 DUP9 ADD PUSH2 0x353D JUMP JUMPDEST SWAP5 POP POP PUSH1 0x20 DUP6 ADD CALLDATALOAD PUSH8 0xFFFFFFFFFFFFFFFF DUP2 GT ISZERO PUSH2 0x3827 JUMPI PUSH2 0x3826 PUSH2 0x3420 JUMP JUMPDEST JUMPDEST PUSH2 0x3833 DUP8 DUP3 DUP9 ADD PUSH2 0x353D JUMP JUMPDEST SWAP4 POP POP PUSH1 0x40 DUP6 ADD CALLDATALOAD PUSH8 0xFFFFFFFFFFFFFFFF DUP2 GT ISZERO PUSH2 0x3854 JUMPI PUSH2 0x3853 PUSH2 0x3420 JUMP JUMPDEST JUMPDEST PUSH2 0x3860 DUP8 DUP3 DUP9 ADD PUSH2 0x353D JUMP JUMPDEST SWAP3 POP POP PUSH1 0x60 PUSH2 0x3871 DUP8 DUP3 DUP9 ADD PUSH2 0x37AD JUMP JUMPDEST SWAP2 POP POP SWAP3 SWAP6 SWAP2 SWAP5 POP SWAP3 POP JUMP JUMPDEST PUSH2 0x3886 DUP2 PUSH2 0x35B4 JUMP JUMPDEST DUP3 MSTORE POP POP JUMP JUMPDEST PUSH1 0x0 PUSH1 0x20 DUP3 ADD SWAP1 POP PUSH2 0x38A1 PUSH1 0x0 DUP4 ADD DUP5 PUSH2 0x387D JUMP JUMPDEST SWAP3 SWAP2 POP POP JUMP JUMPDEST PUSH1 0x0 DUP1 PUSH1 0x40 DUP4 DUP6 SUB SLT ISZERO PUSH2 0x38BE JUMPI PUSH2 0x38BD PUSH2 0x341B JUMP JUMPDEST JUMPDEST PUSH1 0x0 DUP4 ADD CALLDATALOAD PUSH8 0xFFFFFFFFFFFFFFFF DUP2 GT ISZERO PUSH2 0x38DC JUMPI PUSH2 0x38DB PUSH2 0x3420 JUMP JUMPDEST JUMPDEST PUSH2 0x38E8 DUP6 DUP3 DUP7 ADD PUSH2 0x353D JUMP JUMPDEST SWAP3 POP POP PUSH1 0x20 DUP4 ADD CALLDATALOAD PUSH8 0xFFFFFFFFFFFFFFFF DUP2 GT ISZERO PUSH2 0x3909 JUMPI PUSH2 0x3908 PUSH2 0x3420 JUMP JUMPDEST JUMPDEST PUSH2 0x3915 DUP6 DUP3 DUP7 ADD PUSH2 0x353D JUMP JUMPDEST SWAP2 POP POP SWAP3 POP SWAP3 SWAP1 POP JUMP JUMPDEST PUSH1 0x0 PUSH20 0xFFFFFFFFFFFFFFFFFFFFFFFFFFFFFFFFFFFFFFFF DUP3 AND SWAP1 POP SWAP2 SWAP1 POP JUMP JUMPDEST PUSH1 0x0 PUSH2 0x394A DUP3 PUSH2 0x391F JUMP JUMPDEST SWAP1 POP SWAP2 SWAP1 POP JUMP JUMPDEST PUSH2 0x395A DUP2 PUSH2 0x393F JUMP JUMPDEST DUP2 EQ PUSH2 0x3965 JUMPI PUSH1 0x0 DUP1 REVERT JUMPDEST POP JUMP JUMPDEST PUSH1 0x0 DUP2 CALLDATALOAD SWAP1 POP PUSH2 0x3977 DUP2 PUSH2 0x3951 JUMP JUMPDEST SWAP3 SWAP2 POP POP JUMP JUMPDEST PUSH1 0x0 PUSH1 0x20 DUP3 DUP5 SUB SLT ISZERO PUSH2 0x3993 JUMPI PUSH2 0x3992 PUSH2 0x341B JUMP JUMPDEST JUMPDEST PUSH1 0x0 PUSH2 0x39A1 DUP5 DUP3 DUP6 ADD PUSH2 0x3968 JUMP JUMPDEST SWAP2 POP POP SWAP3 SWAP2 POP POP JUMP JUMPDEST PUSH1 0x0 DUP1 PUSH1 0x40 DUP4 DUP6 SUB SLT ISZERO PUSH2 0x39C1 JUMPI PUSH2 0x39C0 PUSH2 0x341B JUMP JUMPDEST JUMPDEST PUSH1 0x0 PUSH2 0x39CF DUP6 DUP3 DUP7 ADD PUSH2 0x35D5 JUMP JUMPDEST SWAP3 POP POP PUSH1 0x20 PUSH2 0x39E0 DUP6 DUP3 DUP7 ADD PUSH2 0x35D5 JUMP JUMPDEST SWAP2 POP POP SWAP3 POP SWAP3 SWAP1 POP JUMP JUMPDEST PUSH1 0x0 DUP1 PUSH1 0x40 DUP4 DUP6 SUB SLT ISZERO PUSH2 0x3A01 JUMPI PUSH2 0x3A00 PUSH2 0x341B JUMP JUMPDEST JUMPDEST PUSH1 0x0 DUP4 ADD CALLDATALOAD PUSH8 0xFFFFFFFFFFFFFFFF DUP2 GT ISZERO PUSH2 0x3A1F JUMPI PUSH2 0x3A1E PUSH2 0x3420 JUMP JUMPDEST JUMPDEST PUSH2 0x3A2B DUP6 DUP3 DUP7 ADD PUSH2 0x353D JUMP JUMPDEST SWAP3 POP POP PUSH1 0x20 PUSH2 0x3A3C DUP6 DUP3 DUP7 ADD PUSH2 0x35D5 JUMP JUMPDEST SWAP2 POP POP SWAP3 POP SWAP3 SWAP1 POP JUMP JUMPDEST PUSH1 0x3 DUP2 LT PUSH2 0x3A53 JUMPI PUSH1 0x0 DUP1 REVERT JUMPDEST POP JUMP JUMPDEST PUSH1 0x0 DUP2 CALLDATALOAD SWAP1 POP PUSH2 0x3A65 DUP2 PUSH2 0x3A46 JUMP JUMPDEST SWAP3 SWAP2 POP POP JUMP JUMPDEST PUSH1 0x0 DUP1 PUSH1 0x40 DUP4 DUP6 SUB SLT ISZERO PUSH2 0x3A82 JUMPI PUSH2 0x3A81 PUSH2 0x341B JUMP JUMPDEST JUMPDEST PUSH1 0x0 PUSH2 0x3A90 DUP6 DUP3 DUP7 ADD PUSH2 0x3A56 JUMP JUMPDEST SWAP3 POP POP PUSH1 0x20 DUP4 ADD CALLDATALOAD PUSH8 0xFFFFFFFFFFFFFFFF DUP2 GT ISZERO PUSH2 0x3AB1 JUMPI PUSH2 0x3AB0 PUSH2 0x3420 JUMP JUMPDEST JUMPDEST PUSH2 0x3ABD DUP6 DUP3 DUP7 ADD PUSH2 0x353D JUMP JUMPDEST SWAP2 POP POP SWAP3 POP SWAP3 SWAP1 POP JUMP JUMPDEST PUSH2 0x3AD0 DUP2 PUSH2 0x393F JUMP JUMPDEST DUP3 MSTORE POP POP JUMP JUMPDEST PUSH2 0x3ADF DUP2 PUSH2 0x3789 JUMP JUMPDEST DUP3 MSTORE POP POP JUMP JUMPDEST PUSH1 0x3 DUP2 LT PUSH2 0x3AF6 JUMPI PUSH2 0x3AF5 PUSH2 0x36CD JUMP JUMPDEST JUMPDEST POP JUMP JUMPDEST PUSH1 0x0 DUP2 SWAP1 POP PUSH2 0x3B07 DUP3 PUSH2 0x3AE5 JUMP JUMPDEST SWAP2 SWAP1 POP JUMP JUMPDEST PUSH1 0x0 PUSH2 0x3B17 DUP3 PUSH2 0x3AF9 JUMP JUMPDEST SWAP1 POP SWAP2 SWAP1 POP JUMP JUMPDEST PUSH2 0x3B27 DUP2 PUSH2 0x3B0C JUMP JUMPDEST DUP3 MSTORE POP POP JUMP JUMPDEST PUSH1 0x0 PUSH1 0xC0 DUP3 ADD SWAP1 POP DUP2 DUP2 SUB PUSH1 0x0 DUP4 ADD MSTORE PUSH2 0x3B47 DUP2 DUP10 PUSH2 0x365D JUMP JUMPDEST SWAP1 POP PUSH2 0x3B56 PUSH1 0x20 DUP4 ADD DUP9 PUSH2 0x3AC7 JUMP JUMPDEST PUSH2 0x3B63 PUSH1 0x40 DUP4 ADD DUP8 PUSH2 0x3AD6 JUMP JUMPDEST PUSH2 0x3B70 PUSH1 0x60 DUP4 ADD DUP7 PUSH2 0x3B1E JUMP JUMPDEST DUP2 DUP2 SUB PUSH1 0x80 DUP4 ADD MSTORE PUSH2 0x3B82 DUP2 DUP6 PUSH2 0x365D JUMP JUMPDEST SWAP1 POP DUP2 DUP2 SUB PUSH1 0xA0 DUP4 ADD MSTORE PUSH2 0x3B96 DUP2 DUP5 PUSH2 0x365D JUMP JUMPDEST SWAP1 POP SWAP8 SWAP7 POP POP POP POP POP POP POP JUMP JUMPDEST PUSH1 0x0 PUSH1 0x80 DUP3 ADD SWAP1 POP DUP2 DUP2 SUB PUSH1 0x0 DUP4 ADD MSTORE PUSH2 0x3BBD DUP2 DUP8 PUSH2 0x365D JUMP JUMPDEST SWAP1 POP DUP2 DUP2 SUB PUSH1 0x20 DUP4 ADD MSTORE PUSH2 0x3BD1 DUP2 DUP7 PUSH2 0x365D JUMP JUMPDEST SWAP1 POP PUSH2 0x3BE0 PUSH1 0x40 DUP4 ADD DUP6 PUSH2 0x387D JUMP JUMPDEST PUSH2 0x3BED PUSH1 0x60 DUP4 ADD DUP5 PUSH2 0x387D JUMP JUMPDEST SWAP6 SWAP5 POP POP POP POP POP JUMP JUMPDEST PUSH1 0x3 DUP2 LT PUSH2 0x3C03 JUMPI PUSH1 0x0 DUP1 REVERT JUMPDEST POP JUMP JUMPDEST PUSH1 0x0 DUP2 CALLDATALOAD SWAP1 POP PUSH2 0x3C15 DUP2 PUSH2 0x3BF6 JUMP JUMPDEST SWAP3 SWAP2 POP POP JUMP JUMPDEST PUSH1 0x0 DUP2 ISZERO ISZERO SWAP1 POP SWAP2 SWAP1 POP JUMP JUMPDEST PUSH2 0x3C30 DUP2 PUSH2 0x3C1B JUMP JUMPDEST DUP2 EQ PUSH2 0x3C3B JUMPI PUSH1 0x0 DUP1 REVERT JUMPDEST POP JUMP JUMPDEST PUSH1 0x0 DUP2 CALLDATALOAD SWAP1 POP PUSH2 0x3C4D DUP2 PUSH2 0x3C27 JUMP JUMPDEST SWAP3 SWAP2 POP POP JUMP JUMPDEST PUSH1 0x0 DUP1 PUSH1 0x0 DUP1 PUSH1 0x80 DUP6 DUP8 SUB SLT ISZERO PUSH2 0x3C6D JUMPI PUSH2 0x3C6C PUSH2 0x341B JUMP JUMPDEST JUMPDEST PUSH1 0x0 PUSH2 0x3C7B DUP8 DUP3 DUP9 ADD PUSH2 0x3968 JUMP JUMPDEST SWAP5 POP POP PUSH1 0x20 DUP6 ADD CALLDATALOAD PUSH8 0xFFFFFFFFFFFFFFFF DUP2 GT ISZERO PUSH2 0x3C9C JUMPI PUSH2 0x3C9B PUSH2 0x3420 JUMP JUMPDEST JUMPDEST PUSH2 0x3CA8 DUP8 DUP3 DUP9 ADD PUSH2 0x353D JUMP JUMPDEST SWAP4 POP POP PUSH1 0x40 PUSH2 0x3CB9 DUP8 DUP3 DUP9 ADD PUSH2 0x3C06 JUMP JUMPDEST SWAP3 POP POP PUSH1 0x60 PUSH2 0x3CCA DUP8 DUP3 DUP9 ADD PUSH2 0x3C3E JUMP JUMPDEST SWAP2 POP POP SWAP3 SWAP6 SWAP2 SWAP5 POP SWAP3 POP JUMP JUMPDEST PUSH1 0x0 PUSH1 0x80 DUP3 ADD SWAP1 POP DUP2 DUP2 SUB PUSH1 0x0 DUP4 ADD MSTORE PUSH2 0x3CF0 DUP2 DUP8 PUSH2 0x365D JUMP JUMPDEST SWAP1 POP DUP2 DUP2 SUB PUSH1 0x20 DUP4 ADD MSTORE PUSH2 0x3D04 DUP2 DUP7 PUSH2 0x365D JUMP JUMPDEST SWAP1 POP DUP2 DUP2 SUB PUSH1 0x40 DUP4 ADD MSTORE PUSH2 0x3D18 DUP2 DUP6 PUSH2 0x365D JUMP JUMPDEST SWAP1 POP PUSH2 0x3D27 PUSH1 0x60 DUP4 ADD DUP5 PUSH2 0x3AD6 JUMP JUMPDEST SWAP6 SWAP5 POP POP POP POP POP JUMP JUMPDEST PUSH32 0x5065726D697373696F6E2064656E6965642C20706C656173652075736520686F PUSH1 0x0 DUP3 ADD MSTORE PUSH32 0x7374206163636F756E7400000000000000000000000000000000000000000000 PUSH1 0x20 DUP3 ADD MSTORE POP JUMP JUMPDEST PUSH1 0x0 PUSH2 0x3D8C PUSH1 0x2A DUP4 PUSH2 0x3622 JUMP JUMPDEST SWAP2 POP PUSH2 0x3D97 DUP3 PUSH2 0x3D30 JUMP JUMPDEST PUSH1 0x40 DUP3 ADD SWAP1 POP SWAP2 SWAP1 POP JUMP JUMPDEST PUSH1 0x0 PUSH1 0x20 DUP3 ADD SWAP1 POP DUP2 DUP2 SUB PUSH1 0x0 DUP4 ADD MSTORE PUSH2 0x3DBB DUP2 PUSH2 0x3D7F JUMP JUMPDEST SWAP1 POP SWAP2 SWAP1 POP JUMP JUMPDEST PUSH32 0x4E487B7100000000000000000000000000000000000000000000000000000000 PUSH1 0x0 MSTORE PUSH1 0x22 PUSH1 0x4 MSTORE PUSH1 0x24 PUSH1 0x0 REVERT JUMPDEST PUSH1 0x0 PUSH1 0x2 DUP3 DIV SWAP1 POP PUSH1 0x1 DUP3 AND DUP1 PUSH2 0x3E09 JUMPI PUSH1 0x7F DUP3 AND SWAP2 POP JUMPDEST PUSH1 0x20 DUP3 LT DUP2 SUB PUSH2 0x3E1C JUMPI PUSH2 0x3E1B PUSH2 0x3DC2 JUMP JUMPDEST JUMPDEST POP SWAP2 SWAP1 POP JUMP JUMPDEST PUSH1 0x0 DUP2 SWAP1 POP DUP2 PUSH1 0x0 MSTORE PUSH1 0x20 PUSH1 0x0 KECCAK256 SWAP1 POP SWAP2 SWAP1 POP JUMP JUMPDEST PUSH1 0x0 PUSH1 0x20 PUSH1 0x1F DUP4 ADD DIV SWAP1 POP SWAP2 SWAP1 POP JUMP JUMPDEST PUSH1 0x0 DUP3 DUP3 SHL SWAP1 POP SWAP3 SWAP2 POP POP JUMP JUMPDEST PUSH1 0x0 PUSH1 0x8 DUP4 MUL PUSH2 0x3E84 PUSH32 0xFFFFFFFFFFFFFFFFFFFFFFFFFFFFFFFFFFFFFFFFFFFFFFFFFFFFFFFFFFFFFFFF DUP3 PUSH2 0x3E47 JUMP JUMPDEST PUSH2 0x3E8E DUP7 DUP4 PUSH2 0x3E47 JUMP JUMPDEST SWAP6 POP DUP1 NOT DUP5 AND SWAP4 POP DUP1 DUP7 AND DUP5 OR SWAP3 POP POP POP SWAP4 SWAP3 POP POP POP JUMP JUMPDEST PUSH1 0x0 DUP2 SWAP1 POP SWAP2 SWAP1 POP JUMP JUMPDEST PUSH1 0x0 PUSH2 0x3ECB PUSH2 0x3EC6 PUSH2 0x3EC1 DUP5 PUSH2 0x35B4 JUMP JUMPDEST PUSH2 0x3EA6 JUMP JUMPDEST PUSH2 0x35B4 JUMP JUMPDEST SWAP1 POP SWAP2 SWAP1 POP JUMP JUMPDEST PUSH1 0x0 DUP2 SWAP1 POP SWAP2 SWAP1 POP JUMP JUMPDEST PUSH2 0x3EE5 DUP4 PUSH2 0x3EB0 JUMP JUMPDEST PUSH2 0x3EF9 PUSH2 0x3EF1 DUP3 PUSH2 0x3ED2 JUMP JUMPDEST DUP5 DUP5 SLOAD PUSH2 0x3E54 JUMP JUMPDEST DUP3 SSTORE POP POP POP POP JUMP JUMPDEST PUSH1 0x0 SWAP1 JUMP JUMPDEST PUSH2 0x3F0E PUSH2 0x3F01 JUMP JUMPDEST PUSH2 0x3F19 DUP2 DUP5 DUP5 PUSH2 0x3EDC JUMP JUMPDEST POP POP POP JUMP JUMPDEST JUMPDEST DUP2 DUP2 LT ISZERO PUSH2 0x3F3D JUMPI PUSH2 0x3F32 PUSH1 0x0 DUP3 PUSH2 0x3F06 JUMP JUMPDEST PUSH1 0x1 DUP2 ADD SWAP1 POP PUSH2 0x3F1F JUMP JUMPDEST POP POP JUMP JUMPDEST PUSH1 0x1F DUP3 GT ISZERO PUSH2 0x3F82 JUMPI PUSH2 0x3F53 DUP2 PUSH2 0x3E22 JUMP JUMPDEST PUSH2 0x3F5C DUP5 PUSH2 0x3E37 JUMP JUMPDEST DUP2 ADD PUSH1 0x20 DUP6 LT ISZERO PUSH2 0x3F6B JUMPI DUP2 SWAP1 POP JUMPDEST PUSH2 0x3F7F PUSH2 0x3F77 DUP6 PUSH2 0x3E37 JUMP JUMPDEST DUP4 ADD DUP3 PUSH2 0x3F1E JUMP JUMPDEST POP POP JUMPDEST POP POP POP JUMP JUMPDEST PUSH1 0x0 DUP3 DUP3 SHR SWAP1 POP SWAP3 SWAP2 POP POP JUMP JUMPDEST PUSH1 0x0 PUSH2 0x3FA5 PUSH1 0x0 NOT DUP5 PUSH1 0x8 MUL PUSH2 0x3F87 JUMP JUMPDEST NOT DUP1 DUP4 AND SWAP2 POP POP SWAP3 SWAP2 POP POP JUMP JUMPDEST PUSH1 0x0 PUSH2 0x3FBE DUP4 DUP4 PUSH2 0x3F94 JUMP JUMPDEST SWAP2 POP DUP3 PUSH1 0x2 MUL DUP3 OR SWAP1 POP SWAP3 SWAP2 POP POP JUMP JUMPDEST PUSH2 0x3FD7 DUP3 PUSH2 0x3617 JUMP JUMPDEST PUSH8 0xFFFFFFFFFFFFFFFF DUP2 GT ISZERO PUSH2 0x3FF0 JUMPI PUSH2 0x3FEF PUSH2 0x3440 JUMP JUMPDEST JUMPDEST PUSH2 0x3FFA DUP3 SLOAD PUSH2 0x3DF1 JUMP JUMPDEST PUSH2 0x4005 DUP3 DUP3 DUP6 PUSH2 0x3F41 JUMP JUMPDEST PUSH1 0x0 PUSH1 0x20 SWAP1 POP PUSH1 0x1F DUP4 GT PUSH1 0x1 DUP2 EQ PUSH2 0x4038 JUMPI PUSH1 0x0 DUP5 ISZERO PUSH2 0x4026 JUMPI DUP3 DUP8 ADD MLOAD SWAP1 POP JUMPDEST PUSH2 0x4030 DUP6 DUP3 PUSH2 0x3FB2 JUMP JUMPDEST DUP7 SSTORE POP PUSH2 0x4098 JUMP JUMPDEST PUSH1 0x1F NOT DUP5 AND PUSH2 0x4046 DUP7 PUSH2 0x3E22 JUMP JUMPDEST PUSH1 0x0 JUMPDEST DUP3 DUP2 LT ISZERO PUSH2 0x406E JUMPI DUP5 DUP10 ADD MLOAD DUP3 SSTORE PUSH1 0x1 DUP3 ADD SWAP2 POP PUSH1 0x20 DUP6 ADD SWAP5 POP PUSH1 0x20 DUP2 ADD SWAP1 POP PUSH2 0x4049 JUMP JUMPDEST DUP7 DUP4 LT ISZERO PUSH2 0x408B JUMPI DUP5 DUP10 ADD MLOAD PUSH2 0x4087 PUSH1 0x1F DUP10 AND DUP3 PUSH2 0x3F94 JUMP JUMPDEST DUP4 SSTORE POP JUMPDEST PUSH1 0x1 PUSH1 0x2 DUP9 MUL ADD DUP9 SSTORE POP POP POP JUMPDEST POP POP POP POP POP POP JUMP JUMPDEST PUSH1 0xB DUP2 LT PUSH2 0x40B1 JUMPI PUSH2 0x40B0 PUSH2 0x36CD JUMP JUMPDEST JUMPDEST POP JUMP JUMPDEST PUSH1 0x0 DUP2 SWAP1 POP PUSH2 0x40C2 DUP3 PUSH2 0x40A0 JUMP JUMPDEST SWAP2 SWAP1 POP JUMP JUMPDEST PUSH1 0x0 PUSH2 0x40D2 DUP3 PUSH2 0x40B4 JUMP JUMPDEST SWAP1 POP SWAP2 SWAP1 POP JUMP JUMPDEST PUSH2 0x40E2 DUP2 PUSH2 0x40C7 JUMP JUMPDEST DUP3 MSTORE POP POP JUMP JUMPDEST PUSH32 0x536574204175746F62696F677261706879000000000000000000000000000000 PUSH1 0x0 DUP3 ADD MSTORE POP JUMP JUMPDEST PUSH1 0x0 PUSH2 0x411E PUSH1 0x11 DUP4 PUSH2 0x3622 JUMP JUMPDEST SWAP2 POP PUSH2 0x4129 DUP3 PUSH2 0x40E8 JUMP JUMPDEST PUSH1 0x20 DUP3 ADD SWAP1 POP SWAP2 SWAP1 POP JUMP JUMPDEST PUSH1 0x0 PUSH1 0x40 DUP3 ADD SWAP1 POP PUSH2 0x4149 PUSH1 0x0 DUP4 ADD DUP5 PUSH2 0x40D9 JUMP JUMPDEST DUP2 DUP2 SUB PUSH1 0x20 DUP4 ADD MSTORE PUSH2 0x415A DUP2 PUSH2 0x4111 JUMP JUMPDEST SWAP1 POP SWAP3 SWAP2 POP POP JUMP JUMPDEST PUSH32 0x4F7574206F662072616E67650000000000000000000000000000000000000000 PUSH1 0x0 DUP3 ADD MSTORE POP JUMP JUMPDEST PUSH1 0x0 PUSH2 0x4198 PUSH1 0xC DUP4 PUSH2 0x3622 JUMP JUMPDEST SWAP2 POP PUSH2 0x41A3 DUP3 PUSH2 0x4162 JUMP JUMPDEST PUSH1 0x20 DUP3 ADD SWAP1 POP SWAP2 SWAP1 POP JUMP JUMPDEST PUSH1 0x0 PUSH1 0x20 DUP3 ADD SWAP1 POP DUP2 DUP2 SUB PUSH1 0x0 DUP4 ADD MSTORE PUSH2 0x41C7 DUP2 PUSH2 0x418B JUMP JUMPDEST SWAP1 POP SWAP2 SWAP1 POP JUMP JUMPDEST PUSH32 0x4E487B7100000000000000000000000000000000000000000000000000000000 PUSH1 0x0 MSTORE PUSH1 0x32 PUSH1 0x4 MSTORE PUSH1 0x24 PUSH1 0x0 REVERT JUMPDEST PUSH32 0x5065726D697373696F6E2064656E6965642C20706C6561736520757365207363 PUSH1 0x0 DUP3 ADD MSTORE PUSH32 0x686F6F6C206163636F756E740000000000000000000000000000000000000000 PUSH1 0x20 DUP3 ADD MSTORE POP JUMP JUMPDEST PUSH1 0x0 PUSH2 0x4259 PUSH1 0x2C DUP4 PUSH2 0x3622 JUMP JUMPDEST SWAP2 POP PUSH2 0x4264 DUP3 PUSH2 0x41FD JUMP JUMPDEST PUSH1 0x40 DUP3 ADD SWAP1 POP SWAP2 SWAP1 POP JUMP JUMPDEST PUSH1 0x0 PUSH1 0x20 DUP3 ADD SWAP1 POP DUP2 DUP2 SUB PUSH1 0x0 DUP4 ADD MSTORE PUSH2 0x4288 DUP2 PUSH2 0x424C JUMP JUMPDEST SWAP1 POP SWAP2 SWAP1 POP JUMP JUMPDEST PUSH32 0x53657420436F7572736500000000000000000000000000000000000000000000 PUSH1 0x0 DUP3 ADD MSTORE POP JUMP JUMPDEST PUSH1 0x0 PUSH2 0x42C5 PUSH1 0xA DUP4 PUSH2 0x3622 JUMP JUMPDEST SWAP2 POP PUSH2 0x42D0 DUP3 PUSH2 0x428F JUMP JUMPDEST PUSH1 0x20 DUP3 ADD SWAP1 POP SWAP2 SWAP1 POP JUMP JUMPDEST PUSH1 0x0 PUSH1 0x40 DUP3 ADD SWAP1 POP PUSH2 0x42F0 PUSH1 0x0 DUP4 ADD DUP5 PUSH2 0x40D9 JUMP JUMPDEST DUP2 DUP2 SUB PUSH1 0x20 DUP4 ADD MSTORE PUSH2 0x4301 DUP2 PUSH2 0x42B8 JUMP JUMPDEST SWAP1 POP SWAP3 SWAP2 POP POP JUMP JUMPDEST PUSH32 0x5065726D697373696F6E2064656E6965642C20706C656173652075736520636F PUSH1 0x0 DUP3 ADD MSTORE PUSH32 0x6D70616E79206163636F756E7400000000000000000000000000000000000000 PUSH1 0x20 DUP3 ADD MSTORE POP JUMP JUMPDEST PUSH1 0x0 PUSH2 0x4365 PUSH1 0x2D DUP4 PUSH2 0x3622 JUMP JUMPDEST SWAP2 POP PUSH2 0x4370 DUP3 PUSH2 0x4309 JUMP JUMPDEST PUSH1 0x40 DUP3 ADD SWAP1 POP SWAP2 SWAP1 POP JUMP JUMPDEST PUSH1 0x0 PUSH1 0x20 DUP3 ADD SWAP1 POP DUP2 DUP2 SUB PUSH1 0x0 DUP4 ADD MSTORE PUSH2 0x4394 DUP2 PUSH2 0x4358 JUMP JUMPDEST SWAP1 POP SWAP2 SWAP1 POP JUMP JUMPDEST PUSH32 0x536574204A6F62456E6444617465000000000000000000000000000000000000 PUSH1 0x0 DUP3 ADD MSTORE POP JUMP JUMPDEST PUSH1 0x0 PUSH2 0x43D1 PUSH1 0xE DUP4 PUSH2 0x3622 JUMP JUMPDEST SWAP2 POP PUSH2 0x43DC DUP3 PUSH2 0x439B JUMP JUMPDEST PUSH1 0x20 DUP3 ADD SWAP1 POP SWAP2 SWAP1 POP JUMP JUMPDEST PUSH1 0x0 PUSH1 0x40 DUP3 ADD SWAP1 POP PUSH2 0x43FC PUSH1 0x0 DUP4 ADD DUP5 PUSH2 0x40D9 JUMP JUMPDEST DUP2 DUP2 SUB PUSH1 0x20 DUP4 ADD MSTORE PUSH2 0x440D DUP2 PUSH2 0x43C4 JUMP JUMPDEST SWAP1 POP SWAP3 SWAP2 POP POP JUMP JUMPDEST PUSH1 0x0 DUP3 DUP3 MSTORE PUSH1 0x20 DUP3 ADD SWAP1 POP SWAP3 SWAP2 POP POP JUMP JUMPDEST PUSH1 0x0 PUSH2 0x4431 DUP3 PUSH2 0x3617 JUMP JUMPDEST PUSH2 0x443B DUP2 DUP6 PUSH2 0x4415 JUMP JUMPDEST SWAP4 POP PUSH2 0x444B DUP2 DUP6 PUSH1 0x20 DUP7 ADD PUSH2 0x3633 JUMP JUMPDEST PUSH2 0x4454 DUP2 PUSH2 0x342F JUMP JUMPDEST DUP5 ADD SWAP2 POP POP SWAP3 SWAP2 POP POP JUMP JUMPDEST PUSH1 0x0 PUSH1 0x40 DUP3 ADD SWAP1 POP DUP2 DUP2 SUB PUSH1 0x0 DUP4 ADD MSTORE PUSH2 0x4479 DUP2 DUP6 PUSH2 0x4426 JUMP JUMPDEST SWAP1 POP DUP2 DUP2 SUB PUSH1 0x20 DUP4 ADD MSTORE PUSH2 0x448D DUP2 DUP5 PUSH2 0x4426 JUMP JUMPDEST SWAP1 POP SWAP4 SWAP3 POP POP POP JUMP JUMPDEST PUSH1 0x0 DUP2 MLOAD SWAP1 POP PUSH2 0x44A5 DUP2 PUSH2 0x3C27 JUMP JUMPDEST SWAP3 SWAP2 POP POP JUMP JUMPDEST PUSH1 0x0 PUSH1 0x20 DUP3 DUP5 SUB SLT ISZERO PUSH2 0x44C1 JUMPI PUSH2 0x44C0 PUSH2 0x341B JUMP JUMPDEST JUMPDEST PUSH1 0x0 PUSH2 0x44CF DUP5 DUP3 DUP6 ADD PUSH2 0x4496 JUMP JUMPDEST SWAP2 POP POP SWAP3 SWAP2 POP POP JUMP JUMPDEST PUSH32 0x4E487B7100000000000000000000000000000000000000000000000000000000 PUSH1 0x0 MSTORE PUSH1 0x11 PUSH1 0x4 MSTORE PUSH1 0x24 PUSH1 0x0 REVERT JUMPDEST PUSH1 0x0 PUSH2 0x4512 DUP3 PUSH2 0x35B4 JUMP JUMPDEST SWAP2 POP PUSH32 0xFFFFFFFFFFFFFFFFFFFFFFFFFFFFFFFFFFFFFFFFFFFFFFFFFFFFFFFFFFFFFFFF DUP3 SUB PUSH2 0x4544 JUMPI PUSH2 0x4543 PUSH2 0x44D8 JUMP JUMPDEST JUMPDEST PUSH1 0x1 DUP3 ADD SWAP1 POP SWAP2 SWAP1 POP JUMP JUMPDEST PUSH1 0x0 PUSH2 0x455A DUP3 PUSH2 0x35B4 JUMP JUMPDEST SWAP2 POP PUSH2 0x4565 DUP4 PUSH2 0x35B4 JUMP JUMPDEST SWAP3 POP DUP3 DUP3 SUB SWAP1 POP DUP2 DUP2 GT ISZERO PUSH2 0x457D JUMPI PUSH2 0x457C PUSH2 0x44D8 JUMP JUMPDEST JUMPDEST SWAP3 SWAP2 POP POP JUMP JUMPDEST PUSH1 0x0 PUSH2 0x458E DUP3 PUSH2 0x35B4 JUMP JUMPDEST SWAP2 POP PUSH2 0x4599 DUP4 PUSH2 0x35B4 JUMP JUMPDEST SWAP3 POP DUP3 DUP3 ADD SWAP1 POP DUP1 DUP3 GT ISZERO PUSH2 0x45B1 JUMPI PUSH2 0x45B0 PUSH2 0x44D8 JUMP JUMPDEST JUMPDEST SWAP3 SWAP2 POP POP JUMP JUMPDEST PUSH1 0x0 DUP2 SLOAD SWAP1 POP PUSH2 0x45C6 DUP2 PUSH2 0x3DF1 JUMP JUMPDEST SWAP1 POP SWAP2 SWAP1 POP JUMP JUMPDEST DUP2 DUP2 SUB PUSH2 0x45DB JUMPI POP POP PUSH2 0x46B3 JUMP JUMPDEST PUSH2 0x45E4 DUP3 PUSH2 0x45B7 JUMP JUMPDEST PUSH8 0xFFFFFFFFFFFFFFFF DUP2 GT ISZERO PUSH2 0x45FD JUMPI PUSH2 0x45FC PUSH2 0x3440 JUMP JUMPDEST JUMPDEST PUSH2 0x4607 DUP3 SLOAD PUSH2 0x3DF1 JUMP JUMPDEST PUSH2 0x4612 DUP3 DUP3 DUP6 PUSH2 0x3F41 JUMP JUMPDEST PUSH1 0x0 PUSH1 0x1F DUP4 GT PUSH1 0x1 DUP2 EQ PUSH2 0x4641 JUMPI PUSH1 0x0 DUP5 ISZERO PUSH2 0x462F JUMPI DUP3 DUP8 ADD SLOAD SWAP1 POP JUMPDEST PUSH2 0x4639 DUP6 DUP3 PUSH2 0x3FB2 JUMP JUMPDEST DUP7 SSTORE POP PUSH2 0x46AC JUMP JUMPDEST PUSH1 0x1F NOT DUP5 AND PUSH2 0x464F DUP8 PUSH2 0x3E22 JUMP JUMPDEST SWAP7 POP PUSH2 0x465A DUP7 PUSH2 0x3E22 JUMP JUMPDEST PUSH1 0x0 JUMPDEST DUP3 DUP2 LT ISZERO PUSH2 0x4682 JUMPI DUP5 DUP10 ADD SLOAD DUP3 SSTORE PUSH1 0x1 DUP3 ADD SWAP2 POP PUSH1 0x1 DUP6 ADD SWAP5 POP PUSH1 0x20 DUP2 ADD SWAP1 POP PUSH2 0x465D JUMP JUMPDEST DUP7 DUP4 LT ISZERO PUSH2 0x469F JUMPI DUP5 DUP10 ADD SLOAD PUSH2 0x469B PUSH1 0x1F DUP10 AND DUP3 PUSH2 0x3F94 JUMP JUMPDEST DUP4 SSTORE POP JUMPDEST PUSH1 0x1 PUSH1 0x2 DUP9 MUL ADD DUP9 SSTORE POP POP POP JUMPDEST POP POP POP POP POP POP JUMPDEST JUMP JUMPDEST PUSH32 0x4E487B7100000000000000000000000000000000000000000000000000000000 PUSH1 0x0 MSTORE PUSH1 0x31 PUSH1 0x4 MSTORE PUSH1 0x24 PUSH1 0x0 REVERT JUMPDEST PUSH32 0x52656D6F766520536B696C6C0000000000000000000000000000000000000000 PUSH1 0x0 DUP3 ADD MSTORE POP JUMP JUMPDEST PUSH1 0x0 PUSH2 0x471A PUSH1 0xC DUP4 PUSH2 0x3622 JUMP JUMPDEST SWAP2 POP PUSH2 0x4725 DUP3 PUSH2 0x46E4 JUMP JUMPDEST PUSH1 0x20 DUP3 ADD SWAP1 POP SWAP2 SWAP1 POP JUMP JUMPDEST PUSH1 0x0 PUSH1 0x40 DUP3 ADD SWAP1 POP PUSH2 0x4745 PUSH1 0x0 DUP4 ADD DUP5 PUSH2 0x40D9 JUMP JUMPDEST DUP2 DUP2 SUB PUSH1 0x20 DUP4 ADD MSTORE PUSH2 0x4756 DUP2 PUSH2 0x470D JUMP JUMPDEST SWAP1 POP SWAP3 SWAP2 POP POP JUMP JUMPDEST PUSH32 0x5065726D697373696F6E2064656E6965642C20706C656173652075736520676F PUSH1 0x0 DUP3 ADD MSTORE PUSH32 0x7665726E6D656E74206163636F756E7400000000000000000000000000000000 PUSH1 0x20 DUP3 ADD MSTORE POP JUMP JUMPDEST PUSH1 0x0 PUSH2 0x47BA PUSH1 0x30 DUP4 PUSH2 0x3622 JUMP JUMPDEST SWAP2 POP PUSH2 0x47C5 DUP3 PUSH2 0x475E JUMP JUMPDEST PUSH1 0x40 DUP3 ADD SWAP1 POP SWAP2 SWAP1 POP JUMP JUMPDEST PUSH1 0x0 PUSH1 0x20 DUP3 ADD SWAP1 POP DUP2 DUP2 SUB PUSH1 0x0 DUP4 ADD MSTORE PUSH2 0x47E9 DUP2 PUSH2 0x47AD JUMP JUMPDEST SWAP1 POP SWAP2 SWAP1 POP JUMP JUMPDEST PUSH32 0x52656D6F7665205065726D697373696F6E000000000000000000000000000000 PUSH1 0x0 DUP3 ADD MSTORE POP JUMP JUMPDEST PUSH1 0x0 PUSH2 0x4826 PUSH1 0x11 DUP4 PUSH2 0x3622 JUMP JUMPDEST SWAP2 POP PUSH2 0x4831 DUP3 PUSH2 0x47F0 JUMP JUMPDEST PUSH1 0x20 DUP3 ADD SWAP1 POP SWAP2 SWAP1 POP JUMP JUMPDEST PUSH1 0x0 PUSH1 0x40 DUP3 ADD SWAP1 POP PUSH2 0x4851 PUSH1 0x0 DUP4 ADD DUP5 PUSH2 0x40D9 JUMP JUMPDEST DUP2 DUP2 SUB PUSH1 0x20 DUP4 ADD MSTORE PUSH2 0x4862 DUP2 PUSH2 0x4819 JUMP JUMPDEST SWAP1 POP SWAP3 SWAP2 POP POP JUMP JUMPDEST PUSH32 0x536574204C6963656E7365000000000000000000000000000000000000000000 PUSH1 0x0 DUP3 ADD MSTORE POP JUMP JUMPDEST PUSH1 0x0 PUSH2 0x48A0 PUSH1 0xB DUP4 PUSH2 0x3622 JUMP JUMPDEST SWAP2 POP PUSH2 0x48AB DUP3 PUSH2 0x486A JUMP JUMPDEST PUSH1 0x20 DUP3 ADD SWAP1 POP SWAP2 SWAP1 POP JUMP JUMPDEST PUSH1 0x0 PUSH1 0x40 DUP3 ADD SWAP1 POP PUSH2 0x48CB PUSH1 0x0 DUP4 ADD DUP5 PUSH2 0x40D9 JUMP JUMPDEST DUP2 DUP2 SUB PUSH1 0x20 DUP4 ADD MSTORE PUSH2 0x48DC DUP2 PUSH2 0x4893 JUMP JUMPDEST SWAP1 POP SWAP3 SWAP2 POP POP JUMP JUMPDEST PUSH32 0x536574204A6F6220457870657269656E63650000000000000000000000000000 PUSH1 0x0 DUP3 ADD MSTORE POP JUMP JUMPDEST PUSH1 0x0 PUSH2 0x491A PUSH1 0x12 DUP4 PUSH2 0x3622 JUMP JUMPDEST SWAP2 POP PUSH2 0x4925 DUP3 PUSH2 0x48E4 JUMP JUMPDEST PUSH1 0x20 DUP3 ADD SWAP1 POP SWAP2 SWAP1 POP JUMP JUMPDEST PUSH1 0x0 PUSH1 0x40 DUP3 ADD SWAP1 POP PUSH2 0x4945 PUSH1 0x0 DUP4 ADD DUP5 PUSH2 0x40D9 JUMP JUMPDEST DUP2 DUP2 SUB PUSH1 0x20 DUP4 ADD MSTORE PUSH2 0x4956 DUP2 PUSH2 0x490D JUMP JUMPDEST SWAP1 POP SWAP3 SWAP2 POP POP JUMP JUMPDEST PUSH32 0x53657420456475636174696F6E00000000000000000000000000000000000000 PUSH1 0x0 DUP3 ADD MSTORE POP JUMP JUMPDEST PUSH1 0x0 PUSH2 0x4994 PUSH1 0xD DUP4 PUSH2 0x3622 JUMP JUMPDEST SWAP2 POP PUSH2 0x499F DUP3 PUSH2 0x495E JUMP JUMPDEST PUSH1 0x20 DUP3 ADD SWAP1 POP SWAP2 SWAP1 POP JUMP JUMPDEST PUSH1 0x0 PUSH1 0x40 DUP3 ADD SWAP1 POP PUSH2 0x49BF PUSH1 0x0 DUP4 ADD DUP5 PUSH2 0x40D9 JUMP JUMPDEST DUP2 DUP2 SUB PUSH1 0x20 DUP4 ADD MSTORE PUSH2 0x49D0 DUP2 PUSH2 0x4987 JUMP JUMPDEST SWAP1 POP SWAP3 SWAP2 POP POP JUMP JUMPDEST PUSH32 0x53657420536B696C6C0000000000000000000000000000000000000000000000 PUSH1 0x0 DUP3 ADD MSTORE POP JUMP JUMPDEST PUSH1 0x0 PUSH2 0x4A0E PUSH1 0x9 DUP4 PUSH2 0x3622 JUMP JUMPDEST SWAP2 POP PUSH2 0x4A19 DUP3 PUSH2 0x49D8 JUMP JUMPDEST PUSH1 0x20 DUP3 ADD SWAP1 POP SWAP2 SWAP1 POP JUMP JUMPDEST PUSH1 0x0 PUSH1 0x40 DUP3 ADD SWAP1 POP PUSH2 0x4A39 PUSH1 0x0 DUP4 ADD DUP5 PUSH2 0x40D9 JUMP JUMPDEST DUP2 DUP2 SUB PUSH1 0x20 DUP4 ADD MSTORE PUSH2 0x4A4A DUP2 PUSH2 0x4A01 JUMP JUMPDEST SWAP1 POP SWAP3 SWAP2 POP POP JUMP JUMPDEST PUSH32 0x53657420436F6E74616374000000000000000000000000000000000000000000 PUSH1 0x0 DUP3 ADD MSTORE POP JUMP JUMPDEST PUSH1 0x0 PUSH2 0x4A88 PUSH1 0xB DUP4 PUSH2 0x3622 JUMP JUMPDEST SWAP2 POP PUSH2 0x4A93 DUP3 PUSH2 0x4A52 JUMP JUMPDEST PUSH1 0x20 DUP3 ADD SWAP1 POP SWAP2 SWAP1 POP JUMP JUMPDEST PUSH1 0x0 PUSH1 0x40 DUP3 ADD SWAP1 POP PUSH2 0x4AB3 PUSH1 0x0 DUP4 ADD DUP5 PUSH2 0x40D9 JUMP JUMPDEST DUP2 DUP2 SUB PUSH1 0x20 DUP4 ADD MSTORE PUSH2 0x4AC4 DUP2 PUSH2 0x4A7B JUMP JUMPDEST SWAP1 POP SWAP3 SWAP2 POP POP JUMP JUMPDEST PUSH32 0x536574205065726D697373696F6E000000000000000000000000000000000000 PUSH1 0x0 DUP3 ADD MSTORE POP JUMP JUMPDEST PUSH1 0x0 PUSH2 0x4B02 PUSH1 0xE DUP4 PUSH2 0x3622 JUMP JUMPDEST SWAP2 POP PUSH2 0x4B0D DUP3 PUSH2 0x4ACC JUMP JUMPDEST PUSH1 0x20 DUP3 ADD SWAP1 POP SWAP2 SWAP1 POP JUMP JUMPDEST PUSH1 0x0 PUSH1 0x40 DUP3 ADD SWAP1 POP PUSH2 0x4B2D PUSH1 0x0 DUP4 ADD DUP5 PUSH2 0x40D9 JUMP JUMPDEST DUP2 DUP2 SUB PUSH1 0x20 DUP4 ADD MSTORE PUSH2 0x4B3E DUP2 PUSH2 0x4AF5 JUMP JUMPDEST SWAP1 POP SWAP3 SWAP2 POP POP JUMP JUMPDEST PUSH32 0x656475636174696F6E0000000000000000000000000000000000000000000000 PUSH1 0x0 DUP3 ADD MSTORE POP JUMP JUMPDEST PUSH1 0x0 PUSH2 0x4B7C PUSH1 0x9 DUP4 PUSH2 0x4415 JUMP JUMPDEST SWAP2 POP PUSH2 0x4B87 DUP3 PUSH2 0x4B46 JUMP JUMPDEST PUSH1 0x20 DUP3 ADD SWAP1 POP SWAP2 SWAP1 POP JUMP JUMPDEST PUSH1 0x0 PUSH1 0x40 DUP3 ADD SWAP1 POP DUP2 DUP2 SUB PUSH1 0x0 DUP4 ADD MSTORE PUSH2 0x4BAC DUP2 DUP5 PUSH2 0x4426 JUMP JUMPDEST SWAP1 POP DUP2 DUP2 SUB PUSH1 0x20 DUP4 ADD MSTORE PUSH2 0x4BBF DUP2 PUSH2 0x4B6F JUMP JUMPDEST SWAP1 POP SWAP3 SWAP2 POP POP JUMP JUMPDEST PUSH32 0x657870657269656E636500000000000000000000000000000000000000000000 PUSH1 0x0 DUP3 ADD MSTORE POP JUMP JUMPDEST PUSH1 0x0 PUSH2 0x4BFD PUSH1 0xA DUP4 PUSH2 0x4415 JUMP JUMPDEST SWAP2 POP PUSH2 0x4C08 DUP3 PUSH2 0x4BC7 JUMP JUMPDEST PUSH1 0x20 DUP3 ADD SWAP1 POP SWAP2 SWAP1 POP JUMP JUMPDEST PUSH1 0x0 PUSH1 0x40 DUP3 ADD SWAP1 POP DUP2 DUP2 SUB PUSH1 0x0 DUP4 ADD MSTORE PUSH2 0x4C2D DUP2 DUP5 PUSH2 0x4426 JUMP JUMPDEST SWAP1 POP DUP2 DUP2 SUB PUSH1 0x20 DUP4 ADD MSTORE PUSH2 0x4C40 DUP2 PUSH2 0x4BF0 JUMP JUMPDEST SWAP1 POP SWAP3 SWAP2 POP POP JUMP INVALID LOG2 PUSH5 0x6970667358 0x22 SLT KECCAK256 BLOCKHASH COINBASE 0xBD DUP6 0xB2 PUSH11 0x589F633072FE2FF909D81 0xBF 0xBA COINBASE 0x26 0x5C 0xB4 SWAP16 0xE7 PUSH14 0xC07B0E4D676764736F6C63430008 GT STOP CALLER "
		},
		"gasEstimates": {
			"creation": {
				"codeDepositCost": "3916400",
				"executionCost": "infinite",
				"totalCost": "infinite"
			},
			"external": {
				"get_course(uint256,uint256)": "infinite",
				"get_course_count(uint256)": "infinite",
				"get_education_experience(uint256)": "infinite",
				"get_education_experience_count()": "2577",
				"get_job_experience(uint256)": "infinite",
				"get_job_experience_count()": "2555",
				"get_license(uint256,uint256)": "infinite",
				"get_license_count(uint256)": "infinite",
				"get_skill(uint256)": "infinite",
				"get_skill_count()": "2557",
				"profile()": "infinite",
				"remove_permission(address)": "29393",
				"remove_skill(string,string)": "infinite",
				"set_autobiography(string)": "infinite",
				"set_contact(string)": "infinite",
				"set_course(string,string,string,uint8)": "infinite",
				"set_education(uint8,string)": "infinite",
				"set_job_end_date(uint256)": "infinite",
				"set_job_experience(string,uint256)": "infinite",
				"set_license(string,string)": "infinite",
				"set_permission(address,string,uint8,bool)": "infinite",
				"set_skill(string,string)": "infinite"
			}
		},
		"methodIdentifiers": {
			"get_course(uint256,uint256)": "eabb412f",
			"get_course_count(uint256)": "5af645cc",
			"get_education_experience(uint256)": "318137ef",
			"get_education_experience_count()": "f5fa8fb8",
			"get_job_experience(uint256)": "baae8c74",
			"get_job_experience_count()": "f3ab88ee",
			"get_license(uint256,uint256)": "7473d74e",
			"get_license_count(uint256)": "d8f7e1d6",
			"get_skill(uint256)": "2f753e9e",
			"get_skill_count()": "39856ba7",
			"profile()": "ab60636c",
			"remove_permission(address)": "5efdc2ae",
			"remove_skill(string,string)": "50ee580f",
			"set_autobiography(string)": "1dd6f402",
			"set_contact(string)": "bec2359f",
			"set_course(string,string,string,uint8)": "38d0d92c",
			"set_education(uint8,string)": "9df284e7",
			"set_job_end_date(uint256)": "505d1c7d",
			"set_job_experience(string,uint256)": "90536622",
			"set_license(string,string)": "620ddcb3",
			"set_permission(address,string,uint8,bool)": "dfddd00b",
			"set_skill(string,string)": "a404a8ef"
		}
	},
	"abi": [
		{
			"inputs": [
				{
					"internalType": "string",
					"name": "name",
					"type": "string"
				},
				{
					"internalType": "address",
					"name": "account",
					"type": "address"
				},
				{
					"internalType": "uint8",
					"name": "age",
					"type": "uint8"
				},
				{
					"internalType": "enum Resume_base.Gender",
					"name": "gender",
					"type": "uint8"
				}
			],
			"stateMutability": "nonpayable",
			"type": "constructor"
		},
		{
			"anonymous": false,
			"inputs": [
				{
					"indexed": false,
					"internalType": "enum Resume_base.done_code",
					"name": "event_code",
					"type": "uint8"
				},
				{
					"indexed": false,
					"internalType": "string",
					"name": "message",
					"type": "string"
				}
			],
			"name": "done",
			"type": "event"
		},
		{
			"inputs": [
				{
					"internalType": "uint256",
					"name": "eduindex",
					"type": "uint256"
				},
				{
					"internalType": "uint256",
					"name": "index",
					"type": "uint256"
				}
			],
			"name": "get_course",
			"outputs": [
				{
					"internalType": "string",
					"name": "",
					"type": "string"
				},
				{
					"internalType": "string",
					"name": "",
					"type": "string"
				},
				{
					"internalType": "string",
					"name": "",
					"type": "string"
				},
				{
					"internalType": "uint8",
					"name": "",
					"type": "uint8"
				}
			],
			"stateMutability": "view",
			"type": "function"
		},
		{
			"inputs": [
				{
					"internalType": "uint256",
					"name": "index",
					"type": "uint256"
				}
			],
			"name": "get_course_count",
			"outputs": [
				{
					"internalType": "uint256",
					"name": "",
					"type": "uint256"
				}
			],
			"stateMutability": "view",
			"type": "function"
		},
		{
			"inputs": [
				{
					"internalType": "uint256",
					"name": "index",
					"type": "uint256"
				}
			],
			"name": "get_education_experience",
			"outputs": [
				{
					"internalType": "string",
					"name": "",
					"type": "string"
				},
				{
					"internalType": "enum Resume_base.education_status",
					"name": "",
					"type": "uint8"
				},
				{
					"internalType": "string",
					"name": "",
					"type": "string"
				}
			],
			"stateMutability": "view",
			"type": "function"
		},
		{
			"inputs": [],
			"name": "get_education_experience_count",
			"outputs": [
				{
					"internalType": "uint256",
					"name": "",
					"type": "uint256"
				}
			],
			"stateMutability": "view",
			"type": "function"
		},
		{
			"inputs": [
				{
					"internalType": "uint256",
					"name": "index",
					"type": "uint256"
				}
			],
			"name": "get_job_experience",
			"outputs": [
				{
					"internalType": "string",
					"name": "",
					"type": "string"
				},
				{
					"internalType": "string",
					"name": "",
					"type": "string"
				},
				{
					"internalType": "uint256",
					"name": "",
					"type": "uint256"
				},
				{
					"internalType": "uint256",
					"name": "",
					"type": "uint256"
				}
			],
			"stateMutability": "view",
			"type": "function"
		},
		{
			"inputs": [],
			"name": "get_job_experience_count",
			"outputs": [
				{
					"internalType": "uint256",
					"name": "",
					"type": "uint256"
				}
			],
			"stateMutability": "view",
			"type": "function"
		},
		{
			"inputs": [
				{
					"internalType": "uint256",
					"name": "eduindex",
					"type": "uint256"
				},
				{
					"internalType": "uint256",
					"name": "index",
					"type": "uint256"
				}
			],
			"name": "get_license",
			"outputs": [
				{
					"internalType": "string",
					"name": "",
					"type": "string"
				},
				{
					"internalType": "string",
					"name": "",
					"type": "string"
				}
			],
			"stateMutability": "view",
			"type": "function"
		},
		{
			"inputs": [
				{
					"internalType": "uint256",
					"name": "index",
					"type": "uint256"
				}
			],
			"name": "get_license_count",
			"outputs": [
				{
					"internalType": "uint256",
					"name": "",
					"type": "uint256"
				}
			],
			"stateMutability": "view",
			"type": "function"
		},
		{
			"inputs": [
				{
					"internalType": "uint256",
					"name": "index",
					"type": "uint256"
				}
			],
			"name": "get_skill",
			"outputs": [
				{
					"internalType": "string",
					"name": "",
					"type": "string"
				},
				{
					"internalType": "string",
					"name": "",
					"type": "string"
				}
			],
			"stateMutability": "view",
			"type": "function"
		},
		{
			"inputs": [],
			"name": "get_skill_count",
			"outputs": [
				{
					"internalType": "uint256",
					"name": "",
					"type": "uint256"
				}
			],
			"stateMutability": "view",
			"type": "function"
		},
		{
			"inputs": [],
			"name": "profile",
			"outputs": [
				{
					"internalType": "string",
					"name": "name",
					"type": "string"
				},
				{
					"internalType": "address",
					"name": "account",
					"type": "address"
				},
				{
					"internalType": "uint8",
					"name": "age",
					"type": "uint8"
				},
				{
					"internalType": "enum Resume_base.Gender",
					"name": "gender",
					"type": "uint8"
				},
				{
					"internalType": "string",
					"name": "contact",
					"type": "string"
				},
				{
					"internalType": "string",
					"name": "autobiography",
					"type": "string"
				}
			],
			"stateMutability": "view",
			"type": "function"
		},
		{
			"inputs": [
				{
					"internalType": "address",
					"name": "account",
					"type": "address"
				}
			],
			"name": "remove_permission",
			"outputs": [],
			"stateMutability": "nonpayable",
			"type": "function"
		},
		{
			"inputs": [
				{
					"internalType": "string",
					"name": "class",
					"type": "string"
				},
				{
					"internalType": "string",
					"name": "name",
					"type": "string"
				}
			],
			"name": "remove_skill",
			"outputs": [],
			"stateMutability": "nonpayable",
			"type": "function"
		},
		{
			"inputs": [
				{
					"internalType": "string",
					"name": "text",
					"type": "string"
				}
			],
			"name": "set_autobiography",
			"outputs": [],
			"stateMutability": "nonpayable",
			"type": "function"
		},
		{
			"inputs": [
				{
					"internalType": "string",
					"name": "contact",
					"type": "string"
				}
			],
			"name": "set_contact",
			"outputs": [],
			"stateMutability": "nonpayable",
			"type": "function"
		},
		{
			"inputs": [
				{
					"internalType": "string",
					"name": "name",
					"type": "string"
				},
				{
					"internalType": "string",
					"name": "content",
					"type": "string"
				},
				{
					"internalType": "string",
					"name": "comment",
					"type": "string"
				},
				{
					"internalType": "uint8",
					"name": "grade",
					"type": "uint8"
				}
			],
			"name": "set_course",
			"outputs": [],
			"stateMutability": "nonpayable",
			"type": "function"
		},
		{
			"inputs": [
				{
					"internalType": "enum Resume_base.education_status",
					"name": "status",
					"type": "uint8"
				},
				{
					"internalType": "string",
					"name": "major",
					"type": "string"
				}
			],
			"name": "set_education",
			"outputs": [],
			"stateMutability": "nonpayable",
			"type": "function"
		},
		{
			"inputs": [
				{
					"internalType": "uint256",
					"name": "end_date",
					"type": "uint256"
				}
			],
			"name": "set_job_end_date",
			"outputs": [],
			"stateMutability": "nonpayable",
			"type": "function"
		},
		{
			"inputs": [
				{
					"internalType": "string",
					"name": "position",
					"type": "string"
				},
				{
					"internalType": "uint256",
					"name": "start_date",
					"type": "uint256"
				}
			],
			"name": "set_job_experience",
			"outputs": [],
			"stateMutability": "nonpayable",
			"type": "function"
		},
		{
			"inputs": [
				{
					"internalType": "string",
					"name": "name",
					"type": "string"
				},
				{
					"internalType": "string",
					"name": "content",
					"type": "string"
				}
			],
			"name": "set_license",
			"outputs": [],
			"stateMutability": "nonpayable",
			"type": "function"
		},
		{
			"inputs": [
				{
					"internalType": "address",
					"name": "account",
					"type": "address"
				},
				{
					"internalType": "string",
					"name": "name",
					"type": "string"
				},
				{
					"internalType": "enum Resume_base.Organization_type",
					"name": "property",
					"type": "uint8"
				},
				{
					"internalType": "bool",
					"name": "permission",
					"type": "bool"
				}
			],
			"name": "set_permission",
			"outputs": [],
			"stateMutability": "nonpayable",
			"type": "function"
		},
		{
			"inputs": [
				{
					"internalType": "string",
					"name": "class",
					"type": "string"
				},
				{
					"internalType": "string",
					"name": "name",
					"type": "string"
				}
			],
			"name": "set_skill",
			"outputs": [],
			"stateMutability": "nonpayable",
			"type": "function"
		}
	]
}