{
  "contractName": "Resume_base",
  "abi": [
    {
      "inputs": [
        {
          "internalType": "string",
          "name": "name",
          "type": "string"
        },
        {
          "internalType": "address",
          "name": "account",
          "type": "address"
        },
        {
          "internalType": "uint8",
          "name": "age",
          "type": "uint8"
        },
        {
          "internalType": "enum Resume_base.Gender",
          "name": "gender",
          "type": "uint8"
        }
      ],
      "stateMutability": "nonpayable",
      "type": "constructor"
    },
    {
      "anonymous": false,
      "inputs": [
        {
          "indexed": false,
          "internalType": "enum Resume_base.done_code",
          "name": "event_code",
          "type": "uint8"
        },
        {
          "indexed": false,
          "internalType": "string",
          "name": "message",
          "type": "string"
        }
      ],
      "name": "done",
      "type": "event"
    },
    {
      "inputs": [],
      "name": "profile",
      "outputs": [
        {
          "internalType": "string",
          "name": "name",
          "type": "string"
        },
        {
          "internalType": "address",
          "name": "account",
          "type": "address"
        },
        {
          "internalType": "uint8",
          "name": "age",
          "type": "uint8"
        },
        {
          "internalType": "enum Resume_base.Gender",
          "name": "gender",
          "type": "uint8"
        },
        {
          "internalType": "string",
          "name": "contact",
          "type": "string"
        },
        {
          "internalType": "string",
          "name": "autobiography",
          "type": "string"
        }
      ],
      "stateMutability": "view",
      "type": "function"
    }
  ],
  "bytecode": "0x60806040523480156200001157600080fd5b5060405162000d0138038062000d01833981810160405281019062000037919062000440565b336000806101000a81548173ffffffffffffffffffffffffffffffffffffffff021916908373ffffffffffffffffffffffffffffffffffffffff1602179055506040518060c001604052808581526020018473ffffffffffffffffffffffffffffffffffffffff1681526020018360ff168152602001826002811115620000c357620000c2620004d1565b5b815260200160405180602001604052806000815250815260200160405180602001604052806000815250815250600160008201518160000190816200010991906200074b565b5060208201518160010160006101000a81548173ffffffffffffffffffffffffffffffffffffffff021916908373ffffffffffffffffffffffffffffffffffffffff16021790555060408201518160010160146101000a81548160ff021916908360ff16021790555060608201518160010160156101000a81548160ff02191690836002811115620001a0576200019f620004d1565b5b02179055506080820151816002019081620001bc91906200074b565b5060a0820151816003019081620001d491906200074b565b509050505050505062000832565b6000604051905090565b600080fd5b600080fd5b600080fd5b600080fd5b6000601f19601f8301169050919050565b7f4e487b7100000000000000000000000000000000000000000000000000000000600052604160045260246000fd5b6200024b8262000200565b810181811067ffffffffffffffff821117156200026d576200026c62000211565b5b80604052505050565b600062000282620001e2565b905062000290828262000240565b919050565b600067ffffffffffffffff821115620002b357620002b262000211565b5b620002be8262000200565b9050602081019050919050565b60005b83811015620002eb578082015181840152602081019050620002ce565b60008484015250505050565b60006200030e620003088462000295565b62000276565b9050828152602081018484840111156200032d576200032c620001fb565b5b6200033a848285620002cb565b509392505050565b600082601f8301126200035a5762000359620001f6565b5b81516200036c848260208601620002f7565b91505092915050565b600073ffffffffffffffffffffffffffffffffffffffff82169050919050565b6000620003a28262000375565b9050919050565b620003b48162000395565b8114620003c057600080fd5b50565b600081519050620003d481620003a9565b92915050565b600060ff82169050919050565b620003f281620003da565b8114620003fe57600080fd5b50565b6000815190506200041281620003e7565b92915050565b600381106200042657600080fd5b50565b6000815190506200043a8162000418565b92915050565b600080600080608085870312156200045d576200045c620001ec565b5b600085015167ffffffffffffffff8111156200047e576200047d620001f1565b5b6200048c8782880162000342565b94505060206200049f87828801620003c3565b9350506040620004b28782880162000401565b9250506060620004c58782880162000429565b91505092959194509250565b7f4e487b7100000000000000000000000000000000000000000000000000000000600052602160045260246000fd5b600081519050919050565b7f4e487b7100000000000000000000000000000000000000000000000000000000600052602260045260246000fd5b600060028204905060018216806200055357607f821691505b6020821081036200056957620005686200050b565b5b50919050565b60008190508160005260206000209050919050565b60006020601f8301049050919050565b600082821b905092915050565b600060088302620005d37fffffffffffffffffffffffffffffffffffffffffffffffffffffffffffffffff8262000594565b620005df868362000594565b95508019841693508086168417925050509392505050565b6000819050919050565b6000819050919050565b60006200062c620006266200062084620005f7565b62000601565b620005f7565b9050919050565b6000819050919050565b62000648836200060b565b62000660620006578262000633565b848454620005a1565b825550505050565b600090565b6200067762000668565b620006848184846200063d565b505050565b5b81811015620006ac57620006a06000826200066d565b6001810190506200068a565b5050565b601f821115620006fb57620006c5816200056f565b620006d08462000584565b81016020851015620006e0578190505b620006f8620006ef8562000584565b83018262000689565b50505b505050565b600082821c905092915050565b6000620007206000198460080262000700565b1980831691505092915050565b60006200073b83836200070d565b9150826002028217905092915050565b620007568262000500565b67ffffffffffffffff81111562000772576200077162000211565b5b6200077e82546200053a565b6200078b828285620006b0565b600060209050601f831160018114620007c35760008415620007ae578287015190505b620007ba85826200072d565b8655506200082a565b601f198416620007d3866200056f565b60005b82811015620007fd57848901518255600182019150602085019450602081019050620007d6565b868310156200081d578489015162000819601f8916826200070d565b8355505b6001600288020188555050505b505050505050565b6104bf80620008426000396000f3fe608060405234801561001057600080fd5b506004361061002b5760003560e01c8063ab60636c14610030575b600080fd5b610038610053565b60405161004a969594939291906103b3565b60405180910390f35b600180600001805461006490610458565b80601f016020809104026020016040519081016040528092919081815260200182805461009090610458565b80156100dd5780601f106100b2576101008083540402835291602001916100dd565b820191906000526020600020905b8154815290600101906020018083116100c057829003601f168201915b5050505050908060010160009054906101000a900473ffffffffffffffffffffffffffffffffffffffff16908060010160149054906101000a900460ff16908060010160159054906101000a900460ff169080600201805461013e90610458565b80601f016020809104026020016040519081016040528092919081815260200182805461016a90610458565b80156101b75780601f1061018c576101008083540402835291602001916101b7565b820191906000526020600020905b81548152906001019060200180831161019a57829003601f168201915b5050505050908060030180546101cc90610458565b80601f01602080910402602001604051908101604052809291908181526020018280546101f890610458565b80156102455780601f1061021a57610100808354040283529160200191610245565b820191906000526020600020905b81548152906001019060200180831161022857829003601f168201915b5050505050905086565b600081519050919050565b600082825260208201905092915050565b60005b8381101561028957808201518184015260208101905061026e565b60008484015250505050565b6000601f19601f8301169050919050565b60006102b18261024f565b6102bb818561025a565b93506102cb81856020860161026b565b6102d481610295565b840191505092915050565b600073ffffffffffffffffffffffffffffffffffffffff82169050919050565b600061030a826102df565b9050919050565b61031a816102ff565b82525050565b600060ff82169050919050565b61033681610320565b82525050565b7f4e487b7100000000000000000000000000000000000000000000000000000000600052602160045260246000fd5b6003811061037c5761037b61033c565b5b50565b600081905061038d8261036b565b919050565b600061039d8261037f565b9050919050565b6103ad81610392565b82525050565b600060c08201905081810360008301526103cd81896102a6565b90506103dc6020830188610311565b6103e9604083018761032d565b6103f660608301866103a4565b818103608083015261040881856102a6565b905081810360a083015261041c81846102a6565b9050979650505050505050565b7f4e487b7100000000000000000000000000000000000000000000000000000000600052602260045260246000fd5b6000600282049050600182168061047057607f821691505b60208210810361048357610482610429565b5b5091905056fea2646970667358221220b5c0764dda2123c1d0a4e8fee23636bba7e272264b1795a2f390b6a9de778ca564736f6c63430008110033",
  "immutableReferences": {},
  "source": "//SPDX-License-Indentifier: MIT\npragma solidity ^0.8.17;\n\n\nimport \"./String_lib.sol\";\ncontract Resume_base{\n//the information government have\n    address internal government;\n    Profile public profile;\n    struct Profile{\n        string name;\n        address account;\n        uint8 age;\n        Gender gender;\n        string contact;\n        string autobiography;\n    }\n    enum Gender{\n        male,\n        female,\n        other\n    }\n\n//the information for organizations\n    mapping (address => Organization) internal organizations;\n    struct Organization{\n        string name;\n        Organization_type property;\n        address account;\n        bool permission;\n    }\n    enum Organization_type{\n        everyone,\n        school,\n        company\n    }\n\n//experience from school and work\n    education[] internal education_experience;\n    job[] internal job_experience;\n    \n    struct education{\n        Organization school;//\n        education_status status;//\n        string major;//\n        Course[] courses;//\n        License[] licenses;//\n    }\n\n    enum education_status{\n        undergraduate,\n        learning,\n        graduate\n    }\n\n    struct Course{\n        string name;\n        string content;//\n        string comment;//\n        uint8 grade;//\n    }\n\n    struct License{\n        string name;\n        string content;//\n    }\n\n    struct job{\n        Organization company;//\n        string position;//\n        uint start_date;//\n        uint end_date;//\n    }\n\n//the skills \n    skill[] internal skills;\n\n    struct skill{\n        string class;//\n        string name;\n    }\n\n//when using this contract someone should fill in these informations\n    constructor(string memory name, address account, uint8 age, Gender gender){\n        government = msg.sender;\n        profile = Profile({\n            name: name,\n            account: account,\n            age: age,\n            gender: gender,\n            contact: \"\",\n            autobiography: \"\"\n        });    \n    }\n\n//promissions for all\n    modifier only_gov{\n        require(msg.sender == government, \"Permission denied, please use government account\");\n        _;\n    }\n\n    modifier only_school{\n        bool is_school = organizations[msg.sender].property == Organization_type.school;\n        require(is_school && organizations[msg.sender].permission, \"Permission denied, please use school account\");\n        _;\n    }\n\n    modifier only_company{\n        bool is_company = organizations[msg.sender].property == Organization_type.company;\n        require(is_company && organizations[msg.sender].permission, \"Permission denied, please use company account\");\n        _;\n    }\n\n    modifier only_host{\n        require(msg.sender == profile.account, \"Permission denied, please use host account\");\n        _;\n    }\n\n    modifier index_valid(uint index, uint max){\n        require(index < max, \"Out of range\");\n        _;\n    }\n\n//console log\n    event done(done_code event_code, string message);\n\n    enum done_code{\n        set_permission,    //\n        set_education,     //\n        set_license,       //\n        set_course,        //\n        set_experience,    //\n        set_job_end_date,  //\n        set_autobiography, //\n        set_skill,         //\n        set_contact,       //\n        remove_permission, //\n        remove_skill       //\n    }\n\n//search where the organization place in array\n    using StringLib for string;\n    function find_organization(address org, string memory property) internal view returns(int){\n        int index = -1;\n        if(property.compare(\"education\")) {\n            for(uint i=0; i<education_experience.length; i++){\n                if(education_experience[i].school.account == org){\n                    index = int(i);\n                    break;\n                }\n            }\n        }\n\n        else if(property.compare(\"experience\")){\n            for (uint i=0; i<job_experience.length; i++){\n                if(job_experience[i].company.account == org){\n                    index = int(i);\n                    break;\n                }\n            }\n        }\n        return index;\n    }\n}\n\n",
  "sourcePath": "/home/well1314/block_chain/contracts/Resume_base.sol",
  "compiler": {
    "name": "solc",
    "version": "0.8.17+commit.8df45f5f.Emscripten.clang"
  },
  "schemaVersion": "3.4.11",
  "updatedAt": "2023-01-31T15:59:08.936Z",
  "devdoc": {
    "kind": "dev",
    "methods": {},
    "version": 1
  },
  "userdoc": {
    "kind": "user",
    "methods": {},
    "version": 1
  }
}