{
  "contractName": "Resume",
  "abi": [
    {
      "inputs": [
        {
          "internalType": "string",
          "name": "name",
          "type": "string"
        },
        {
          "internalType": "address",
          "name": "account",
          "type": "address"
        },
        {
          "internalType": "uint8",
          "name": "age",
          "type": "uint8"
        },
        {
          "internalType": "enum Resume_base.Gender",
          "name": "gender",
          "type": "uint8"
        }
      ],
      "stateMutability": "nonpayable",
      "type": "constructor"
    },
    {
      "anonymous": false,
      "inputs": [
        {
          "indexed": false,
          "internalType": "enum Resume_base.done_code",
          "name": "event_code",
          "type": "uint8"
        },
        {
          "indexed": false,
          "internalType": "string",
          "name": "message",
          "type": "string"
        }
      ],
      "name": "done",
      "type": "event"
    },
    {
      "inputs": [],
      "name": "profile",
      "outputs": [
        {
          "internalType": "string",
          "name": "name",
          "type": "string"
        },
        {
          "internalType": "address",
          "name": "account",
          "type": "address"
        },
        {
          "internalType": "uint8",
          "name": "age",
          "type": "uint8"
        },
        {
          "internalType": "enum Resume_base.Gender",
          "name": "gender",
          "type": "uint8"
        },
        {
          "internalType": "string",
          "name": "contact",
          "type": "string"
        },
        {
          "internalType": "string",
          "name": "autobiography",
          "type": "string"
        }
      ],
      "stateMutability": "view",
      "type": "function"
    },
    {
      "inputs": [],
      "name": "get_education_experience_count",
      "outputs": [
        {
          "internalType": "uint256",
          "name": "",
          "type": "uint256"
        }
      ],
      "stateMutability": "view",
      "type": "function"
    },
    {
      "inputs": [],
      "name": "get_job_experience_count",
      "outputs": [
        {
          "internalType": "uint256",
          "name": "",
          "type": "uint256"
        }
      ],
      "stateMutability": "view",
      "type": "function"
    },
    {
      "inputs": [],
      "name": "get_skill_count",
      "outputs": [
        {
          "internalType": "uint256",
          "name": "",
          "type": "uint256"
        }
      ],
      "stateMutability": "view",
      "type": "function"
    },
    {
      "inputs": [
        {
          "internalType": "uint256",
          "name": "index",
          "type": "uint256"
        }
      ],
      "name": "get_course_count",
      "outputs": [
        {
          "internalType": "uint256",
          "name": "",
          "type": "uint256"
        }
      ],
      "stateMutability": "view",
      "type": "function"
    },
    {
      "inputs": [
        {
          "internalType": "uint256",
          "name": "index",
          "type": "uint256"
        }
      ],
      "name": "get_license_count",
      "outputs": [
        {
          "internalType": "uint256",
          "name": "",
          "type": "uint256"
        }
      ],
      "stateMutability": "view",
      "type": "function"
    },
    {
      "inputs": [
        {
          "internalType": "uint256",
          "name": "index",
          "type": "uint256"
        }
      ],
      "name": "get_education_experience",
      "outputs": [
        {
          "internalType": "string",
          "name": "",
          "type": "string"
        },
        {
          "internalType": "enum Resume_base.education_status",
          "name": "",
          "type": "uint8"
        },
        {
          "internalType": "string",
          "name": "",
          "type": "string"
        }
      ],
      "stateMutability": "view",
      "type": "function"
    },
    {
      "inputs": [
        {
          "internalType": "uint256",
          "name": "index",
          "type": "uint256"
        }
      ],
      "name": "get_job_experience",
      "outputs": [
        {
          "internalType": "string",
          "name": "",
          "type": "string"
        },
        {
          "internalType": "string",
          "name": "",
          "type": "string"
        },
        {
          "internalType": "uint256",
          "name": "",
          "type": "uint256"
        },
        {
          "internalType": "uint256",
          "name": "",
          "type": "uint256"
        }
      ],
      "stateMutability": "view",
      "type": "function"
    },
    {
      "inputs": [
        {
          "internalType": "uint256",
          "name": "index",
          "type": "uint256"
        }
      ],
      "name": "get_skill",
      "outputs": [
        {
          "internalType": "string",
          "name": "",
          "type": "string"
        },
        {
          "internalType": "string",
          "name": "",
          "type": "string"
        }
      ],
      "stateMutability": "view",
      "type": "function"
    },
    {
      "inputs": [
        {
          "internalType": "uint256",
          "name": "eduindex",
          "type": "uint256"
        },
        {
          "internalType": "uint256",
          "name": "index",
          "type": "uint256"
        }
      ],
      "name": "get_course",
      "outputs": [
        {
          "internalType": "string",
          "name": "",
          "type": "string"
        },
        {
          "internalType": "string",
          "name": "",
          "type": "string"
        },
        {
          "internalType": "string",
          "name": "",
          "type": "string"
        },
        {
          "internalType": "uint8",
          "name": "",
          "type": "uint8"
        }
      ],
      "stateMutability": "view",
      "type": "function"
    },
    {
      "inputs": [
        {
          "internalType": "uint256",
          "name": "eduindex",
          "type": "uint256"
        },
        {
          "internalType": "uint256",
          "name": "index",
          "type": "uint256"
        }
      ],
      "name": "get_license",
      "outputs": [
        {
          "internalType": "string",
          "name": "",
          "type": "string"
        },
        {
          "internalType": "string",
          "name": "",
          "type": "string"
        }
      ],
      "stateMutability": "view",
      "type": "function"
    },
    {
      "inputs": [
        {
          "internalType": "address",
          "name": "account",
          "type": "address"
        },
        {
          "internalType": "string",
          "name": "name",
          "type": "string"
        },
        {
          "internalType": "enum Resume_base.Organization_type",
          "name": "property",
          "type": "uint8"
        },
        {
          "internalType": "bool",
          "name": "permission",
          "type": "bool"
        }
      ],
      "name": "set_permission",
      "outputs": [],
      "stateMutability": "nonpayable",
      "type": "function"
    },
    {
      "inputs": [
        {
          "internalType": "string",
          "name": "position",
          "type": "string"
        },
        {
          "internalType": "uint256",
          "name": "start_date",
          "type": "uint256"
        }
      ],
      "name": "set_job_experience",
      "outputs": [],
      "stateMutability": "nonpayable",
      "type": "function"
    },
    {
      "inputs": [
        {
          "internalType": "uint256",
          "name": "end_date",
          "type": "uint256"
        }
      ],
      "name": "set_job_end_date",
      "outputs": [],
      "stateMutability": "nonpayable",
      "type": "function"
    },
    {
      "inputs": [
        {
          "internalType": "enum Resume_base.education_status",
          "name": "status",
          "type": "uint8"
        },
        {
          "internalType": "string",
          "name": "major",
          "type": "string"
        }
      ],
      "name": "set_education",
      "outputs": [],
      "stateMutability": "nonpayable",
      "type": "function"
    },
    {
      "inputs": [
        {
          "internalType": "string",
          "name": "name",
          "type": "string"
        },
        {
          "internalType": "string",
          "name": "content",
          "type": "string"
        }
      ],
      "name": "set_license",
      "outputs": [],
      "stateMutability": "nonpayable",
      "type": "function"
    },
    {
      "inputs": [
        {
          "internalType": "string",
          "name": "name",
          "type": "string"
        },
        {
          "internalType": "string",
          "name": "content",
          "type": "string"
        },
        {
          "internalType": "string",
          "name": "comment",
          "type": "string"
        },
        {
          "internalType": "uint8",
          "name": "grade",
          "type": "uint8"
        }
      ],
      "name": "set_course",
      "outputs": [],
      "stateMutability": "nonpayable",
      "type": "function"
    },
    {
      "inputs": [
        {
          "internalType": "string",
          "name": "text",
          "type": "string"
        }
      ],
      "name": "set_autobiography",
      "outputs": [],
      "stateMutability": "nonpayable",
      "type": "function"
    },
    {
      "inputs": [
        {
          "internalType": "string",
          "name": "class",
          "type": "string"
        },
        {
          "internalType": "string",
          "name": "name",
          "type": "string"
        }
      ],
      "name": "set_skill",
      "outputs": [],
      "stateMutability": "nonpayable",
      "type": "function"
    },
    {
      "inputs": [
        {
          "internalType": "string",
          "name": "contact",
          "type": "string"
        }
      ],
      "name": "set_contact",
      "outputs": [],
      "stateMutability": "nonpayable",
      "type": "function"
    },
    {
      "inputs": [
        {
          "internalType": "address",
          "name": "account",
          "type": "address"
        }
      ],
      "name": "remove_permission",
      "outputs": [],
      "stateMutability": "nonpayable",
      "type": "function"
    },
    {
      "inputs": [
        {
          "internalType": "string",
          "name": "class",
          "type": "string"
        },
        {
          "internalType": "string",
          "name": "name",
          "type": "string"
        }
      ],
      "name": "remove_skill",
      "outputs": [],
      "stateMutability": "nonpayable",
      "type": "function"
    }
  ],
  "bytecode": "0x60806040523480156200001157600080fd5b50604051620054c8380380620054c8833981810160405281019062000037919062000448565b83838383336000806101000a81548173ffffffffffffffffffffffffffffffffffffffff021916908373ffffffffffffffffffffffffffffffffffffffff1602179055506040518060c001604052808581526020018473ffffffffffffffffffffffffffffffffffffffff1681526020018360ff168152602001826002811115620000c757620000c6620004d9565b5b815260200160405180602001604052806000815250815260200160405180602001604052806000815250815250600160008201518160000190816200010d919062000753565b5060208201518160010160006101000a81548173ffffffffffffffffffffffffffffffffffffffff021916908373ffffffffffffffffffffffffffffffffffffffff16021790555060408201518160010160146101000a81548160ff021916908360ff16021790555060608201518160010160156101000a81548160ff02191690836002811115620001a457620001a3620004d9565b5b02179055506080820151816002019081620001c0919062000753565b5060a0820151816003019081620001d8919062000753565b5090505050505050505050506200083a565b6000604051905090565b600080fd5b600080fd5b600080fd5b600080fd5b6000601f19601f8301169050919050565b7f4e487b7100000000000000000000000000000000000000000000000000000000600052604160045260246000fd5b620002538262000208565b810181811067ffffffffffffffff8211171562000275576200027462000219565b5b80604052505050565b60006200028a620001ea565b905062000298828262000248565b919050565b600067ffffffffffffffff821115620002bb57620002ba62000219565b5b620002c68262000208565b9050602081019050919050565b60005b83811015620002f3578082015181840152602081019050620002d6565b60008484015250505050565b60006200031662000310846200029d565b6200027e565b90508281526020810184848401111562000335576200033462000203565b5b62000342848285620002d3565b509392505050565b600082601f830112620003625762000361620001fe565b5b815162000374848260208601620002ff565b91505092915050565b600073ffffffffffffffffffffffffffffffffffffffff82169050919050565b6000620003aa826200037d565b9050919050565b620003bc816200039d565b8114620003c857600080fd5b50565b600081519050620003dc81620003b1565b92915050565b600060ff82169050919050565b620003fa81620003e2565b81146200040657600080fd5b50565b6000815190506200041a81620003ef565b92915050565b600381106200042e57600080fd5b50565b600081519050620004428162000420565b92915050565b60008060008060808587031215620004655762000464620001f4565b5b600085015167ffffffffffffffff811115620004865762000485620001f9565b5b62000494878288016200034a565b9450506020620004a787828801620003cb565b9350506040620004ba8782880162000409565b9250506060620004cd8782880162000431565b91505092959194509250565b7f4e487b7100000000000000000000000000000000000000000000000000000000600052602160045260246000fd5b600081519050919050565b7f4e487b7100000000000000000000000000000000000000000000000000000000600052602260045260246000fd5b600060028204905060018216806200055b57607f821691505b60208210810362000571576200057062000513565b5b50919050565b60008190508160005260206000209050919050565b60006020601f8301049050919050565b600082821b905092915050565b600060088302620005db7fffffffffffffffffffffffffffffffffffffffffffffffffffffffffffffffff826200059c565b620005e786836200059c565b95508019841693508086168417925050509392505050565b6000819050919050565b6000819050919050565b6000620006346200062e6200062884620005ff565b62000609565b620005ff565b9050919050565b6000819050919050565b620006508362000613565b620006686200065f826200063b565b848454620005a9565b825550505050565b600090565b6200067f62000670565b6200068c81848462000645565b505050565b5b81811015620006b457620006a860008262000675565b60018101905062000692565b5050565b601f8211156200070357620006cd8162000577565b620006d8846200058c565b81016020851015620006e8578190505b62000700620006f7856200058c565b83018262000691565b50505b505050565b600082821c905092915050565b6000620007286000198460080262000708565b1980831691505092915050565b600062000743838362000715565b9150826002028217905092915050565b6200075e8262000508565b67ffffffffffffffff8111156200077a576200077962000219565b5b62000786825462000542565b62000793828285620006b8565b600060209050601f831160018114620007cb5760008415620007b6578287015190505b620007c2858262000735565b86555062000832565b601f198416620007db8662000577565b60005b828110156200080557848901518255600182019150602085019450602081019050620007de565b8683101562000825578489015162000821601f89168262000715565b8355505b6001600288020188555050505b505050505050565b614c7e806200084a6000396000f3fe608060405234801561001057600080fd5b50600436106101425760003560e01c806390536622116100b8578063bec2359f1161007c578063bec2359f1461037b578063d8f7e1d614610397578063dfddd00b146103c7578063eabb412f146103e3578063f3ab88ee14610416578063f5fa8fb81461043457610142565b806390536622146102d15780639df284e7146102ed578063a404a8ef14610309578063ab60636c14610325578063baae8c741461034857610142565b8063505d1c7d1161010a578063505d1c7d1461020057806350ee580f1461021c5780635af645cc146102385780635efdc2ae14610268578063620ddcb3146102845780637473d74e146102a057610142565b80631dd6f402146101475780632f753e9e14610163578063318137ef1461019457806338d0d92c146101c657806339856ba7146101e2575b600080fd5b610161600480360381019061015c919061356b565b610452565b005b61017d600480360381019061017891906135ea565b610532565b60405161018b929190613696565b60405180910390f35b6101ae60048036038101906101a991906135ea565b6106eb565b6040516101bd93929190613744565b60405180910390f35b6101e060048036038101906101db91906137c2565b610d64565b005b6101ea610fd7565b6040516101f7919061388c565b60405180910390f35b61021a600480360381019061021591906135ea565b610fe4565b005b610236600480360381019061023191906138a7565b6111a0565b005b610252600480360381019061024d91906135ea565b61164c565b60405161025f919061388c565b60405180910390f35b610282600480360381019061027d919061397d565b6116cb565b005b61029e600480360381019061029991906138a7565b6117f5565b005b6102ba60048036038101906102b591906139aa565b611a20565b6040516102c8929190613696565b60405180910390f35b6102eb60048036038101906102e691906139ea565b611c4c565b005b61030760048036038101906103029190613a6b565b612059565b005b610323600480360381019061031e91906138a7565b6124e7565b005b61032d612623565b60405161033f96959493929190613b2d565b60405180910390f35b610362600480360381019061035d91906135ea565b61281f565b6040516103729493929190613ba3565b60405180910390f35b6103956004803603810190610390919061356b565b612ac3565b005b6103b160048036038101906103ac91906135ea565b612ba3565b6040516103be919061388c565b60405180910390f35b6103e160048036038101906103dc9190613c53565b612c22565b005b6103fd60048036038101906103f891906139aa565b612e28565b60405161040d9493929190613cd6565b60405180910390f35b61041e613117565b60405161042b919061388c565b60405180910390f35b61043c613124565b604051610449919061388c565b60405180910390f35b6001800160009054906101000a900473ffffffffffffffffffffffffffffffffffffffff1673ffffffffffffffffffffffffffffffffffffffff163373ffffffffffffffffffffffffffffffffffffffff16146104e4576040517f08c379a00000000000000000000000000000000000000000000000000000000081526004016104db90613da2565b60405180910390fd5b80600160030190816104f69190613fce565b507f26aaa12d2ac51334f2a0f54ee45add899f031d9163d6c3254931cb616a6ddfd660066040516105279190614134565b60405180910390a150565b6060808261053e610fd7565b808210610580576040517f08c379a0000000000000000000000000000000000000000000000000000000008152600401610577906141ae565b60405180910390fd5b600060088681548110610596576105956141ce565b5b90600052602060002090600202016040518060400160405290816000820180546105bf90613df1565b80601f01602080910402602001604051908101604052809291908181526020018280546105eb90613df1565b80156106385780601f1061060d57610100808354040283529160200191610638565b820191906000526020600020905b81548152906001019060200180831161061b57829003601f168201915b5050505050815260200160018201805461065190613df1565b80601f016020809104026020016040519081016040528092919081815260200182805461067d90613df1565b80156106ca5780601f1061069f576101008083540402835291602001916106ca565b820191906000526020600020905b8154815290600101906020018083116106ad57829003601f168201915b50505050508152505090508060000151816020015194509450505050915091565b606060006060836106fa613124565b80821061073c576040517f08c379a0000000000000000000000000000000000000000000000000000000008152600401610733906141ae565b60405180910390fd5b600060068781548110610752576107516141ce565b5b90600052602060002090600602016040518060a00160405290816000820160405180608001604052908160008201805461078b90613df1565b80601f01602080910402602001604051908101604052809291908181526020018280546107b790613df1565b80156108045780601f106107d957610100808354040283529160200191610804565b820191906000526020600020905b8154815290600101906020018083116107e757829003601f168201915b505050505081526020016001820160009054906101000a900460ff166002811115610832576108316136cd565b5b6002811115610844576108436136cd565b5b81526020016001820160019054906101000a900473ffffffffffffffffffffffffffffffffffffffff1673ffffffffffffffffffffffffffffffffffffffff1673ffffffffffffffffffffffffffffffffffffffff1681526020016001820160159054906101000a900460ff16151515158152505081526020016002820160009054906101000a900460ff1660028111156108e2576108e16136cd565b5b60028111156108f4576108f36136cd565b5b815260200160038201805461090890613df1565b80601f016020809104026020016040519081016040528092919081815260200182805461093490613df1565b80156109815780601f1061095657610100808354040283529160200191610981565b820191906000526020600020905b81548152906001019060200180831161096457829003601f168201915b5050505050815260200160048201805480602002602001604051908101604052809291908181526020016000905b82821015610bb457838290600052602060002090600402016040518060800160405290816000820180546109e290613df1565b80601f0160208091040260200160405190810160405280929190818152602001828054610a0e90613df1565b8015610a5b5780601f10610a3057610100808354040283529160200191610a5b565b820191906000526020600020905b815481529060010190602001808311610a3e57829003601f168201915b50505050508152602001600182018054610a7490613df1565b80601f0160208091040260200160405190810160405280929190818152602001828054610aa090613df1565b8015610aed5780601f10610ac257610100808354040283529160200191610aed565b820191906000526020600020905b815481529060010190602001808311610ad057829003601f168201915b50505050508152602001600282018054610b0690613df1565b80601f0160208091040260200160405190810160405280929190818152602001828054610b3290613df1565b8015610b7f5780601f10610b5457610100808354040283529160200191610b7f565b820191906000526020600020905b815481529060010190602001808311610b6257829003601f168201915b505050505081526020016003820160009054906101000a900460ff1660ff1660ff1681525050815260200190600101906109af565b50505050815260200160058201805480602002602001604051908101604052809291908181526020016000905b82821015610d375783829060005260206000209060020201604051806040016040529081600082018054610c1490613df1565b80601f0160208091040260200160405190810160405280929190818152602001828054610c4090613df1565b8015610c8d5780601f10610c6257610100808354040283529160200191610c8d565b820191906000526020600020905b815481529060010190602001808311610c7057829003601f168201915b50505050508152602001600182018054610ca690613df1565b80601f0160208091040260200160405190810160405280929190818152602001828054610cd290613df1565b8015610d1f5780601f10610cf457610100808354040283529160200191610d1f565b820191906000526020600020905b815481529060010190602001808311610d0257829003601f168201915b50505050508152505081526020019060010190610be1565b50505050815250509050806000015160000151816020015182604001519550955095505050509193909250565b600060016002811115610d7a57610d796136cd565b5b600560003373ffffffffffffffffffffffffffffffffffffffff1673ffffffffffffffffffffffffffffffffffffffff16815260200190815260200160002060010160009054906101000a900460ff166002811115610ddc57610ddb6136cd565b5b149050808015610e385750600560003373ffffffffffffffffffffffffffffffffffffffff1673ffffffffffffffffffffffffffffffffffffffff16815260200190815260200160002060010160159054906101000a900460ff165b610e77576040517f08c379a0000000000000000000000000000000000000000000000000000000008152600401610e6e9061426f565b60405180910390fd5b6000610eb8336040518060400160405280600981526020017f656475636174696f6e0000000000000000000000000000000000000000000000815250613131565b9050600060068281548110610ed057610ecf6141ce565b5b906000526020600020906006020190508060040160405180608001604052808981526020018881526020018781526020018660ff1681525090806001815401808255809150506001900390600052602060002090600402016000909190919091506000820151816000019081610f469190613fce565b506020820151816001019081610f5c9190613fce565b506040820151816002019081610f729190613fce565b5060608201518160030160006101000a81548160ff021916908360ff16021790555050507f26aaa12d2ac51334f2a0f54ee45add899f031d9163d6c3254931cb616a6ddfd66003604051610fc691906142db565b60405180910390a150505050505050565b6000600880549050905090565b6000600280811115610ff957610ff86136cd565b5b600560003373ffffffffffffffffffffffffffffffffffffffff1673ffffffffffffffffffffffffffffffffffffffff16815260200190815260200160002060010160009054906101000a900460ff16600281111561105b5761105a6136cd565b5b1490508080156110b75750600560003373ffffffffffffffffffffffffffffffffffffffff1673ffffffffffffffffffffffffffffffffffffffff16815260200190815260200160002060010160159054906101000a900460ff165b6110f6576040517f08c379a00000000000000000000000000000000000000000000000000000000081526004016110ed9061437b565b60405180910390fd5b6000611137336040518060400160405280600a81526020017f657870657269656e636500000000000000000000000000000000000000000000815250613131565b9050826007828154811061114e5761114d6141ce565b5b9060005260206000209060050201600401819055507f26aaa12d2ac51334f2a0f54ee45add899f031d9163d6c3254931cb616a6ddfd6600560405161119391906143e7565b60405180910390a1505050565b6001800160009054906101000a900473ffffffffffffffffffffffffffffffffffffffff1673ffffffffffffffffffffffffffffffffffffffff163373ffffffffffffffffffffffffffffffffffffffff1614611232576040517f08c379a000000000000000000000000000000000000000000000000000000000815260040161122990613da2565b60405180910390fd5b6000805b6008805490508110156114bd5760088181548110611257576112566141ce565b5b9060005260206000209060020201600101805461127390613df1565b80601f016020809104026020016040519081016040528092919081815260200182805461129f90613df1565b80156112ec5780601f106112c1576101008083540402835291602001916112ec565b820191906000526020600020905b8154815290600101906020018083116112cf57829003601f168201915b505050505073__StringLib_____________________________633a96fdd79091856040518363ffffffff1660e01b815260040161132b92919061445f565b602060405180830381865af4158015611348573d6000803e3d6000fd5b505050506040513d601f19601f8201168201806040525081019061136c91906144ab565b801561149d575060088181548110611387576113866141ce565b5b906000526020600020906002020160000180546113a390613df1565b80601f01602080910402602001604051908101604052809291908181526020018280546113cf90613df1565b801561141c5780601f106113f15761010080835404028352916020019161141c565b820191906000526020600020905b8154815290600101906020018083116113ff57829003601f168201915b505050505073__StringLib_____________________________633a96fdd79091866040518363ffffffff1660e01b815260040161145b92919061445f565b602060405180830381865af4158015611478573d6000803e3d6000fd5b505050506040513d601f19601f8201168201806040525081019061149c91906144ab565b5b156114aa578091506114bd565b80806114b590614507565b915050611236565b5060008190505b60016008805490506114d6919061454f565b81101561156d5760086001826114ec9190614583565b815481106114fd576114fc6141ce565b5b90600052602060002090600202016008828154811061151f5761151e6141ce565b5b90600052602060002090600202016000820181600001908161154191906145cd565b506001820181600101908161155691906145cd565b50905050808061156590614507565b9150506114c4565b5060086001600880549050611582919061454f565b81548110611593576115926141ce565b5b9060005260206000209060020201600080820160006115b291906133b4565b6001820160006115c291906133b4565b505060088054806115d6576115d56146b5565b5b6001900381819060005260206000209060020201600080820160006115fb91906133b4565b60018201600061160b91906133b4565b505090557f26aaa12d2ac51334f2a0f54ee45add899f031d9163d6c3254931cb616a6ddfd6600a60405161163f9190614730565b60405180910390a1505050565b600081611657613124565b808210611699576040517f08c379a0000000000000000000000000000000000000000000000000000000008152600401611690906141ae565b60405180910390fd5b600684815481106116ad576116ac6141ce565b5b90600052602060002090600602016004018054905092505050919050565b60008054906101000a900473ffffffffffffffffffffffffffffffffffffffff1673ffffffffffffffffffffffffffffffffffffffff163373ffffffffffffffffffffffffffffffffffffffff1614611759576040517f08c379a0000000000000000000000000000000000000000000000000000000008152600401611750906147d0565b60405180910390fd5b6000600560008373ffffffffffffffffffffffffffffffffffffffff1673ffffffffffffffffffffffffffffffffffffffff168152602001908152602001600020905060008160010160156101000a81548160ff0219169083151502179055507f26aaa12d2ac51334f2a0f54ee45add899f031d9163d6c3254931cb616a6ddfd660096040516117e9919061483c565b60405180910390a15050565b60006001600281111561180b5761180a6136cd565b5b600560003373ffffffffffffffffffffffffffffffffffffffff1673ffffffffffffffffffffffffffffffffffffffff16815260200190815260200160002060010160009054906101000a900460ff16600281111561186d5761186c6136cd565b5b1490508080156118c95750600560003373ffffffffffffffffffffffffffffffffffffffff1673ffffffffffffffffffffffffffffffffffffffff16815260200190815260200160002060010160159054906101000a900460ff165b611908576040517f08c379a00000000000000000000000000000000000000000000000000000000081526004016118ff9061426f565b60405180910390fd5b6000611949336040518060400160405280600981526020017f656475636174696f6e0000000000000000000000000000000000000000000000815250613131565b9050600060068281548110611961576119606141ce565b5b9060005260206000209060060201905080600501604051806040016040528087815260200186815250908060018154018082558091505060019003906000526020600020906002020160009091909190915060008201518160000190816119c89190613fce565b5060208201518160010190816119de9190613fce565b5050507f26aaa12d2ac51334f2a0f54ee45add899f031d9163d6c3254931cb616a6ddfd66002604051611a1191906148b6565b60405180910390a15050505050565b60608083611a2c613124565b808210611a6e576040517f08c379a0000000000000000000000000000000000000000000000000000000008152600401611a65906141ae565b60405180910390fd5b84611a7887612ba3565b808210611aba576040517f08c379a0000000000000000000000000000000000000000000000000000000008152600401611ab1906141ae565b60405180910390fd5b600060068981548110611ad057611acf6141ce565b5b90600052602060002090600602016005018881548110611af357611af26141ce565b5b9060005260206000209060020201604051806040016040529081600082018054611b1c90613df1565b80601f0160208091040260200160405190810160405280929190818152602001828054611b4890613df1565b8015611b955780601f10611b6a57610100808354040283529160200191611b95565b820191906000526020600020905b815481529060010190602001808311611b7857829003601f168201915b50505050508152602001600182018054611bae90613df1565b80601f0160208091040260200160405190810160405280929190818152602001828054611bda90613df1565b8015611c275780601f10611bfc57610100808354040283529160200191611c27565b820191906000526020600020905b815481529060010190602001808311611c0a57829003601f168201915b5050505050815250509050806000015181602001519650965050505050509250929050565b6000600280811115611c6157611c606136cd565b5b600560003373ffffffffffffffffffffffffffffffffffffffff1673ffffffffffffffffffffffffffffffffffffffff16815260200190815260200160002060010160009054906101000a900460ff166002811115611cc357611cc26136cd565b5b149050808015611d1f5750600560003373ffffffffffffffffffffffffffffffffffffffff1673ffffffffffffffffffffffffffffffffffffffff16815260200190815260200160002060010160159054906101000a900460ff165b611d5e576040517f08c379a0000000000000000000000000000000000000000000000000000000008152600401611d559061437b565b60405180910390fd5b60006040518060800160405280600560003373ffffffffffffffffffffffffffffffffffffffff1673ffffffffffffffffffffffffffffffffffffffff168152602001908152602001600020604051806080016040529081600082018054611dc590613df1565b80601f0160208091040260200160405190810160405280929190818152602001828054611df190613df1565b8015611e3e5780601f10611e1357610100808354040283529160200191611e3e565b820191906000526020600020905b815481529060010190602001808311611e2157829003601f168201915b505050505081526020016001820160009054906101000a900460ff166002811115611e6c57611e6b6136cd565b5b6002811115611e7e57611e7d6136cd565b5b81526020016001820160019054906101000a900473ffffffffffffffffffffffffffffffffffffffff1673ffffffffffffffffffffffffffffffffffffffff1673ffffffffffffffffffffffffffffffffffffffff1681526020016001820160159054906101000a900460ff16151515158152505081526020018581526020018481526020016000815250905060078190806001815401808255809150506001900390600052602060002090600502016000909190919091506000820151816000016000820151816000019081611f559190613fce565b5060208201518160010160006101000a81548160ff02191690836002811115611f8157611f806136cd565b5b021790555060408201518160010160016101000a81548173ffffffffffffffffffffffffffffffffffffffff021916908373ffffffffffffffffffffffffffffffffffffffff16021790555060608201518160010160156101000a81548160ff021916908315150217905550505060208201518160020190816120049190613fce565b50604082015181600301556060820151816004015550507f26aaa12d2ac51334f2a0f54ee45add899f031d9163d6c3254931cb616a6ddfd6600460405161204b9190614930565b60405180910390a150505050565b60006001600281111561206f5761206e6136cd565b5b600560003373ffffffffffffffffffffffffffffffffffffffff1673ffffffffffffffffffffffffffffffffffffffff16815260200190815260200160002060010160009054906101000a900460ff1660028111156120d1576120d06136cd565b5b14905080801561212d5750600560003373ffffffffffffffffffffffffffffffffffffffff1673ffffffffffffffffffffffffffffffffffffffff16815260200190815260200160002060010160159054906101000a900460ff165b61216c576040517f08c379a00000000000000000000000000000000000000000000000000000000081526004016121639061426f565b60405180910390fd5b6006600181600181540180825580915050039060005260206000209050506000600660016006805490506121a0919061454f565b815481106121b1576121b06141ce565b5b9060005260206000209060060201905060006040518060800160405280604051806020016040528060008152508152602001604051806020016040528060008152508152602001604051806020016040528060008152508152602001600060ff16815250905060006040518060400160405280604051806020016040528060008152508152602001604051806020016040528060008152508152509050600560003373ffffffffffffffffffffffffffffffffffffffff1673ffffffffffffffffffffffffffffffffffffffff16815260200190815260200160002083600001600082018160000190816122a591906145cd565b506001820160009054906101000a900460ff168160010160006101000a81548160ff021916908360028111156122de576122dd6136cd565b5b02179055506001820160019054906101000a900473ffffffffffffffffffffffffffffffffffffffff168160010160016101000a81548173ffffffffffffffffffffffffffffffffffffffff021916908373ffffffffffffffffffffffffffffffffffffffff1602179055506001820160159054906101000a900460ff168160010160156101000a81548160ff021916908315150217905550905050858360020160006101000a81548160ff021916908360028111156123a1576123a06136cd565b5b0217905550848360030190816123b79190613fce565b508260040182908060018154018082558091505060019003906000526020600020906004020160009091909190915060008201518160000190816123fb9190613fce565b5060208201518160010190816124119190613fce565b5060408201518160020190816124279190613fce565b5060608201518160030160006101000a81548160ff021916908360ff160217905550505082600501819080600181540180825580915050600190039060005260206000209060020201600090919091909150600082015181600001908161248e9190613fce565b5060208201518160010190816124a49190613fce565b5050507f26aaa12d2ac51334f2a0f54ee45add899f031d9163d6c3254931cb616a6ddfd660016040516124d791906149aa565b60405180910390a1505050505050565b6001800160009054906101000a900473ffffffffffffffffffffffffffffffffffffffff1673ffffffffffffffffffffffffffffffffffffffff163373ffffffffffffffffffffffffffffffffffffffff1614612579576040517f08c379a000000000000000000000000000000000000000000000000000000000815260040161257090613da2565b60405180910390fd5b6008604051806040016040528084815260200183815250908060018154018082558091505060019003906000526020600020906002020160009091909190915060008201518160000190816125ce9190613fce565b5060208201518160010190816125e49190613fce565b5050507f26aaa12d2ac51334f2a0f54ee45add899f031d9163d6c3254931cb616a6ddfd660076040516126179190614a24565b60405180910390a15050565b600180600001805461263490613df1565b80601f016020809104026020016040519081016040528092919081815260200182805461266090613df1565b80156126ad5780601f10612682576101008083540402835291602001916126ad565b820191906000526020600020905b81548152906001019060200180831161269057829003601f168201915b5050505050908060010160009054906101000a900473ffffffffffffffffffffffffffffffffffffffff16908060010160149054906101000a900460ff16908060010160159054906101000a900460ff169080600201805461270e90613df1565b80601f016020809104026020016040519081016040528092919081815260200182805461273a90613df1565b80156127875780601f1061275c57610100808354040283529160200191612787565b820191906000526020600020905b81548152906001019060200180831161276a57829003601f168201915b50505050509080600301805461279c90613df1565b80601f01602080910402602001604051908101604052809291908181526020018280546127c890613df1565b80156128155780601f106127ea57610100808354040283529160200191612815565b820191906000526020600020905b8154815290600101906020018083116127f857829003601f168201915b5050505050905086565b6060806000808461282e613117565b808210612870576040517f08c379a0000000000000000000000000000000000000000000000000000000008152600401612867906141ae565b60405180910390fd5b600060078881548110612886576128856141ce565b5b9060005260206000209060050201604051806080016040529081600082016040518060800160405290816000820180546128bf90613df1565b80601f01602080910402602001604051908101604052809291908181526020018280546128eb90613df1565b80156129385780601f1061290d57610100808354040283529160200191612938565b820191906000526020600020905b81548152906001019060200180831161291b57829003601f168201915b505050505081526020016001820160009054906101000a900460ff166002811115612966576129656136cd565b5b6002811115612978576129776136cd565b5b81526020016001820160019054906101000a900473ffffffffffffffffffffffffffffffffffffffff1673ffffffffffffffffffffffffffffffffffffffff1673ffffffffffffffffffffffffffffffffffffffff1681526020016001820160159054906101000a900460ff1615151515815250508152602001600282018054612a0190613df1565b80601f0160208091040260200160405190810160405280929190818152602001828054612a2d90613df1565b8015612a7a5780601f10612a4f57610100808354040283529160200191612a7a565b820191906000526020600020905b815481529060010190602001808311612a5d57829003601f168201915b5050505050815260200160038201548152602001600482015481525050905080600001516000015181602001518260400151836060015196509650965096505050509193509193565b6001800160009054906101000a900473ffffffffffffffffffffffffffffffffffffffff1673ffffffffffffffffffffffffffffffffffffffff163373ffffffffffffffffffffffffffffffffffffffff1614612b55576040517f08c379a0000000000000000000000000000000000000000000000000000000008152600401612b4c90613da2565b60405180910390fd5b8060016002019081612b679190613fce565b507f26aaa12d2ac51334f2a0f54ee45add899f031d9163d6c3254931cb616a6ddfd66008604051612b989190614a9e565b60405180910390a150565b600081612bae613124565b808210612bf0576040517f08c379a0000000000000000000000000000000000000000000000000000000008152600401612be7906141ae565b60405180910390fd5b60068481548110612c0457612c036141ce565b5b90600052602060002090600602016005018054905092505050919050565b60008054906101000a900473ffffffffffffffffffffffffffffffffffffffff1673ffffffffffffffffffffffffffffffffffffffff163373ffffffffffffffffffffffffffffffffffffffff1614612cb0576040517f08c379a0000000000000000000000000000000000000000000000000000000008152600401612ca7906147d0565b60405180910390fd5b6040518060800160405280848152602001836002811115612cd457612cd36136cd565b5b81526020018573ffffffffffffffffffffffffffffffffffffffff168152602001821515815250600560008673ffffffffffffffffffffffffffffffffffffffff1673ffffffffffffffffffffffffffffffffffffffff1681526020019081526020016000206000820151816000019081612d4f9190613fce565b5060208201518160010160006101000a81548160ff02191690836002811115612d7b57612d7a6136cd565b5b021790555060408201518160010160016101000a81548173ffffffffffffffffffffffffffffffffffffffff021916908373ffffffffffffffffffffffffffffffffffffffff16021790555060608201518160010160156101000a81548160ff0219169083151502179055509050507f26aaa12d2ac51334f2a0f54ee45add899f031d9163d6c3254931cb616a6ddfd66000604051612e1a9190614b18565b60405180910390a150505050565b6060806060600085612e38613124565b808210612e7a576040517f08c379a0000000000000000000000000000000000000000000000000000000008152600401612e71906141ae565b60405180910390fd5b86612e848961164c565b808210612ec6576040517f08c379a0000000000000000000000000000000000000000000000000000000008152600401612ebd906141ae565b60405180910390fd5b600060068b81548110612edc57612edb6141ce565b5b90600052602060002090600602016004018a81548110612eff57612efe6141ce565b5b9060005260206000209060040201604051806080016040529081600082018054612f2890613df1565b80601f0160208091040260200160405190810160405280929190818152602001828054612f5490613df1565b8015612fa15780601f10612f7657610100808354040283529160200191612fa1565b820191906000526020600020905b815481529060010190602001808311612f8457829003601f168201915b50505050508152602001600182018054612fba90613df1565b80601f0160208091040260200160405190810160405280929190818152602001828054612fe690613df1565b80156130335780601f1061300857610100808354040283529160200191613033565b820191906000526020600020905b81548152906001019060200180831161301657829003601f168201915b5050505050815260200160028201805461304c90613df1565b80601f016020809104026020016040519081016040528092919081815260200182805461307890613df1565b80156130c55780601f1061309a576101008083540402835291602001916130c5565b820191906000526020600020905b8154815290600101906020018083116130a857829003601f168201915b505050505081526020016003820160009054906101000a900460ff1660ff1660ff1681525050905080600001518160200151826040015183606001519850985098509850505050505092959194509250565b6000600780549050905090565b6000600680549050905090565b6000807fffffffffffffffffffffffffffffffffffffffffffffffffffffffffffffffff90508273__StringLib_____________________________633a96fdd790916040518263ffffffff1660e01b81526004016131909190614b92565b602060405180830381865af41580156131ad573d6000803e3d6000fd5b505050506040513d601f19601f820116820180604052508101906131d191906144ab565b156132825760005b60068054905081101561327c578473ffffffffffffffffffffffffffffffffffffffff1660068281548110613211576132106141ce565b5b906000526020600020906006020160000160010160019054906101000a900473ffffffffffffffffffffffffffffffffffffffff1673ffffffffffffffffffffffffffffffffffffffff16036132695780915061327c565b808061327490614507565b9150506131d9565b506133aa565b8273__StringLib_____________________________633a96fdd790916040518263ffffffff1660e01b81526004016132bb9190614c13565b602060405180830381865af41580156132d8573d6000803e3d6000fd5b505050506040513d601f19601f820116820180604052508101906132fc91906144ab565b156133a95760005b6007805490508110156133a7578473ffffffffffffffffffffffffffffffffffffffff166007828154811061333c5761333b6141ce565b5b906000526020600020906005020160000160010160019054906101000a900473ffffffffffffffffffffffffffffffffffffffff1673ffffffffffffffffffffffffffffffffffffffff1603613394578091506133a7565b808061339f90614507565b915050613304565b505b5b8091505092915050565b5080546133c090613df1565b6000825580601f106133d257506133f1565b601f0160209004906000526020600020908101906133f091906133f4565b5b50565b5b8082111561340d5760008160009055506001016133f5565b5090565b6000604051905090565b600080fd5b600080fd5b600080fd5b600080fd5b6000601f19601f8301169050919050565b7f4e487b7100000000000000000000000000000000000000000000000000000000600052604160045260246000fd5b6134788261342f565b810181811067ffffffffffffffff8211171561349757613496613440565b5b80604052505050565b60006134aa613411565b90506134b6828261346f565b919050565b600067ffffffffffffffff8211156134d6576134d5613440565b5b6134df8261342f565b9050602081019050919050565b82818337600083830152505050565b600061350e613509846134bb565b6134a0565b90508281526020810184848401111561352a5761352961342a565b5b6135358482856134ec565b509392505050565b600082601f83011261355257613551613425565b5b81356135628482602086016134fb565b91505092915050565b6000602082840312156135815761358061341b565b5b600082013567ffffffffffffffff81111561359f5761359e613420565b5b6135ab8482850161353d565b91505092915050565b6000819050919050565b6135c7816135b4565b81146135d257600080fd5b50565b6000813590506135e4816135be565b92915050565b600060208284031215613600576135ff61341b565b5b600061360e848285016135d5565b91505092915050565b600081519050919050565b600082825260208201905092915050565b60005b83811015613651578082015181840152602081019050613636565b60008484015250505050565b600061366882613617565b6136728185613622565b9350613682818560208601613633565b61368b8161342f565b840191505092915050565b600060408201905081810360008301526136b0818561365d565b905081810360208301526136c4818461365d565b90509392505050565b7f4e487b7100000000000000000000000000000000000000000000000000000000600052602160045260246000fd5b6003811061370d5761370c6136cd565b5b50565b600081905061371e826136fc565b919050565b600061372e82613710565b9050919050565b61373e81613723565b82525050565b6000606082019050818103600083015261375e818661365d565b905061376d6020830185613735565b818103604083015261377f818461365d565b9050949350505050565b600060ff82169050919050565b61379f81613789565b81146137aa57600080fd5b50565b6000813590506137bc81613796565b92915050565b600080600080608085870312156137dc576137db61341b565b5b600085013567ffffffffffffffff8111156137fa576137f9613420565b5b6138068782880161353d565b945050602085013567ffffffffffffffff81111561382757613826613420565b5b6138338782880161353d565b935050604085013567ffffffffffffffff81111561385457613853613420565b5b6138608782880161353d565b9250506060613871878288016137ad565b91505092959194509250565b613886816135b4565b82525050565b60006020820190506138a1600083018461387d565b92915050565b600080604083850312156138be576138bd61341b565b5b600083013567ffffffffffffffff8111156138dc576138db613420565b5b6138e88582860161353d565b925050602083013567ffffffffffffffff81111561390957613908613420565b5b6139158582860161353d565b9150509250929050565b600073ffffffffffffffffffffffffffffffffffffffff82169050919050565b600061394a8261391f565b9050919050565b61395a8161393f565b811461396557600080fd5b50565b60008135905061397781613951565b92915050565b6000602082840312156139935761399261341b565b5b60006139a184828501613968565b91505092915050565b600080604083850312156139c1576139c061341b565b5b60006139cf858286016135d5565b92505060206139e0858286016135d5565b9150509250929050565b60008060408385031215613a0157613a0061341b565b5b600083013567ffffffffffffffff811115613a1f57613a1e613420565b5b613a2b8582860161353d565b9250506020613a3c858286016135d5565b9150509250929050565b60038110613a5357600080fd5b50565b600081359050613a6581613a46565b92915050565b60008060408385031215613a8257613a8161341b565b5b6000613a9085828601613a56565b925050602083013567ffffffffffffffff811115613ab157613ab0613420565b5b613abd8582860161353d565b9150509250929050565b613ad08161393f565b82525050565b613adf81613789565b82525050565b60038110613af657613af56136cd565b5b50565b6000819050613b0782613ae5565b919050565b6000613b1782613af9565b9050919050565b613b2781613b0c565b82525050565b600060c0820190508181036000830152613b47818961365d565b9050613b566020830188613ac7565b613b636040830187613ad6565b613b706060830186613b1e565b8181036080830152613b82818561365d565b905081810360a0830152613b96818461365d565b9050979650505050505050565b60006080820190508181036000830152613bbd818761365d565b90508181036020830152613bd1818661365d565b9050613be0604083018561387d565b613bed606083018461387d565b95945050505050565b60038110613c0357600080fd5b50565b600081359050613c1581613bf6565b92915050565b60008115159050919050565b613c3081613c1b565b8114613c3b57600080fd5b50565b600081359050613c4d81613c27565b92915050565b60008060008060808587031215613c6d57613c6c61341b565b5b6000613c7b87828801613968565b945050602085013567ffffffffffffffff811115613c9c57613c9b613420565b5b613ca88782880161353d565b9350506040613cb987828801613c06565b9250506060613cca87828801613c3e565b91505092959194509250565b60006080820190508181036000830152613cf0818761365d565b90508181036020830152613d04818661365d565b90508181036040830152613d18818561365d565b9050613d276060830184613ad6565b95945050505050565b7f5065726d697373696f6e2064656e6965642c20706c656173652075736520686f60008201527f7374206163636f756e7400000000000000000000000000000000000000000000602082015250565b6000613d8c602a83613622565b9150613d9782613d30565b604082019050919050565b60006020820190508181036000830152613dbb81613d7f565b9050919050565b7f4e487b7100000000000000000000000000000000000000000000000000000000600052602260045260246000fd5b60006002820490506001821680613e0957607f821691505b602082108103613e1c57613e1b613dc2565b5b50919050565b60008190508160005260206000209050919050565b60006020601f8301049050919050565b600082821b905092915050565b600060088302613e847fffffffffffffffffffffffffffffffffffffffffffffffffffffffffffffffff82613e47565b613e8e8683613e47565b95508019841693508086168417925050509392505050565b6000819050919050565b6000613ecb613ec6613ec1846135b4565b613ea6565b6135b4565b9050919050565b6000819050919050565b613ee583613eb0565b613ef9613ef182613ed2565b848454613e54565b825550505050565b600090565b613f0e613f01565b613f19818484613edc565b505050565b5b81811015613f3d57613f32600082613f06565b600181019050613f1f565b5050565b601f821115613f8257613f5381613e22565b613f5c84613e37565b81016020851015613f6b578190505b613f7f613f7785613e37565b830182613f1e565b50505b505050565b600082821c905092915050565b6000613fa560001984600802613f87565b1980831691505092915050565b6000613fbe8383613f94565b9150826002028217905092915050565b613fd782613617565b67ffffffffffffffff811115613ff057613fef613440565b5b613ffa8254613df1565b614005828285613f41565b600060209050601f8311600181146140385760008415614026578287015190505b6140308582613fb2565b865550614098565b601f19841661404686613e22565b60005b8281101561406e57848901518255600182019150602085019450602081019050614049565b8683101561408b5784890151614087601f891682613f94565b8355505b6001600288020188555050505b505050505050565b600b81106140b1576140b06136cd565b5b50565b60008190506140c2826140a0565b919050565b60006140d2826140b4565b9050919050565b6140e2816140c7565b82525050565b7f536574204175746f62696f677261706879000000000000000000000000000000600082015250565b600061411e601183613622565b9150614129826140e8565b602082019050919050565b600060408201905061414960008301846140d9565b818103602083015261415a81614111565b905092915050565b7f4f7574206f662072616e67650000000000000000000000000000000000000000600082015250565b6000614198600c83613622565b91506141a382614162565b602082019050919050565b600060208201905081810360008301526141c78161418b565b9050919050565b7f4e487b7100000000000000000000000000000000000000000000000000000000600052603260045260246000fd5b7f5065726d697373696f6e2064656e6965642c20706c656173652075736520736360008201527f686f6f6c206163636f756e740000000000000000000000000000000000000000602082015250565b6000614259602c83613622565b9150614264826141fd565b604082019050919050565b600060208201905081810360008301526142888161424c565b9050919050565b7f53657420436f7572736500000000000000000000000000000000000000000000600082015250565b60006142c5600a83613622565b91506142d08261428f565b602082019050919050565b60006040820190506142f060008301846140d9565b8181036020830152614301816142b8565b905092915050565b7f5065726d697373696f6e2064656e6965642c20706c656173652075736520636f60008201527f6d70616e79206163636f756e7400000000000000000000000000000000000000602082015250565b6000614365602d83613622565b915061437082614309565b604082019050919050565b6000602082019050818103600083015261439481614358565b9050919050565b7f536574204a6f62456e6444617465000000000000000000000000000000000000600082015250565b60006143d1600e83613622565b91506143dc8261439b565b602082019050919050565b60006040820190506143fc60008301846140d9565b818103602083015261440d816143c4565b905092915050565b600082825260208201905092915050565b600061443182613617565b61443b8185614415565b935061444b818560208601613633565b6144548161342f565b840191505092915050565b600060408201905081810360008301526144798185614426565b9050818103602083015261448d8184614426565b90509392505050565b6000815190506144a581613c27565b92915050565b6000602082840312156144c1576144c061341b565b5b60006144cf84828501614496565b91505092915050565b7f4e487b7100000000000000000000000000000000000000000000000000000000600052601160045260246000fd5b6000614512826135b4565b91507fffffffffffffffffffffffffffffffffffffffffffffffffffffffffffffffff8203614544576145436144d8565b5b600182019050919050565b600061455a826135b4565b9150614565836135b4565b925082820390508181111561457d5761457c6144d8565b5b92915050565b600061458e826135b4565b9150614599836135b4565b92508282019050808211156145b1576145b06144d8565b5b92915050565b6000815490506145c681613df1565b9050919050565b8181036145db5750506146b3565b6145e4826145b7565b67ffffffffffffffff8111156145fd576145fc613440565b5b6146078254613df1565b614612828285613f41565b6000601f831160018114614641576000841561462f578287015490505b6146398582613fb2565b8655506146ac565b601f19841661464f87613e22565b965061465a86613e22565b60005b828110156146825784890154825560018201915060018501945060208101905061465d565b8683101561469f578489015461469b601f891682613f94565b8355505b6001600288020188555050505b5050505050505b565b7f4e487b7100000000000000000000000000000000000000000000000000000000600052603160045260246000fd5b7f52656d6f766520536b696c6c0000000000000000000000000000000000000000600082015250565b600061471a600c83613622565b9150614725826146e4565b602082019050919050565b600060408201905061474560008301846140d9565b81810360208301526147568161470d565b905092915050565b7f5065726d697373696f6e2064656e6965642c20706c656173652075736520676f60008201527f7665726e6d656e74206163636f756e7400000000000000000000000000000000602082015250565b60006147ba603083613622565b91506147c58261475e565b604082019050919050565b600060208201905081810360008301526147e9816147ad565b9050919050565b7f52656d6f7665205065726d697373696f6e000000000000000000000000000000600082015250565b6000614826601183613622565b9150614831826147f0565b602082019050919050565b600060408201905061485160008301846140d9565b818103602083015261486281614819565b905092915050565b7f536574204c6963656e7365000000000000000000000000000000000000000000600082015250565b60006148a0600b83613622565b91506148ab8261486a565b602082019050919050565b60006040820190506148cb60008301846140d9565b81810360208301526148dc81614893565b905092915050565b7f536574204a6f6220457870657269656e63650000000000000000000000000000600082015250565b600061491a601283613622565b9150614925826148e4565b602082019050919050565b600060408201905061494560008301846140d9565b81810360208301526149568161490d565b905092915050565b7f53657420456475636174696f6e00000000000000000000000000000000000000600082015250565b6000614994600d83613622565b915061499f8261495e565b602082019050919050565b60006040820190506149bf60008301846140d9565b81810360208301526149d081614987565b905092915050565b7f53657420536b696c6c0000000000000000000000000000000000000000000000600082015250565b6000614a0e600983613622565b9150614a19826149d8565b602082019050919050565b6000604082019050614a3960008301846140d9565b8181036020830152614a4a81614a01565b905092915050565b7f53657420436f6e74616374000000000000000000000000000000000000000000600082015250565b6000614a88600b83613622565b9150614a9382614a52565b602082019050919050565b6000604082019050614ab360008301846140d9565b8181036020830152614ac481614a7b565b905092915050565b7f536574205065726d697373696f6e000000000000000000000000000000000000600082015250565b6000614b02600e83613622565b9150614b0d82614acc565b602082019050919050565b6000604082019050614b2d60008301846140d9565b8181036020830152614b3e81614af5565b905092915050565b7f656475636174696f6e0000000000000000000000000000000000000000000000600082015250565b6000614b7c600983614415565b9150614b8782614b46565b602082019050919050565b60006040820190508181036000830152614bac8184614426565b90508181036020830152614bbf81614b6f565b905092915050565b7f657870657269656e636500000000000000000000000000000000000000000000600082015250565b6000614bfd600a83614415565b9150614c0882614bc7565b602082019050919050565b60006040820190508181036000830152614c2d8184614426565b90508181036020830152614c4081614bf0565b90509291505056fea2646970667358221220bd95c302f662a3ecd2c729f2798822db025e10488d22aae5a8e02d01dc54da2d64736f6c63430008110033",
  "immutableReferences": {},
  "source": "//SPDX-License-Indentifier: MIT\npragma solidity ^0.8.17;\n\nimport {Resume_base} from \"./Resume_base.sol\";\nimport \"./String_lib.sol\";\n\ncontract Resume is Resume_base{\n\n//Resume_base\n    constructor(string memory name, address account, uint8 age, Gender gender) Resume_base(name, account, age, gender){}\n\n//to count the number of each element\n    function get_education_experience_count()public view returns(uint){\n        return education_experience.length;\n    }\n\n    function get_job_experience_count()public view returns(uint){\n        return job_experience.length;\n    }\n\n    function get_skill_count()public view returns(uint){\n        return skills.length;\n    }\n\n    function get_course_count(uint index)public view index_valid(index, get_education_experience_count())returns(uint){\n        return education_experience[index].courses.length;\n    }\n\n    function get_license_count(uint index)public view index_valid(index, get_education_experience_count())returns(uint){\n        return education_experience[index].licenses.length;\n    }\n\n//to get the information inside each element\n    function get_education_experience(uint index)public view index_valid(index, get_education_experience_count())returns(string memory, education_status, string memory){\n        education memory edu = education_experience[index];\n        return(edu.school.name, edu.status, edu.major);\n    }\n\n    function get_job_experience(uint index)public view index_valid(index, get_job_experience_count())returns(string memory, string memory, uint, uint){\n        job memory work = job_experience[index];\n        return(work.company.name, work.position, work.start_date, work.end_date);\n    }\n\n    function get_skill(uint index)public view index_valid(index, get_skill_count())returns(string memory, string memory){\n        skill memory talent = skills[index];\n        return(talent.class, talent.name);\n    }\n\n    function get_course(uint eduindex, uint index)public view index_valid(eduindex, get_education_experience_count()) index_valid(index, get_course_count(eduindex)) returns(string memory, string memory, string memory, uint8){\n        Course memory course = education_experience[eduindex].courses[index];\n        return(course.name, course.content, course.comment, course.grade);\n    }\n\n    function get_license(uint eduindex, uint index)public view index_valid(eduindex, get_education_experience_count()) index_valid(index, get_license_count(eduindex)) returns(string memory, string memory){\n        License memory license = education_experience[eduindex].licenses[index];\n        return(license.name, license.content);\n    }\n\n//functions for setting everything\n    function set_permission(address account, string memory name, Organization_type property, bool permission)public only_gov{\n        organizations[account] = Organization({\n            name: name,\n            property: property,\n            account: account,\n            permission: permission\n        });\n        emit done(done_code.set_permission, \"Set Permission\");\n    }\n\n    function set_job_experience(string memory position, uint start_date)public only_company{\n        job memory work = job({\n            company: organizations[msg.sender],\n            position: position,\n            start_date: start_date,\n            end_date: 0\n        });\n        job_experience.push(work);\n        emit done(done_code.set_experience, \"Set Job Experience\");\n    }\n\n    function set_job_end_date(uint end_date)public only_company{\n        uint index = uint(find_organization(msg.sender, \"experience\"));\n        job_experience[index].end_date = end_date;\n        emit done(done_code.set_job_end_date, \"Set JobEndDate\");\n    }\n\n    function set_education(education_status status, string memory major)public only_school{\n        education_experience.push();\n        education storage edu = education_experience[education_experience.length - 1];\n        Course memory course = Course({name: \"\", content: \"\", comment: \"\", grade:0});\n        License memory license = License({name: \"\", content: \"\"});\n        edu.school = organizations[msg.sender];\n        edu.status = status;\n        edu.major = major;\n        edu.courses.push(course);\n        edu.licenses.push(license);\n        emit done(done_code.set_education, \"Set Education\");\n    }\n\n    function set_license(string memory name, string memory content)public only_school{\n        uint index = uint(find_organization(msg.sender, \"education\"));\n        education storage edu = education_experience[index];\n        edu.licenses.push(License({name: name, content: content}));\n        emit done(done_code.set_license, \"Set License\");\n    }\n\n    function set_course(string memory name, string memory content, string memory comment, uint8 grade)public only_school{\n        uint index = uint(find_organization(msg.sender, \"education\"));\n        education storage edu = education_experience[index];\n        edu.courses.push(Course({name: name, content: content, comment: comment, grade: grade}));\n        emit done(done_code.set_course, \"Set Course\");\n    }\n\n    function set_autobiography(string memory text)public only_host{\n        profile.autobiography = text;\n        emit done(done_code.set_autobiography, \"Set Autobiography\");\n    }\n\n    function set_skill(string memory class, string memory name)public only_host{\n        skills.push(skill({class: class, name: name}));\n        emit done(done_code.set_skill, \"Set Skill\");\n    }\n\n    function set_contact(string memory contact)public only_host{\n        profile.contact = contact;\n        emit done(done_code.set_contact, \"Set Contact\");\n    }\n\n    function remove_permission(address account)public only_gov{\n        Organization storage org = organizations[account];\n        org.permission = false;\n        emit done(done_code.remove_permission, \"Remove Permission\");\n    }\n\n    using StringLib for string;\n    function remove_skill(string memory class, string memory name)public only_host{\n        uint index=0;\n        for(uint i=0; i<skills.length ; i++){\n            if(skills[i].name.compare(name) && skills[i].class.compare(class)){\n                index = i;\n                break;\n            }\n        }\n        for(uint i=index ; i<skills.length-1 ; i++){\n            skills[i] = skills[i+1];\n        }\n        delete skills[skills.length-1];\n        skills.pop();\n        emit done(done_code.remove_skill, \"Remove Skill\");\n    }\n}\n\n",
  "sourcePath": "/home/well1314/block_chain/contracts/Resume.sol",
  "compiler": {
    "name": "solc",
    "version": "0.8.17+commit.8df45f5f.Emscripten.clang"
  },
  "schemaVersion": "3.4.11",
  "updatedAt": "2023-01-31T15:59:08.916Z",
  "devdoc": {
    "kind": "dev",
    "methods": {},
    "version": 1
  },
  "userdoc": {
    "kind": "user",
    "methods": {},
    "version": 1
  }
}