{
  "contractName": "Staff",
  "abi": [
    {
      "inputs": [
        {
          "internalType": "string",
          "name": "name",
          "type": "string"
        },
        {
          "internalType": "uint256",
          "name": "quantity",
          "type": "uint256"
        }
      ],
      "name": "sell",
      "outputs": [],
      "stateMutability": "nonpayable",
      "type": "function"
    },
    {
      "inputs": [
        {
          "internalType": "string",
          "name": "name",
          "type": "string"
        },
        {
          "internalType": "uint256",
          "name": "quantity",
          "type": "uint256"
        }
      ],
      "name": "purchase",
      "outputs": [],
      "stateMutability": "nonpayable",
      "type": "function"
    },
    {
      "inputs": [],
      "name": "show_stocks",
      "outputs": [
        {
          "internalType": "uint256",
          "name": "",
          "type": "uint256"
        },
        {
          "internalType": "uint256",
          "name": "",
          "type": "uint256"
        },
        {
          "internalType": "uint256",
          "name": "",
          "type": "uint256"
        }
      ],
      "stateMutability": "view",
      "type": "function"
    }
  ],
  "bytecode": "0x608060405234801561001057600080fd5b5060405180606001604052806064815260200160648152602001606481525060008082015181600001556020820151816001015560408201518160020155905050610864806100606000396000f3fe608060405234801561001057600080fd5b50600436106100415760003560e01c80639f65632114610046578063aa38e38c14610062578063f8588c4d1461007e575b600080fd5b610060600480360381019061005b9190610623565b61009e565b005b61007c60048036038101906100779190610623565b6100ac565b005b6100866100ba565b6040516100959392919061068e565b60405180910390f35b6100a882826100db565b5050565b6100b682826102f1565b5050565b60008060008060000154600060010154600060020154925092509250909192565b600082805190602001209050600060405180606001604052806040518060400160405280600581526020017f63616e64790000000000000000000000000000000000000000000000000000008152508051906020012081526020016040518060400160405280600681526020017f636f6f6b696500000000000000000000000000000000000000000000000000008152508051906020012081526020016040518060400160405280600581526020017f6272656164000000000000000000000000000000000000000000000000000000815250805190602001208152509050806000600381106101ce576101cd6106c5565b5b6020020151821480156101e5575082600080015410155b1561020a57826000800160008282546101fe9190610723565b925050819055506102eb565b8060016003811061021e5761021d6106c5565b5b60200201518214801561023657508260006001015410155b1561025c5782600060010160008282546102509190610723565b925050819055506102ea565b806002600381106102705761026f6106c5565b5b60200201518214801561028857508260006002015410155b156102ae5782600060020160008282546102a29190610723565b925050819055506102e9565b6040517f08c379a00000000000000000000000000000000000000000000000000000000081526004016102e0906107da565b60405180910390fd5b5b5b50505050565b600082805190602001209050600060405180606001604052806040518060400160405280600581526020017f63616e64790000000000000000000000000000000000000000000000000000008152508051906020012081526020016040518060400160405280600681526020017f636f6f6b696500000000000000000000000000000000000000000000000000008152508051906020012081526020016040518060400160405280600581526020017f6272656164000000000000000000000000000000000000000000000000000000815250805190602001208152509050806000600381106103e4576103e36106c5565b5b6020020151820361040f578260008001600082825461040391906107fa565b9250508190555061048d565b80600160038110610423576104226106c5565b5b6020020151820361044f57826000600101600082825461044391906107fa565b9250508190555061048c565b80600260038110610463576104626106c5565b5b6020020151820361048b57826000600201600082825461048391906107fa565b925050819055505b5b5b50505050565b6000604051905090565b600080fd5b600080fd5b600080fd5b600080fd5b6000601f19601f8301169050919050565b7f4e487b7100000000000000000000000000000000000000000000000000000000600052604160045260246000fd5b6104fa826104b1565b810181811067ffffffffffffffff82111715610519576105186104c2565b5b80604052505050565b600061052c610493565b905061053882826104f1565b919050565b600067ffffffffffffffff821115610558576105576104c2565b5b610561826104b1565b9050602081019050919050565b82818337600083830152505050565b600061059061058b8461053d565b610522565b9050828152602081018484840111156105ac576105ab6104ac565b5b6105b784828561056e565b509392505050565b600082601f8301126105d4576105d36104a7565b5b81356105e484826020860161057d565b91505092915050565b6000819050919050565b610600816105ed565b811461060b57600080fd5b50565b60008135905061061d816105f7565b92915050565b6000806040838503121561063a5761063961049d565b5b600083013567ffffffffffffffff811115610658576106576104a2565b5b610664858286016105bf565b92505060206106758582860161060e565b9150509250929050565b610688816105ed565b82525050565b60006060820190506106a3600083018661067f565b6106b0602083018561067f565b6106bd604083018461067f565b949350505050565b7f4e487b7100000000000000000000000000000000000000000000000000000000600052603260045260246000fd5b7f4e487b7100000000000000000000000000000000000000000000000000000000600052601160045260246000fd5b600061072e826105ed565b9150610739836105ed565b9250828203905081811115610751576107506106f4565b5b92915050565b600082825260208201905092915050565b7f53746f636b20697320756e646566696e6564206f72206973206e6f7420656e6f60008201527f7567682e00000000000000000000000000000000000000000000000000000000602082015250565b60006107c4602483610757565b91506107cf82610768565b604082019050919050565b600060208201905081810360008301526107f3816107b7565b9050919050565b6000610805826105ed565b9150610810836105ed565b9250828201905080821115610828576108276106f4565b5b9291505056fea2646970667358221220ddb83cb664bbc6377e6053a5a6341177593f5917f49f3a468e8769ec20b8be3264736f6c63430008110033",
  "immutableReferences": {},
  "source": "//SPDX-License-Inetifier: MIT\npragma solidity ^0.8.17;\n\nimport \"./Store_example.sol\";\n\ncontract Staff is Store {\n    \n    function sell(string memory name, uint quantity) public{\n        reduce(name, quantity);\n    }\n\n    function purchase(string memory name, uint quantity) public{\n        raise(name, quantity);\n    }\n\n    function show_stocks() external view returns(uint, uint, uint){\n        return(stock.candy, stock.cookie, stock.bread);\n    }\n}",
  "sourcePath": "/home/well1314/block_chain/contracts/Staff_example.sol",
  "compiler": {
    "name": "solc",
    "version": "0.8.17+commit.8df45f5f.Emscripten.clang"
  },
  "schemaVersion": "3.4.11",
  "updatedAt": "2023-01-24T07:42:28.342Z",
  "devdoc": {
    "kind": "dev",
    "methods": {},
    "version": 1
  },
  "userdoc": {
    "kind": "user",
    "methods": {},
    "version": 1
  }
}