{
  "contractName": "Str",
  "abi": [
    {
      "inputs": [
        {
          "internalType": "string",
          "name": "s",
          "type": "string"
        },
        {
          "internalType": "string",
          "name": "t",
          "type": "string"
        }
      ],
      "name": "strCompare",
      "outputs": [
        {
          "internalType": "bool",
          "name": "",
          "type": "bool"
        }
      ],
      "stateMutability": "pure",
      "type": "function"
    }
  ],
  "bytecode": "0x608060405234801561001057600080fd5b50610431806100206000396000f3fe608060405234801561001057600080fd5b506004361061002b5760003560e01c8063e864165214610030575b600080fd5b61004a6004803603810190610045919061023e565b610060565b60405161005791906102d1565b60405180910390f35b600073__StringLib_____________________________633a96fdd784846040518363ffffffff1660e01b815260040161009b92919061036b565b602060405180830381865af41580156100b8573d6000803e3d6000fd5b505050506040513d601f19601f820116820180604052508101906100dc91906103ce565b905092915050565b6000604051905090565b600080fd5b600080fd5b600080fd5b600080fd5b6000601f19601f8301169050919050565b7f4e487b7100000000000000000000000000000000000000000000000000000000600052604160045260246000fd5b61014b82610102565b810181811067ffffffffffffffff8211171561016a57610169610113565b5b80604052505050565b600061017d6100e4565b90506101898282610142565b919050565b600067ffffffffffffffff8211156101a9576101a8610113565b5b6101b282610102565b9050602081019050919050565b82818337600083830152505050565b60006101e16101dc8461018e565b610173565b9050828152602081018484840111156101fd576101fc6100fd565b5b6102088482856101bf565b509392505050565b600082601f830112610225576102246100f8565b5b81356102358482602086016101ce565b91505092915050565b60008060408385031215610255576102546100ee565b5b600083013567ffffffffffffffff811115610273576102726100f3565b5b61027f85828601610210565b925050602083013567ffffffffffffffff8111156102a05761029f6100f3565b5b6102ac85828601610210565b9150509250929050565b60008115159050919050565b6102cb816102b6565b82525050565b60006020820190506102e660008301846102c2565b92915050565b600081519050919050565b600082825260208201905092915050565b60005b8381101561032657808201518184015260208101905061030b565b60008484015250505050565b600061033d826102ec565b61034781856102f7565b9350610357818560208601610308565b61036081610102565b840191505092915050565b600060408201905081810360008301526103858185610332565b905081810360208301526103998184610332565b90509392505050565b6103ab816102b6565b81146103b657600080fd5b50565b6000815190506103c8816103a2565b92915050565b6000602082840312156103e4576103e36100ee565b5b60006103f2848285016103b9565b9150509291505056fea26469706673582212208a435f559c528291ece1a668b5a57bb60b1fe31298b70507457f88f99385147864736f6c63430008110033",
  "immutableReferences": {},
  "source": "//SPDX-License-Indetifier: MIT\npragma solidity ^0.8.17;\n\nimport \"./String_lib.sol\";\n\ncontract Str {\n  function strCompare(string memory s, string memory t) public pure returns (bool) {\n    return StringLib.compare(s, t);\n  }\n}",
  "sourcePath": "/home/well1314/block_chain/contracts/String_lib_test.sol",
  "compiler": {
    "name": "solc",
    "version": "0.8.17+commit.8df45f5f.Emscripten.clang"
  },
  "schemaVersion": "3.4.11",
  "updatedAt": "2023-01-30T07:17:14.531Z",
  "devdoc": {
    "kind": "dev",
    "methods": {},
    "version": 1
  },
  "userdoc": {
    "kind": "user",
    "methods": {},
    "version": 1
  }
}