{
  "contractName": "StringLib",
  "abi": [
    {
      "inputs": [
        {
          "internalType": "string",
          "name": "str1",
          "type": "string"
        },
        {
          "internalType": "string",
          "name": "str2",
          "type": "string"
        }
      ],
      "name": "compare",
      "outputs": [
        {
          "internalType": "bool",
          "name": "",
          "type": "bool"
        }
      ],
      "stateMutability": "pure",
      "type": "function",
      "constant": true
    }
  ],
  "bytecode": "0x6102cf610053600b82828239805160001a607314610046577f4e487b7100000000000000000000000000000000000000000000000000000000600052600060045260246000fd5b30600052607381538281f3fe73000000000000000000000000000000000000000030146080604052600436106100355760003560e01c80633a96fdd71461003a575b600080fd5b610054600480360381019061004f91906101eb565b61006a565b604051610061919061027e565b60405180910390f35b60008083905060008390508080519060200120828051906020012014159250505092915050565b6000604051905090565b600080fd5b600080fd5b600080fd5b600080fd5b6000601f19601f8301169050919050565b7f4e487b7100000000000000000000000000000000000000000000000000000000600052604160045260246000fd5b6100f8826100af565b810181811067ffffffffffffffff82111715610117576101166100c0565b5b80604052505050565b600061012a610091565b905061013682826100ef565b919050565b600067ffffffffffffffff821115610156576101556100c0565b5b61015f826100af565b9050602081019050919050565b82818337600083830152505050565b600061018e6101898461013b565b610120565b9050828152602081018484840111156101aa576101a96100aa565b5b6101b584828561016c565b509392505050565b600082601f8301126101d2576101d16100a5565b5b81356101e284826020860161017b565b91505092915050565b600080604083850312156102025761020161009b565b5b600083013567ffffffffffffffff8111156102205761021f6100a0565b5b61022c858286016101bd565b925050602083013567ffffffffffffffff81111561024d5761024c6100a0565b5b610259858286016101bd565b9150509250929050565b60008115159050919050565b61027881610263565b82525050565b6000602082019050610293600083018461026f565b9291505056fea2646970667358221220d4054b418e06f689e349079f3e3fc2b4c4aecfe4dd6e36c5cff055d5179b554264736f6c63430008110033",
  "immutableReferences": {},
  "source": "//SPDX-License-Indentifier: MIT\npragma solidity ^0.8.17;\n\nlibrary StringLib {\n  function compare(string memory str1, string memory str2) public pure returns (bool) {\n    bytes memory str1_bytes = bytes(str1);\n    bytes memory str2_bytes = bytes(str2);\n    return keccak256(str1_bytes) != keccak256(str2_bytes);\n  }\n}",
  "sourcePath": "/home/well1314/block_chain/contracts/String_lib.sol",
  "compiler": {
    "name": "solc",
    "version": "0.8.17+commit.8df45f5f.Emscripten.clang"
  },
  "schemaVersion": "3.4.11",
  "updatedAt": "2023-01-30T10:30:13.692Z",
  "networkType": "ethereum",
  "devdoc": {
    "kind": "dev",
    "methods": {},
    "version": 1
  },
  "userdoc": {
    "kind": "user",
    "methods": {},
    "version": 1
  }
}